:020000040202F6
:10B0000000000000A1BC0202B1BC0202B1BC0202FD
:10B01000B1BC0202B1BC0202B1BC020200000000DD
:10B02000000000000000000000000000B1BC0202AF
:10B03000B1BC020200000000B1BC0202B1BC0202BD
:10B04000B1BC0202B1BC0202B1BC0202B1BC02023C
:10B05000B1BC0202B1BC0202B1BC0202B1BC02022C
:10B06000B1BC0202B1BC0202B1BC0202B1BC02021C
:10B07000B1BC0202B1BC0202B1BC0202B1BC02020C
:10B08000B1BC0202B1BC0202B1BC0202B1BC0202FC
:10B09000B1BC0202B1BC0202B1BC0202B1BC0202EC
:10B0A000B1BC0202B1BC0202B1BC0202B1BC0202DC
:10B0B000B1BC0202B1BC0202B1BC0202B1BC0202CC
:10B0C000B1BC0202B1BC0202B1BC0202B1BC0202BC
:10B0D000B1BC0202B1BC0202B1BC0202B1BC0202AC
:10B0E000B1BC0202B1BC0202B1BC0202B1BC02029C
:10B0F000B1BC0202B1BC0202B1BC0202B1BC02028C
:10B10000B1BC0202B1BC0202B1BC0202B1BC02027B
:10B11000B1BC0202B1BC0202B1BC0202B1BC02026B
:10B12000DFF80CD000F0E2FD00480047CBBC020283
:10B130006461002080B582B000F074F845F2705070
:10B14000C2F2000003F0FCFB45F29C60C2F200007A
:10B1500000F0F4FB8DF8070045F24951C2F20001FE
:10B16000087801300870012003F094FA45F60830A1
:10B17000C2F20000007801282CD1FFE745F27050A0
:10B18000C2F200000078C0B9FFE79DF8071045F251
:10B190009C60C2F2000090F901214FF47A7004F033
:10B1A00015F845F24150C2F20000007845F24951CD
:10B1B000C2F2000100F018FB0BE045F24850C2F269
:10B1C0000000007845F24951C2F2000103F090FE00
:10B1D000FFE7FFE702B080BD80B500F037F802203E
:10B1E00003F058FA80BD000080B582B04EF60450DE
:10B1F000CEF2000000686FF35F200190019942F2E7
:10B200000000C0F2002050F821000090019800F0EA
:10B2100029FD08B1FFE702E000988047FFE702B090
:10B2200080BD00005C21C4F21101086840F4807008
:10B2300008600020704700BF5C21C4F2110108685B
:10B2400040F0040008600020704700BF5C21C4F299
:10B250001101086840F0020008600020704700BF3C
:10B2600080B50C2002F046F80021C4F211010868F4
:10B2700040F0010008605021C4F21101086840F458
:10B280008050086040F20041C4F2110108681722A2
:10B2900062F31740086040F20442C4F211021068E1
:10B2A000012363F3020010605C22C4F211021068F3
:10B2B00040F480501060086840F002000860FFE72A
:10B2C0005820C4F211000068000BC00708B9FFE75E
:10B2D000F6E75C21C4F21101086840F48050086070
:10B2E0000C2002F023F880BD81B0ADF80200ADF86B
:10B2F0000010BDF8002040F20C41C4F211010868B2
:10B30000C0EA02400860BDF8022040F20841C4F2E1
:10B310001101086862F307000860086840F40070D3
:10B320000860FFE740F20840C4F211000068400ADC
:10B33000C00708B1FFE7F5E701B0704780B588B0F6
:10B340000790FFF78DFF079840898000013081B298
:10B350002220FFF7C9FF0021C4F211010291086801
:10B3600040F0010008600798427B086802F0010283
:10B3700020F0100040EA0210086008680E2262F314
:10B38000194008605022C4F211020392106840F480
:10B39000807010600798037E106803F0010320F0AE
:10B3A000040040EA830010600798437E106803F0B1
:10B3B000010320F0020040EA43001060106840F4EE
:10B3C0000050106040F20442C4F2110210680123E0
:10B3D00063F302001060086840F004000860782100
:10B3E000C4F2110108680F2262F30F0008600868B8
:10B3F000C0F20F00086040F21C41C4F2110108685D
:10B40000932262F3070008600798007A50B9FFE7BB
:10B4100040F21C41C4F211010868642262F3133047
:10B4200008600FE00798007A01280AD1FFE740F290
:10B430001C41C4F2110108686E2262F313300860E7
:10B44000FFE7FFE746F2E800C2F20000006846F2BC
:10B45000E002C2F2000200921168486046F2E40184
:10B46000C2F20001086840F0004013689860079835
:10B4700040681368D86007980069136818610798D6
:10B48000807B00F03F0000021368586113684FF0A2
:10B49000FF3098610798007B00061F301368D86161
:10B4A000079843694FF0011040EA4300136818629F
:10B4B0001368002001905862D2F800C00023CFF634
:10B4C000FF73CCF828301368D862136818631368C8
:10B4D0005863136898631368D86313681864136813
:10B4E0005864136898641368D864136818651368FF
:10B4F0005865136898651368D865136818661268EC
:10B500005066096805918DF81B00FFE79DF81B0048
:10B5100000282BDCFFE7059800F2171020F003004D
:10B520000430049005989DF81B1045F29053C2F228
:10B5300000034FF4867211FB0231C1F80401049834
:10B54000059908600599002048600599886005996B
:10B55000C860059908610599486104980590FFE75E
:10B560009DF81B0001308DF81B00CFE708B080BDAF
:10B5700080B586B00590049100208DF80F000598E5
:10B58000007A8DF80E000598007878B9FFE79DF8ED
:10B590000E0000F0030040EA800000F1006046F277
:10B5A000E001C2F200010968086017E00598007820
:10B5B000012812D1FFE79DF80E0000F0030040EAD9
:10B5C000800040F20011C0F60041084346F2E0015D
:10B5D000C2F2000109680860FFE7FFE746F2E800F1
:10B5E000C2F200000068029005980078012814D18A
:10B5F000FFE70298103001900198029908609DF8C9
:10B600000F0000F003000006103002994860029914
:10B610000020886001980290FFE702980499496829
:10B6200008440C3020F00300043001900298049983
:10B6300008610198029908600498007940019DF81A
:10B640000F1001F0030140EA016000F5005002997B
:10B650004860029900200090886002980C3004999C
:10B660004A68896800F085FB00980199029146F2CA
:10B67000E401C2F2000109680291029901F2171176
:10B6800021F0030104310191029948600198029070
:10B6900006B080BD85B00490039102920193049896
:10B6A00001990968884206D2FFE701990868049A5F
:10B6B000801A086033E004980199096888422DD304
:10B6C000FFE7039800680090039A11680498019BB3
:10B6D0001B68C31A41F25970CDF2B710A3FB00C327
:10B6E00001EB532101311160049A01990B68D21AC0
:10B6F000A2FB0030400A40F271235843801A00F246
:10B7000071200860039800680099884205D2FFE71D
:10B710000299087801300870FFE7FFE7FFE705B0FE
:10B72000704700BF80B584B040F23831C4F21101D7
:10B73000086840F001000860FFE740F23830C4F2CA
:10B7400011000068C00708B1FFE7F6E740F23030AB
:10B75000C4F2110000688DF80B0040F22C30C4F2E6
:10B7600011000068039040F23430C4F21100006808
:10B770006FF39F20019046F2E000C2F200000090BB
:10B78000026840F20C11C4F21101086862F3110062
:10B790000860B42003A90DF10B0201ABFFF77AFF9B
:10B7A0000099039840F20412C4F2110210609DF84F
:10B7B0000B3040F20812C4F21102106820F0FF00B2
:10B7C00018441060019A40F27120801A0004096840
:10B7D000486240F20011C4F21101086840F0010013
:10B7E000086004B080BD00BF80B582B08DF806004F
:10B7F000009145F60730C2F20000007820B9FFE75B
:10B8000001208DF807003DE045F62830C2F2000027
:10B810000078012804D1FFE704208DF8070031E00B
:10B8200045F62830C2F200000078022804D1FFE774
:10B8300005208DF8070025E0FFE745F62831C2F224
:10B840000001012008709DF80600B0F5807F04DB40
:10B85000FFE7FF208DF80600FFE79DF8060045F2A0
:10B86000A071C2F2000148600098886045F27450EF
:10B87000C2F20000FFF77CFEFFF754FF00208DF8B6
:10B880000700FFE79DF8070002B080BD80B5C2B099
:10B890000821C4F20001086820F00200086045F2A7
:10B8A000A071C2F200010120087000208DF807018C
:10B8B000FFE79DF8070145F2A071C2F20001097887
:10B8C000884218DAFFE79DF8070145F2A071C2F23D
:10B8D0000001043101EB00120DF1070050609DF8EA
:10B8E00007010201FF208850FFE79DF807010130A2
:10B8F0008DF80701DDE700208DF80701FFE79DF8CF
:10B9000007011F280CDCFFE79DF807010DF1070177
:10B910000854FFE79DF8070101308DF80701EEE7B5
:10B9200045F27450C2F20000FFF708FD45F62831D9
:10B93000C2F200010020087042B080BD80B582B024
:10B94000019000208DF80300FF218DF802108DF882
:10B950000300FFE79DF80300002875DCFFE79DF872
:10B96000030045F29052C2F200024FF4867110FBC0
:10B970000120D0F804014068400BC00700283ED0E9
:10B98000FFE79DF8030045F29052C2F200024FF427
:10B99000867110FB0120D0F80401806880B240F26B
:10B9A000012188422BD1FFE79DF8030045F2905317
:10B9B000C2F200034FF4867210FB0230D0F804018B
:10B9C00040684009019908709DF8030010FB02309F
:10B9D000D0F804014068800D019981F801010198B7
:10B9E0009DF8031011FB0231D1F80411183110F841
:10B9F000012B00F0BEF900208DF802001DE045F299
:10BA00009050C2F20000D0F80401806840088DF820
:10BA100001009DF80100022804D1FFE702208DF803
:10BA2000020009E09DF80100042804D1FFE703208B
:10BA30008DF80200FFE7FFE7FFE7FFE79DF803004F
:10BA400001308DF8030085E79DF8020002B080BD4B
:10BA500080B582B04FF0FF3001905420C4F2110045
:10BA60000068000AC007F8B1FFE740F20C11C4F209
:10BA7000110108686FF31100086045F62831C2F221
:10BA800000010020087045F61830C2F2000040683E
:10BA900038B1FFE745F61830C2F200004068804731
:10BAA000FFE700200190FFE75420C4F21100006876
:10BAB0008008C00788B1FFE745F61830C2F20000E1
:10BAC000006838B1FFE745F61830C2F200000068A0
:10BAD0008047FFE700200190FFE75420C4F21100E7
:10BAE00000684008C00788B1FFE745F61830C2F289
:10BAF0000000806838B1FFE745F61830C2F2000058
:10BB000080688047FFE700200190FFE75420C4F2DF
:10BB1000110000684009C00790B1FFE745F61830F2
:10BB2000C2F20000C06838B1FFE745F61830C2F233
:10BB30000000C0688047FFE74FF0FF300190FFE74B
:10BB4000019802B080BD00BF81B02821C4F200017D
:10BB5000086820F0007008600421C4F21101086830
:10BB600040F01000086000200090FFE700984F2888
:10BB700006DCFFE700BFFFE7009801300090F5E723
:10BB80002821C4F20001086840F00070086001B08C
:10BB9000704700BF45F60730C2F2000000787047DA
:10BBA00081B0009040F2A811C4F21001086820F49E
:10BBB0008070086042F21002C4F21002106820F493
:10BBC00080501060009842F20402C4F21002136820
:10BBD000106040F22C12C4F21002106840F0800095
:10BBE000106040F21832C4F211021068012363F3AE
:10BBF0001B401060086840F48070086040F2043117
:10BC0000C4F21101086840F00100086001B07047FB
:10BC10000821C4F20001086820F002000860FFE774
:10BC20004420C4F200000068C00BC00708B9FFE759
:10BC3000F6E72821C4F20001086840F4802008607B
:10BC4000FFE75420C4F2110000684009C00708B99A
:10BC5000FFE7F6E75C21C4F21101086840F020001C
:10BC60000860704780B582B0009045F60730C2F298
:10BC70000000007801280DD1FFE700981C2808D1AA
:10BC8000FFE7FFF7E5FE18B9FFE70120019004E0A8
:10BC9000FFE7FFE700200190FFE7019802B080BDB9
:10BCA00002B5EFF3088181F309880B4800470000D3
:10BCB0000A4801686FF35F210F2903DC084850F838
:10BCC0002100004708460749084707488047EFF327
:10BCD000098181F3088802BDEDBC020204ED00E099
:10BCE00000200002E9B1020295D40202064C074D81
:10BCF00006E0E06840F0010394E80700984710343C
:10BD0000AC42F6D3FFF710FA001003022010030232
:10BD10002DE9F05F0546002092469B468846064680
:10BD2000814640241BE0284641464746224600F013
:10BD3000B2F953465A46C01A914110D311461846DB
:10BD4000224600F099F92D1A67EB01084F4622466A
:10BD50000120002100F090F917EB00094E41201E50
:10BD6000A4F10104DFDC484631462A464346BDE8DB
:10BD7000F09F40EA01039B0703D009E008C9121FA6
:10BD800008C0042AFAD203E011F8013B00F8013B95
:10BD9000521EF9D27047421C10F8011B0029FBD13A
:10BDA000801A704730B504460020034600E05B1C53
:10BDB000934203D2E05CCD5C401BF8D030BD03461B
:10BDC00011F8012B00F8012B002AF9D11846704711
:10BDD0002DE9F0410E460546002400E0641C285D74
:10BDE00000F07BF90746305D00F077F9381A02D190
:10BDF000295D0029F2D1BDE8F0812DE9FE4F804692
:10BE000081EA0300C00F0C46009021F0004123F0AE
:10BE10000045B8EB0200A94105D2404621469046B4
:10BE20001C460B46024623F00040104347D0270D26
:10BE3000C7F30A00C3F30A510290401A0190402848
:10BE40006BDAC3F3130040F4801B0098924620B1D4
:10BE50000023D2EB030A63EB0B0B01985946C0F1A8
:10BE60004002504600F008F906460D465046594635
:10BE7000019A00F020F910EB08006141002487EAE4
:10BE8000115284EAE7731A4340D0009A62B3019AD0
:10BE9000012A4FEA075215DC001B61EB02014FF04B
:10BEA000004202EA0752CDE90042001C41F5801130
:10BEB00032462B4600F026F903B0BDE8F08F40462D
:10BEC0002146F9E7001B61EB0201001C41F58013DC
:10BED00000185B412018A2F5001747EB030140EA68
:10BEE000D570B6196D4111E06D084FEA360645EA86
:10BEF000C0754FEA0752001B61EB0201001C41F5BF
:10BF0000801149084FEA30000019514132462B4652
:10BF100003B0BDE8F04F00F0E6B800980122400001
:10BF20000023D0EB020263EBE073009821464FEA56
:10BF3000E074B8EB000061EB0401E9E783F0004333
:10BF40005BE781F0004158E72DE9F04D81EA0304F9
:10BF500004F0004B21F0004514464FF0000A23F096
:10BF6000004150EA050220D054EA01021DD0C5F379
:10BF70000A570246C5F31303C1F31300C1F30A566F
:10BF800040F4801543F48013A7EB0608101BD64637
:10BF900008F2FD3873EB050002D308F1010801E057
:10BFA00092185B41B8F1000F03DA00200146BDE8AA
:10BFB000F08D00204FF48011064684460EE0171BDA
:10BFC00073EB050705D3121B63EB050306434CEA2D
:10BFD000010C49084FEA300092185B4150EA010712
:10BFE000EDD152EA030012D082EA040083EA05018F
:10BFF000084305D0101BAB4106D20122002306E006
:10C0000000224FF0004302E06FF0010253101AEBE0
:10C0100006004CEB085110EB0A0041EB0B01BDE8A8
:10C02000F04D00F060B800F0004230F000400AD05F
:10C03000C10D01F56071C0F3160042EA0151C2085A
:10C0400040071143704700200146704730B50B464A
:10C05000014600202022012409E021FA02F59D4238
:10C0600005D303FA02F5491B04FA02F52844151E0C
:10C07000A2F10102F1DC30BD202A04DB203A00FAF3
:10C0800002F1002070479140C2F1200320FA03F32F
:10C09000194390407047202A04DB203A21FA02F02D
:10C0A0000021704721FA02F3D040C2F120029140F2
:10C0B000084319467047202A06DBCB17203A41FA7D
:10C0C00002F043EAE07306E041FA02F3D040C2F125
:10C0D00020029140084319467047A0F141011929F7
:10C0E00000D82030704710B5141E73F1000408DA30
:10C0F000401C41F1000192185B411A4301D120F02C
:10C10000010010BD2DE9F04D92469B4611B1B1FAE8
:10C1100081F202E0B0FA80F220329046FFF7ACFFE5
:10C1200004460F4640EA0A0041EA0B0153465A46CC
:10C13000084313D0114653EA010019D0C8F1400258
:10C140005046FFF7A8FF05460E4650465946424660
:10C15000FFF792FF084305D0012004E0204639464E
:10C16000BDE8F08D0020054346EAE0762C433743D6
:10C170000A986305E40AA0EB08000022FD0A44EADD
:10C1800047540A3002D500200146E9E7010510199D
:10C190006941DDE9084500196941BDE8F04DA2E7B4
:10C1A0002DE9FE4F81EA030404F0004421F0004130
:10C1B00000944FF0000B23F0004350EA01045ED0DE
:10C1C00052EA03045BD0C3F30A54C1F30A552C446A
:10C1D000A4F2F3340194A0FB0254C1F3130141F41F
:10C1E0008011C3F3130343F4801301FB024400FBEB
:10C1F000034E840A970A44EA815447EA8357A4FB12
:10C20000076802958D0A05FB07854FEA932C04FB0E
:10C210000C542705029D4FEA065847EA1637B5EB3E
:10C2200008056EEB070C870E920E47EA811742EA6B
:10C230008312A7FB0201B6EB0B0164EB00042B0D8C
:10C2400043EA0C335E1844EB1C50DA465146E7FBD8
:10C250000201C5F313044FEA0B3343EA14534FEAC8
:10C260000432019C43EA0603A4F10C040294009CEE
:10C27000CDE900B4FFF746FF03B0BDE8F08F002022
:10C280000146F9E7C1F30A52C1F3130140F2FF334B
:10C2900041F480119A4202DA00200146704740F2D0
:10C2A00033439A42A2F2334202DC5242FFF7F3BE1A
:10C2B000FFF7E2BE30B5041E71F1000404DB4FF05D
:10C2C0000044404264EB0101141E73F1000405DBDD
:10C2D0001C464FF00043524263EB0403994208BFEF
:10C2E000904230BD45F26401C4F201014FF0FF30CD
:10C2F000086046F26401C4F2010108607047000062
:10C3000080B588B08DF81F008DF81E108DF81D20A7
:10C310009DF81F1045F20000C4F201001429C4BFAB
:10C3200046F20000C4F2010006909DF81F00152897
:10C3300005DBFFE79DF81F001538019003E09DF82D
:10C340001F000190FFE7019805909DF81E009DF8E1
:10C350001D1002F0CDFE8DF813009DF8130040B9BA
:10C36000FFE7069850309DF81410002200F000F905
:10C3700029E00598C11700EB5170C0100390059893
:10C3800000F00700800002900299072000FA01F2F5
:10C390000698039900EB8101486D904348659DF82C
:10C3A0001300029900FA01F20698039900EB81014B
:10C3B000486D10434865069850309DF814100122CE
:10C3C00000F0D6F8FFE708B080BD000082B08DF81D
:10C3D00007008DF806108DF805209DF805109DF8D2
:10C3E000060040EAC17000909DF80700C00738B110
:10C3F000FFE7009845F27401C4F201010860FFE70D
:10C400009DF807008007002807D5FFE7009846F24F
:10C410007401C4F201010860FFE702B07047000038
:10C4200080B584B08DF80F008DF80E109DF80F10B8
:10C4300045F20000C4F201001429C4BF46F2000016
:10C44000C4F2010002909DF80F00152805DBFFE7FC
:10C450009DF80F001538009003E09DF80F00009044
:10C46000FFE700980190029870309DF804109DF845
:10C470000E2000F07DF804B080BD000080B582B0D1
:10C480008DF807009DF8072042F21000C4F210005A
:10C49000072100F06DF8FFE740F20010C4F2100031
:10C4A0000068C0F3C0409DF80710884201D0FFE744
:10C4B000F2E702B080BD000080B586B08DF81700AD
:10C4C0009DF8170048B3FFE740F2A810C4F210002F
:10C4D0000E21012200F04CF8FFE70A200490FFE74C
:10C4E0000498411E049110B1FFE700BFF8E7FFE791
:10C4F00040F2A810C4F210000F21012200F038F819
:10C50000FFE70A200390FFE70398411E039110B153
:10C51000FFE700BFF8E7FFE728E040F2A810C4F209
:10C5200010000F21002200F023F8FFE70A200290FC
:10C53000FFE70298411E029110B1FFE700BFF8E744
:10C54000FFE740F2A810C4F210000E21002200F014
:10C550000FF8FFE70A200190FFE70198411E0191C3
:10C5600010B1FFE700BFF8E7FFE7FFE706B080BDC7
:10C5700083B002908DF807108DF806209DF8071003
:10C5800001208840009002980068009988439DF837
:10C5900006109DF80720914008430299086003B0F7
:10C5A0007047000080B586B08DF817008DF8161022
:10C5B0009DF8171045F20000C4F201001429C4BF11
:10C5C00046F20000C4F2010004909DF817001528FF
:10C5D00005DBFFE79DF817001538029003E09DF892
:10C5E00017000290FFE7029803909DF816000328B9
:10C5F00017D0FFE7049828309DF80C109DF81620FE
:10C60000002A18BF0122FFF7B3FF049834309DF8C9
:10C610000C109DF81620B2FA82F25209FFF7A8FF1B
:10C620000FE0049828309DF80C1000220192FFF7CB
:10C630009FFF019A049834309DF80C10FFF798FF83
:10C64000FFE706B080BD000084B08DF80F008DF8C4
:10C650000E109DF80F1045F20000C4F201001429DD
:10C66000C4BF46F20000C4F2010002909DF80F0022
:10C67000152805DBFFE79DF80F001538009003E053
:10C680009DF80F000090FFE7009801909DF80E00C4
:10C6900048B1FFE70199012000FA01F20299086B05
:10C6A0001043086308E00199012000FA01F20299A1
:10C6B000C86A1043C862FFE704B0704780B582B013
:10C6C0000821C4F20001086820F0020008600C2173
:10C6D000C4F20001086840F0040008601421C4F2AC
:10C6E0000001086840F0010008600C20019000F093
:10C6F000E9FD019800F01AFE02B080BD81B0ADF8EE
:10C700000200BDF8022040F20841C4F2110108689D
:10C7100062F307000860086840F480700860FFE773
:10C7200040F20840C4F211000068000AC00708B1D6
:10C73000FFE7F5E740F20C40C4F21100006880B258
:10C7400001B0704786B08DF817008DF816109DF86F
:10C7500017000490049900201F29C8BF01200390EE
:10C76000049800F01F01012088400290039946F2CE
:10C770008000C4F2000000EB81000190039946F2B2
:10C780008800C4F2000000EB810000909DF81600C4
:10C7900030B9FFE7029A019908689043086016E0F3
:10C7A0009DF81600012806D1FFE7029A0099086853
:10C7B0001043086005E0029A0099086890430860F9
:10C7C000FFE7029A0199086810430860FFE700201C
:10C7D00006B0704780B584B08DF80B008DF80A1054
:10C7E0009DF80B009DF80A1002F0B0FE0190019830
:10C7F000B0F1FF3F03DCFFE701980390BAE09DF83A
:10C800000B00112812DCFFE79DF80B2046F2000018
:10C81000C4F20000104320F00300019902F003026B
:10C82000C2EBC203072202F0B9FDA0E09DF80B00A5
:10C83000142810DCFFE701999DF80B206FF015001C
:10C8400000EB4200C3B246F21000C4F20000022224
:10C8500002F0A4FD8AE09DF80B0015280AD1FFE73D
:10C86000019946F21000C4F200000722142302F0DE
:10C8700095FD7AE09DF80B0016280AD1FFE7019993
:10C8800046F21400C4F200000722002302F086FDE5
:10C890006AE09DF80B001E2810DCFFE701999DF867
:10C8A0000B206FF0260000EB4200C3B246F21400EA
:10C8B000C4F20000022202F071FD54E09DF80B006A
:10C8C0001F280AD1FFE7019946F21400C4F20000C4
:10C8D0000722172302F062FD44E09DF80B00202898
:10C8E0000AD1FFE7019946F21400C4F200000222C7
:10C8F0001E2302F053FD34E09DF80B0021280AD1DD
:10C90000FFE7019946F21800C4F20000022200235A
:10C9100002F044FD24E09DF80B0023280FDCFFE724
:10C9200001999DF80B00C0EBC000EC38C3B246F291
:10C930001800C4F20000072202F030FD0FE0019958
:10C940009DF80B206FF0370000EB4200C3B246F2B7
:10C950001800C4F20000022202F020FDFFE7FFE70A
:10C96000FFE7FFE7FFE7FFE7FFE7FFE7FFE700205D
:10C970000390FFE7039804B080BD000080B588B045
:10C98000ADF81C000691059245F60730C2F2000092
:10C99000007820B9FFE701208DF81F0062E045F61E
:10C9A0002830C2F200000078012804D1FFE70420FB
:10C9B0008DF81F0056E045F62830C2F200000078DE
:10C9C000022804D1FFE705208DF81F004AE0FFE7A9
:10C9D000BDF81C008000013081B22220FEF784FCEB
:10C9E000692041F69B11FEF77FFC142041F2930170
:10C9F000FEF77AFCF4F7F2FE01910090009901989D
:10CA000045F24452C2F200021268891840F1000057
:10CA100002910390FFE7009B0199029A0398D21AB2
:10CA2000884105D3FFE7F4F7D9FE01910090F2E7C2
:10CA30001720FFF763FEADF81200142041F2130136
:10CA4000FEF752FCBDF812006FF3DF200699088054
:10CA5000BDF81200C0F3C2200599088000208DF8AF
:10CA60001F00FFE79DF81F0008B080BD80B5FEF7EE
:10CA7000E3FB012001F00EFE80BD000080B582B016
:10CA80000190019800EB400145F2B470C2F2000041
:10CA900000EBC100183000F045FB02B080BD000083
:10CAA00080B500F0F1FA80BD80B586B005900491A4
:10CAB0000392FFE745F2B470C2F20000007818B9A3
:10CAC000FFE700F0E1FAFFE7FFE7EFF311804FF037
:10CAD000200181F31188019005980499039A00F0D0
:10CAE00007F80290019880F31188029806B080BD83
:10CAF00080B58AB009900891079208980490099827
:10CB000000EB400145F2B470C2F2000000EBC1003E
:10CB10001830039003984069029040B1FFE70298F3
:10CB2000012819D0FFE7029802282CD032E00398A0
:10CB300000F0F8FA059005980799884203D2FFE7BC
:10CB40000020069007E00798069003980499079A3A
:10CB500000F078FBFFE720E0039800F0E3FA05908F
:10CB600005980799884203D2FFE70598019002E0F3
:10CB700007980190FFE70198069003980499069A98
:10CB800000F060FB09E003980499079A00F0EAFAC4
:10CB9000069002E000200690FFE706980AB080BDEC
:10CBA00080B582B08DF807009DF80700012100F0E4
:10CBB00025F802B080BD000080B582B00190002051
:10CBC0008DF80300FFE79DF80300182813DCFFE74A
:10CBD00001989DF80310C840C00728B1FFE79DF8F1
:10CBE0000300FFF7DDFFFFE7FFE79DF803000130DB
:10CBF0008DF80300E7E702B080BD000080B586B085
:10CC00008DF817008DF816109DF817000146049155
:10CC1000182800F2B3810499DFE811F019002A0006
:10CC20003B004C005D006E007F009000A100B20050
:10CC3000CA00E300F4000D011E012F014001510163
:10CC400062016B0174017D0186019701A7019DF8C6
:10CC500016100C20C4F20000152202F085FB9DF88E
:10CC600016101420C4F20000122202F07DFB86E1AF
:10CC70009DF816100C20C4F20000162202F074FB7E
:10CC80009DF816101420C4F20000122202F06CFB72
:10CC900075E19DF816100C20C4F20000022202F08B
:10CCA00063FB9DF816101420C4F20000002202F06D
:10CCB0005BFB64E19DF816100C20C4F20000032217
:10CCC00002F052FB9DF816101420C4F2000001225D
:10CCD00002F04AFB53E19DF816100C20C4F200004C
:10CCE000042202F041FB9DF816101420C4F200004B
:10CCF000022202F039FB42E19DF816100C20C4F22A
:10CD00000000012202F030FB9DF816101420C4F23E
:10CD10000000112202F028FB31E19DF816100C20D2
:10CD2000C4F20000052202F01FFB9DF8161014202B
:10CD3000C4F200000A2202F017FB20E19DF8161051
:10CD40000C20C4F20000082202F00EFB9DF8161021
:10CD50001420C4F20000092202F006FB0FE19DF846
:10CD600016100C20C4F20000092202F0FDFA9DF812
:10CD700016105420C4F200000C2202F0F5FAFEE076
:10CD80009DF816100C20C4F200000A2202F0ECFA02
:10CD90009DF816101420C4F200000390132202F034
:10CDA000E3FA03989DF81610142202F0DDFAE6E08B
:10CDB0009DF816100C20C4F200000B22019202F024
:10CDC000D3FA019A9DF816101420C4F200000290C4
:10CDD00002F0CAFA02989DF81610102202F0C4FA66
:10CDE000CDE09DF816100C20C4F200000C2202F0D9
:10CDF000BBFA9DF816100820C4F20000002202F0D1
:10CE0000B3FABCE09DF816100820C4F200000C2212
:10CE100002F0AAFA9DF816100C20C4F200000D22B0
:10CE200002F0A2FA9DF816101420C4F200000622A7
:10CE300002F09AFAA3E09DF816100C20C4F200004C
:10CE40000E2202F091FA9DF816101420C4F2000090
:10CE5000072202F089FA92E09DF816100C20C4F225
:10CE600000000F2202F080FA9DF816101420C4F280
:10CE700000000C2202F078FA81E09DF816100C20D8
:10CE8000C4F20000102202F06FFA9DF81610142070
:10CE9000C4F20000082202F067FA70E09DF8161054
:10CEA0000C20C4F20000112202F05EFA9DF8161068
:10CEB0001420C4F20000042202F056FA5FE09DF84C
:10CEC00016100C20C4F20000122202F04DFA9DF858
:10CED00016101420C4F20000052202F045FA4EE0BC
:10CEE0009DF816100C20C4F20000132202F03CFA48
:10CEF00045E09DF816100C20C4F20000142202F048
:10CF000033FA3CE09DF816100C20C4F20000002219
:10CF100002F02AFA33E09DF816100C20C4F200004B
:10CF2000062202F021FA2AE09DF816100C20C4F225
:10CF30000000172202F018FA9DF816101420C4F20F
:10CF400000000E2202F010FA19E09DF81610802061
:10CF5000C4F200000090052202F006FA00989DF845
:10CF60001610072202F000FA09E09DF816100C20B6
:10CF7000C4F20000192202F0F7F900E0FFE706B062
:10CF800080BD000080B584B001F00EFB01900198D7
:10CF900018B9FFE70120039056E00198017842F2AA
:10CFA0000800C4F210000722042302F019FA00203E
:10CFB0000290FFE702980F2819D8FFE7019802991D
:10CFC00000EB4100808840F2A64188420ADBFFE77F
:10CFD000029942F20000C4F2100004221C2302F065
:10CFE000FFF904E0FFE7029801300290E2E70298BF
:10CFF000102803D3FFE70220039025E001200290D0
:10D00000FFE702980F2815D8FFE70198029900EB77
:10D010004100808C40F29D41884206DBFFE7029888
:10D020000138C0B200F014F804E0FFE702980130C4
:10D030000290E6E70298102803D3FFE7032003904D
:10D0400002E000200390FFE7039804B080BD0000D9
:10D0500080B582B08DF807009DF8070000F00F0141
:10D0600042F20000C4F210000422012302F0B8F9D9
:10D0700002B080BD82B001908DF803109DF80300CE
:10D080000199086002B0704780B582B045F2B47073
:10D09000C2F20000019001990120086101994861E4
:10D0A000019840F6DD71C0F203218161019A45F6D5
:10D0B0000C00C2F20000D061019A4FF4FA701062C5
:10D0C000019A00209062019A5062019AD062019AFE
:10D0D0001163019A45F2FC71C2F200015163019A99
:10D0E00010219163019908640199C863019948640A
:10D0F0000198073040F6D971C0F20321FEF75FFEB8
:10D10000BFF35F8F019840F6D271C0F20321FEF7A2
:10D1100056FEBFF35F8F019920208871BFF35F8FA8
:10D1200002B080BD84B00390039800690290039818
:10D13000C068019002980199884209D8FFE70398D6
:10D1400080680199401A029908440138009005E06E
:10D1500002990198C04308440090FFE7009804B08A
:10D160007047000080B58AB00990089107920020AE
:10D1700005900998C0680390FFE70998006904903A
:10D1800004980399884206D9FFE704990398C0439D
:10D190000844069008E0099881680398049A801A68
:10D1A000C04308440690FFE7069809998968039AE6
:10D1B000891A884203D2FFE70698029005E0099891
:10D1C00080680399401A0290FFE70298069006983B
:10D1D0000799884203D2FFE70698019002E007987A
:10D1E0000190FFE701980690099840680399084468
:10D1F0000899069AFEF7BDFD069905980844059022
:10D20000069908980844089006990798401A0790CC
:10D2100006990398084403900398099989688842FD
:10D2200003D1FFE700200390FFE7BFF35F8F039870
:10D230000999C860FFE7079800289ED1FFE7059885
:10D240000AB080BD80B586B0059004910392059820
:10D25000C0680190059880680199401A0090009874
:10D260000399884210D9FFE705984068019908445E
:10D270000499039AFEF77DFDBFF35F8F0198039930
:10D2800008440599C8601BE0009802900598406822
:10D29000019908440499029AFEF76BFD03980099DE
:10D2A000401A0290059840680499009A1144029A25
:10D2B000FEF75FFDBFF35F8F02980599C860FFE737
:10D2C00006B080BD81B08DF803009DF903000028F1
:10D2D0000ED4FFE79DF9031001F01F0201209040DA
:10D2E0004A094EF28021CEF2000141F82200FFE708
:10D2F00001B0704781B08DF803009DF9030000284C
:10D3000012D4FFE79DF9031001F01F0201209040A5
:10D310004A094EF28011CEF2000141F82200BFF31B
:10D320004F8FBFF36F8FFFE701B0704781B08DF86B
:10D3300003009DF9030000280ED4FFE79DF90310B8
:10D3400001F01F02012090404A094EF20011CEF276
:10D35000000141F82200FFE701B0704786B0059058
:10D36000049103920498C0000399B0FBF1F002907D
:10D370000298C009019001990298A0EBC110029097
:10D380000298013040080090019805994862BDF864
:10D39000060018B9FFE7019810B9FFE7FFE7FEE7BD
:10D3A00001984FF6FF71884204D1FFE705990020EC
:10D3B000886207E001990298401A02900098059946
:10D3C0008862FFE70598C06A0599C86206B0704791
:10D3D00081B0009000988069C0F3001001B07047E0
:10D3E00081B0009000988069C0F3401001B0704790
:10D3F00081B000900098C06B01B0704780B584B0D8
:10D4000003900291019203990020086303994864F4
:10D410000399886303994860039948620399886275
:10D420000399C8620398029AD1681269FFF796FFC0
:10D43000029890F800C041788378C278802000EA92
:10D44000411040EA4C1040EA031040EAC20001F0EB
:10D45000030140EA41000399C8620298B0F809004C
:10D46000000400BA039948630198039988630299FC
:10D47000087991F805C08B79CA79400240EA0C20FE
:10D48000184440EAC230097A40EA813003990863BF
:10D4900004B080BD80B582B001F06CF840F29C20F1
:10D4A000C0F20320F4F766FA01F0EEFFFFF76AFD21
:10D4B00046F25C10C2F2000002F098F8022000214F
:10D4C0000191F4F791F8019A4EF28161C0F20221C4
:10D4D0000120F4F755FA019A4FF2B961C0F2022126
:10D4E0000C20F4F74DFA01F063FA02F0C5F801F0F0
:10D4F00089F9019802B080BD80B584B00390029193
:10D50000ADF8062003984088BDF806100844B0F531
:10D51000327F04D9FFE7039900204880FFE7039892
:10D520004088BDF806100844B0F5327F10D8FFE7F8
:10D5300003984188084404300299BDF80620FEF79C
:10D5400018FCBDF806200399488810444880FFE77E
:10D5500004B080BD80B584B084460698ADF80EC096
:10D56000ADF80C10ADF80A200193ADF802000020D0
:10D5700004B080BD80B583B084460698DDF814E021
:10D58000ADF80AC0ADF80810ADF80620ADF80430CB
:10D59000ADF80200002003B080BD000080B584B06B
:10D5A0008DF80F009DF80F0098B1FFE70120029061
:10D5B00000F0F4F8029940F29622C0F203220846E5
:10D5C000DAF782F9029845F26441C2F20001C870AC
:10D5D0000FE040F29622C0F20322002001210191C7
:10D5E000DAF772F9019845F26441C2F2000108715C
:10D5F000FFE704B080BD000080B540F60C30C0F2FB
:10D60000032040F68E31C0F20321F4F723F945F2EE
:10D610006440C2F20000007948B1FFE745F264417E
:10D62000C2F200010020087100F022F8FFE745F285
:10D630006440C2F20000C07848B1FFE745F264419F
:10D64000C2F200010020C87000F002F8FFE780BDC0
:10D6500080B540F60C30C0F2032040F67531C0F2C0
:10D660000321F4F7F7F8012000F098F880BD0000DE
:10D6700080B540F60C30C0F2032040F65D31C0F2B8
:10D680000321F4F7E7F8012000F074F800F0A0F8A7
:10D6900080BD000080B582B0ADF8060040F60C30C9
:10D6A000C0F2032040F6AB31C0F20321F4F7D2F808
:10D6B00045F26440C2F20000807918B1FFE700F043
:10D6C00003F8FFE702B080BD80B582B045F2644048
:10D6D000C2F2000000884FF6FF7188420CD0FFE7CD
:10D6E00045F26440C2F2000001900088D9F7BAFD0B
:10D6F000019901204871FFE702B080BD80B540F676
:10D700000C30C0F2032040F6BF31C0F20321F4F721
:10D71000A1F845F26440C2F20000407948B1FFE749
:10D7200045F26441C2F200010020487100F050F857
:10D7300003E00120FFF732FFFFE780BD80B540F630
:10D740000C30C0F2032040F6D631C0F20321F4F7CA
:10D7500081F845F26440C2F20000C07948B1FFE7A9
:10D7600045F26441C2F200010020C87101F06CFC76
:10D77000FFE780BD81B08DF803009DF8032045F2DE
:10D780006441C2F2000188789043887001B070470C
:10D7900045F26440C2F200008078704781B08DF895
:10D7A00003009DF8030038B9FFE745F26441C2F277
:10D7B00000010020887009E09DF8032045F26441D3
:10D7C000C2F20001887810438870FFE701B070470B
:10D7D00080B582B045F26440C2F2000000908279C8
:10D7E00040F6F520C0F2032040F62931C0F20321B3
:10D7F000F4F730F80098807960B1FFE745F26441B2
:10D80000C2F200010020887100F0D8FF01208DF8DD
:10D81000070003E000208DF80700FFE79DF80700F0
:10D8200002B080BD80B582B0FEF7B4F98DF8070074
:10D830009DF80700012807D1FFE740F61730C0F236
:10D840000320F4F707F832E0FFF7A2FF024640F6A4
:10D850001030C0F2032040F64231C0F20321F3F74A
:10D86000F9FFFFF795FF18B9FFE700F0A7FF1EE0EB
:10D8700045F26441C2F2000101208871FFF788FF80
:10D88000C00720B1FFE70020FFF788FEFFE7FFF7A2
:10D890007FFF8007002803D5FFE7FFF715FFFFE7AD
:10D8A000FFF776FF4007002801D5FFE7FFE702B04A
:10D8B00080BD000080B582B00DF1070001F05CF87A
:10D8C00090B9FFE79DF8070048B9FFE740F6A2408E
:10D8D000C0F20320F3F7BEFF00F08EFF03E000204C
:10D8E00001F01EF8FFE706E040F68F40C0F203208B
:10D8F000F3F7B0FFFFE702B080BD000081B00090F9
:10D900000098807801B0704780B582B00190009196
:10D9100001980168426840F6BA20C0F20320F3F78C
:10D9200099FFFFE7FEE7000070B588B00790069109
:10D93000DDF81CC0CDF814C0DCF81810DCF8142099
:10D94000DCF81C30DCF80000DCF804E0DCF808400F
:10D95000DCF80C50DCF81060EC46CCF81060CCF829
:10D960000C50CCF80840CCF804E0CCF8000040F6AD
:10D970004220C0F20320F3F76DFFFFE7FEE700004F
:10D9800080B582B001900091019940F6AE20C0F2BE
:10D990000320F3F75FFFFFE7FEE7000080B582B0EA
:10D9A00001900091FFE741F20000C4F20100FFF78F
:10D9B00017FD012801D1FFE7F5E70198017841F251
:10D9C0000000C4F20100FFF755FB002002B080BD4B
:10D9D00080B586B0059004914EF60450CEF200005A
:10D9E00000686FF35F20B0FA80F040098DF80B00FB
:10D9F0009DF80B0028B1FFE7F3F7CAFE406B8047A4
:10DA0000FFE70020FFF73AF8039005990889498954
:10DA10000844039988420EDAFFE7059801680289F5
:10DA200000200190FFF740F80198059A516852894B
:10DA3000FFF73AF8FFE79DF80B0028B1FFE7F3F78F
:10DA4000A7FE806B8047FFE7002006B080BD000086
:10DA500080B582B0019045F26C40C2F200000068CF
:10DA600001F088F88DF803009DF80300012807D124
:10DA7000FFE740F6DC50C0F20320F3F7EBFE19E0BD
:10DA800045F26C40C2F2000001689DF8032040F6A8
:10DA9000A750C0F20320F3F7DDFE9DF8030040B964
:10DAA000FFE745F26C41C2F20001086810300860DF
:10DAB000FFE7FFE702B080BD80B582B0019045F27C
:10DAC0007040C2F20000008801F090F88DF8030069
:10DAD0009DF80300012807D1FFE740F6DC50C0F2B3
:10DAE0000320F3F7B7FE19E045F27040C2F20000E0
:10DAF00001889DF8032040F67250C0F20320F3F72E
:10DB0000A9FE9DF8030040B9FFE745F27041C2F25B
:10DB10000001088805300880FFE7FFE702B080BDFC
:10DB200080B582B00190FDF77DFB8DF803009DF874
:10DB30000300012807D1FFE740F6DC50C0F20320C4
:10DB4000F3F788FE08E09DF8031040F61F50C0F27E
:10DB50000320F3F77FFEFFE702B080BD80B584B0FD
:10DB600003900DF10B0000F007FF8DF80A009DF8FF
:10DB70000A00012807D1FFE740F6F050C0F2032069
:10DB8000F3F768FE29E09DF80B000146019140B1D2
:10DB9000FFE7019801280BD0FFE7019802280ED07B
:10DBA00014E040F6B140C0F20320F3F753FE14E056
:10DBB00040F6DB40C0F20320F3F74CFE0DE040F6E8
:10DBC000C740C0F20320F3F745FE06E040F60460CC
:10DBD000C0F20320F3F73EFEFFE704B080BD000073
:10DBE00080B584B003900DF10A0000F0A9FE8DF815
:10DBF0000B009DF80B00012807D1FFE740F6F0501D
:10DC0000C0F20320F3F726FE1EE09DF80A0001464D
:10DC1000019120B1FFE70198012807D00DE040F6FF
:10DC20003060C0F20320F3F715FE0DE040F61D60F2
:10DC3000C0F20320F3F70EFE06E040F6BF50C0F23C
:10DC40000320F3F707FEFFE704B080BD80B582B084
:10DC5000019040F20D30C0F203200090FEF79BF8D7
:10DC600001460098013189B201F0C8FC02B080BDC4
:10DC700080B582B0019045F27240C2F20000007897
:10DC800001F03AF88DF803009DF80300012807D150
:10DC9000FFE740F6DC50C0F20320F3F7DBFD1BE0AA
:10DCA00045F27240C2F2000001789DF8032040F670
:10DCB0008F50C0F20320F3F7CDFD9DF8030050B95B
:10DCC000FFE745F27241C2F200010878B0FA80F035
:10DCD00040090870FFE7FFE702B080BD80B582B061
:10DCE000019045F27340C2F20000007801F0B6F8EE
:10DCF0008DF803009DF80300012807D1FFE740F6E7
:10DD0000DC50C0F20320F3F7A5FD19E045F27340A3
:10DD1000C2F2000001789DF8032040F60550C0F2E1
:10DD20000320F3F797FD9DF8030040B9FFE745F2A4
:10DD30007341C2F2000108780A380870FFE7FFE774
:10DD400002B080BD80B582B00190012000F0DCFE01
:10DD500000F0C8FB45F22050C2F20000007845F206
:10DD60002151C2F2000101F0C3F88DF803009DF8C3
:10DD70000300012807D1FFE740F6DC50C0F2032082
:10DD8000F3F768FD0FE09DF8031040F64050C0F235
:10DD90000320F3F75FFD9DF8030018B1FFE700F0E3
:10DDA00099FBFFE7FFE702B080BD000080B582B0BD
:10DDB000019045F60420C2F20000FDF7BFFD8DF88A
:10DDC00003009DF80300012807D1FFE740F6DC506F
:10DDD000C0F20320F3F73EFD3CE09DF8030080BB5A
:10DDE000FFE740F64D70C0F20320F3F733FD00204B
:10DDF000ADF80000FFE7BDF8000045F60421C2F2CF
:10DE000000010978884215DAFFE7BDF8001045F6F1
:10DE10000420C2F200000844417840F64570C0F288
:10DE20000320F3F717FDFFE7BDF800000130ADF860
:10DE30000000E0E740F68360C0F20320F3F70AFD3C
:10DE400008E09DF8031040F6EF40C0F20320F3F71E
:10DE500001FDFFE702B080BD80B582B00190FDF703
:10DE6000EBF98DF803009DF80300012807D1FFE7C7
:10DE700040F6DC50C0F20320F3F7ECFC08E09DF81C
:10DE8000031040F63150C0F20320F3F7E3FCFFE744
:10DE900002B080BD80B584B00390012000F034FE54
:10DEA000F3F79CFC46F24C11C2F20001019188602C
:10DEB00045F22050C2F20000007845F22151C2F232
:10DEC000000101F015F88DF80B00F3F787FC0199BC
:10DED000C8609DF80B00012807D1FFE740F6DC5031
:10DEE000C0F20320F3F7B6FC0FE09DF80B1046F2EA
:10DEF0004C10C2F200008268C068821A40F644608A
:10DF0000C0F20320F3F7A6FCFFE704B080BD0000D9
:10DF100080B582B0019045F27440C2F20000006802
:10DF200000F052FF8DF803009DF80300012807D18F
:10DF3000FFE740F6DC50C0F20320F3F78BFC1AE059
:10DF400045F27440C2F2000001689DF8032040F6DB
:10DF50001F70C0F20320F3F77DFC9DF8030048B961
:10DF6000FFE745F27441C2F20001086800F57A70DB
:10DF70000860FFE7FFE702B080BD000080B582B017
:10DF8000019040F63A70C0F20320F3F763FC0120E1
:10DF9000FEF792FA002210461146F3F719FD02B07F
:10DFA00080BD000080B582B00190FDF7F3FD38B967
:10DFB000FFE740F6DC50C0F20320F3F74BFC08E02B
:10DFC00000F088FA40F67660C0F20320F3F742FCD6
:10DFD000FFE702B080BD000080B582B00190012053
:10DFE00000F09EFC02B080BD80B582B0019000F0D0
:10DFF00071FA002000F094FC02B080BD80B584B0BE
:10E000000390FFE740F662100DF10A01009102AAA9
:10E010000192FEF7B3FCBDF80A10BDF8082040F6E7
:10E02000F960C0F2032001F09FFC0099019A40F6CC
:10E030006A10FEF7A3FCBDF80A10BDF8082040F6F0
:10E040008760C0F2032001F08FFC0099019A40F62E
:10E050008810FEF793FCBDF80A10BDF8082040F6C2
:10E06000AD60C0F2032001F07FFC0099019A4FF4EB
:10E070001B60FEF783FCBDF80A10BDF8082040F6CF
:10E08000D360C0F2032001F06FFCBBE780B582B023
:10E09000019000F027FA002000F036FD45F22050F4
:10E0A000C2F20000007845F22151C2F20001FDF7F2
:10E0B0009BFB8DF803009DF80300012807D1FFE7C3
:10E0C00040F6DC50C0F20320F3F7C4FB0FE09DF8EC
:10E0D000031040F65950C0F20320F3F7BBFB9DF844
:10E0E000030018B1FFE700F0F5F9FFE7FFE702B022
:10E0F00080BD000080B584B00390002000F004FDD6
:10E10000F3F76CFB46F24C11C2F20001019108607A
:10E1100045F22050C2F20000007845F22151C2F2CF
:10E120000001FDF761FB8DF80B00F3F757FB019938
:10E1300048609DF80B00012807D1FFE740F6DC504E
:10E14000C0F20320F3F786FB0FE09DF80B1046F2B8
:10E150004C10C2F2000002684068821A40F65D600E
:10E16000C0F20320F3F776FBFFE704B080BD0000A8
:10E1700080B582B0002001900020C4F21100006838
:10E18000019A511C019146F2FC01C2F2000141F8D2
:10E1900022005020C4F211000068019A531C019320
:10E1A00041F8220040F20040C4F211000068019AD8
:10E1B000531C019341F8220040F20440C4F21100C4
:10E1C0000068019A531C019341F8220040F2084074
:10E1D000C4F211000068019A531C019341F8220017
:10E1E00040F20C40C4F211000068019A531C0193E4
:10E1F00041F822006420C4F211000068019A531C07
:10E20000019341F8220000F007FC00F03BFCFEF710
:10E2100055FAFDF73BFB02B080BD000080B582B02F
:10E220005C21C4F211014FF0FF30086045F27450D8
:10E23000C2F200004089800081B22220FDF754F82C
:10E2400045F62831C2F200010020087001900199C2
:10E25000481C019046F2FC00C2F2000050F8211068
:10E260000022C4F21102116001994A1C019250F877
:10E2700021105022C4F21102116001994A1C01922E
:10E2800050F8211040F20042C4F2110211600199CD
:10E290004A1C019250F8211040F20442C4F21102CB
:10E2A000116001994A1C019250F8211040F2084275
:10E2B000C4F21102116001994A1C019250F8211018
:10E2C00040F20C42C4F21102116001994A1C019201
:10E2D00050F821006421C4F21101086002B080BD31
:10E2E00080B588B00790069103208DF804000021C6
:10E2F0008DF8051001208DF806008DF807108DF8B7
:10E3000008008DF809008DF80A008DF80B108DF8C3
:10E310000C108DF80D008DF80E00079804900698EB
:10E32000059041F20000C4F2010001A95022FFF75C
:10E3300065F808B080BD000080B588B007908DF802
:10E340001B1045F64830C2F20000007808B1FFE724
:10E35000A3E045F64830C2F20000408840BBFFE72A
:10E36000FFE79DF81B1000200129059012DBFFE755
:10E370000798017801200D29049008D0FFE707983D
:10E3800000780A38B0FA80F040090490FFE704985A
:10E390000590FFE70598C00748B1FFE707980130EF
:10E3A00007909DF81B0001388DF81B00D9E7FFE7A7
:10E3B0009DF81B0008B9FFE76FE007999DF81B2047
:10E3C00045F64830C2F200000390FFF795F8039835
:10E3D0004088012861DBFFE745F64831C2F20001C1
:10E3E00048880844C0780D280AD0FFE745F6483130
:10E3F000C2F2000148880844C0780A284DD1FFE7DE
:10E4000045F64830C2F2000040880238ADF81800E6
:10E41000FFE7BDF918100020012902901EDBFFE77D
:10E42000BDF9181045F64830C2F2000008440179E1
:10E4300001200D2901900ED0FFE7BDF9181045F617
:10E440004830C2F20000084400790A38B0FA80F07F
:10E4500040090190FFE701980290FFE70298C0078A
:10E4600030B1FFE7BDF818000138ADF81800D0E76B
:10E47000BDF9180045F64831C2F2000142180020EB
:10E48000507101200870F3F783F9816A45F6002086
:10E49000C2F2000000688847FFE708B080BD0000B6
:10E4A00080B582B00190FFE7F3F772F9416A45F653
:10E4B0000020C2F200000068884745F64830C2F2EA
:10E4C00000000090043000F007F900990020488017
:10E4D0000870E9E745F60831C2F200010020087033
:10E4E0007047000045F60831C2F2000101200870B3
:10E4F0007047000080B596B0159014911392FFE715
:10E500001398012831DBFFE700200290FFE7139901
:10E5100000200129019007DBFFE702990020102964
:10E5200038BF01200190FFE70198C00788B1FFE7DD
:10E53000149800F0EDFE029A03A941F82200029817
:10E5400001300290139801381390149804301490FD
:10E55000DDE7159802998A0003A901F07DF9029977
:10E56000159800EB81001590CAE716B080BD000039
:10E570007047000080B504200021F3F735F806202D
:10E580004FF4FA71F3F730F880BD000080B582B027
:10E5900001904FF0FF30009001986946042200F08E
:10E5A0009DFE02B080BD000080B582B000F00EF884
:10E5B00030B9FFE741F27800C0F20020019002E09C
:10E5C00000200190FFE7019802B080BD80B584B0C3
:10E5D00000F06CFD18B1FFE70020039041E04FF41C
:10E5E000805000F095FE0290029844F24371C4F608
:10E5F0004E11884203D0FFE70120039031E041F241
:10E60000040000F085FE0290029845F25301C4F622
:10E610004901884203D0FFE70220039021E041F244
:10E620000000C0F200200190FFF7B0FF01984FF406
:10E6300080511E22FFF75EFF41F27800C0F20020F9
:10E640004FF488512422FFF755FF41F20810C0F221
:10E6500000204FF400515022FFF74CFF00200390A0
:10E66000FFE7039804B080BD80B582B001900091AF
:10E6700001A80021FFF792F9019802B080BD0000C7
:10E6800080B582B00190FDF72DFE00F0FDF800206E
:10E6900002B080BD80B582B0ADF806000020ADF8B4
:10E6A0000400FFE7BDF80400BDF80610884210DA48
:10E6B000FFE71C2000900121FDF7C6FF0098002114
:10E6C000FDF7C2FFFFE7BDF804000130ADF804001C
:10E6D000E8E702B080BD000080B584B003900398E5
:10E6E0000290FFE70298007888B1FFE7029800786F
:10E6F000202807D1FFE70299002008700298013016
:10E70000029004E0029801300290FFE7EAE700205F
:10E710000190FFE70198142812D8FFE7019945F20C
:10E720007840C2F2000050F831000399FDF750FB29
:10E7300008B9FFE704E0FFE7019801300190E9E73D
:10E740000198152801D3FFE70AE0019945F27840C6
:10E75000C2F2000000EBC10041680298884710E057
:10E7600040F2FC20C0F203200090FDF714FB0146AC
:10E770000098013189B200F041FF0020FFF766FAEE
:10E78000FFE704B080BD000081B000900098B0F8B1
:10E79000030001B07047000081B0009000988078BD
:10E7A00001B0704781B000900098007801B07047C8
:10E7B00081B000900098043001B0704780B545F6F4
:10E7C0002C30C2F20000007838B9FFE740F67640FE
:10E7D000C0F20320F3F73EF806E040F65E40C0F2D8
:10E7E0000320F3F737F8FFE745F62C30C2F20000BC
:10E7F00000F0D0FB80BD000080B500F02FFC00F0E1
:10E80000EBFB80BD80B54BF23511C0F20221002038
:10E8100000F03EFA4CF66D21C0F20221012000F01A
:10E8200037FA4BF2D911C0F20221022000F030FA7F
:10E8300000F01CFC80BD000080B584B00390ADF8F2
:10E840000A109DF80A008DF809009DF8090001469C
:10E85000019168B1FFE70198012812D1FFE745F661
:10E860000631C2F2000101200870FEF7DBFF08E06C
:10E8700045F60631C2F2000100200870FFF71AF8D1
:10E88000FFE704B080BD000080B545F61430C2F249
:10E89000000000F055F845F61530C2F2000000788F
:10E8A00050B9FFE7012000F03BF840F61040C0F2FD
:10E8B0000320F2F7CFFF2BE045F61430C2F2000040
:10E8C000007890B9FFE740F6FE30C0F20320F2F77F
:10E8D000C1FF45F24150C2F20000007845F24951B3
:10E8E000C2F20001FCF780FF11E040F6EC30C0F20C
:10E8F0000320F2F7AFFF45F24850C2F20000007863
:10E9000045F24951C2F2000100F0F2FAFFE7FFE7D9
:10E9100045F61531C2F2000108780130087080BD5B
:10E9200080B582B08DF807009DF807204EF63900BB
:10E93000C0F202200021D7F799FD02B080BD00008F
:10E9400082B0009045F60730C2F20000007820B98E
:10E95000FFE701208DF807000AE045F27450C2F28B
:10E96000000000780099087000208DF80700FFE78C
:10E970009DF8070002B0704782B0009045F607305E
:10E98000C2F20000007820B9FFE701208DF80700EF
:10E990000AE045F62830C2F20000007800990870BD
:10E9A00000208DF80700FFE79DF8070002B07047D0
:10E9B0004BF20000C0F202204EF60851CEF20001E8
:10E9C0000860704781B000900098007845F274515B
:10E9D000C2F2000108700098406848600098007A10
:10E9E00008720098408948810098007B087300985D
:10E9F000407B48730098807B8873009800690861A9
:10EA00000098406948610098007E08760098407E32
:10EA1000487601B07047000080B546F2E000C2F2CF
:10EA20000000006850B9FFE74FF43170DEF748FE90
:10EA300046F2E001C2F200010860FFE746F2E8009A
:10EA4000C2F20000006850B9FFE74FF49B70DEF798
:10EA500037FE46F2E801C2F200010860FFE746F225
:10EA6000E400C2F20000006850B9FFE74FF49B7069
:10EA7000DEF726FE46F2E401C2F200010860FFE77D
:10EA800080BD000081B02021C4F20001086820F49C
:10EA9000007008602821C4F20001086820F00070AE
:10EAA00008600421C4F21101086840F010000860F9
:10EAB0002421C4F20001086820F0007008600020E2
:10EAC0000090FFE700984F2806DCFFE700BFFFE754
:10EAD000009801300090F5E72021C4F20001086899
:10EAE00040F4007008602821C4F20001086840F07A
:10EAF000007008602421C4F20001086840F0007032
:10EB0000086001B07047000081B08DF8020045F642
:10EB10000730C2F20000007820B9FFE701208DF82D
:10EB2000030023E045F62830C2F2000000780128F7
:10EB300004D1FFE704208DF8030017E045F62830E4
:10EB4000C2F200000078022804D1FFE705208DF80A
:10EB500003000BE0FFE79DF8020045F27451C2F29A
:10EB60000001087000208DF80300FFE79DF8030006
:10EB700001B0704782B0009045F60730C2F2000045
:10EB8000007820B9FFE701208DF8070029E045F65D
:10EB90002830C2F200000078012804D1FFE70420E9
:10EBA0008DF807001DE045F62830C2F2000000781D
:10EBB000022804D1FFE705208DF8070011E0FFE7E8
:10EBC000009845F27451C2F200014860009846F284
:10EBD000E001C2F200010968C86000208DF807005A
:10EBE000FFE79DF8070002B07047000080B582B0D3
:10EBF000ADF8040045F60730C2F20000007820B9F5
:10EC0000FFE701208DF807003DE045F62830C2F20D
:10EC100000000078012804D1FFE704208DF80700E8
:10EC200031E045F62830C2F200000078022804D115
:10EC3000FFE705208DF8070025E0FFE7BDF8040099
:10EC400040F6FC01884207DBFFE7BDF8040040F610
:10EC5000C511884204DBFFE706208DF8070012E0AB
:10EC6000BDF8040045F27451C2F200014881BDF8BC
:10EC700004008000013081B22220FCF735FB002027
:10EC80008DF80700FFE79DF8070002B080BD000087
:10EC900080B584B08DF80F0002919DF80F000146F9
:10ECA000019140B1FFE7019801280BD0FFE70198DF
:10ECB00002280ED014E0029845F61831C2F2000185
:10ECC000486016E0029845F61831C2F2000108606B
:10ECD0000FE0029845F61831C2F20001886008E0A2
:10ECE0009DF80F1040F6E670C0F2032000F03CFEE5
:10ECF000FFE704B080BD000080B582B08DF806004B
:10ED000045F60730C2F20000007820B9FFE7012085
:10ED10008DF8070053E045F62830C2F20000007875
:10ED2000012804D1FFE704208DF8070047E045F6ED
:10ED30002830C2F200000078022804D1FFE7052045
:10ED40008DF807003BE0FFE79DF8060004280CDB88
:10ED5000FFE79DF8061040F6F670C0F2032000F0C1
:10ED600003FE06208DF8070029E09DF8060045F215
:10ED70007451C2F2000108729DF8060050B9FFE715
:10ED800040F21C41C4F211010868642262F313309E
:10ED900008600FE09DF8060001280AD1FFE740F265
:10EDA0001C41C4F2110108686E2262F3133008603E
:10EDB000FFE7FFE7FFE700208DF80700FFE79DF87A
:10EDC000070002B080BD000082B0009045F6073019
:10EDD000C2F20000007820B9FFE701208DF807009B
:10EDE00037E045F62830C2F200000078012804D14F
:10EDF000FFE704208DF807002BE045F62830C2F22B
:10EE000000000078022804D1FFE705208DF80700F4
:10EE10001FE0FFE7009842F21171884204D3FFE738
:10EE200042F210700090FFE7009845F27451C2F270
:10EE30000001486100994FF0011040EA410046F29C
:10EE4000E001C2F200010968086200208DF80700A5
:10EE5000FFE79DF8070002B07047000081B08DF811
:10EE6000020045F60730C2F20000007820B9FFE743
:10EE700001208DF8030036E045F62830C2F200008C
:10EE80000078012804D1FFE704208DF803002AE070
:10EE900045F62830C2F200000078022804D1FFE7CE
:10EEA00005208DF803001EE0FFE79DF802004028D2
:10EEB00004DBFFE73F208DF80200FFE79DF802002A
:10EEC00045F27451C2F2000108739DF80200000679
:10EED0001F3046F2E001C2F200010968C86100205B
:10EEE0008DF80300FFE79DF8030001B070470000B4
:10EEF00080B582B08DF80600009145F60730C2F269
:10EF00000000007820B9FFE701208DF807003DE000
:10EF100045F62830C2F200000078012804D1FFE74E
:10EF200004208DF8070031E045F62830C2F20000D9
:10EF30000078022804D1FFE705208DF8070025E0BE
:10EF4000FFE745F62831C2F20001022008709DF863
:10EF50000600B0F5807F04DBFFE7FF208DF8060098
:10EF6000FFE79DF8060045F2A071C2F2000148607B
:10EF70000098886045F27450C2F20000FCF7F8FA7D
:10EF8000FCF7D0FB00208DF80700FFE79DF8070095
:10EF900002B080BD80B582B0009045F60730C2F265
:10EFA00000000078012804D1FFE701208DF8070058
:10EFB0000EE045F60731C2F200010120087000980A
:10EFC000FFF700FDFFF7D4F800208DF80700FFE7FA
:10EFD0009DF8070002B080BD80B582B045F60730CD
:10EFE000C2F20000007820B9FFE701208DF8070089
:10EFF00026E045F62830C2F200000078012804D14E
:10F00000FFE704208DF807001AE045F62830C2F229
:10F0100000000078022804D1FFE705208DF80700E2
:10F020000EE045F60731C2F20001002000900870A2
:10F03000FFF7F4F8D7F720FA00988DF80700FFE7FC
:10F040009DF8070002B080BD80B540F6D720C0F221
:10F050000320F2F7FFFB00F0E1F980BD45F26441C7
:10F06000C2F200010120C8717047000045F62C3142
:10F07000C2F2000100220A7045F27A60C1F2342027
:10F080004860012008724FF416634B813F230B73D5
:10F0900048738A7343F25642C0F212020A614FF477
:10F0A000C8624A61087648767047000082B041F233
:10F0B0000000C0F2002000900098006844F2437104
:10F0C000C4F64E1188420CD1FFE70098406845F223
:10F0D0005301C4F64901884203D1FFE701200190A2
:10F0E00002E000200190FFE7019802B070470000A5
:10F0F00084B08DF80E008DF80D109DF80D000146BE
:10F10000029120B1FFE7029801281CD02FE09DF862
:10F110000E0001460191012808D0FFE7019802285E
:10F1200008D0FFE70198032808D00BE005208DF8F0
:10F130000F0020E006208DF80F001CE007208DF85E
:10F140000F0018E013E09DF80E0001460091012821
:10F1500004D0FFE70098022804D007E003208DF8D0
:10F160000F0008E002208DF80F0004E0FFE7002008
:10F170008DF80F00FFE79DF80F0004B07047000006
:10F1800080B582B0019000910198007818B9FFE72E
:10F1900000F07AF903E00020FDF770F9FFE701982D
:10F1A0000178427840F6CF20C0F20320F2F752FBFC
:10F1B000012002B080BD000080B582B001900091B6
:10F1C000FFF7D6F9002002B080BD000080B58CB0FA
:10F1D000ADF82E008DF82D108DF82C2046F2F001A0
:10F1E000C2F200010888013008809DF82D0040B966
:10F1F000FFE746F2EC01C2F2000108880130088006
:10F2000007E046F2EE01C2F20001088801300880F2
:10F21000FFE746F2F000C2F200000088BDF82E10B1
:10F22000884258DBFFE7F2F7D9FA0390039946F2D8
:10F23000F400C2F20000016046F2EC01C2F20001EB
:10F24000059109884FF47A72514300EE101AB8EE16
:10F25000C00A006846F2F801C2F20001079109688D
:10F26000401A01EE100AB8EE411A80EE010A10EEC3
:10F27000100AFCF7D8FE0246059804920A46049943
:10F2800042EC101B8DED080BBDF82E1046F2EE027D
:10F29000C2F200020692128803889DED080B9DF9C8
:10F2A0002CC06846C0F808C080ED000B40F61E4038
:10F2B000C0F20320F2F7CEFA059A069900201080DA
:10F2C000088046F2F001C2F200010880F2F786FAE7
:10F2D00007990860FFE70CB080BD000080B584B0DE
:10F2E00003900291019203980299019A43F69B338D
:10F2F000984704B080BD000080B584B003900291AF
:10F3000001200190FDF7BAF8019804B080BD00001B
:10F3100080B598B0169040F6F311C0F2032103A80F
:10F3200001904822FCF725FDEFF310801790179805
:10F33000029072B640F2C97080470199169800F0A9
:10F340000FF8159040F25160804740F60D0080475D
:10F35000029810B9FFE762B6FFE7159818B080BDB4
:10F3600001F101010847000083B002908DF80710F9
:10F370008DF806209DF80610012088400090029824
:10F380000068009988439DF807109DF80620914079
:10F3900008430299086003B07047000085B00490EC
:10F3A00003918DF80B208DF80A309DF80B10012089
:10F3B00088400138019001989DF80A108840C043A8
:10F3C000009004980068009908400399019A114040
:10F3D0009DF80A20914008430499086005B07047E1
:10F3E00084B0039002918DF807208DF806309DF8C7
:10F3F00007100120884001389DF8061088400090D1
:10F40000039800680099884302999DF8062091406E
:10F4100008430399086004B07047000080B58EB0BF
:10F4200040F63C21C0F2032100200C90D8F728F9C7
:10F430000C986A469062506201210D911162D06170
:10F440009161642353611061D06090605160072125
:10F45000116013214FF448731A46D8F76DFA0C98CF
:10F4600040F28022C0F203221521D8F721FA0D992B
:10F470000C9840F63B22C0F20322D8F721FB0D98EE
:10F48000FEF78CF80EB080BD80B584B043F200600A
:10F49000C0F26E104FF4E131FEF722FF0720C0F2F8
:10F4A0002000FDF789FB0A20009000210391FDF761
:10F4B00091F903990098FDF775F8009801210191E1
:10F4C000FDF740F90199039A0098FCF719FF01989C
:10F4D000039AC821FCF77AFF00980199FCF7A0FF76
:10F4E00003991C200290FDF775F901990298FDF728
:10F4F00059F802980399FDF7A7F804B080BD000001
:10F5000080B584B00390029140F6FD20C0F2032044
:10F51000F2F7A0F94DF25550C0F202204DF27551AC
:10F52000C0F20221D6F7E6FB45F60C30C2F200002D
:10F530004FF22971C0F2022101914160DAF70EFF0A
:10F540000198D6F781FC002004B080BD85B08DF80D
:10F550000F008DF80E109DF80F002A2804DBFFE73E
:10F560004FF0FF3004903EE09DF80F0040F2D36270
:10F57000C0F20322132110FB012002900020019011
:10F580009DF80E000138009002989DF80E10CA08F0
:10F59000805C01F007028021D140084204D1FFE7DE
:10F5A0004FF0FF3004901EE0FFE70098002817D4CA
:10F5B000FFE702980099CA1701EB5272D210805CE3
:10F5C00001F007028021D140084204D0FFE70198F2
:10F5D00001300190FFE7FFE7009801380090E4E771
:10F5E00001980490FFE7049805B0704780B582B099
:10F5F0000190FDF755FA02B080BD000080B584B0DF
:10F600000390ADF80A1045F61460C2F2000040887D
:10F6100060B9FFE70399BDF80A00084410F8010C2F
:10F6200020B9FFE7039800F019FE23E00399BDF825
:10F630000A2045F61460C2F200000190FDF75CFF5D
:10F6400001984088012815DBFFE745F61461C2F2F6
:10F65000000148880844C07860B9FFE745F61460A7
:10F66000C2F200000090043000F0F8FD0099002084
:10F670004880FFE704B080BD80B582B0F2F788F81B
:10F68000006A804745F60021C2F200010860F2F7E7
:10F690007FF8D0F810C068460022026040F66B7018
:10F6A000C0F203204EF2A141C0F202214FF4806368
:10F6B000E04702B080BD000080B584B00390FFE752
:10F6C00041F20000C4F20100FDF792FE02900298A0
:10F6D00008B9FFE71DE0029841F24401C4F20101BC
:10F6E0000860FFE741F20000C4F20100FDF770FE80
:10F6F00001280DD0FFE741F20000C4F201000068CC
:10F700008DF807000DF107000121FEF715FEE9E76E
:10F71000D6E7002004B080BD83B002900191ADF81F
:10F720000220FFE703B0704780B588B08DF81F0056
:10F73000ADF81C100692ADF816300698FFF732F8B7
:10F740008DF815009DF81F00042801D0FFE781E027
:10F750009DF8150001460391052861D0FFE7039845
:10F760000E281AD0FFE703983E2831D0FFE7039810
:10F77000602808D0FFE70398B7285ED0FFE703981A
:10F78000FF285BD065E00698FEF7B8F8022801D0A4
:10F79000FFE75FE0FFF742FE5CE00698FEF7F4FF4C
:10F7A0000146029140F60341884206D0FFE70298E5
:10F7B00042F23901884206D008E00020FDF7EEFF52
:10F7C000FDF7BCFF03E0FDF717FF00E0FFE741E0B6
:10F7D0000698FEF7E1FF014601910A2804D0FFE7F1
:10F7E0000198122817D019E00698818845F26440E4
:10F7F000C2F2000000900180008840F6F111C0F2D2
:10F800000321D6F735FB0220FDF7C8FF00980088DA
:10F81000FDF740FF03E0FDF72BFF00E0FFE719E0F5
:10F8200045F26441C2F200014FF6FF7008800220E9
:10F83000FDF7A0FFFDF762FF0CE00BE00698FEF776
:10F84000B7FF0490049A106851681289FFF764FFAB
:10F8500000E0FFE708B080BD80B586B0049003915A
:10F86000029204980399029A00F018F80190019806
:10F8700018B1FFE7019805900CE004980399029AEB
:10F88000FCF790FA002818BF012040000190019871
:10F890000590FFE7059806B080BD000080B58AB0EE
:10F8A000079006910592079820F0FF0000F5807000
:10F8B000049000200390FFE703980599884211D235
:10F8C000FFE70798039A805C0699895C08408842A4
:10F8D00003D0FFE70120089042E0FFE703980130E2
:10F8E0000390E9E7EFF3108009900998029072B64F
:10F8F00040F2C9708047FFE7059818B3FFE7049806
:10F900000799401A019001980599884203D3FFE7AF
:10F9100005980190FFE707980699019A43F6D743A7
:10F920009847019907980844079001990698084458
:10F93000069001990598401A0590049800F580708A
:10F940000490D9E740F25160804740F60D008047AF
:10F95000029810B9FFE762B6FFE700200890FFE7C2
:10F9600008980AB080BD00000FB4054B10B503A97C
:10F97000044A029800F0DAF810BC5DF814FB0000AD
:10F9800069E602026054002002E008C8121F08C1A4
:10F99000002AFAD170477047002001E001C1121F10
:10F9A000002AFBD1704700002DE9FF5F82B00021E3
:10F9B000DDE90430020DDDF840B0034318D044F611
:10F9C0001050A2F2FF3242431514119801281FD0A3
:10F9D000A5EB0B00401C5FEA000A4FF000064E4FFB
:10F9E000DFF83891B046504615D5CAF1000413E04F
:10F9F000119801244AA3012801D16FEA0B01029852
:10FA0000119AC0E90031C0E9024206B0BDE8F09F9A
:10FA1000CBF10000DFE704460021404A491842EBE1
:10FA20000450CDE9001012E0E00707D032463B4613
:10FA300040464946FCF7B4FB8046894632463B4681
:10FA400010461946FCF7ACFB06460F466410002C26
:10FA5000EAD1DDE90401DDE90023BAF1000F06DA9D
:10FA6000FCF79EFB42464B46FCF79AFB05E0FCF791
:10FA70006BFA42464B46FCF767FA04460E460022F4
:10FA8000284BFCF717FC03D84FF0FF30014607E086
:10FA90000022254B20463146FCF7AFF9FCF7F2FB7C
:10FAA000102409E0002C0ADB0A220023FCF730F9BD
:10FAB000039B30321A55641E50EA0102F2D1641CD5
:10FAC000039AC4F111031444119A012A03D00122AC
:10FAD00008430DD10AE0084304D000204FF0110B79
:10FAE000119072E7A3EB0B056D1E0DE05B4504DD85
:10FAF0004FF0000205F1010504E003DA4FF00002C7
:10FB0000A5F10105002AECD002981199C0E9023153
:10FB1000C0E9004579E70000000014400000F03F14
:10FB2000300000000000F0430000E03F2DE9FF4FEF
:10FB300095B09B468946064600250FE2252877D1D9
:10FB400000242746F84A0121059400E0044316F8F2
:10FB5000013F203B01FA03F01042F7D130782A2808
:10FB600011D06FF02F033078A0F13002092A16D897
:10FB7000059A44F0020402EB820203EB42021044B5
:10FB8000761C0590EFE759F8042B0592002A03DA5A
:10FB9000504244F40054059044F00204761C30783E
:10FBA0002E2816D116F8010F44F004042A280DD08F
:10FBB0006FF02F023078A0F13003092B09D807EB42
:10FBC000870302EB4303C718761CF3E759F8047B5D
:10FBD000761C30786C280FD006DC4C2817D06828AB
:10FBE0000DD06A2814D104E0742810D07A280FD1DF
:10FBF0000DE044F400140AE044F4801401E044F4FD
:10FC000040147278824202D104F58014761C761C6E
:10FC1000307866280BD013DC582877D009DC002810
:10FC200075D04528F6D04628F4D047281AD19DE152
:10FC300018E0632835D0642879D0652812D195E181
:10FC4000702873D008DC6728F1D069286FD06E283F
:10FC50000DD06F2806D1B5E073282CD0752875D04B
:10FC6000782874D05A46179990476D1C75E1C4F3F3
:10FC70000250022809D003280DD0D9F8001004281A
:10FC80000DD00D6009F1040967E1D9F80010EA17F9
:10FC9000C1E90052F6E7D9F800100D80F2E70D70C7
:10FCA000F0E719F8041B8DF8001000208DF8010012
:10FCB000EA46012003E059F804AB4FF0FF3061073A
:10FCC0004FF0000102D40DE008F101018846B9426D
:10FCD0000FDA8045F8DB1AF808100029F4D108E0A3
:10FCE00008F1010188468142FADB1AF80810002960
:10FCF000F6D105985B46A0EB080721463846179ACF
:10FD000000F094FA284400EB080507E04DE029E1F3
:10FD10000DE01AF8010B5A4617999047B8F10108FF
:10FD2000F7D25B4621463846179A13E142E00A2291
:10FD30000092C4F302524FF0000A022A08D059F888
:10FD400004CB032A4FEAEC710AD00DE029E02AE047
:10FD500009F1070121F00702F2E802C1914609E02A
:10FD60000FFA8CFC4FEAEC71042A03D14FFA8CFC99
:10FD70004FEAEC71002907DA0A460021DCF1000C99
:10FD800061EB02012D2202E0220504D52B228DF821
:10FD90000420012203E0E20701D02022F7E7904689
:10FDA00059E00A2102E010220DE010214FF0000A74
:10FDB00000910BE010224FF0000A44F004040827E1
:10FDC000009203E008224FF0000A0092C4F30252AE
:10FDD000022A05D059F804CB0021032A08D009E0F3
:10FDE00009F1070121F00702F2E802C1914605E09E
:10FDF0001FFA8CFC042A01D10CF0FF0C4FF0000814
:10FE0000220728D5702806D0009B83F0100353EA00
:10FE10000A0305D00EE040228DF80420012208E0FC
:10FE20005CEA010206D030228DF804208DF805002E
:10FE300002229046009B83F0080353EA0A030AD18A
:10FE40005CEA010201D1620705D530228DF8042059
:10FE50004FF001087F1E582804D034A003900EA84C
:10FE600002900DE036A0F9E753466046009AFBF792
:10FE70004FFF84460398825C0298401E02900270F5
:10FE80005CEA0100F0D1029806A9081A00F1200AE4
:10FE9000600702D524F4803400E00127574502DDD5
:10FEA000A7EB0A0000E0002000EB0A010090059893
:10FEB0004144401A0590E00306D45B462146179A58
:10FEC000059800F0B3F90544002706E001A85A465A
:10FED000C05D179990476D1C7F1C4745F6DBE0031A
:10FEE0000CD55B462146179A059800F09FF905440A
:10FEF00004E030205A46179990476D1C0099481E1F
:10FF000000900029F5DC08E0029802995A46007832
:10FF1000491C0291179990476D1CBAF10001AAF192
:10FF2000010AF1DC65E100000928010030313233BB
:10FF30003435363738396162636465660000000025
:10FF4000303132333435363738394142434445460F
:10FF50000000000000F058F90544761C30780028B5
:10FF60007FF4ECAD19B02846BDE8F08F620700D4ED
:10FF7000062709F1070222F0070CFCE80223E146FC
:10FF800003F000485FEA080C02D00FF2702C0DE07D
:10FF90005FEA045C02D50FF2682C07E05FEAC47CDC
:10FFA00002D00FF2602C01E0AFF2700C4FF0FF387E
:10FFB00023F00043CDF850C065280CD006DC45285E
:10FFC00009D046281DD047283DD13DE0662818D0ED
:10FFD00067287ED138E00021112F01DB112000E0DD
:10FFE000781CCDE9000106A90EA8FFF7DDFCDDE9CC
:10FFF0000F010E9A03910021009207F1010A04916A
:020000040203F5
:100000004DE04FF000400097CDE9011006A90EA881
:10001000FFF7CAFCDDE90F0203920E9B1199002243
:10002000DDF80CA00093049211B9791C00EB010AD1
:10003000B7EB0A0004D4C0F1FF3007F1010A0490C5
:10004000AAEB0700019044E0012F00DA012700210C
:10005000112F01DD112000E03846CDE9000106A98D
:100060000EA8FFF7A1FCDDE90F010E9A0391002114
:1000700004910092BA4621070CD40399514500DA45
:100080008A46BAF1010F05DD009AAAF10101515C1F
:10009000302908D0B84202DA10F1040F06DA012143
:1000A000CDE9011015E0AAF10101E9E7002805DC1E
:1000B000049901440491AAEB000102E0411C51455E
:1000C00000DD8A460499401A401C01904FF0004020
:1000D0000290200704D40198504501DBCDF804803C
:1000E00000208DF84F0002980DF14F07B0F1004F3E
:1000F00025D02B200E9002984FF0020800280CDA31
:10010000404202902D200E9007E00A210298FBF752
:100110009DFF3031029007F8011DB8F10001A8F1F0
:100120000108F2DC02980028EFD1791E0E980870C1
:10013000307800F0200040F0450007F8020D12A8CA
:10014000C01B00F107081498007800B1012000EBF3
:100150000A01019801EBE07105984144401A401EE4
:100160000590E00306D45B462146179A059800F0F7
:100170005DF805441498007818B15A4617999047CD
:100180006D1CE00324D55B462146179A059800F0C4
:100190004DF805441CE00498002807DBDDE9030165
:1001A000884203DD0098405C179901E017993020E0
:1001B0005A469047049805F10105401C04900198A7
:1001C000401E019004D12E205A46179990476D1C6D
:1001D000BAF10001AAF1010ADDDC05E017F8010B14
:1001E0005A46179990476D1CB8F10001A8F1010813
:1001F000F4DC5B462146179A0598ABE62D0000001B
:100200002B000000200000002DE9F04104460025ED
:100210001E461746880404D405E039462020B0471E
:100220006D1C641EF9D52846BDE8F0812DE9F0412A
:10023000044600251E469046C80301D5302700E03D
:100240002027880404D505E041463846B0476D1C98
:10025000641EF9D52846BDE8F081000010B50446BB
:1002600001E0FEF701FA14F8010B04490028F8D167
:10027000BDE810400A20FEF7F7B9000060540020E6
:100280000201061109424C455F327034675F737793
:10029000697463682B000000000000009DD9020211
:1002A0000000000001F502020000000081F10202DE
:1002B00000000000F9F202020000000029D9020249
:1002C0000000000009D9020200000000B9F102029A
:1002D0000000000081D9020200000000D1D9020212
:1002E0005C61002000000000000000000000000031
:1002F000000000000000000000000000756E6B6E42
:100300006F776E20636F6D6D616E640A00636F6D51
:100310006D616E64733A0A682F3F202020202020F0
:1003200020202020202020202020202020202020CD
:10033000202020202020202020202073686F77207C
:10034000746869730A626C652020202020202020B8
:10035000202020202020202020202020202020209D
:1003600020202020202020202073776974636820BB
:10037000746F20626C650A326734202020202020B0
:10038000202020202020202020202020202020206D
:1003900020202020202020202020207377697463D3
:1003A0006820746F20322E34670A7374617465207C
:1003B000202020202020202020202020202020203D
:1003C00020202020202020202020202020206765A1
:1003D0007420322E34672073746174650A6D6F6403
:1003E00065202020202020202020202020202020C8
:1003F00020202020202020202020202020202020FD
:100400002067657420322E346720776F726B206D01
:100410006F64650A70687920202020202020202029
:1004200020202020202020202020202020202020CC
:100430002020202020202020736574207068790AF5
:10044000616120202020202020202020202020202A
:10045000202020202020202020202020202020209C
:1004600020202020736574206163636573732061AD
:100470006464726573730A706F7765722020202040
:10048000202020202020202020202020202020206C
:10049000202020202020202020202073657420741C
:1004A0007820706F7765720A6368616E6E656C2084
:1004B000202020202020202020202020202020203C
:1004C0002020202020202020202020207365742040
:1004D0006368616E6E656C0A7478636F6E202020AD
:1004E000202020202020202020202020202020200C
:1004F000202020202020202020202020322E346781
:1005000020747820636F6E74696E75730A74786FE7
:100510006E65202020202020202020202020202048
:1005200020202020202020202020202020202020CB
:10053000207478206F6E65207061636B657420771E
:100540006974682078207061796C6F61640A7374D3
:100550006F70636F6E20202020202020202020201C
:10056000202020202020202020202020202020208B
:10057000202073746F7020322E346720636F6E7486
:10058000696E75732074782F72780A7278636F6E53
:10059000202020202020202020202020202020205B
:1005A0002020202020202020202020202020203239
:1005B0002E346720727820636F6E7469756E730ACB
:1005C00072786F6E6520202020202020202020209F
:1005D000202020202020202020202020202020201B
:1005E000202020207278206F6E65207061636B651B
:1005F0007420776974682078207061796C6F616409
:100600000A74696D656F75742020202020202020D9
:1006100020202020202020202020202020202020DA
:1006200020202020207365742072782074696D6505
:100630006F75740A72786461746120202020202014
:1006400020202020202020202020202020202020AA
:1006500020202020202020206765742072782064CC
:100660006174610A7278696E742020202020202035
:10067000202020202020202020202020202020207A
:100680002020202020202020636C65617220727859
:1006900020696E746572727570740A6576656E7421
:1006A000696E74202020202020202020202020205F
:1006B00020202020202020202020202020202063F7
:1006C0006C65617220747820696E746572727570E1
:1006D000740A00FFFFFFFAAAAA48C000020FFFFF3A
:1006E000FF00000387E0FFFFFFF5555524A0000140
:1006F0000FFFFFFE800003A7E0FFFFFFFAAAA8900C
:100700009000008FFFFFFE40000397E0FFFFFFF522
:100710005556488800004FFFFFFE200003C7E0FF4A
:10072000FFFFFAAAA9268400002FFFFFFE10000396
:1007300087E0FFFFFFF55554928200001FFFFFFE88
:100740000800038FE0FFFFFFFAAAAA4A8100020F08
:10075000FFFFFE04000387E0FFFFFFF555552680ED
:1007600080010FFFFFFE020003A7E0FFFFFFFAAAD0
:10077000A8928040008FFFFFFE01000397E0FFFF7B
:10078000FFF555564A8020004FFFFFFE008003C74B
:10079000E0FFFFFFFAAAA9268010002FFFFFFE004E
:1007A000400387E0FFFFFFF55554918008001FFFCD
:1007B000FFFE0020038FE0FFFFFFFAAAAA49800492
:1007C000000FFFFFFE00100387E0FFFFFFF5555508
:1007D000258002000FFFFFFE00080387E0FFFFFFF8
:1007E000FAAAA8918001000FFFFFFE00040387E032
:1007F000FFFFFFF55556498000800FFFFFFE000206
:100800001387E0FFFFFFFAAAA9258000400FFFFF32
:10081000FE00010B87E0FFFFFFF555549180002497
:100820000FFFFFFE00008787E0C800000000000007
:10083000000000010000000000000000D0000000E7
:10084000000000000000020000000000000000C4E2
:100850000000000000000000000080000000000018
:100860000000FFFFFFFAAAAA488000100FFFFFFE5A
:1008700000004387E0FFFFFFF55555248000080F77
:10088000FFFFFE00002387E0C000000000000040E2
:100890000000000000010000000000C00000000097
:1008A0000000200000000000008000000000C000E8
:1008B00000000000001000000000000040000000E8
:1008C00000C2000000000000000000004000000026
:1008D00000000000C1000000000000000000002037
:1008E00000000000000000C08000000000000000C8
:1008F00000001000000000000000C0000000000028
:1009000000080000000000002000000000C00000FF
:1009100000000000040000000000001000000000C3
:10092000FFFFFFFAAAA8908200000FFFFFFE080059
:100930000387E0C00000000000000100000000008C
:10094000000400000000C000000000000000800063
:10095000000000000200000000FFFFFFF555564BAD
:100960008040000FFFFFFE01000387E0FFFFFFFA5A
:10097000AAA9278020000FFFFFFE00800387E0C0A8
:100980000000000000000010000000000000400017
:100990000000C0000000000000000800000000008F
:1009A0000020000000C00000000000000004000063
:1009B0000000000010000000C00000000000000067
:1009C0000200000000000008000000C0000000005D
:1009D0000000000100000000000004000000C00052
:1009E0000000000000000080000000000002000085
:1009F00000000080B582B001901421C4F2150108F6
:100A000068022262F3524008600421C4F215010812
:100A100068042262F3102008600198000248300048
:100A200021C4F21501086040F66D3080471020C4E3
:100A3000F21500006802B080BD000000DD281CD85F
:100A40006967484152444641554C543A0A50432044
:100A50003A203078253038580A4C52203A203078E5
:100A6000253038580A5053523A20307825303858BB
:100A70000A5230203A203078253038580A52312036
:100A80003A203078253038580A5232203A203078CF
:100A9000253038580A5033203A20307825303858DD
:100AA0000A5231323A203078253038580A005B4FEC
:100AB0004F4D5D20402025640A005B415353455251
:100AC00054494F4E5D20402025733A25640A007733
