:020000040202F6
:10A00000000000005DA802026DA802026DA8020215
:10A010006DA802026DA802026DA8020200000000F5
:10A020000000000000000000000000006DA8020217
:10A030006DA80202000000006DA802026DA80202D5
:10A040006DA802026DA802026DA802026DA80202AC
:10A050006DA802026DA802026DA802026DA802029C
:10A060006DA802026DA802026DA802026DA802028C
:10A070006DA802026DA802026DA802026DA802027C
:10A080006DA802026DA802026DA802026DA802026C
:10A090006DA802026DA802026DA802026DA802025C
:10A0A0006DA802026DA802026DA802026DA802024C
:10A0B0006DA802026DA802026DA802026DA802023C
:10A0C0006DA802026DA802026DA802026DA802022C
:10A0D0006DA802026DA802026DA802026DA802021C
:10A0E0006DA802026DA802026DA802026DA802020C
:10A0F0006DA802026DA802026DA802026DA80202FC
:10A100006DA802026DA802026DA802026DA80202EB
:10A110006DA802026DA802026DA802026DA80202DB
:10A12000DFF80CD000F0C0FB0048004787A802020F
:10A130003C61002080B50C2001F0F4FE0021C4F247
:10A140001101086840F0010008605021C4F21101BB
:10A15000086840F48050086040F20041C4F21101E8
:10A160000868172262F31740086040F20442C4F204
:10A1700011021068012363F3020010605C22C4F234
:10A180001102106840F480501060086840F002002E
:10A190000860FFE75820C4F211000068000BC007F8
:10A1A00008B9FFE7F6E75C21C4F21101086840F442
:10A1B000805008600C2001F0D1FE80BD81B0ADF868
:10A1C0000200ADF80010BDF8002040F20C41C4F2CE
:10A1D00011010868C0EA02400860BDF8022040F2A0
:10A1E0000841C4F21101086862F3070008600868BA
:10A1F00040F400700860FFE740F20840C4F211002C
:10A200000068400AC00708B1FFE7F5E701B07047F2
:10A2100080B588B00790FFF78DFF079840898000D0
:10A22000013081B22220FFF7C9FF0021C4F21101E1
:10A230000291086840F0010008600798427B0868B6
:10A2400002F0010220F0100040EA021008600868E5
:10A250000E2262F3194008605022C4F211020392E8
:10A26000106840F4807010600798037E106803F057
:10A27000010320F0040040EA830010600798437E49
:10A28000106803F0010320F0020040EA4300106070
:10A29000106840F40050106040F20442C4F2110211
:10A2A0001068012363F302001060086840F00400A6
:10A2B00008607821C4F2110108680F2262F30F00D0
:10A2C00008600868C0F20F00086040F21C41C4F248
:10A2D00011010868932262F3070008600798007A6A
:10A2E00050B9FFE740F21C41C4F211010868642232
:10A2F00062F3133008600FE00798007A01280AD152
:10A30000FFE740F21C41C4F2110108686E2262F3BB
:10A3100013300860FFE7FFE746F2D000C2F200000A
:10A32000006846F2C802C2F200020092116848605A
:10A3300046F2CC01C2F20001086840F00040136808
:10A340009860079840681368D86007980069136898
:10A3500018610798807B00F03F0000021368586185
:10A3600013684FF0FF3098610798007B00061F309C
:10A370001368D861079843694FF0011040EA430021
:10A38000136818621368002001905862D2F800C068
:10A390000023CFF6FF73CCF828301368D862136817
:10A3A000186313685863136898631368D863136855
:10A3B000186413685864136898641368D864136841
:10A3C000186513685865136898651368D86513682D
:10A3D000186612685066096805918DF81B00FFE742
:10A3E0009DF81B0000282BDCFFE7059800F21710F2
:10A3F00020F003000430049005989DF81B1045F2EE
:10A400008053C2F200034FF4867211FB0231C1F88F
:10A410000401049805990860059900204860059991
:10A4200088600599C8600599086105994861049894
:10A430000590FFE79DF81B0001308DF81B00CFE76A
:10A4400008B080BD80B586B00590049100208DF8DD
:10A450000F000598007A8DF80E000598007878B9FD
:10A46000FFE79DF80E0000F0030040EA800000F1D5
:10A47000006046F2C801C2F200010968086017E0F6
:10A4800005980078012812D1FFE79DF80E0000F032
:10A49000030040EA800040F20011C0F6004108438A
:10A4A00046F2C801C2F2000109680860FFE7FFE751
:10A4B00046F2D000C2F200000068029005980078D1
:10A4C000012814D1FFE702981030019001980299F9
:10A4D00008609DF80F0000F003000006103002999C
:10A4E000486002990020886001980290FFE7029876
:10A4F0000499496808440C3020F0030004300190AE
:10A5000002980499086101980299086004980079FA
:10A5100040019DF80F1001F0030140EA016000F5D1
:10A5200000500299486002990020009088600298CB
:10A530000C3004994A68896800F0F9F9009801998B
:10A54000029146F2CC01C2F200010968029102991F
:10A5500001F2171121F003010431019102994860C1
:10A560000198029006B080BD85B0049003910292DC
:10A570000193049801990968884206D2FFE701997E
:10A580000868049A801A086033E004980199096801
:10A5900088422DD3FFE7039800680090039A116862
:10A5A0000498019B1B68C31A41F25970CDF2B71091
:10A5B000A3FB00C301EB532101311160049A0199FF
:10A5C0000B68D21AA2FB0030400A40F271235843B4
:10A5D000801A00F271200860039800680099884290
:10A5E00005D2FFE70299087801300870FFE7FFE71E
:10A5F000FFE705B0704700BF80B584B040F2383146
:10A60000C4F21101086840F001000860FFE740F261
:10A610003830C4F211000068C00708B1FFE7F6E760
:10A6200040F23030C4F2110000688DF80B0040F2A7
:10A630002C30C4F211000068039040F23430C4F2B0
:10A64000110000686FF39F20019046F2C800C2F22B
:10A6500000000090026840F20C11C4F21101086879
:10A6600062F311000860FA2003A90DF10B0201AB9F
:10A67000FFF77AFF0099039840F20412C4F2110226
:10A6800010609DF80B3040F20812C4F211021068FD
:10A6900020F0FF0018441060019A40F27120801AE7
:10A6A00000040968486240F20011C4F21101086810
:10A6B00040F00100086004B080BD00BF80B584B0E8
:10A6C0008DF80E00029145F61031C2F20001012012
:10A6D000087045F6F620C2F20000007820B9FFE7C6
:10A6E00001208DF80F0037E045F61030C2F200006F
:10A6F0000078012804D1FFE702208DF80F002BE03D
:10A7000045F61030C2F200000078022804D1FFE7BD
:10A7100003208DF80F001FE0FFE79DF80E00B0F555
:10A72000807F04DBFFE7FF208DF80E00FFE79DF838
:10A730000E0045F29071C2F20001486002988860F4
:10A7400045F26450C2F20000FFF77CFEFFF754FFB1
:10A7500000208DF80F00FFE79DF80F0004B080BDCA
:10A7600080B5C2B00821C4F20001086820F00200E0
:10A77000086045F29071C2F20001012008700020CB
:10A780008DF80701FFE79DF8070145F29071C2F2CD
:10A7900000010978884218DAFFE79DF8070145F2C1
:10A7A0009071C2F20001043101EB00120DF10700BB
:10A7B00050609DF807010201FF208850FFE79DF8D7
:10A7C000070101308DF80701DDE700208DF8070152
:10A7D000FFE79DF807011F280CDCFFE79DF8070144
:10A7E0000DF107010854FFE79DF8070101308DF8CE
:10A7F0000701EEE745F26450C2F20000FFF708FDE2
:10A8000045F61031C2F200010020087042B080BD50
:10A8100081B02821C4F20001086820F000700860AF
:10A820000421C4F21101086840F010000860002003
:10A830000090FFE700984F2806DCFFE700BFFFE726
:10A84000009801300090F5E72821C4F20001086863
:10A8500040F00070086001B07047000002B5EFF3EF
:10A86000088181F309880B48004700000A48016805
:10A870006FF35F210F2903DC084850F821000047DF
:10A8800008460749084707488047EFF3098181F3E5
:10A89000088802BDA9A8020204ED00E00020000221
:10A8A00065BC0202C5C00202064C074D06E0E06826
:10A8B00040F0010394E8070098471034AC42F6D307
:10A8C000FFF732FC8CFE0202ACFE02022DE9F05FC3
:10A8D0000546002092469B4688460646814640240F
:10A8E0001BE0284641464746224600F0B2F953464F
:10A8F0005A46C01A914110D311461846224600F01C
:10A9000099F92D1A67EB01084F46224601200021D4
:10A9100000F090F917EB00094E41201EA4F101044C
:10A92000DFDC484631462A464346BDE8F09F40EA10
:10A9300001039B0703D009E008C9121F08C0042ABD
:10A94000FAD203E011F8013B00F8013B521EF9D2A4
:10A950007047421C10F8011B0029FBD1801A704778
:10A9600030B504460020034600E05B1C934203D24E
:10A97000E05CCD5C401BF8D030BD034611F8012BE4
:10A9800000F8012B002AF9D1184670472DE9F04153
:10A990000E460546002400E0641C285D00F07BF9AB
:10A9A0000746305D00F077F9381A02D1295D002999
:10A9B000F2D1BDE8F0812DE9FE4F804681EA030027
:10A9C000C00F0C46009021F0004123F00045B8EB89
:10A9D0000200A94105D24046214690461C460B463E
:10A9E000024623F00040104347D0270DC7F30A006A
:10A9F000C3F30A510290401A019040286BDAC3F366
:10AA0000130040F4801B0098924620B10023D2EB43
:10AA1000030A63EB0B0B01985946C0F14002504604
:10AA200000F008F906460D4650465946019A00F0D6
:10AA300020F910EB08006141002487EA115284EAF2
:10AA4000E7731A4340D0009A62B3019A012A4FEA91
:10AA5000075215DC001B61EB02014FF0004202EAD5
:10AA60000752CDE90042001C41F5801132462B46C9
:10AA700000F026F903B0BDE8F08F40462146F9E723
:10AA8000001B61EB0201001C41F5801300185B41C3
:10AA90002018A2F5001747EB030140EAD570B6195C
:10AAA0006D4111E06D084FEA360645EAC0754FEA80
:10AAB0000752001B61EB0201001C41F5801149089F
:10AAC0004FEA30000019514132462B4603B0BDE831
:10AAD000F04F00F0E6B80098012240000023D0EBD0
:10AAE000020263EBE073009821464FEAE074B8EB92
:10AAF000000061EB0401E9E783F000435BE781F0CC
:10AB0000004158E72DE9F04D81EA030404F0004BC1
:10AB100021F0004514464FF0000A23F0004150EAAE
:10AB2000050220D054EA01021DD0C5F30A5702469F
:10AB3000C5F31303C1F31300C1F30A5640F48015A3
:10AB400043F48013A7EB0608101BD64608F2FD3825
:10AB500073EB050002D308F1010801E092185B4194
:10AB6000B8F1000F03DA00200146BDE8F08D0020A7
:10AB70004FF48011064684460EE0171B73EB050761
:10AB800005D3121B63EB050306434CEA010C49088D
:10AB90004FEA300092185B4150EA0107EDD152EACA
:10ABA000030012D082EA040083EA0501084305D0BD
:10ABB000101BAB4106D20122002306E000224FF019
:10ABC000004302E06FF0010253101AEB06004CEB59
:10ABD000085110EB0A0041EB0B01BDE8F04D00F00D
:10ABE00060B800F0004230F000400AD0C10D01F51D
:10ABF0006071C0F3160042EA0151C20840071143D8
:10AC0000704700200146704730B50B4601460020D2
:10AC10002022012409E021FA02F59D4205D303FA1E
:10AC200002F5491B04FA02F52844151EA2F101029F
:10AC3000F1DC30BD202A04DB203A00FA02F10020CA
:10AC400070479140C2F1200320FA03F3194390406A
:10AC50007047202A04DB203A21FA02F000217047D5
:10AC600021FA02F3D040C2F1200291400843194674
:10AC70007047202A06DBCB17203A41FA02F043EA5C
:10AC8000E07306E041FA02F3D040C2F120029140A5
:10AC9000084319467047A0F14101192900D8203016
:10ACA000704710B5141E73F1000408DA401C41F11E
:10ACB000000192185B411A4301D120F0010010BD40
:10ACC0002DE9F04D92469B4611B1B1FA81F202E0B6
:10ACD000B0FA80F220329046FFF7ACFF04460F46F0
:10ACE00040EA0A0041EA0B0153465A46084313D092
:10ACF000114653EA010019D0C8F140025046FFF74F
:10AD0000A8FF05460E46504659464246FFF792FFB9
:10AD1000084305D0012004E020463946BDE8F08D07
:10AD20000020054346EAE0762C4337430A98630542
:10AD3000E40AA0EB08000022FD0A44EA47540A3066
:10AD400002D500200146E9E7010510196941DDE956
:10AD5000084500196941BDE8F04DA2E72DE9FE4F15
:10AD600081EA030404F0004421F0004100944FF014
:10AD7000000B23F0004350EA01045ED052EA0304C2
:10AD80005BD0C3F30A54C1F30A552C44A4F2F33444
:10AD90000194A0FB0254C1F3130141F48011C3F3E9
:10ADA000130343F4801301FB024400FB034E840AA7
:10ADB000970A44EA815447EA8357A4FB076802953F
:10ADC0008D0A05FB07854FEA932C04FB0C542705DD
:10ADD000029D4FEA065847EA1637B5EB08056EEBB9
:10ADE000070C870E920E47EA811742EA8312A7FBEF
:10ADF0000201B6EB0B0164EB00042B0D43EA0C33AC
:10AE00005E1844EB1C50DA465146E7FB0201C5F3DD
:10AE100013044FEA0B3343EA14534FEA0432019C04
:10AE200043EA0603A4F10C040294009CCDE900B4AB
:10AE3000FFF746FF03B0BDE8F08F00200146F9E7B9
:10AE4000C1F30A52C1F3130140F2FF3341F4801100
:10AE50009A4202DA00200146704740F233439A4298
:10AE6000A2F2334202DC5242FFF7F3BEFFF7E2BE2A
:10AE700030B5041E71F1000404DB4FF00044404281
:10AE800064EB0101141E73F1000405DB1C464FF056
:10AE90000043524263EB0403994208BF904230BD25
:10AEA00080B582B002F01AFB45F26050C2F2000099
:10AEB00002F0B0FB45F28C60C2F2000002F0C6FB6B
:10AEC0008DF8070045F23951C2F2000108780130CF
:10AED000087045F6F720C2F200000078012826D15C
:10AEE000FFE745F26050C2F20000007890B9FFE73A
:10AEF0009DF807104FF47A7003F0C8F845F231500E
:10AF0000C2F20000007845F23951C2F20001FFF7A9
:10AF1000D5FB0BE045F23850C2F20000007845F254
:10AF20003951C2F2000102F0F3FEFFE7FFE702B081
:10AF300080BD000045F26401C4F201014FF0FF3012
:10AF4000086046F26401C4F2010108607047000025
:10AF500080B588B08DF81F008DF81E108DF81D206B
:10AF60009DF81F1045F20000C4F201001429C4BF6F
:10AF700046F20000C4F2010006909DF81F0015285B
:10AF800005DBFFE79DF81F001538019003E09DF8F1
:10AF90001F000190FFE7019805909DF81E009DF8A5
:10AFA0001D1002F0BBFF8DF813009DF8130040B98F
:10AFB000FFE7069850309DF81410002200F000F9C9
:10AFC00029E00598C11700EB5170C0100390059857
:10AFD00000F00700800002900299072000FA01F2B9
:10AFE0000698039900EB8101486D904348659DF8F0
:10AFF0001300029900FA01F20698039900EB81010F
:10B00000486D10434865069850309DF81410012291
:10B0100000F0D6F8FFE708B080BD000082B08DF8E0
:10B0200007008DF806108DF805209DF805109DF895
:10B03000060040EAC17000909DF80700C00738B1D3
:10B04000FFE7009845F27401C4F201010860FFE7D0
:10B050009DF807008007002807D5FFE7009846F213
:10B060007401C4F201010860FFE702B070470000FC
:10B0700080B584B08DF80F008DF80E109DF80F107C
:10B0800045F20000C4F201001429C4BF46F20000DA
:10B09000C4F2010002909DF80F00152805DBFFE7C0
:10B0A0009DF80F001538009003E09DF80F00009008
:10B0B000FFE700980190029870309DF804109DF809
:10B0C0000E2000F07DF804B080BD000080B582B095
:10B0D0008DF807009DF8072042F21000C4F210001E
:10B0E000072100F06DF8FFE740F20010C4F21000F5
:10B0F0000068C0F3C0409DF80710884201D0FFE708
:10B10000F2E702B080BD000080B586B08DF8170070
:10B110009DF8170048B3FFE740F2A810C4F21000F2
:10B120000E21012200F04CF8FFE70A200490FFE70F
:10B130000498411E049110B1FFE700BFF8E7FFE754
:10B1400040F2A810C4F210000F21012200F038F8DC
:10B15000FFE70A200390FFE70398411E039110B117
:10B16000FFE700BFF8E7FFE728E040F2A810C4F2CD
:10B1700010000F21002200F023F8FFE70A200290C0
:10B18000FFE70298411E029110B1FFE700BFF8E708
:10B19000FFE740F2A810C4F210000E21002200F0D8
:10B1A0000FF8FFE70A200190FFE70198411E019187
:10B1B00010B1FFE700BFF8E7FFE7FFE706B080BD8B
:10B1C00083B002908DF807108DF806209DF80710C7
:10B1D00001208840009002980068009988439DF8FB
:10B1E00006109DF80720914008430299086003B0BB
:10B1F0007047000080B586B08DF817008DF81610E6
:10B200009DF8171045F20000C4F201001429C4BFD4
:10B2100046F20000C4F2010004909DF817001528C2
:10B2200005DBFFE79DF817001538029003E09DF855
:10B2300017000290FFE7029803909DF8160003287C
:10B2400017D0FFE7049828309DF80C109DF81620C1
:10B25000002A18BF0122FFF7B3FF049834309DF88D
:10B260000C109DF81620B2FA82F25209FFF7A8FFDF
:10B270000FE0049828309DF80C1000220192FFF78F
:10B280009FFF019A049834309DF80C10FFF798FF47
:10B29000FFE706B080BD000080B582B00821C4F28F
:10B2A0000001086820F0020008600C21C4F20001CF
:10B2B000086840F0040008601421C4F20001086826
:10B2C00040F0010008600C20019000F013FE01988E
:10B2D00000F044FE02B080BD81B0ADF80200BDF8C0
:10B2E000022040F20841C4F21101086862F307002D
:10B2F0000860086840F480700860FFE740F208408A
:10B30000C4F211000068000AC00708B1FFE7F5E7C2
:10B3100040F20C40C4F21100006880B201B07047E6
:10B3200086B08DF817008DF816109DF81700049060
:10B33000049900201F29C8BF01200390049800F041
:10B340001F01012088400290039946F28000C4F258
:10B35000000000EB81000190039946F28800C4F2DE
:10B36000000000EB810000909DF8160030B9FFE767
:10B37000029A019908689043086016E09DF816004B
:10B38000012806D1FFE7029A009908681043086077
:10B3900005E0029A0099086890430860FFE7029A66
:10B3A0000199086810430860FFE7002006B0704765
:10B3B00080B584B08DF80B008DF80A109DF80B0055
:10B3C0009DF80A1003F00EF801900198B0F1FF3FCC
:10B3D00003DCFFE701980390BAE09DF80B00112809
:10B3E00012DCFFE79DF80B2046F20000C4F20000DB
:10B3F000104320F00300019902F00302C2EBC203E4
:10B40000072202F025FFA0E09DF80B00142810DCB5
:10B41000FFE701999DF80B206FF0150000EB42004B
:10B42000C3B246F21000C4F20000022202F010FF84
:10B430008AE09DF80B0015280AD1FFE7019946F232
:10B440001000C4F200000722142302F001FF7AE08A
:10B450009DF80B0016280AD1FFE7019946F2140067
:10B46000C4F200000722002302F0F2FE6AE09DF819
:10B470000B001E2810DCFFE701999DF80B206FF0F0
:10B48000260000EB4200C3B246F21400C4F20000F2
:10B49000022202F0DDFE54E09DF80B001F280AD1C5
:10B4A000FFE7019946F21400C4F2000007221723B7
:10B4B00002F0CEFE44E09DF80B0020280AD1FFE701
:10B4C000019946F21400C4F2000002221E2302F089
:10B4D000BFFE34E09DF80B0021280AD1FFE7019957
:10B4E00046F21800C4F200000222002302F0B0FE6F
:10B4F00024E09DF80B0023280FDCFFE701999DF85D
:10B500000B00C0EBC000EC38C3B246F21800C4F226
:10B510000000072202F09CFE0FE001999DF80B202D
:10B520006FF0370000EB4200C3B246F21800C4F2DD
:10B530000000022202F08CFEFFE7FFE7FFE7FFE7D3
:10B54000FFE7FFE7FFE7FFE7FFE700200390FFE7E4
:10B55000039804B080BD000080B588B0ADF81C0031
:10B560000691059245F6F620C2F20000007820B957
:10B57000FFE701208DF81F0062E045F61030C2F2AF
:10B5800000000078012804D1FFE702208DF81F0099
:10B5900056E045F61030C2F200000078022804D1CF
:10B5A000FFE703208DF81F004AE0FFE7BDF81C000D
:10B5B0008000013081B22220FEF700FE692041F6B2
:10B5C0009B11FEF7FBFD142041F29301FEF7F6FDFF
:10B5D000F5F790FA019100900099019845F23452E4
:10B5E000C2F200021268891840F100000291039033
:10B5F000FFE7009B0199029A0398D21A884105D36C
:10B60000FFE7F5F777FA01910090F2E71720FFF7CF
:10B6100063FEADF81200142041F21301FEF7CEFDD7
:10B62000BDF812006FF3DF2006990880BDF8120004
:10B63000C0F3C2200599088000208DF81F00FFE7A5
:10B640009DF81F0008B080BD80B501F07BFF80BD74
:10B6500080B582B00190019800EB400145F2A470E2
:10B66000C2F2000000EBC100183000F073FB02B022
:10B6700080BD000080B500F01FFB80BD80B586B0A6
:10B68000059004910392FFE745F2A470C2F2000016
:10B69000007818B9FFE700F00FFBFFE7FFE7EFF3D3
:10B6A00011804FF0200181F31188019005980499D1
:10B6B000039A00F007F80290019880F3118802982D
:10B6C00006B080BD80B58AB00990089107920898AD
:10B6D0000490099800EB400145F2A470C2F200000A
:10B6E00000EBC1001830039003984069029040B10C
:10B6F000FFE70298012819D0FFE7029802282CD012
:10B7000032E0039800F026FB0590059807998842DF
:10B7100003D2FFE70020069007E007980690039801
:10B720000499079A00F0A6FBFFE720E0039800F0D9
:10B7300011FB059005980799884203D2FFE7059809
:10B74000019002E007980190FFE7019806900398A6
:10B750000499069A00F08EFB09E003980499079A71
:10B7600000F018FB069002E000200690FFE7069824
:10B770000AB080BD80B582B08DF807009DF8070043
:10B78000012100F025F802B080BD000080B582B034
:10B79000019000208DF80300FFE79DF803001828B2
:10B7A00013DCFFE701989DF80310C840C00728B1DB
:10B7B000FFE79DF80300FFF7DDFFFFE7FFE79DF8D8
:10B7C000030001308DF80300E7E702B080BD000000
:10B7D00080B586B08DF817008DF816109DF817000B
:10B7E00001460491182800F2B3810499DFE811F0B2
:10B7F00019002A003B004C005D006E007F009000A5
:10B80000A100B200CA00E300F4000D011E012F01E7
:10B810004001510162016B0174017D0186019701B4
:10B82000A7019DF816100C20C4F20000152202F0AA
:10B83000F5FC9DF816101420C4F20000122202F04C
:10B84000EDFC86E19DF816100C20C4F200001622D3
:10B8500002F0E4FC9DF816101420C4F2000012223D
:10B8600002F0DCFC75E19DF816100C20C4F200001B
:10B87000022202F0D3FC9DF816101420C4F200003E
:10B88000002202F0CBFC64E19DF816100C20C4F2FB
:10B890000000032202F0C2FC9DF816101420C4F22E
:10B8A0000000012202F0BAFC53E19DF816100C20B2
:10B8B000C4F20000042202F0B1FC9DF8161014201E
:10B8C000C4F20000022202F0A9FC42E19DF8161029
:10B8D0000C20C4F20000012202F0A0FC9DF816101A
:10B8E0001420C4F20000112202F098FC31E19DF80E
:10B8F00016100C20C4F20000052202F08FFC9DF807
:10B9000016101420C4F200000A2202F087FC20E185
:10B910009DF816100C20C4F20000082202F07EFCF4
:10B920009DF816101420C4F20000092202F076FCE3
:10B930000FE19DF816100C20C4F20000092202F05D
:10B940006DFC9DF816105420C4F200000C2202F089
:10B9500065FCFEE09DF816100C20C4F200000A22DF
:10B9600002F05CFC9DF816101420C4F20000039055
:10B97000132202F053FC03989DF81610142202F0D3
:10B980004DFCE6E09DF816100C20C4F200000B22DE
:10B99000019202F043FC019A9DF816101420C4F2A3
:10B9A0000000029002F03AFC02989DF81610102256
:10B9B00002F034FCCDE09DF816100C20C4F200001B
:10B9C0000C2202F02BFC9DF816100820C4F2000097
:10B9D000002202F023FCBCE09DF816100820C4F2FF
:10B9E00000000C2202F01AFC9DF816100C20C4F284
:10B9F00000000D2202F012FC9DF816101420C4F273
:10BA00000000062202F00AFCA3E09DF816100C20AC
:10BA1000C4F200000E2202F001FC9DF81610142062
:10BA2000C4F20000072202F0F9FB92E09DF8161024
:10BA30000C20C4F200000F2202F0F0FB9DF816105B
:10BA40001420C4F200000C2202F0E8FB81E09DF813
:10BA500016100C20C4F20000102202F0DFFB9DF84B
:10BA600016101420C4F20000082202F0D7FB70E088
:10BA70009DF816100C20C4F20000112202F0CEFB3B
:10BA80009DF816101420C4F20000042202F0C6FB38
:10BA90005FE09DF816100C20C4F20000122202F0A4
:10BAA000BDFB9DF816101420C4F20000052202F020
:10BAB000B5FB4EE09DF816100C20C4F200001322D6
:10BAC00002F0ACFB45E09DF816100C20C4F200001B
:10BAD000142202F0A3FB3CE09DF816100C20C4F2E7
:10BAE0000000002202F09AFB33E09DF816100C20B3
:10BAF000C4F20000062202F091FB2AE09DF8161025
:10BB00000C20C4F20000172202F088FB9DF81610EA
:10BB10001420C4F200000E2202F080FB19E09DF810
:10BB200016108020C4F200000090052202F076FB7F
:10BB300000989DF81610072202F070FB09E09DF8AE
:10BB400016100C20C4F20000192202F067FB00E07E
:10BB5000FFE706B080BD000080B584B001F014FBA3
:10BB60000190019818B9FFE70120039056E0019871
:10BB7000017842F20800C4F210000722042302F008
:10BB800089FB00200290FFE702980F2819D8FFE7F1
:10BB90000198029900EB4100808840F2A64188425A
:10BBA0000ADBFFE7029942F20000C4F2100004220F
:10BBB0001C2302F06FFB04E0FFE7029801300290C3
:10BBC000E2E70298102803D3FFE70220039025E064
:10BBD00001200290FFE702980F2815D8FFE701988F
:10BBE000029900EB4100808C40F29D41884206DBC7
:10BBF000FFE702980138C0B200F014F804E0FFE754
:10BC0000029801300290E6E70298102803D3FFE77C
:10BC10000320039002E000200390FFE7039804B0A4
:10BC200080BD000080B582B08DF807009DF8070048
:10BC300000F00F0142F20000C4F2100004220123C0
:10BC400002F028FB02B080BD80B501F0AFFC80BDE2
:10BC500082B001908DF803109DF8030001990860EF
:10BC600002B0704780B582B04EF60450CEF20000AC
:10BC700000686FF35F200190019942F20000C0F26A
:10BC8000002050F82100009045F6F620C2F2000096
:10BC9000007801280BD1FFE701981C2806D1FFE7A7
:10BCA00002F084F908B9FFE704E0FFE7FFE7009836
:10BCB0008047FFE702B080BD80B582B045F2A47036
:10BCC000C2F20000019001990120086101994861C8
:10BCD00001984FF65761C0F202218161019A45F245
:10BCE000FC70C2F20000D061019A4FF4FA70106249
:10BCF000019A00209062019A5062019AD062019AE2
:10BD00001163019A45F2EC71C2F200015163019A8C
:10BD100010219163019908640199C86301994864ED
:10BD2000019807304FF65361C0F20221FEF725FE5D
:10BD3000BFF35F8F01984FF64C61C0F20221FEF70E
:10BD40001CFEBFF35F8F019920208871BFF35F8FC6
:10BD500002B080BD84B003900398006902900398FC
:10BD6000C068019002980199884209D8FFE70398BA
:10BD700080680199401A029908440138009005E052
:10BD800002990198C04308440090FFE7009804B06E
:10BD90007047000080B58AB0099008910792002092
:10BDA00005900998C0680390FFE70998006904901E
:10BDB00004980399884206D9FFE704990398C04381
:10BDC0000844069008E0099881680398049A801A4C
:10BDD000C04308440690FFE7069809998968039ACA
:10BDE000891A884203D2FFE70698029005E0099875
:10BDF00080680399401A0290FFE70298069006981F
:10BE00000799884203D2FFE70698019002E007985D
:10BE10000190FFE70198069009984068039908444B
:10BE20000899069AFEF783FD06990598084405903F
:10BE3000069908980844089006990798401A0790B0
:10BE400006990398084403900398099989688842E1
:10BE500003D1FFE700200390FFE7BFF35F8F039854
:10BE60000999C860FFE7079800289ED1FFE7059869
:10BE70000AB080BD80B586B0059004910392059804
:10BE8000C0680190059880680199401A0090009858
:10BE90000399884210D9FFE7059840680199084442
:10BEA0000499039AFEF743FDBFF35F8F019803994E
:10BEB00008440599C8601BE0009802900598406806
:10BEC000019908440499029AFEF731FD03980099FC
:10BED000401A0290059840680499009A1144029A09
:10BEE000FEF725FDBFF35F8F02980599C860FFE755
:10BEF00006B080BD81B08DF803009DF903000028D5
:10BF00000ED4FFE79DF9031001F01F0201209040BD
:10BF10004A094EF28021CEF2000141F82200FFE7EB
:10BF200001B0704781B08DF803009DF9030000282F
:10BF300012D4FFE79DF9031001F01F020120904089
:10BF40004A094EF28011CEF2000141F82200BFF3FF
:10BF50004F8FBFF36F8FFFE701B0704781B08DF84F
:10BF600003009DF9030000280ED4FFE79DF903109C
:10BF700001F01F02012090404A094EF20011CEF25A
:10BF8000000141F82200FFE701B0704786B005903C
:10BF9000049103920498C0000399B0FBF1F0029061
:10BFA0000298C009019001990298A0EBC11002907B
:10BFB0000298013040080090019805994862BDF848
:10BFC000060018B9FFE7019810B9FFE7FFE7FEE7A1
:10BFD00001984FF6FF71884204D1FFE705990020D0
:10BFE000886207E001990298401A0290009805992A
:10BFF0008862FFE70598C06A0599C86206B0704775
:10C0000081B0009000988069C0F3001001B07047C3
:10C0100081B0009000988069C0F3401001B0704773
:10C0200081B000900098C06B01B0704780B584B0BB
:10C0300003900291019203990020086303994864D8
:10C040000399886303994860039948620399886259
:10C050000399C8620398029AD1681269FFF796FFA4
:10C06000029890F800C041788378C278802000EA76
:10C07000411040EA4C1040EA031040EAC20001F0CF
:10C08000030140EA41000399C8620298B0F8090030
:10C09000000400BA039948630198039988630299E0
:10C0A000087991F805C08B79CA79400240EA0C20E2
:10C0B000184440EAC230097A40EA813003990863A3
:10C0C00004B080BD80B582B001F044F84FF2341066
:10C0D000C0F20220F4F78AFD02F030F9FFF73CFDD0
:10C0E00046F23410C2F2000002F0CCF90220002126
:10C0F0000191F4F715FC019A4DF26121C0F2022181
:10C100000120F4F779FD019A4EF25151C0F202215B
:10C110000C20F4F771FD01F053FB02F0F9F901F086
:10C120003FF9019802B080BD80B584B003900291C0
:10C13000ADF8062003984088BDF806100844B0F515
:10C14000327F04D9FFE7039900204880FFE7039876
:10C150004088BDF806100844B0F5327F10D8FFE7DC
:10C1600003984188084404300299BDF80620FEF780
:10C17000DEFBBDF806200399488810444880FFE79D
:10C1800004B080BD80B584B084460698ADF80EC07A
:10C19000ADF80C10ADF80A200193ADF802000020B4
:10C1A00004B080BD80B583B084460698DDF814E005
:10C1B000ADF80AC0ADF80810ADF80620ADF80430AF
:10C1C000ADF80200002003B080BD000080B584B04F
:10C1D0008DF80F009DF80F0098B1FFE70120029045
:10C1E00000F0F4F802994FF22E12C0F20222084633
:10C1F000DAF7C0FB029845F25441C2F20001C87060
:10C200000FE04FF22E12C0F2022200200121019114
:10C21000DAF7B0FB019845F25441C2F2000108710F
:10C22000FFE704B080BD000080B54FF6A110C0F25A
:10C2300002204FF62321C0F20221F4F78DFC45F2D3
:10C240005440C2F20000007948B1FFE745F2544182
:10C25000C2F200010020087100F022F8FFE745F269
:10C260005440C2F20000C07848B1FFE745F25441A3
:10C27000C2F200010020C87000F002F8FFE780BDA4
:10C2800080B54FF6A110C0F202204FF60A21C0F28D
:10C290000221F4F761FC012000F098F880BD000055
:10C2A00080B54FF6A110C0F202204FF6F211C0F295
:10C2B0000221F4F751FC012000F074F800F0A0F81E
:10C2C00080BD000080B582B0ADF806004FF6A11029
:10C2D000C0F202204FF64021C0F20221F4F73CFCEC
:10C2E00045F25440C2F20000807918B1FFE700F037
:10C2F00003F8FFE702B080BD80B582B045F254403C
:10C30000C2F2000000884FF6FF7188420CD0FFE7B0
:10C3100045F25440C2F2000001900088D9F7F8FFBE
:10C32000019901204871FFE702B080BD80B54FF64A
:10C33000A110C0F202204FF65421C0F20221F4F7FE
:10C340000BFC45F25440C2F20000407948B1FFE7CF
:10C3500045F25441C2F200010020487100F050F84B
:10C3600003E00120FFF732FFFFE780BD80B54FF605
:10C37000A110C0F202204FF66B21C0F20221F4F7A7
:10C38000EBFB45F25440C2F20000C07948B1FFE730
:10C3900045F25441C2F200010020C87101F064FD71
:10C3A000FFE780BD81B08DF803009DF8032045F2C2
:10C3B0005441C2F2000188789043887001B0704700
:10C3C00045F25440C2F200008078704781B08DF889
:10C3D00003009DF8030038B9FFE745F25441C2F26B
:10C3E00000010020887009E09DF8032045F25441C7
:10C3F000C2F20001887810438870FFE701B07047EF
:10C4000080B582B045F25440C2F2000000908279BB
:10C410004FF68A10C0F202204FF6BE11C0F2022180
:10C42000F4F79AFB0098807960B1FFE745F2544138
:10C43000C2F200010020887100F08EFF01208DF80B
:10C44000070003E000208DF80700FFE79DF80700D4
:10C4500002B080BD80B582B001F038FD8DF80700D4
:10C460009DF80700012807D1FFE74FF6AC10C0F296
:10C470000220F4F771FB32E0FFF7A2FF02464FF60D
:10C48000A510C0F202204FF6D711C0F20221F4F736
:10C4900063FBFFF795FF18B9FFE700F05DFF1EE0B3
:10C4A00045F25441C2F2000101208871FFF788FF74
:10C4B000C00720B1FFE70020FFF788FEFFE7FFF786
:10C4C0007FFF8007002803D5FFE7FFF715FFFFE791
:10C4D000FFF776FF4007002801D5FFE7FFE702B02E
:10C4E00080BD000080B582B00DF1070001F04CF96D
:10C4F00090B9FFE79DF8070048B9FFE74FF62E30E7
:10C50000C0F20220F4F728FB00F044FF03E0002013
:10C5100000F0D4FFFFE706E04FF61B30C0F2022028
:10C52000F4F71AFBFFE702B080BD000081B0009075
:10C530000098807801B0704780B582B0019000917A
:10C540000198016842684FF64F10C0F20220F4F7DC
:10C5500003FBFFE7FEE7000070B588B00790069187
:10C56000DDF81CC0CDF814C0DCF81810DCF814207D
:10C57000DCF81C30DCF80000DCF804E0DCF80840F3
:10C58000DCF80C50DCF81060EC46CCF81060CCF80D
:10C590000C50CCF80840CCF804E0CCF800004FF682
:10C5A000D700C0F20220F4F7D7FAFFE7FEE7000059
:10C5B00080B582B00190009101994FF64310C0F20E
:10C5C0000220F4F7C9FAFFE7FEE7000080B582B069
:10C5D00001900091FFE741F20000C4F20100FFF773
:10C5E00017FD012801D1FFE7F5E70198017841F235
:10C5F0000000C4F20100FFF72BFB002002B080BD59
:10C6000080B586B0059004914EF60450CEF200003D
:10C6100000686FF35F20B0FA80F040098DF80B00DE
:10C620009DF80B0028B1FFE7F4F73EFA406B804716
:10C63000FFE70020FFF70CF8039005990889498966
:10C640000844039988420EDAFFE7059801680289D9
:10C6500000200190FFF712F80198059A516852895D
:10C66000FFF70CF8FFE79DF80B0028B1FFE7F4F7A0
:10C670001BFA806B8047FFE7002006B080BD0000FA
:10C6800080B582B0019045F25C40C2F200000068C3
:10C6900001F078F98DF803009DF80300012807D117
:10C6A000FFE74FF68840C0F20220F4F755FA19E090
:10C6B00045F25C40C2F2000001689DF803204FF68D
:10C6C0003340C0F20220F4F747FA9DF8030040B966
:10C6D000FFE745F25C41C2F20001086810300860D3
:10C6E000FFE7FFE702B080BD80B582B0019045F260
:10C6F0006040C2F20000008801F080F98DF803006C
:10C700009DF80300012807D1FFE74FF68840C0F2EB
:10C710000220F4F721FA19E045F26040C2F200006D
:10C7200001889DF803204FF6FE30C0F20220F4F796
:10C7300013FA9DF8030040B9FFE745F26041C2F2E9
:10C740000001088805300880FFE7FFE702B080BDE0
:10C7500080B582B0019000F0C1FE8DF803009DF815
:10C760000300012807D1FFE74FF68840C0F20220FE
:10C77000F4F7F2F908E09DF803104FF6AB30C0F281
:10C780000220F4F7E9F9FFE702B080BD80B584B07C
:10C7900003900DF10B0000F0F7FF8DF80A009DF8F3
:10C7A0000A00012807D1FFE74FF69C40C0F20220A3
:10C7B000F4F7D2F929E09DF80B000146019140B150
:10C7C000FFE7019801280BD0FFE7019802280ED05F
:10C7D00014E04FF63D30C0F20220F4F7BDF914E04A
:10C7E0004FF66730C0F20220F4F7B6F90DE04FF6CD
:10C7F0005330C0F20220F4F7AFF906E04FF6B04034
:10C80000C0F20220F4F7A8F9FFE704B080BD0000F1
:10C8100080B584B003900DF10A0000F0FBFE8DF8A6
:10C820000B009DF80B00012807D1FFE74FF69C4055
:10C83000C0F20220F4F790F91EE09DF80A000146CC
:10C84000019120B1FFE70198012807D00DE04FF6D4
:10C85000DC40C0F20220F4F77FF90DE04FF6C9404A
:10C86000C0F20220F4F778F906E04FF66B40C0F210
:10C870000220F4F771F9FFE704B080BD80B582B003
:10C8800001904FF2A510C0F202200090FEF761F86F
:10C8900001460098013189B201F0FCFD02B080BD73
:10C8A00080B582B0019045F26240C2F2000000788B
:10C8B00001F032F98DF803009DF80300012807D13B
:10C8C000FFE74FF68840C0F20220F4F745F91BE07D
:10C8D00045F26240C2F2000001789DF803204FF655
:10C8E0001B40C0F20220F4F737F99DF8030050B95D
:10C8F000FFE745F26241C2F200010878B0FA80F029
:10C9000040090870FFE7FFE702B080BD80B582B044
:10C91000019045F26340C2F20000007801F0AEF9E8
:10C920008DF803009DF80300012807D1FFE74FF6BB
:10C930008840C0F20220F4F70FF919E045F2634095
:10C94000C2F2000001789DF803204FF69130C0F24A
:10C950000220F4F701F99DF8030040B9FFE745F222
:10C960006341C2F2000108780A380870FFE7FFE768
:10C9700002B080BD80B582B00190012000F0CCFFF4
:10C9800000F0A0FB45F21050C2F20000007845F222
:10C990001151C2F2000101F0BBF98DF803009DF8BE
:10C9A0000300012807D1FFE74FF68840C0F20220BC
:10C9B000F4F7D2F80FE09DF803104FF6CC30C0F238
:10C9C0000220F4F7C9F89DF8030018B1FFE700F062
:10C9D00071FBFFE7FFE702B080BD000080B582B0C9
:10C9E000019045F6F410C2F2000000F02FFE8DF821
:10C9F00003009DF80300012807D1FFE74FF68840A8
:10CA0000C0F20220F4F7A8F83CE09DF8030080BBD8
:10CA1000FFE74FF6C750C0F20220F4F79DF8002060
:10CA2000ADF80000FFE7BDF8000045F6F411C2F2D2
:10CA300000010978884215DAFFE7BDF8001045F6D5
:10CA4000F410C2F20000084441784FF6BF50C0F223
:10CA50000220F4F781F8FFE7BDF800000130ADF8DF
:10CA60000000E0E74FF6FD40C0F20220F4F774F852
:10CA700008E09DF803104FF67B30C0F20220F4F777
:10CA80006BF8FFE702B080BD80B582B0019000F086
:10CA900059FD8DF803009DF80300012807D1FFE739
:10CAA0004FF68840C0F20220F4F756F808E09DF8EF
:10CAB00003104FF6BD30C0F20220F4F74DF8FFE747
:10CAC00002B080BD80B582B00190012000F024FF4B
:10CAD00045F21050C2F20000007845F21151C2F246
:10CAE000000101F015F98DF803009DF803000128FD
:10CAF00007D1FFE74FF68840C0F20220F4F72CF888
:10CB000008E09DF803104FF64B40C0F20220F4F706
:10CB100023F8FFE702B080BD80B582B0019045F2F6
:10CB20006440C2F20000006801F05EF88DF8030076
:10CB30009DF80300012807D1FFE74FF68840C0F2B7
:10CB40000220F4F709F81AE045F26440C2F200004E
:10CB500001689DF803204FF69950C0F20220F3F7C8
:10CB6000FBFF9DF8030048B9FFE745F26441C2F2BC
:10CB70000001086800F57A700860FFE7FFE702B07F
:10CB800080BD000080B582B001904FF6B450C0F275
:10CB90000220F3F7E1FF0120FEF7B6FA002210466B
:10CBA0001146F4F751F802B080BD000080B582B0A4
:10CBB000019001F08BF938B9FFE74FF68840C0F2D9
:10CBC0000220F3F7C9FF08E000F074FA4FF6F040D6
:10CBD000C0F20220F3F7C0FFFFE702B080BD000003
:10CBE00080B582B00190012000F068FC02B080BDE9
:10CBF00080B582B0019000F05DFA002000F05EFC8C
:10CC000002B080BD80B584B00390FFE740F66210AB
:10CC10000DF10A01009102AA0192FEF79DFCBDF8F8
:10CC20000A10BDF808204FF67350C0F2022001F040
:10CC3000E7FD0099019A40F66A10FEF78DFCBDF8F9
:10CC40000A10BDF808204FF60150C0F2022001F092
:10CC5000D7FD0099019A40F68810FEF77DFCBDF8DB
:10CC60000A10BDF808204FF62750C0F2022001F04C
:10CC7000C7FD0099019A4FF41B60FEF76DFCBDF8EB
:10CC80000A10BDF808204FF64D50C0F2022001F006
:10CC9000B7FDBBE780B582B0019000F013FA002029
:10CCA00000F03AFE45F21050C2F20000007845F262
:10CCB0001151C2F20001FDF701FD8DF803009DF84E
:10CCC0000300012807D1FFE74FF68840C0F2022099
:10CCD000F3F742FF0FE09DF803104FF6E530C0F286
:10CCE0000220F3F739FF9DF8030018B1FFE700F0C9
:10CCF000E1F9FFE7FFE702B080BD000080B582B038
:10CD00000190002000F008FE45F21050C2F2000031
:10CD1000007845F21151C2F20001FDF7CFFC8DF809
:10CD200003009DF80300012807D1FFE74FF6884074
:10CD3000C0F20220F3F710FF08E09DF803104FF651
:10CD40005B40C0F20220F3F707FFFFE702B080BDAF
:10CD500080B582B0002001900020C4F2110000686C
:10CD6000019A511C019146F2E401C2F2000141F81E
:10CD700022005020C4F211000068019A531C019354
:10CD800041F8220040F20040C4F211000068019A0C
:10CD9000531C019341F8220040F20440C4F21100F8
:10CDA0000068019A531C019341F8220040F20840A8
:10CDB000C4F211000068019A531C019341F822004B
:10CDC00040F20C40C4F211000068019A531C019318
:10CDD00041F822006420C4F211000068019A531C3B
:10CDE000019341F8220000F01FFD00F053FDFEF713
:10CDF00053FAFDF7B5FC02B080BD000080B582B0EB
:10CE00005C21C4F211014FF0FF30086045F264501C
:10CE1000C2F200004089800081B22220FDF7CEF9E5
:10CE200045F61031C2F2000100200870019001990E
:10CE3000481C019046F2E400C2F2000050F82110B4
:10CE40000022C4F21102116001994A1C019250F8AB
:10CE500021105022C4F21102116001994A1C019262
:10CE600050F8211040F20042C4F211021160019901
:10CE70004A1C019250F8211040F20442C4F21102FF
:10CE8000116001994A1C019250F8211040F20842A9
:10CE9000C4F21102116001994A1C019250F821104C
:10CEA00040F20C42C4F21102116001994A1C019235
:10CEB00050F821006421C4F21101086002B080BD65
:10CEC00080B588B00790069103208DF804000021FA
:10CED0008DF8051001208DF806008DF807108DF8EB
:10CEE00008008DF809008DF80A008DF80B108DF8F8
:10CEF0000C108DF80D008DF80E0007980490069820
:10CF0000059041F20000C4F2010001A95022FFF790
:10CF10008DF808B080BD000080B588B007908DF80E
:10CF20001B1045F63030C2F20000007808B1FFE770
:10CF3000A3E045F63030C2F20000408840BBFFE776
:10CF4000FFE79DF81B1000200129059012DBFFE789
:10CF50000798017801200D29049008D0FFE7079871
:10CF600000780A38B0FA80F040090490FFE704988E
:10CF70000590FFE70598C00748B1FFE70798013023
:10CF800007909DF81B0001388DF81B00D9E7FFE7DB
:10CF90009DF81B0008B9FFE76FE007999DF81B207B
:10CFA00045F63030C2F200000390FFF7BDF8039859
:10CFB0004088012861DBFFE745F63031C2F200010D
:10CFC00048880844C0780D280AD0FFE745F630317C
:10CFD000C2F2000148880844C0780A284DD1FFE712
:10CFE00045F63030C2F2000040880238ADF8180033
:10CFF000FFE7BDF918100020012902901EDBFFE7B2
:10D00000BDF9181045F63030C2F20000084401792D
:10D0100001200D2901900ED0FFE7BDF9181045F64B
:10D020003030C2F20000084400790A38B0FA80F0CB
:10D0300040090190FFE701980290FFE70298C007BE
:10D0400030B1FFE7BDF818000138ADF81800D0E79F
:10D05000BDF9180045F63031C2F200014218002037
:10D06000507101200870F3F71FFD816A45F6F0103A
:10D07000C2F2000000688847FFE708B080BD0000EA
:10D0800080B582B00190FFE7F3F70EFD416A45F6E7
:10D09000F010C2F200000068884745F63030C2F256
:10D0A00000000090043000F0E5F80099002048806E
:10D0B0000870E9E745F6F721C2F200010020087088
:10D0C0007047000045F6F721C2F200010120087008
:10D0D0007047000080B596B0159014911392FFE749
:10D0E0001398012831DBFFE700200290FFE7139936
:10D0F00000200129019007DBFFE702990020102999
:10D1000038BF01200190FFE70198C00788B1FFE711
:10D11000149801F057F8029A03A941F822000298E6
:10D120000130029013980138139014980430149031
:10D13000DDE7159802998A0003A901F0D9FA02994E
:10D14000159800EB81001590CAE716B080BD00006D
:10D150007047000080B504200021F3F7E1FB0620B2
:10D160004FF4FA71F3F7DCFB80BD000080B582B0AC
:10D1700001904FF0FF30009001986946042201F0C1
:10D1800007F802B080BD000080B582B000F00EF854
:10D1900030B9FFE741F27800C0F20020019002E0D0
:10D1A00000200190FFE7019802B080BD80B584B0F7
:10D1B00000F092FE18B1FFE70020039041E04FF429
:10D1C000805000F0FFFF0290029844F24371C4F6D1
:10D1D0004E11884203D0FFE70120039031E041F275
:10D1E000040000F0EFFF0290029845F25301C4F6EC
:10D1F0004901884203D0FFE70220039021E041F279
:10D200000000C0F200200190FFF7B0FF01984FF43A
:10D2100080511E22FFF75EFF41F27800C0F200202D
:10D220004FF488512422FFF755FF41F20810C0F255
:10D2300000204FF400515022FFF74CFF00200390D4
:10D24000FFE7039804B080BD80B582B001900091E3
:10D2500001A80021FFF7BAF9019802B080BD0000D3
:10D2600080B582B00190FDF765FE00F0DBF800208C
:10D2700002B080BD80B584B0039003980290FFE7B0
:10D280000298007888B1FFE702980078202807D13B
:10D29000FFE702990020087002980130029004E034
:10D2A000029801300290FFE7EAE700200190FFE7D3
:10D2B0000198142812D8FFE7019945F26840C2F29C
:10D2C000000050F831000399FDF760FB08B9FFE753
:10D2D00004E0FFE7019801300190E9E70198152883
:10D2E00001D3FFE70AE0019945F26840C2F200006D
:10D2F00000EBC10041680298884710E04FF294109B
:10D30000C0F202200090FDF724FB01460098013195
:10D3100089B201F0BFF80020FFF7B0FAFFE704B0D0
:10D3200080BD000081B000900098B0F8030001B00B
:10D330007047000081B000900098807801B070477D
:10D3400081B000900098007801B0704781B00090E3
:10D350000098043001B0704780B545F61430C2F231
:10D360000000007838B9FFE74FF60230C0F2022023
:10D37000F3F7F2FB06E04FF6EA20C0F20220F3F7E3
:10D38000EBFBFFE745F61430C2F2000000F012FD9F
:10D3900080BD000080B500F071FD00F02DFD80BD66
:10D3A00080B54AF6A161C0F20221002000F078FBAE
:10D3B0004BF24961C0F20221012000F071FB4BF6F3
:10D3C0004941C0F20221022000F06AFB00F05EFD3C
:10D3D00080BD000080B584B00390ADF80A109DF8C0
:10D3E0000A008DF809009DF809000146019168B115
:10D3F000FFE70198012812D1FFE745F6F521C2F2B7
:10D40000000101200870FFF725F808E045F6F52136
:10D41000C2F2000100200870FFF764F8FFE704B0D3
:10D4200080BD000080B545F60030C2F2000000F07B
:10D43000F1F845F60130C2F20000007850B9FFE77C
:10D44000012000F03BF84FF6A520C0F20220F3F7D0
:10D4500083FB2BE045F60030C2F20000007890B963
:10D46000FFE74FF69320C0F20220F3F775FB45F279
:10D470003150C2F20000007845F23951C2F2000189
:10D48000FDF71CF911E04FF68120C0F20220F3F7FE
:10D4900063FB45F23850C2F20000007845F2395182
:10D4A000C2F2000100F034FCFFE7FFE745F601316E
:10D4B000C2F2000108780130087080BD80B582B0EA
:10D4C0008DF807009DF807204DF2D530C0F20220FC
:10D4D0000021D8F721F802B080BD000081B045F6E8
:10D4E000F620C2F20000007820B9FFE701208DF895
:10D4F000030023E045F61030C2F200000078012856
:10D5000004D1FFE702208DF8030017E045F6103044
:10D51000C2F200000078022804D1FFE703208DF852
:10D5200003000BE0FFE75C21C4F21101086840F43E
:10D530008070086000208DF80300FFE79DF803006D
:10D5400001B0704781B045F6F620C2F200000078C5
:10D5500020B9FFE701208DF8030023E045F61030E5
:10D56000C2F200000078012804D1FFE702208DF804
:10D57000030017E045F61030C2F2000000780228E0
:10D5800004D1FFE703208DF803000BE0FFE75C21E7
:10D59000C4F21101086840F00400086000208DF812
:10D5A0000300FFE79DF8030001B0704781B045F626
:10D5B000F620C2F20000007820B9FFE701208DF8C4
:10D5C000030023E045F61030C2F200000078012885
:10D5D00004D1FFE702208DF8030017E045F6103074
:10D5E000C2F200000078022804D1FFE703208DF882
:10D5F00003000BE0FFE75C21C4F21101086840F072
:10D600000200086000208DF80300FFE79DF803008A
:10D6100001B0704782B0009045F6F620C2F20000DB
:10D62000007820B9FFE701208DF807000AE045F2F5
:10D630006450C2F2000000780099087000208DF854
:10D640000700FFE79DF8070002B0704780B584B07F
:10D65000029000208DF80700FF208DF8060045F6A7
:10D66000F620C2F20000007820B9FFE701208DF813
:10D670000F0084E045F61030C2F200000078012867
:10D6800004D1FFE702208DF80F0078E045F6103056
:10D69000C2F200000078022804D1FFE703208DF8D1
:10D6A0000F006CE0FFE700208DF80700FFE79DF812
:10D6B000070000285EDCFFE79DF8070045F2805276
:10D6C000C2F200024FF4867110FB0120D0F8040171
:10D6D0004068400BC00798B3FFE79DF8070045F28C
:10D6E0008052C2F200024FF4867110FB0120D0F884
:10D6F0000401806880B240F20121884220D1FFE716
:10D700009DF8070045F28053C2F200034FF4867281
:10D7100010FB0230D0F804014068400902990870FB
:10D7200002989DF8071011FB0231D1F8041118314D
:10D7300010F8012BFDF7FBF800208DF8060012E031
:10D7400045F28050C2F20000D0F804018068400821
:10D750008DF806009DF8060020B9FFE7FF208DF840
:10D760000600FFE7FFE7FFE79DF8070001308DF8AF
:10D7700007009CE79DF806008DF80F00FFE79DF875
:10D780000F0004B080BD000082B0009045F6F62086
:10D79000C2F20000007820B9FFE701208DF80700F1
:10D7A0000AE045F61030C2F20000007800990870D7
:10D7B00000208DF80700FFE79DF8070002B07047D2
:10D7C0004AF20000C0F202204EF60851CEF20001EB
:10D7D0000860704781B000900098007845F264516D
:10D7E000C2F2000108700098406848600098007A12
:10D7F00008720098408948810098007B087300985F
:10D80000407B48730098807B8873009800690861AA
:10D810000098406948610098007E08760098407E34
:10D82000487601B07047000080B546F2C800C2F2E9
:10D830000000006850B9FFE74FF43170DFF7A6F839
:10D8400046F2C801C2F200010860FFE746F2D000CC
:10D85000C2F20000006850B9FFE74FF49B70DFF799
:10D8600095F846F2D001C2F200010860FFE746F2E7
:10D87000CC00C2F20000006850B9FFE74FF49B7083
:10D88000DFF784F846F2CC01C2F200010860FFE73E
:10D8900080BD000081B02021C4F20001086820F49E
:10D8A000007008602821C4F20001086820F00070B0
:10D8B00008600421C4F21101086840F010000860FB
:10D8C0002421C4F20001086820F0007008600020E4
:10D8D0000090FFE700984F2806DCFFE700BFFFE756
:10D8E000009801300090F5E72021C4F2000108689B
:10D8F00040F4007008602821C4F20001086840F07C
:10D90000007008602421C4F20001086840F0007033
:10D91000086001B07047000081B08DF8020045F644
:10D92000F620C2F20000007820B9FFE701208DF850
:10D93000030023E045F61030C2F200000078012811
:10D9400004D1FFE702208DF8030017E045F6103000
:10D95000C2F200000078022804D1FFE703208DF80E
:10D9600003000BE0FFE79DF8020045F26451C2F2AC
:10D970000001087000208DF80300FFE79DF8030008
:10D9800001B0704782B0009045F6F620C2F2000068
:10D99000007820B9FFE701208DF8070029E045F65F
:10D9A0001030C2F200000078012804D1FFE7022005
:10D9B0008DF807001DE045F61030C2F20000007837
:10D9C000022804D1FFE703208DF8070011E0FFE7EC
:10D9D000009845F26451C2F200014860009846F296
:10D9E000C801C2F200010968C86000208DF8070074
:10D9F000FFE79DF8070002B07047000080B582B0D5
:10DA0000ADF8040045F6F620C2F20000007820B917
:10DA1000FFE701208DF807003DE045F61030C2F227
:10DA200000000078012804D1FFE702208DF80700EC
:10DA300031E045F61030C2F200000078022804D12F
:10DA4000FFE703208DF8070025E0FFE7BDF804009D
:10DA500040F6FC01884207DBFFE7BDF8040040F612
:10DA6000C511884204DBFFE704208DF8070012E0AF
:10DA7000BDF8040045F26451C2F200014881BDF8CE
:10DA800004008000013081B22220FCF797FB0020C7
:10DA90008DF80700FFE79DF8070002B080BD000089
:10DAA00080B584B08DF80F0002919DF80F00032817
:10DAB00009DBFFE79DF80F104FF67160C0F20220FE
:10DAC00000F09EFE26E09DF80F000146019103281C
:10DAD00020D80199DFE801F002091017029845F6F5
:10DAE0000431C2F20001486014E0029845F60431A6
:10DAF000C2F2000108600DE0029845F60431C2F25E
:10DB00000001886006E04FF66060C0F2022000F07D
:10DB100077FEFFE704B080BD80B582B08DF80600C7
:10DB200045F6F620C2F20000007820B9FFE7012098
:10DB30008DF8070053E045F61030C2F2000000787F
:10DB4000012804D1FFE702208DF8070047E045F6E1
:10DB50001030C2F200000078022804D1FFE7032051
:10DB60008DF807003BE0FFE79DF8060004280CDB7A
:10DB7000FFE79DF806104FF68160C0F2022000F02A
:10DB80003FFE04208DF8070029E09DF8060045F2CD
:10DB90006451C2F2000108729DF8060050B9FFE717
:10DBA00040F21C41C4F211010868642262F3133090
:10DBB00008600FE09DF8060001280AD1FFE740F257
:10DBC0001C41C4F2110108686E2262F31330086030
:10DBD000FFE7FFE7FFE700208DF80700FFE79DF86C
:10DBE000070002B080BD000082B0009045F6F6202C
:10DBF000C2F20000007820B9FFE701208DF807008D
:10DC000037E045F61030C2F200000078012804D158
:10DC1000FFE702208DF807002BE045F61030C2F236
:10DC200000000078022804D1FFE703208DF80700E8
:10DC30001FE0FFE7009842F21171884204D3FFE72A
:10DC400042F210700090FFE7009845F26451C2F272
:10DC50000001486100994FF0011040EA410046F28E
:10DC6000C801C2F200010968086200208DF80700AF
:10DC7000FFE79DF8070002B07047000081B08DF803
:10DC8000020045F6F620C2F20000007820B9FFE756
:10DC900001208DF8030036E045F61030C2F2000096
:10DCA0000078012804D1FFE702208DF803002AE064
:10DCB00045F61030C2F200000078022804D1FFE7D8
:10DCC00003208DF803001EE0FFE79DF802004028C6
:10DCD00004DBFFE73F208DF80200FFE79DF802001C
:10DCE00045F26451C2F2000108739DF8020000067B
:10DCF0001F3046F2C801C2F200010968C861002065
:10DD00008DF80300FFE79DF8030001B070470000A5
:10DD100080B582B08DF80600009145F6F620C2F27B
:10DD20000000007820B9FFE701208DF807003DE0F2
:10DD300045F61030C2F200000078012804D1FFE758
:10DD400002208DF8070031E045F61030C2F20000E5
:10DD50000078022804D1FFE703208DF8070025E0B2
:10DD6000FFE745F61031C2F20001022008709DF86D
:10DD70000600B0F5807F04DBFFE7FF208DF806008A
:10DD8000FFE79DF8060045F29071C2F2000148607D
:10DD90000098886045F26450C2F20000FCF752FB24
:10DDA000FCF72AFC00208DF80700FFE79DF807002C
:10DDB00002B080BD80B582B0009045F6F620C2F278
:10DDC00000000078012804D1FFE701208DF807004A
:10DDD0000EE045F6F621C2F200010120087000981D
:10DDE000FFF7F8FCFEF7B4FF00208DF80700FFE70F
:10DDF0009DF8070002B080BD80B582B045F6F620E0
:10DE0000C2F20000007820B9FFE701208DF807007A
:10DE100026E045F61030C2F200000078012804D157
:10DE2000FFE702208DF807001AE045F61030C2F235
:10DE300000000078022804D1FFE703208DF80700D6
:10DE40000EE045F6F621C2F20001002000900870B5
:10DE5000FEF7D4FFD7F766FB00988DF80700FFE7C1
:10DE60009DF8070002B080BD80B54FF66C10C0F27F
:10DE70000220F2F771FE00F02BFA80BD45F254410A
:10DE8000C2F200010120C8717047000045F614314C
:10DE9000C2F2000100220A7045F27A60C1F2342019
:10DEA0004860012008724FF416634B813F230B73C7
:10DEB00048738A7343F25643C0F212030B614FF466
:10DEC000C8634B610A7648767047000045F6F62035
:10DED000C2F200000078704782B041F20000C0F248
:10DEE000002000900098006844F24371C4F64E117F
:10DEF00088420CD1FFE70098406845F25301C4F610
:10DF00004901884203D1FFE70120019002E000208F
:10DF10000190FFE7019802B07047000084B08DF8CF
:10DF20000E008DF80D109DF80D000146029120B1F4
:10DF3000FFE7029801281CD02FE09DF80E00014653
:10DF40000191012808D0FFE70198022808D0FFE7D7
:10DF50000198032808D00BE005208DF80F0020E081
:10DF600006208DF80F001CE007208DF80F0018E048
:10DF700013E09DF80E0001460091012804D0FFE750
:10DF80000098022804D007E003208DF80F0008E075
:10DF900002208DF80F0004E0FFE700208DF80F004D
:10DFA000FFE79DF80F0004B07047000080B582B015
:10DFB0004FF0FF3001905420C4F211000068000AB5
:10DFC000C007C0B1FFE740F20C11C4F211010868AC
:10DFD0006FF31100086045F61031C2F20001002015
:10DFE0000090087045F60430C2F200004068804797
:10DFF00000980190FFE75420C4F2110000688008E7
:10E00000C00748B1FFE745F60430C2F200000068DF
:10E01000804700200190FFE75420C4F211000068FF
:10E020004008C00748B1FFE745F60430C2F20000DF
:10E030008068804700200190FFE7019802B080BD12
:10E0400080B582B0019000910198007818B9FFE77F
:10E0500000F074F903E00020FDF738F8FFE70198BD
:10E06000017842784FF66410C0F20220F2F774FD96
:10E07000012002B080BD000080B582B00190009107
:10E08000FFF766F8002002B080BD000080B58CB0BC
:10E09000ADF82E008DF82D1046F2D801C2F2000125
:10E0A0000888013008809DF82D0040B9FFE746F24E
:10E0B000D401C2F2000108880130088007E046F26E
:10E0C000D601C2F20001088801300880FFE746F25D
:10E0D000D800C2F200000088BDF82E10884254DB40
:10E0E000FFE7F2F707FD0390039946F2DC00C2F266
:10E0F0000000016046F2D401C2F2000105910988D6
:10E100004FF47A72514300EE101AB8EEC00A00685C
:10E1100046F2E001C2F2000107910968401A01EEDF
:10E12000100AB8EE411A80EE010A10EE100AFCF750
:10E1300058FD0246059804920A46049942EC101BC9
:10E140008DED080BBDF82E1046F2D602C2F2000289
:10E150000692128803889DED080B684680ED000B3F
:10E160004FF6B320C0F20220F2F7F6FC059A0699AA
:10E1700000201080088046F2D801C2F20001088019
:10E18000F2F7B8FC07990860FFE70CB080BD00000B
:10E1900080B584B003900291019203980299019A8C
:10E1A00043F69B33984704B080BD000080B584B02F
:10E1B0000390029101200190FCF788FF019804B0C0
:10E1C00080BD000080B598B016904FF68801C0F26F
:10E1D000022103A801904822FCF7A9FBEFF310806D
:10E1E00017901798029072B640F2C9708047019953
:10E1F000169800F00FF8159040F25160804740F6F5
:10E200000D008047029810B9FFE762B6FFE7159846
:10E2100018B080BD01F101010847000083B00290F1
:10E220008DF807108DF806209DF806100120884013
:10E23000009002980068009988439DF807109DF8A7
:10E240000620914008430299086003B0704700001F
:10E2500085B0049003918DF80B208DF80A309DF85D
:10E260000B10012088400138019001989DF80A1098
:10E270008840C043009004980068009908400399C2
:10E28000019A11409DF80A209140084304990860C2
:10E2900005B0704784B0039002918DF807208DF887
:10E2A00006309DF807100120884001389DF80610BF
:10E2B00088400090039800680099884302999DF86F
:10E2C0000620914008430399086004B0704700009D
:10E2D00080B58EB04FF6D101C0F2022100200C9023
:10E2E000D8F724FA0C986A469062506201210D9189
:10E2F0001162D0619161642353611061D0609060BC
:10E3000051600721116013214FF448731A46D8F762
:10E3100069FB0C984FF21812C0F202221521D8F7AF
:10E320001DFB0D990C984FF6D002C0F20222D8F7CF
:10E330001DFC0D98FDF74AFF0EB080BD80B584B07E
:10E3400043F20060C0F26E104FF4E131FEF7B8FD09
:10E350000720C0F22000FDF719FA0A2002900021E0
:10E360000191FDF725F801990298FCF743FF029807
:10E3700001210391FCF7D4FF019A03990298FCF75D
:10E38000E7FD019A0398C821FCF748FE029803991B
:10E39000FCF76EFE04B080BD80B584B0039002919E
:10E3A0004FF69210C0F20220F2F7D6FB4CF2851025
:10E3B000C0F202204CF2A511C0F20221D6F7EEFC09
:10E3C00045F6F820C2F200004EF2C151C0F202211F
:10E3D00001914160DBF718F80198D6F789FD00201C
:10E3E00004B080BD85B08DF80F008DF80E109DF83B
:10E3F0000F002A2804DBFFE74FF0FF3004903EE0D7
:10E400009DF80F004FF26852C0F20222132110FB58
:10E4100001200290002001909DF80E00013800902C
:10E4200002989DF80E10CA08805C01F00702802156
:10E43000D140084204D1FFE74FF0FF3004901EE0C6
:10E44000FFE70098002817D4FFE702980099CA1741
:10E4500001EB5272D210805C01F007028021D140A2
:10E46000084204D0FFE7019801300190FFE7FFE781
:10E47000009801380090E4E701980490FFE70498C1
:10E4800005B0704780B582B00190FDF7F3F802B097
:10E4900080BD000080B584B00390ADF80A1045F649
:10E4A000FC50C2F20000408860B9FFE70399BDF854
:10E4B0000A00084410F8010C20B9FFE7039800F0A7
:10E4C00019FE23E00399BDF80A2045F6FC50C2F27C
:10E4D00000000190FDF728FE01984088012815DB17
:10E4E000FFE745F6FC51C2F2000148880844C078B5
:10E4F00060B9FFE745F6FC50C2F20000009004301E
:10E5000000F0F8FD009900204880FFE704B080BDCE
:10E5100080B582B0F2F7C8FA006A804745F6F0117C
:10E52000C2F200010860F2F7BFFAD0F810C06846E6
:10E53000002202604FF6E550C0F202204DF2810148
:10E54000C0F202214FF48063E04702B080BD0000BA
:10E5500080B584B00390FFE741F20000C4F20100EF
:10E56000FDF75EFD0290029808B9FFE71DE00298F2
:10E5700041F24401C4F201010860FFE741F20000EA
:10E58000C4F20100FDF73CFD01280DD0FFE741F288
:10E590000000C4F2010000688DF807000DF10700CB
:10E5A0000121FEF7B9FCE9E7D6E7002004B080BD01
:10E5B00083B002900191ADF80220FFE703B07047ED
:10E5C00080B588B08DF81F00ADF81C100692ADF82C
:10E5D00016300698FEF7B4FE8DF815009DF81F0062
:10E5E000042801D0FFE781E09DF815000146039162
:10E5F000052861D0FFE703980E281AD0FFE703989B
:10E600003E2831D0FFE70398602808D0FFE7039841
:10E61000B7285ED0FFE70398FF285BD065E0069837
:10E62000FDF784FF022801D0FFE75FE0FFF750FE0F
:10E630005CE00698FEF776FE0146029140F6034143
:10E64000884206D0FFE7029842F23901884206D09C
:10E6500008E00020FDF7BAFEFDF788FE03E0FDF7B5
:10E66000E3FD00E0FFE741E00698FEF763FE0146A8
:10E6700001910A2804D0FFE70198122817D019E069
:10E680000698818845F25440C2F200000090018053
:10E6900000884FF68601C0F20221D6F73DFC022029
:10E6A000FDF794FE00980088FDF70CFE03E0FDF7EF
:10E6B000F7FD00E0FFE719E045F25441C2F2000126
:10E6C0004FF6FF7008800220FDF76CFEFDF72EFE6E
:10E6D0000CE00BE00698FEF739FE0490049A1068EF
:10E6E00051681289FFF764FF00E0FFE708B080BDC2
:10E6F00080B586B004900391029204980399029A1F
:10E7000000F018F80190019818B1FFE70198059002
:10E710000CE004980399029AFCF722F9002818BF2C
:10E7200001204000019001980590FFE7059806B090
:10E7300080BD000080B58AB00790069105920798C9
:10E7400020F0FF0000F58070049000200390FFE7A8
:10E7500003980599884211D2FFE70798039A805CD5
:10E760000699895C0840884203D0FFE701200890A1
:10E7700042E0FFE7039801300390E9E7EFF31080F0
:10E7800009900998029072B640F2C9708047FFE77D
:10E79000059818B3FFE704980799401A019001986B
:10E7A0000599884203D3FFE705980190FFE7079892
:10E7B0000699019A43F6D743984701990798084468
:10E7C0000790019906980844069001990598401A07
:10E7D0000590049800F580700490D9E740F25160EC
:10E7E000804740F60D008047029810B9FFE762B6F7
:10E7F000FFE700200890FFE708980AB080BD0000FE
:10E800000FB4054B10B503A9044A029800F0DAF8DA
:10E8100010BC5DF814FB000049D2020250540020E5
:10E8200002E008C8121F08C1002AFAD170477047D9
:10E83000002001E001C1121F002AFBD17047000037
:10E840002DE9FF5F82B00021DDE90430020DDDF823
:10E8500040B0034318D044F61050A2F2FF324243B6
:10E860001514119801281FD0A5EB0B00401C5FEA7E
:10E87000000A4FF000064E4FDFF83891B046504680
:10E8800015D5CAF1000413E0119801244AA3012808
:10E8900001D16FEA0B010298119AC0E90031C0E979
:10E8A000024206B0BDE8F09FCBF10000DFE704466E
:10E8B0000021404A491842EB0450CDE9001012E013
:10E8C000E00707D032463B4640464946FCF746FA49
:10E8D0008046894632463B4610461946FCF73EFACA
:10E8E00006460F466410002CEAD1DDE90401DDE99B
:10E8F0000023BAF1000F06DAFCF730FA42464B4625
:10E90000FCF72CFA05E0FCF7FDF842464B46FCF715
:10E91000F9F804460E460022284BFCF7A9FA03D862
:10E920004FF0FF30014607E00022254B20463146DC
:10E93000FCF741F8FCF784FA102409E0002C0ADB0C
:10E940000A220023FBF7C2FF039B30321A55641ED4
:10E9500050EA0102F2D1641C039AC4F11103144479
:10E96000119A012A03D0012208430DD10AE008437D
:10E9700004D000204FF0110B119072E7A3EB0B05B0
:10E980006D1E0DE05B4504DD4FF0000205F1010551
:10E9900004E003DA4FF00002A5F10105002AECD0F3
:10E9A00002981199C0E90231C0E9004579E70000F9
:10E9B000000014400000F03F300000000000F04371
:10E9C0000000E03F2DE9FF4F95B09B468946064683
:10E9D00000250FE2252877D100242746F84A012197
:10E9E000059400E0044316F8013F203B01FA03F0D0
:10E9F0001042F7D130782A2811D06FF02F033078E9
:10EA0000A0F13002092A16D8059A44F0020402EB5C
:10EA1000820203EB42021044761C0590EFE759F89E
:10EA2000042B0592002A03DA504244F40054059066
:10EA300044F00204761C30782E2816D116F8010F07
:10EA400044F004042A280DD06FF02F023078A0F192
:10EA50003003092B09D807EB870302EB4303C718E0
:10EA6000761CF3E759F8047B761C30786C280FD0BD
:10EA700006DC4C2817D068280DD06A2814D104E091
:10EA8000742810D07A280FD10DE044F400140AE065
:10EA900044F4801401E044F440147278824202D1BC
:10EAA00004F58014761C761C307866280BD013DCB5
:10EAB000582877D009DC002875D04528F6D046289C
:10EAC000F4D047281AD19DE118E0632835D0642896
:10EAD00079D0652812D195E1702873D008DC6728B9
:10EAE000F1D069286FD06E280DD06F2806D1B5E01F
:10EAF00073282CD0752875D0782874D05A46179969
:10EB000090476D1C75E1C4F30250022809D0032818
:10EB10000DD0D9F8001004280DD00D6009F10409BA
:10EB200067E1D9F80010EA17C1E90052F6E7D9F811
:10EB300000100D80F2E70D70F0E719F8041B8DF856
:10EB4000001000208DF80100EA46012003E059F88A
:10EB500004AB4FF0FF3061074FF0000102D40DE02D
:10EB600008F101018846B9420FDA8045F8DB1AF84E
:10EB700008100029F4D108E008F10101884681421B
:10EB8000FADB1AF808100029F6D105985B46A0EBCD
:10EB9000080721463846179A00F094FA284400EBFB
:10EBA000080507E04DE029E10DE01AF8010B5A468F
:10EBB00017999047B8F10108F7D25B4621463846CD
:10EBC000179A13E142E00A220092C4F302524FF076
:10EBD000000A022A08D059F804CB032A4FEAEC7144
:10EBE0000AD00DE029E02AE009F1070121F007022F
:10EBF000F2E802C1914609E00FFA8CFC4FEAEC7191
:10EC0000042A03D14FFA8CFC4FEAEC71002907DA91
:10EC10000A460021DCF1000C61EB02012D2202E02A
:10EC2000220504D52B228DF80420012203E0E207FF
:10EC300001D02022F7E7904659E00A2102E0102295
:10EC40000DE010214FF0000A00910BE010224FF070
:10EC5000000A44F004040827009203E008224FF061
:10EC6000000A0092C4F30252022A05D059F804CBDC
:10EC70000021032A08D009E009F1070121F0070269
:10EC8000F2E802C1914605E01FFA8CFC042A01D18A
:10EC90000CF0FF0C4FF00008220728D5702806D092
:10ECA000009B83F0100353EA0A0305D00EE04022D4
:10ECB0008DF80420012208E05CEA010206D030222F
:10ECC0008DF804208DF8050002229046009B83F009
:10ECD000080353EA0A030AD15CEA010201D1620780
:10ECE00005D530228DF804204FF001087F1E5828EA
:10ECF00004D034A003900EA802900DE036A0F9E7EE
:10ED000053466046009AFBF7E1FD84460398825C17
:10ED10000298401E029002705CEA0100F0D1029855
:10ED200006A9081A00F1200A600702D524F48034ED
:10ED300000E00127574502DDA7EB0A0000E00020B4
:10ED400000EB0A01009005984144401A0590E00349
:10ED500006D45B462146179A059800F0B3F905449E
:10ED6000002706E001A85A46C05D179990476D1C20
:10ED70007F1C4745F6DBE0030CD55B462146179A1E
:10ED8000059800F09FF9054404E030205A46179991
:10ED900090476D1C0099481E00900029F5DC08E0A2
:10EDA000029802995A460078491C02911799904797
:10EDB0006D1CBAF10001AAF1010AF1DC65E1000065
:10EDC0000928010030313233343536373839616241
:10EDD0006364656600000000303132333435363705
:10EDE00038394142434445460000000000F058F9DC
:10EDF0000544761C307800287FF4ECAD19B0284625
:10EE0000BDE8F08F620700D4062709F1070222F05F
:10EE1000070CFCE80223E14603F000485FEA080C17
:10EE200002D00FF2702C0DE05FEA045C02D50FF205
:10EE3000682C07E05FEAC47C02D00FF2602C01E08E
:10EE4000AFF2700C4FF0FF3823F00043CDF850C004
:10EE500065280CD006DC452809D046281DD0472857
:10EE60003DD13DE0662818D067287ED138E00021EA
:10EE7000112F01DB112000E0781CCDE9000106A96B
:10EE80000EA8FFF7DDFCDDE90F010E9A03910021CA
:10EE9000009207F1010A04914DE04FF00040009705
:10EEA000CDE9011006A90EA8FFF7CAFCDDE90F02A3
:10EEB00003920E9B11990022DDF80CA0009304929E
:10EEC00011B9791C00EB010AB7EB0A0004D4C0F1B8
:10EED000FF3007F1010A0490AAEB0700019044E01B
:10EEE000012F00DA01270021112F01DD112000E0A0
:10EEF0003846CDE9000106A90EA8FFF7A1FCDDE91F
:10EF00000F010E9A0391002104910092BA46210745
:10EF10000CD40399514500DA8A46BAF1010F05DD98
:10EF2000009AAAF10101515C302908D0B84202DAF6
:10EF300010F1040F06DA0121CDE9011015E0AAF164
:10EF40000101E9E7002805DC049901440491AAEBDA
:10EF5000000102E0411C514500DD8A460499401A37
:10EF6000401C01904FF000400290200704D401980B
:10EF7000504501DBCDF8048000208DF84F00029849
:10EF80000DF14F07B0F1004F25D02B200E900298C5
:10EF90004FF0020800280CDA404202902D200E901B
:10EFA00007E00A210298FBF72FFE3031029007F8A4
:10EFB000011DB8F10001A8F10108F2DC0298002857
:10EFC000EFD1791E0E980870307800F0200040F0E4
:10EFD000450007F8020D12A8C01B00F1070814989D
:10EFE000007800B1012000EB0A01019801EBE0710B
:10EFF00005984144401A401E0590E00306D45B4644
:10F000002146179A059800F05DF805441498007899
:10F0100018B15A46179990476D1CE00324D55B46FA
:10F020002146179A059800F04DF805441CE0049815
:10F03000002807DBDDE90301884203DD0098405C1E
:10F04000179901E0179930205A469047049805F126
:10F050000105401C04900198401E019004D12E200F
:10F060005A46179990476D1CBAF10001AAF1010A9E
:10F07000DDDC05E017F8010B5A46179990476D1C27
:10F08000B8F10001A8F10108F4DC5B462146179AAB
:10F090000598ABE62D0000002B00000020000000CA
:10F0A0002DE9F041044600251E461746880404D485
:10F0B00005E039462020B0476D1C641EF9D528466E
:10F0C000BDE8F0812DE9F041044600251E4690463A
:10F0D000C80301D5302700E02027880404D505E0C7
:10F0E00041463846B0476D1C641EF9D52846BDE838
:10F0F000F081000010B5044601E0FEF7A5F814F811
:10F10000010B04490028F8D1BDE810400A20FEF7A1
:10F110009BB80000505400200201061109424C45E2
:10F120005F327034675F7377697463682B00000027
:10F1300000000000CDC502020000000099E30202B9
:10F140000000000041E0020200000000ADE1020208
:10F150000000000059C502020000000039C502028B
:10F160000000000079E0020200000000B1C50202C8
:10F170000000000001C6020234610020000000000F
:10F18000000000000000000000000000000000007F
:10F1900000000000756E6B6E6F776E20636F6D6D93
:10F1A000616E640A00636F6D6D616E64733A0A6824
:10F1B0002F3F202020202020202020202020202021
:10F1C000202020202020202020202020202020203F
:10F1D00020202073686F7720746869730A626C65F9
:10F1E000202020202020202020202020202020201F
:10F1F000202020202020202020202020202020200F
:10F200002073776974636820746F20626C650A32BA
:10F210006734202020202020202020202020202093
:10F2200020202020202020202020202020202020DE
:10F2300020202073776974636820746F20322E3425
:10F24000670A73746174652020202020202020200C
:10F2500020202020202020202020202020202020AE
:10F2600020202020202067657420322E34672073F0
:10F27000746174650A6D6F64652020202020202051
:10F28000202020202020202020202020202020207E
:10F2900020202020202020202067657420322E345A
:10F2A0006720776F726B206D6F64650A70687920D4
:10F2B000202020202020202020202020202020204E
:10F2C000202020202020202020202020202020203E
:10F2D000736574207068790A6161202020202020E5
:10F2E000202020202020202020202020202020201E
:10F2F0002020202020202020202020207365742022
:10F3000061636365737320616464726573730A700B
:10F310006F776572202020202020202020202020B0
:10F3200020202020202020202020202020202020DD
:10F3300020202073657420747820706F7765720ABE
:10F340006368616E6E656C202020202020202020C4
:10F3500020202020202020202020202020202020AD
:10F3600020202020736574206368616E6E656C0ACE
:10F370007478636F6E202020202020202020202001
:10F38000202020202020202020202020202020207D
:10F3900020202020322E346720747820636F6E7412
:10F3A000696E75730A74786F6E65202020202020A6
:10F3B000202020202020202020202020202020204D
:10F3C0002020202020202020207478206F6E6520AF
:10F3D0007061636B65742077697468207820706150
:10F3E000796C6F616473746F70636F6E202020207E
:10F3F000202020202020202020202020202020200D
:10F4000020202020202020202073746F7020322E96
:10F41000346720636F6E74696E75732074782F7211
:10F42000787278636F6E20202020202020202020FA
:10F4300020202020202020202020202020202020CC
:10F440002020202020322E346720727820636F6EB7
:10F450007469756E730A72786F6E652020202020A3
:10F46000202020202020202020202020202020209C
:10F47000202020202020202020207278206F6E6500
:10F48000207061636B6574207769746820782070E0
:10F4900061796C6F616474696D656F75742020208B
:10F4A000202020202020202020202020202020205C
:10F4B00020202020202020202020736574207278B6
:10F4C0002074696D656F75740A7278646174612067
:10F4D000202020202020202020202020202020202C
:10F4E000202020202020202020202020206765743C
:10F4F00020727820646174610A7278696E742020C9
:10F5000020202020202020202020202020202020FB
:10F5100020202020202020202020202020636C6517
:10F52000617220727820696E746572727570740AE7
:10F530006576656E74696E7420202020202020205E
:10F5400020202020202020202020202020202020BB
:10F5500020202020636C65617220747820696E74AD
:10F560006572727570740A00FFFFFFFAAAAA48C09C
:10F5700000020FFFFFFF00000387E0FFFFFFF555CC
:10F580005524A000010FFFFFFE800003A7E0FFFF4E
:10F59000FFFAAAA8909000008FFFFFFE400003979B
:10F5A000E0FFFFFFF55556488800004FFFFFFE20A3
:10F5B0000003C7E0FFFFFFFAAAA9268400002FFF7F
:10F5C000FFFE10000387E0FFFFFFF5555492820015
:10F5D000001FFFFFFE0800038FE0FFFFFFFAAAAA4B
:10F5E0004A8100020FFFFFFE04000387E0FFFFFFD8
:10F5F000F55555268080010FFFFFFE020003A7E0AE
:10F60000FFFFFFFAAAA8928040008FFFFFFE0100D3
:10F610000397E0FFFFFFF555564A8020004FFFFF9C
:10F62000FE008003C7E0FFFFFFFAAAA926801000B2
:10F630002FFFFFFE00400387E0FFFFFFF5555491C9
:10F640008008001FFFFFFE0020038FE0FFFFFFFA8E
:10F65000AAAA498004000FFFFFFE00100387E0FF05
:10F66000FFFFF55555258002000FFFFFFE00080340
:10F6700087E0FFFFFFFAAAA8918001000FFFFFFEBD
:10F6800000040387E0FFFFFFF55556498000800F17
:10F69000FFFFFE00021387E0FFFFFFFAAAA9258003
:10F6A00000400FFFFFFE00010B87E0FFFFFFF55555
:10F6B00054918000240FFFFFFE00008787E0C80000
:10F6C0000000000000000000010000000000000039
:10F6D00000D0000000000000000000020000000058
:10F6E00000000000C40000000000000000000080D6
:10F6F00000000000000000FFFFFFFAAAAA488000F7
:10F70000100FFFFFFE00004387E0FFFFFFF5555598
:10F71000248000080FFFFFFE00002387E0C00000E8
:10F720000000000040000000000001000000000098
:10F73000C000000000000020000000000000800069
:10F74000000000C0000000000000100000000000E9
:10F75000004000000000C2000000000000000000A7
:10F76000004000000000000000C100000000000098
:10F77000000000002000000000000000C080000029
:10F78000000000000000001000000000000000C0A9
:10F790000000000000000800000000000020000041
:10F7A0000000C00000000000000400000000000095
:10F7B0001000000000FFFFFFFAAAA8908200000FCF
:10F7C000FFFFFE08000387E0C0000000000000010A
:10F7D0000000000000000400000000C00000000065
:10F7E0000000008000000000000200000000FFFF99
:10F7F000FFF555564B8040000FFFFFFE01000387C9
:10F80000E0FFFFFFFAAAA9278020000FFFFFFE00FC
:10F81000800387E0C000000000000000100000002E
:10F8200000000040000000C00000000000000008D0
:10F8300000000000000020000000C00000000000E8
:10F8400000000400000000000010000000C00000E4
:10F85000000000000002000000000000080000009E
:10F86000C0000000000000000100000000000004D3
:10F87000000000C000000000000000008000000048
:10F88000000002000000000080B582B00190142149
:10F89000C4F215010868022262F352400860042194
:10F8A000C4F215010868042262F310200860019870
:10F8B000000248300021C4F21501086040F66D30A6
:10F8C00080471020C4F21500006802B080BD00001F
:10F8D00000DD281CD86967484152444641554C54C4
:10F8E0003A0A5043203A203078253038580A4C5292
:10F8F000203A203078253038580A5053523A203078
:10F9000078253038580A5230203A2030782530385F
:10F91000580A5231203A203078253038580A52326D
:10F92000203A203078253038580A5033203A203099
:10F9300078253038580A5231323A2030782530381C
:10F94000580A005B4F4F4D5D20402025640A005B44
:10F95000415353455254494F4E5D20402025733A40
:10F9600025640A00773A25642C256400537769746E
:10F97000636820746F20424C45206D6F646520637E
:10F980006F6D706C6574652E0A0025733A202564CE
:10F990000A0073657475702070726F66696C650A11
:10F9A0000025730A0025733A25780A00416C7265B8
:10F9B00061647920326734206D6F64652E00626C5B
:10F9C000655F7377697463685F746F5F3270346703
:10F9D0005F636865636B00626C655F73776974630E
:10F9E000685F746F5F327034675F747269676765F0
:10F9F0007200626C655F6164765F73746F707065CE
:10FA0000645F68616E646C657200626C655F6164FE
:10FA1000765F73746172747465645F68616E646C40
:10FA2000657200626C655F6164765F7365745F63C5
:10FA30006F6D706C6574655F68616E646C65720093
:10FA4000626C655F636F6E6E6563745F68616E6440
:10FA50006C657200626C655F646973636F6E6E657E
:10FA600063745F68616E646C657200626C655F6888
:10FA700063695F72657365745F68616E646C6572FB
:10FA800000537461727420746F205258202E2E2EF1
:10FA90000D0A00537461727420746F205458202E24
:10FAA0002E2E0D0A00746F20322E3467202E2E2E3B
:10FAB0000D0A0054657374202564207061636B65C2
:10FAC0007421206D6973733A2025642C7265763A2F
:10FAD0002025642C20726174653A20252E33664BF4
