:020000040200F8
:10200000001F124061310002A131000225300002A0
:10201000A5310002A7310002A93100020000000032
:102020000000000000000000000000003F3000023F
:10203000AD31000200000000993000020D410002A5
:10204000B3310002B3310002E1400002253D00023D
:10205000153D000259410002494100023941000288
:1020600099410002513F0002C93C0002DB1F0020E1
:10207000D11D0020B3310002DD3C0002C14000024E
:10208000F1400002413E0002794100026941000234
:10209000313E0002213E0002ED3C0002713E000292
:1020A000213F0002B3310002513E0002613E0002B6
:1020B000B1400002A14000029140000289410002AB
:1020C000B53E0002A53E0002D1400002713F000271
:1020D000613F0002313F0002413F0002813F0002A8
:1020E000913F0002A13F0002B13F0002B331000264
:1020F000B3310002B3310002B93C00020200030810
:1021000000A00202FFFFFFFFFFFFFFFFFFFFFFFF37
:10211000FFFFFFFFFFFFFFFFFFFFFFFFFFFFFFFFCF
:10212000FFFFFFFFFFFFFFFFFFFFFFFFFFFFFFFFBF
:10213000FFFFFFFFFFFFFFFFFFFFFFFFFFFFFFFFAF
:10214000FFFFFFFFFFFFFFFFFFFFFFFFFFFFFFFF9F
:1030000000200002DFF810D000F0BCF900480047B3
:1030100071CC0102AFF30080CC71002030B5804745
:1030200030BD00BF1EF0040F0CBFEFF30880EFF3BC
:10303000098081694DF69122C0F2012210472C4B84
:1030400019680868B0E8F04F80F30988BFF36F8F04
:103050004FF0000080F31188704700BF00000000AF
:1030600007480068006880F308884FF0000080F38C
:10307000148862B661B6BFF34F8FBFF36F8F00DF66
:10308000DC3B0020DFF80C00016841F470010160B6
:10309000704700BF88ED00E0EFF30980BFF36F8F4A
:1030A000134B1A681EF0100F08BF20ED108A20E99C
:1030B000F04F106009B44FF0080080F31188BFF39F
:1030C0004F8FBFF36F8F1EF0A5FF4FF0000080F30E
:1030D000118809BC19680868B0E8F04F1EF0100F9D
:1030E00008BFB0EC108A80F30988BFF36F8F704778
:1030F000103C0020EFF30580704700B51A4422F021
:10310000030203460E480068C0050ED1EFF3148099
:1031100080070AD5EFF3098082F3098801B40846D5
:10312000984701BC80F3098800BDEFF3088082F363
:10313000088801B40846984701BC80F3088800BDA0
:1031400004ED00E044F6206000BF401EFCD128479B
:1031500040BA704740BA7047C0BA7047C0BA7047AB
:103160001448016811F0010F134A18BF104721F0ED
:103170000101016009D01148016821F002010160DC
:103180000F4880470F48006800470C48016821F04D
:10319000020101600C4880470C4800470C4800477A
:1031A000FEE7FEE7FEE7FEE7FEE7FEE7FEE7FEE7F7
:1031B000FEE7FEE710011040FD000020080000407F
:1031C000CD640002D86F0020156400028533000230
:1031D00071CC01022DE9F0035FEA930C6FD000BFC0
:1031E00030F8024B31F8026B30F8025B31F8027BA9
:1031F00014FB06F84FEA684815FB07F9A8EB694885
:1032000022F8028B14FB07F4641415FB06F504EB9B
:10321000654422F8024B30F8024B31F8026B30F86B
:10322000025B31F8027B14FB06F84FEA684815FB95
:1032300007F9A8EB694822F8028B14FB07F4641421
:1032400015FB06F504EB654422F8024B30F8024BFF
:1032500031F8026B30F8025B31F8027B14FB06F8A0
:103260004FEA684815FB07F9A8EB694822F8028B7A
:1032700014FB07F4641415FB06F504EB654422F80F
:10328000024B30F8024B31F8026B30F8025B31F838
:10329000027B14FB06F84FEA684815FB07F9A8EB18
:1032A000694822F8028B14FB07F4641415FB06F539
:1032B00004EB654422F8024BBCF1010C90D113F0F1
:1032C000030304BFBDE8F003704700BF30F8024BB2
:1032D00031F802CB30F8025B31F8026B14FB0CF7CB
:1032E0007F1415FB06F8A7EB684722F8027B14FB56
:1032F00006F4641415FB0CFC04EB6C4C22F802CBB6
:103300005B1EE3D1BDE8F0037047000000F50050FC
:1033100000B20028BCBF00F5004000B281090B4B91
:10332000A0EB8110400233F9112003EB410100B200
:10333000C0F5004349885A43121410FB01F000EB1A
:1033400002400014400000B270470000144B02021B
:1033500081090B4BA0EB8110400233F9112003EBE4
:10336000410100B2C0F5004349885A43121410FBD2
:1033700001F000EB02400014400000B27047000072
:10338000144B0202064C074D06E0E06840F00103D2
:1033900094E8070098471034AC42F6D3FFF736FEA6
:1033A0000C5502023C5502022DE9F05F0546002053
:1033B00092469B4688460646814640241BE02846A6
:1033C00041464746224600F06BF853465A46C01A1B
:1033D000914110D311461846224600F052F82D1A9A
:1033E00067EB01084F4622460120002100F049F812
:1033F00017EB00094E41201EA4F10104DFDC484612
:1034000031462A464346BDE8F09FD2B201E000F8BB
:10341000012B491EFBD270470022F6E710B5134678
:103420000A4604461946FFF7F0FF204610BD421C2D
:1034300010F8011B0029FBD1801A704730B50446F3
:103440000020034600E05B1C934203D2E05CCD5CAD
:10345000401BF8D030BD30B50B460146002020227D
:10346000012409E021FA02F59D4205D303FA02F591
:10347000491B04FA02F52844151EA2F10102F1DCF1
:1034800030BD202A04DB203A00FA02F10020704708
:103490009140C2F1200320FA03F319439040704792
:1034A000202A04DB203A21FA02F00021704721FA99
:1034B00002F3D040C2F12002914008431946704700
:1034C0002DE9FE4F804681EA0300C00F0C460090B4
:1034D00021F0004123F00045B8EB0200A94105D2DC
:1034E0004046214690461C460B46024623F00040CB
:1034F000104347D0270DC7F30A00C3F30A510290C7
:10350000401A019040286BDAC3F3130040F4801B8B
:103510000098924620B10023D2EB030A63EB0B0B19
:1035200001985946C0F140025046FFF7AAFF0646EF
:103530000D4650465946019A00F07AF910EB080002
:103540006141002487EA115284EAE7731A4340D0AC
:10355000009A62B3019A012A4FEA075215DC001B58
:1035600061EB02014FF0004202EA0752CDE900424E
:10357000001C41F5801132462B4600F07AF903B069
:10358000BDE8F08F40462146F9E7001B61EB0201E0
:10359000001C41F5801300185B412018A2F50017AC
:1035A00047EB030140EAD570B6196D4111E06D0893
:1035B0004FEA360645EAC0754FEA0752001B61EB39
:1035C0000201001C41F5801149084FEA3000001942
:1035D000514132462B4603B0BDE8F04F00F03AB9F6
:1035E0000098012240000023D0EB020263EBE0735D
:1035F000009821464FEAE074B8EB000061EB04014B
:10360000E9E783F000435BE781F0004158E72DE9EB
:10361000FE4F81EA030404F0004421F000410094CD
:103620004FF0000B23F0004350EA01045ED052EA51
:1036300003045BD0C3F30A54C1F30A552C44A4F22B
:10364000F3340194A0FB0254C1F3130141F480113F
:10365000C3F3130343F4801301FB024400FB034E46
:10366000840A970A44EA815447EA8357A4FB07680F
:1036700002958D0A05FB07854FEA932C04FB0C5439
:103680002705029D4FEA065847EA1637B5EB0805AD
:103690006EEB070C870E920E47EA811742EA8312FF
:1036A000A7FB0201B6EB0B0164EB00042B0D43EA10
:1036B0000C335E1844EB1C50DA465146E7FB02011E
:1036C000C5F313044FEA0B3343EA14534FEA0432B1
:1036D000019C43EA0603A4F10C040294009CCDE98A
:1036E00000B400F0C6F803B0BDE8F08F002001463A
:1036F000F9E72DE9F04D81EA030404F0004B21F0D5
:10370000004514464FF0000A23F0004150EA05023C
:1037100020D054EA01021DD0C5F30A570246C5F372
:103720001303C1F31300C1F30A5640F4801543F4A8
:103730008013A7EB0608101BD64608F2FD3873EB82
:10374000050002D308F1010801E092185B41B8F1CD
:10375000000F03DA00200146BDE8F08D00204FF491
:103760008011064684460EE0171B73EB050705D350
:10377000121B63EB050306434CEA010C49084FEAB0
:10378000300092185B4150EA0107EDD152EA030084
:1037900012D082EA040083EA0501084305D0101B19
:1037A000AB4106D20122002306E000224FF0004385
:1037B00002E06FF0010253101AEB06004CEB0851C7
:1037C00010EB0A0041EB0B01BDE8F04D00F042B8F0
:1037D000C1F30A52C1F3130140F2FF3341F48011E7
:1037E0009A4202DA00200146704740F233439A427F
:1037F000A2F2334202DC5242FFF752BEFFF741BE53
:1038000030B5041E71F1000404DB4FF00044404267
:1038100064EB0101141E73F1000405DB1C464FF03C
:103820000043524263EB0403994208BF904230BD0B
:10383000202A06DBCB17203A41FA02F043EAE07374
:1038400006E041FA02F3D040C2F120029140084361
:103850001946704710B5141E73F1000408DA401CB5
:1038600041F1000192185B411A4301D120F001009F
:1038700010BD2DE9F04D92469B4611B1B1FA81F28F
:1038800002E0B0FA80F220329046FFF7FAFD0446DB
:103890000F4640EA0A0041EA0B0153465A460843E4
:1038A00013D0114653EA010019D0C8F14002504626
:1038B000FFF7F6FD05460E46504659464246FFF7CD
:1038C000E0FD084305D0012004E020463946BDE86C
:1038D000F08D0020054346EAE0762C4337430A98F2
:1038E0006305E40AA0EB08000022FD0A44EA4754FD
:1038F0000A3002D500200146E9E7010510196941A7
:10390000DDE9084500196941BDE8F04DA2E770B551
:103910008C1810F8015B15F0070301D110F8013B7A
:103920002A1106D110F8012B03E010F8016B01F801
:10393000016B5B1EF9D12B0705D40023521E0DD459
:1039400001F8013BFAE710F8013BCB1A921C03E0A7
:1039500013F8015B01F8015B521EF9D5A142D8D3DF
:10396000002070BD42F2454CC2F2000C604740F2AC
:10397000E91CC2F2000C604740F2557CC2F2000C18
:10398000604740F2215CC2F2000C604743F6790CBC
:10399000C2F2000C604740F2C91CC2F2000C604742
:1039A00042F2E53CC2F2000C604742F2014CC2F226
:1039B000000C604742F2314CC2F2000C604742F208
:1039C000350CC2F2000C604740F6BD1CC2F2000C80
:1039D000604740F2633CC2F2000C604740F28F3C0B
:1039E000C2F2000C604742F23D0CC2F2000C60478C
:1039F00042F2894CC2F2000C604742F28F0CC2F2D4
:103A0000000C604740F6931CC2F2000C604743F67E
:103A1000790CC2F2000C604743F6790CC2F2000C3C
:103A2000604740F26D7CC2F2000C604742F6A70C82
:103A3000C2F2000C604742F2352CC2F2000C604723
:103A400042F2417CC2F2000C604742F2251CC2F2F5
:103A5000000C604742F2AD3CC2F2000C604740F6F9
:103A60000D3CC2F2000C604740F62F3CC2F2000C45
:103A7000604742F2234CC2F2000C604742F6230C2E
:103A8000C2F2000C604743F6550CC2F2000C6047CE
:103A900042F2232CC2F2000C604740F68D3CC2F289
:103AA000000C604740F63F2CC2F2000C604742F227
:103AB000D16CC2F2000C604740F6DD2CC2F2000C63
:103AC000604743F2911CC2F2000C604740F6753C1F
:103AD000C2F2000C604743F27B3CC2F2000C60472C
:103AE00041F6A93CC2F2000C604743F2691CC2F2E5
:103AF000000C604743F2E77CC2F2000C604741F2E1
:103B0000893CC2F2000C604742F67F0CC2F2000C06
:103B1000604740F6212CC2F2000C604740F6DB5CA7
:103B2000C2F2000C604740F6F72CC2F2000C60476E
:103B300041F2194CC2F2000C604740F6994CC2F2B7
:103B4000000C604740F28D7CC2F2000C604740F6EA
:103B50009F6CC2F2000C604740F6075CC2F2000C9A
:103B6000604742F2670CC2F2000C604740F2AD7C45
:103B7000C2F2000C604740F6CF3CC2F2000C604736
:103B800041F2634CC2F2000C604741F21D0CC2F2DC
:103B9000000C604741F2211CC2F2000C604741F268
:103BA000990CC2F2000C604741F2751CC2F2000C85
:103BB000604741F2411CC2F2000C604741F29D1C7B
:103BC000C2F2000C604741F20F2CC2F2000C6047B9
:103BD00041F2C32CC2F2000C604740F6F36CC2F213
:103BE000000C604740F6FD6CC2F2000C604740F6E6
:103BF000134CC2F2000C604742F60B2CC2F2000CD0
:103C0000604741F2CD5CC2F2000C604742F6652C81
:103C1000C2F2000C604743F22F0CC2F2000C604766
:103C200040F64F3CC2F2000C604742F69D1CC2F2C7
:103C3000000C604742F60B5CC2F2000C604743F692
:103C4000690CC2F2000C604740F2BF4CC2F2000C9B
:103C5000604742F2215CC2F2000C604740F2353C02
:103C6000C2F2000C604740F26F3CC2F2000C6047A9
:103C700040F28F6CC2F2000C604740F2DB5CC2F293
:103C8000000C604741F2B56CC2F2000C604741F68F
:103C9000833CC2F2000C604741F6613CC2F2000C6A
:103CA000604743F6453CC2F2000C604743F6653C72
:103CB000C2F2000C6047000002482421806807F02F
:103CC00027B80000C83B00200348016841F02001EC
:103CD00001600120FFF746BE0000134002480921A1
:103CE000806807F015B80000C83B0020024810218A
:103CF000806807F00DB80000C83B00200448006849
:103D00000122C0F308010920891EFFF730BE000020
:103D100004ED00E002480121806806F0F9BF0000D0
:103D2000C83B002002480221806806F0F1BF000075
:103D3000C83B002010B5C368D9B280290FD9846868
:103D4000E06800B101204B2213A1FFF715FEE168E6
:103D500019B12069BDE81040084772B6FEE7044675
:103D6000008A616982B2D8B2124B1B68984706F08C
:103D7000F1FB00280FD1E068022806D004280AD100
:103D8000A069BDE8104006F0DFBBA08BA169BDE8CB
:103D9000104006F0D7BB10BD4863695F696E74655B
:103DA000726E616C5F7472616E73706F72742E6389
:103DB000000000008C3D00201FB541680A2914D086
:103DC00007DC09B105291FD104B0BDE81040FFF799
:103DD000B1BF0B2919D00C2916D1018AC2684069DC
:103DE00004B089B2BDE8104010470C491EC98DE8E7
:103DF0001E00C168019141690291008AADF80C0072
:103E00001021684606F0DEF91FBD018A8AB24169B9
:103E1000C06804B0BDE8104008F000B804350202E4
:103E200002480E21806806F073BF0000C83B0020E6
:103E300002480F21806806F06BBF0000C83B0020DD
:103E400002480B21806806F063BF0000C83B0020D9
:103E500002481221806806F05BBF0000C83B0020CA
:103E600002481321806806F053BF0000C83B0020C1
:103E700002481121806806F04BBF0000C83B0020BB
:103E8000074A131D5980116860F30701116010681B
:103E900040F40070106010688005FCD4704700008A
:103EA0000804114002481C21806806F031BF000060
:103EB000C83B002002481B21806806F029BF000093
:103EC000C83B0020C906090E002806DA00F00F00E2
:103ED00000F1E02080F8141D704700F1E02080F828
:103EE00000147047024A11400143024801607047C4
:103EF00080FFFF1F08ED00E000B589B01AF056F909
:103F0000816803910021CDE9011004480B464A1E47
:103F1000694600681EF066FA09B000BDF43B002057
:103F200002481421806806F0F3BE0000C83B002060
:103F300002481521806806F0EBBE0000C83B002057
:103F400002481621806806F0E3BE0000C83B00204E
:103F500002480721806806F0DBBE0000C83B002055
:103F600002481E21806806F0D3BE0000C83B002036
:103F700002481D21806806F0CBBE0000C83B00202F
:103F800002481F21806806F0C3BE0000C83B002025
:103F900002482021806806F0BBBE0000C83B00201C
:103FA00002482121806806F0B3BE0000C83B002013
:103FB00002482221806806F0ABBE0000C83B00200A
:103FC0002F492E48C1F890012E48C1F894014FF4B2
:103FD0000040086342F2412048632B48826942F066
:103FE00080428261026922F07F7202F54002026122
:103FF000826922F4700202F580128261826942F4C1
:104000007022826182696FF30F02103282614A6A04
:1040100022F4601202F500224A624A6A22F4F8523F
:1040200002F500724A62826922F07C5202F1C852A3
:104030008261D1F8602122F4FC0202F5B402C1F8D9
:104040006021016801680E2262F31F7101608168BE
:10405000C90D21F0F00141F03002816862F3DE51B8
:104060008160C168C168022262F38A11C16001687F
:104070000168092262F344010160704707060204E7
:1040800000001040010304050020104070470000AC
:1040900002481721806806F03BBE0000C83B0020A4
:1040A00002481821806806F033BE0000C83B00209B
:1040B00002481921806806F02BBE0000C83B002092
:1040C00002480821806806F023BE0000C83B00209B
:1040D00002482321806806F01BBE0000C83B002078
:1040E00002480021806806F013BE0000C83B002093
:1040F00002480A21806806F00BBE0000C83B002081
:104100000149087270470000203D002010B50820CA
:1041100080F31188BFF34F8FBFF36F8FFFF731FC30
:1041200018B104494FF080500860002080F31188D6
:1041300010BD000004ED00E002480321806806F095
:10414000E7BD0000C83B002002480421806806F05B
:10415000DFBD0000C83B002002480521806806F052
:10416000D7BD0000C83B002002480C21806806F043
:10417000CFBD0000C83B002002480D21806806F03A
:10418000C7BD0000C83B002002481A21806806F025
:10419000BFBD0000C83B002002480621806806F031
:1041A000B7BD0000C83B00200FB4054B10B503A9F4
:1041B000044A029800F0FEF810BC5DF814FB000001
:1041C000256D0002EC3E00200FB4084B10B504A989
:1041D00002AA039800F0EEF8044602A9002000F0BD
:1041E00097FE204610BC5DF814FB0000114F000242
:1041F000014B024A00F0E0BA256D0002EC3E0020BF
:1042000070477047704770477047704770477047F6
:1042100002E008C8121F08C1002AFAD1704770478F
:10422000002001E001C1121F002AFBD170470000ED
:104230002DE9FF5F82B00021DDE90430020DDDF8D9
:1042400040B0034318D044F61050A2F2FF3242436C
:104250001514119801281FD0A5EB0B00401C5FEA34
:10426000000A4FF000064E4FDFF83891B046504636
:1042700015D5CAF1000413E0119801244AA30128BE
:1042800001D16FEA0B010298119AC0E90031C0E92F
:10429000024206B0BDE8F09FCBF10000DFE7044624
:1042A0000021404A491842EB0450CDE9001012E0C9
:1042B000E00707D032463B4640464946FFF7A7F99C
:1042C0008046894632463B4610461946FFF79FF91D
:1042D00006460F466410002CEAD1DDE90401DDE951
:1042E0000023BAF1000F06DAFFF791F942464B4678
:1042F000FFF78DF905E0FFF7FCF942464B46FFF763
:10430000F8F904460E460022284BFFF779FA03D845
:104310004FF0FF30014607E00022254B2046314692
:10432000FFF7CEF8FFF754FA102409E0002C0ADB5F
:104330000A220023FFF738F8039B30321A55641E17
:1043400050EA0102F2D1641C039AC4F1110314442F
:10435000119A012A03D0012208430DD10AE0084333
:1043600004D000204FF0110B119072E7A3EB0B0566
:104370006D1E0DE05B4504DD4FF0000205F1010507
:1043800004E003DA4FF00002A5F10105002AECD0A9
:1043900002981199C0E90231C0E9004579E70000AF
:1043A000000014400000F03F300000000000F04327
:1043B0000000E03F2DE9FF4F8DB00F460546002677
:1043C00006E025280BD0DDE90F1290476D1C761C06
:1043D00028780028F5D111B03046BDE8F08F0024D0
:1043E000A246A1460122E94900E0044315F8013F35
:1043F000203B02FA03F00842F7D128782A2810D08F
:104400006FF02F022878A0F13001092914D80AEBA7
:104410008A0102EB410144F0020400EB010A6D1C29
:10442000F0E701CF5FEA000A03D544F40054CAF173
:10443000000A44F002046D1C28782E2817D115F8C4
:10444000010F44F004042A280ED06FF02F022878C0
:10445000A0F1300109290AD809EB890102EB4101D9
:1044600000EB01096D1CF2E757F8049B6D1C2878DE
:104470006C280FD006DC4C2817D068280DD06A288D
:1044800014D104E0742810D07A280FD10DE044F440
:1044900000140AE044F4801401E044F44014697804
:1044A000814202D104F580146D1C6D1C28786E28A1
:1044B0001ED00CDC632830D004DC00288BD05828B8
:1044C00011D19FE0642867D069280CD164E073287B
:1044D0002DD004DC6F2872D0702804D194E07528A8
:1044E0006ED078286DD0DDE90F129047761C4BE135
:1044F000C4F30250022806D0032809D0042801CFB3
:1045000009D0066040E101CFF117C0E900613BE14D
:1045100001CF068038E1067036E117F8040B8DF8FC
:10452000000000208DF80100EB46012003E057F861
:1045300004BB4FF0FF3061074FF0000102D40DE0E3
:1045400008F10101884649450FDA8045F8DB1BF880
:1045500008100029F4D108E008F1010188468142E1
:10456000FADB1BF808100029F6D1DDE90F23AAEBCE
:1045700008008146214600F09DFC304400EB08060F
:1045800004E0DDE90F121BF8010B9047B8F10108B8
:10459000F7D221464846F2E00A21C4F302524FF016
:1045A000000B0891022A04D001CFC117032A09D0B9
:1045B0000AE0FF1D27F00707F7E8020108E02CE0FA
:1045C0001EE01FE000B2C117042A01D140B2C1179A
:1045D000021E71F1000206DA0023D0EB030063EB48
:1045E00001012D2202E0220504D52B228DF8242082
:1045F000012203E0E20701D02022F7E7904653E0D2
:104600000A210BE0102109E010214FF0000B44F0CB
:1046100004044FF00809089103E008214FF0000B53
:104620000891C4F30252022A04D001CF0021032AC8
:1046300006D006E0FF1D27F00707F7E8020103E0B8
:1046400080B2042A00D1C0B24FF0000822072BD557
:104650002A78702A07D0DDF820C08CF0100C5CEAB4
:104660000B0C05D00EE040228DF82420012208E03A
:1046700050EA010306D030238DF824308DF8252030
:1046800002229046089B83F0080353EA0B030BD1E8
:1046900050EA010201D1620706D530228DF82420AC
:1046A0004FF00108A9F101092A78582A04D038A24C
:1046B0000B9208AA0A920BE03AA2F9E75B46089A25
:1046C000FEF772FE0B9B9B5C0A9A521E0A921370B5
:1046D00050EA0102F2D10A98ADEB000000F1200B84
:1046E000600702D524F4803401E04FF00109D94578
:1046F00002DDA9EB0B0000E0002000EB0B014144C0
:104700000890AAEB010AE00306D4DDE90F23214655
:10471000504600F0CFFB06444FF0000908E009A91D
:1047200011F80900DDE90F12904709F10109761C23
:10473000C145F4DBE0030CD5DDE90F2321465046EB
:1047400000F0B8FB064404E0DDE90F12302090478A
:10475000761C0899481E08900029F5DC08E00A98A4
:104760000A990078491C0A91DDE90F129047761CDE
:10477000BBF10001ABF1010BF1DC21465046DDE954
:104780000F2300F073FB06446D1C21E6092801008D
:1047900030313233343536373839616263646566B7
:1047A0000000000030313233343536373839414279
:1047B00043444546000000002DE9FF4F95B09A465E
:1047C000884606460025EEE1252877D100242746B5
:1047D000F94A0121039400E0044316F8013F203B0D
:1047E00001FA03F01042F7D130782A2811D06FF087
:1047F0002F033078A0F13002092A16D8039A44F02A
:10480000020402EB820203EB42021044761C039086
:10481000EFE758F8042B0392002A03DA504244F4DD
:104820000054039044F00204761C30782E2816D1F0
:1048300016F8010F44F004042A280DD06FF02F025F
:104840003078A0F13003092B09D807EB870302EB7E
:104850004303C718761CF3E758F8047B761C3078BE
:104860006C280FD006DC4C2817D068280DD06A2899
:1048700014D104E0742810D07A280FD10DE044F44C
:1048800000140AE044F4801401E044F44014727807
:10489000824202D104F58014761C761C307866289A
:1048A0000BD013DC582877D009DC002875D04528B8
:1048B000F6D04628F4D047281AD193E118E06328AF
:1048C00035D0642879D0652812D18BE1702873D057
:1048D00008DC6728F1D069286FD06E280DD06F28CA
:1048E00006D1ACE073282CD0752874D0782853D02A
:1048F0005246179990476D1C54E1C4F302500228A8
:1049000009D003280DD0D8F8001004280DD00D6070
:1049100008F1040846E1D8F80010EA17C1E900528E
:10492000F6E7D8F800100D80F2E70D70F0E718F800
:10493000041B8DF8001000208DF80100EB460120CB
:1049400003E058F804BB4FF0FF3061074FF000015F
:1049500002D40DE009F101018946B9420FDA81451F
:10496000F8DB1BF809100029F4D108E009F1010176
:1049700089468142FADB1BF809100029F6D1039819
:104980005346A0EB090721463846179A00F0A9FACA
:10499000284400EB090507E044E008E10DE01BF8BE
:1049A000010B524617999047B9F10109F7D25346C6
:1049B00021463846179AF2E039E00A21C4F3025240
:1049C0004FF0000B0091022A06D058F8040BC117D3
:1049D000032A09D00AE023E008F1070020F00702CB
:1049E000F2E80201904605E000B2C117042A01D1A5
:1049F00040B2C117002906DA0A460021404261EBA5
:104A000002012D2202E0220504D52B228DF804207C
:104A1000012203E0E20701D02022F7E7914657E0A8
:104A20000A2100E010214FF0000B00910BE0102153
:104A30004FF0000B44F004040827009103E0082025
:104A40004FF0000B0090C4F30252022A05D058F830
:104A5000040B0021032A08D008E008F1070020F029
:104A60000702F2E80201904603E080B2042A00D176
:104A7000C0B24FF0000922072AD53278702A07D039
:104A8000DDF800C08CF0100C5CEA0B0C05D00EE0D9
:104A900040228DF80420012208E050EA010306D0EC
:104AA00030238DF804308DF8052002229146009BBA
:104AB00083F0080353EA0B030AD150EA010201D143
:104AC000620705D530228DF804204FF001097F1EC2
:104AD0003278582A04D039A20C920CAA02920BE028
:104AE0003BA2F9E75B46009AFEF75EFC0C9B9B5CE1
:104AF000029A521E0292137050EA0102F2D10298F9
:104B000004A9081A00F1200B600702D524F48034B0
:104B100000E001275F4502DDA7EB0B0000E000206D
:104B200000EB0B01009003984944401A0390E00306
:104B300006D453462146179A039800F0D2F905444B
:104B4000002706E001A85246C05D179990476D1CEA
:104B50007F1C4F45F6DBE0030CD553462146179AE0
:104B6000039800F0BEF9054404E03020524617993E
:104B700090476D1C0099481E00900029F5DC08E064
:104B80000298029952460078491C02911799904761
:104B90006D1CBBF10001ABF1010BF1DC5BE100F03E
:104BA00077F90544761C307800287FF40DAE19B0F3
:104BB0002846BDE8F08F000009280100303132336B
:104BC0003435363738396162636465660000000049
:104BD0003031323334353637383941424344454633
:104BE00000000000600700D4062708F1070020F04D
:104BF0000700F0E80223804603F0004C5FEA0C0057
:104C000001D097A009E0200501D596A005E0E007B6
:104C100001D095A001E0AFF24C001390307823F062
:104C2000004365280CD006DC452809D046281DD055
:104C300047287FD13BE0662818D067287AD136E034
:104C40000021112F01DB112000E0781CCDE90001CB
:104C500004A90CA8FFF7ECFADDE90D010C9A4FF05E
:104C6000000B07F10109109200914EE04FF0004057
:104C70000097CDE9011004A90CA8FFF7D9FADDE9E6
:104C80000D020C9B0F994FF0000B91461093009270
:104C900011B9791C00EB0109B7EB090003D4C0F18D
:104CA000FF3B07F10109A9EB0700019042E0012F4A
:104CB00000DA01270021112F01DD112000E0384624
:104CC000CDE9000104A90CA8FFF7B2FADDE90D0156
:104CD0000C9A00914FF0000BB946109221070FD4A7
:104CE000009A4A4503DA914601E0A9F10109B9F1B8
:104CF000010F05DD109AA9F10101515C3029F4D0B2
:104D0000B84202DA10F1040F03DA0121CDE90110F3
:104D100010E0002803DC8344A9EB000102E0411C01
:104D2000494500DD8946A0EB0B00401C01904FF087
:104D300000400290200705D40198484502DB4FF05F
:104D4000FF30019000208DF84B0002980DF14B07C9
:104D5000B0F1004F25D002200C902B200D9002982E
:104D600000280CDA404202902D200D9007E00A2125
:104D70000298FEF770FB3031029007F8011D0C9984
:104D8000481E0C900029F2DC02980028EFD1791E11
:104D90000D980870307800F0200040F0450007F8CA
:104DA000020D11A8C01BC01D02901398007800B11D
:104DB000012000EB0901019801EBE0710298014428
:104DC0000398401A401E0390E00306D45346214640
:104DD000179A039800F085F805441398007818B1E5
:104DE0005246179990476D1CE00323D55346214640
:104DF000179A039800F075F805441BE0BBF1000F0B
:104E000007DB0098584504DD1098179910F80B003F
:104E100001E0179930205246904701980BF1010BA1
:104E2000401E05F10105019004D12E20524617992C
:104E300090476D1CB9F10001A9F10109DEDC05E024
:104E400017F8010B5246179990476D1C0299481E9E
:104E500002900029F4DC53462146179A03989EE6F7
:104E60002D0000002B000000200000002DE9F04183
:104E7000044600251E461746880404D405E039463A
:104E80002020B0476D1C641EF9D52846BDE8F0818E
:104E90002DE9F041044600251E461746880404D437
:104EA00005E039462020B0476D1C641EF9D5284620
:104EB000BDE8F0812DE9F041044600251E469046EC
:104EC000C80301D5302700E02027880404D505E079
:104ED00041463846B0476D1C641EF9D52846BDE8EA
:104EE000F0812DE9F041044600251E469046C80396
:104EF00001D5302700E02027880404D505E041468D
:104F00003846B0476D1C641EF9D52846BDE8F081CF
:104F10000A68531C0B601070704700002DE9F05FA9
:104F200006460088C0F30B00824605F0BBF804007B
:104F3000707875884FEA101709D005F10408884584
:104F400008D02A1DBDE8F05F3448FFF75DB951462F
:104F500033A01DE001F042F907F00301002740F201
:104F6000031B6063012903D002292BD03BA00FE073
:104F7000A08F58B14119B1F5827F0DD353465A46DF
:104F80004648FFF741F9A787BDE8F09F514644A086
:104F9000BDE8F05FFFF738B9A16B2A460844311D20
:104FA0000E30FEF7F3FCA08F284481B2A187E08F7A
:104FB000083081422ED3A06B0E3005F0DDF8E78774
:104FC000A78727E0A08F20B151464448FFF71CF97E
:104FD000A787B788381D8146854205D31FFA88F117
:104FE000304605F0C9F815E0FF2D07D953465A465B
:104FF000291DBDE8F05F3A48FFF706B9A06B2A1DEE
:1050000031460E30FEF7C2FCA4F83C80E787A16B66
:10501000A1F81090BDE8F05F05F0DABBD0510202B4
:105020006863692E633A2061636C5F68616E646CCB
:1050300065722063616C6C65642077697468206EAA
:105040006F6E2D726567697374657265642068613F
:105050006E646C6520257521000000006863692E70
:10506000633A2061636C5F68616E646C6572206393
:10507000616C6C6564207769746820696E76616C18
:105080006964207061636B657420626F756E646122
:10509000727920666C616773202575008C5202025C
:1050A00041434C20436F6E7420467261676D656E9C
:1050B0007420627574206E6F206669727374206646
:1050C0007261676D656E7420666F722068616E64D0
:1050D0006C65203078253032780000007C51020267
:1050E000E052020270B5054607484469241D04EBEE
:1050F000C5004268002A05D14160880018F0D6FF3B
:1051000044F8350070BD0000C83B002010B50549CB
:105110004FF6FF7302E084788C54C01C02889A42D8
:10512000F9D110BD00001240704700001CB50649BF
:105130008C68002C07D0002100910191B0F8060185
:105140000B460322A0471CBD783C002070B50D46DD
:1051500000281FD1002D1DD10F4C4FF494762068EC
:1051600018B9304600F040FF2060040012D03146EC
:105170002046FEF751F9A4F8065104F5807128463F
:1051800002F0FCFE06F048FEA4F802014FF0FF30EA
:10519000A4F8080170BD00008C3C0020F8B516464C
:1051A000028A069F521A94B2C288D2050AD50B4AC7
:1051B00055683DB1009300890A460146334638469A
:1051C000A847F8BD9C4200D91C46406922460144CC
:1051D0003046FEF7DBFB2046F8BD0000783C00209F
:1051E000042105F017BF042106F026BF024908601C
:1051F0000421024806F096BE843C0020615700025C
:10520000024948600421024806F08CBE843C00201C
:1052100061570002042105F0FDBE042106F00CBF19
:1052200000B58BB0D0F82401009023E0684600F070
:1052300035FABDF8081000291ED0BDF806200FA0D1
:10524000FEF7DEFFBDF806008005039808D506A925
:1052500019F0B6F806A81CF0E3FA014611A001E027
:10526000018811A0FEF7CCFFBDF8101010A0FEF7CA
:10527000C7FF00980028D9D10BB000BD48616E640B
:105280006C653A203078253034782C20666C616764
:10529000733A203078253034782C20757569643A5B
:1052A0002000000025730000253034780000000045
:1052B0002C2076616C75655F6C656E3A2025752CC7
:1052C0002076616C75653A2000000000064A30B413
:1052D0005468002C06D00B46A4460246002130BC80
:1052E0000420604730BC70478C3C00207CB51446DD
:1052F000042819D120783E283FD016DC052855D047
:10530000082801D030280FD1B2F80350284600F009
:10531000CDF8040008D0284619F0BFFF04F8FD0FAF
:10532000284619F065FC60707CBDD7285BD0D82872
:105330004AD0DA28F8D1608800F0B8F80500F3D038
:10534000B5F8060104F0AEFE0600EDD02079317A02
:105350008842E9D16946601D19F044F806223146B9
:105360006846FEF76BF80028DED1E07A85F8FF008A
:10537000B5F80601FFF751FF7CBDA078012803D0E6
:105380000A2801D02928F7D1D41C9188D078FFF7BA
:10539000DDFEB4F8010000F089F80500ECD0B4F8A7
:1053A00001001AF0DDFBA5F808017CBDB2F803404E
:1053B000204600F07BF80028F7D000F017FE1049D7
:1053C000002041F824007CBD608800F06FF80500E3
:1053D000F9D0B4F80B0001B2A5F8081109A0FEF746
:1053E00010FF284608E0508800F060F80028EAD056
:1053F0004FF0FF31A0F8081100F094FA7CBD0000D6
:105400008C3C0020534D5F4556454E545F49444502
:105410004E544954595F5245534F4C56494E475F7D
:105420005355434345454445442069642025750050
:105430003EB50C468DF8080000208DF8092000903C
:105440000190022302AA0421204606F0F1FF3EBD8E
:105450007FB50DF1200C14469CE864008DF808001F
:10546000ADF80930ADF80B20ADF80D10CDE90056C0
:10547000072302AA0421204606F0DAFF7FBD70B59B
:1054800015000C4603D0D0F82401206008E000206D
:1054900070BD204600F002F92089A84203D02068A0
:1054A0000028F6D170BD012070BD000008B10020B9
:1054B00070470148006870478C3C00202DE9FF418F
:1054C0000F7815460024B0F800214E1DBC460E2F63
:1054D00074D00BDCA7F102070B2F15D2DFE807F021
:1054E0001C142E1438144B145C146300182F6FD046
:1054F00006DC102F70D0122F7FD0162F04D181E040
:10550000522F68D0D22F66D0614646A0FEF778FEB3
:1055100004B02046BDE8F081B1F80110B0F80221D6
:105520008A4202D9A0F8001101E0A0F8002103246A
:105530001C70B0F80001A3F80100E9E71C46B1F8BF
:1055400003300093B1F80130214603F0B1FA10E0C6
:105550001C46ED1FB1F80570B1F80360CB1DADB26C
:10556000CDE90253CDE90067B1F80130214603F0DF
:105570000BFA0446CCE70C461946072D01D8022346
:1055800000E01023B4F80350CDE900530296B4F8BC
:10559000013003F06DFCECE71C46B1F80130214608
:1055A00003F082FDE5E71C46B1F803300093B1F843
:1055B0000130214603F052FBDBE7FFE71C46491CA4
:1055C0006D1E0091C5F34F03214603F0FBFCD0E7AD
:1055D0001DE001E011E01FE00C461946072D01D83F
:1055E000022300E01023B4F80350CDE900530296E3
:1055F000B4F8013003F0A2FBBBE700922A4603F0A7
:10560000DFFDB6E700922A4603F0CAFAB1E700923E
:105610002A4603F087F9ACE700922A4603F0A0FD82
:1056200076E70000556E68616E646C6564204154D5
:105630005420436F6D6D616E643A20253032582CD2
:1056400020444154413A20001CB50B4B5C68002CAF
:1056500010D0B6238DF8003005238DF801308DF879
:105660000200ADF80310ADF80520072300216A46BB
:105670000420A0471CBD00008C3C002010B580B267
:10568000FFF714FF002808D0B0F80A21B0F806117F
:10569000BDE810409120FFF7D7BF10BD10B50168DD
:1056A0000A8882806AB14B88C3808C8804818C1DF3
:1056B000C4609B050CD5A2F11603038201F1160309
:1056C0000BE00021C1800181C1600182416106E0DF
:1056D000A2F10803038201F1080311444361016050
:1056E00010BD70B5044600890D4600281BD0022A63
:1056F00008D0E08880050BD51022E068FDF79EFEFB
:1057000080B111E009882046BDE8704000F00EB875
:10571000084605F03DFB002805D0E168A889098806
:10572000884201D1012070BD002070BD70B50446D3
:1057300000890D46002810D0E0888005E06808D573
:1057400005F026FB002808D0E0688089A84203D035
:1057500004E00088884201D1012070BD002070BDA6
:105760002DE9F041194C06461F4615468846042887
:1057700009D0082E28D12878C00720D0D4F800C03E
:105780001FE03046E047287878281DD1D4F804C0BF
:10579000BCF1000F08D03B462A4641463046E04760
:1057A00004F07CFB00280FD02468002C0CD03B4672
:1057B0002A4641463046A446BDE8F0416047D4F849
:1057C00004C0BCF1000FDCD1BDE8F081843C0020B6
:1057D0002DE9F0410F461546044601461E46127853
:1057E00028A0FEF70EFD042C0CD0082C48D138461A
:1057F000FFF75CFE040043D029781E2909D0522906
:1058000019D01FE0287878283AD1BDE8F04100F09F
:1058100011B9B4F80A01A8B104F5867000F0E0FCF3
:10582000B4F80A210020A4F80A01B4F80611BDE872
:10583000F041FFF709BF32462946BDE8F041002399
:10584000FFF73CBEFB2E06D93246BDE8F041FB23F4
:105850001948FEF7D6BC227822B1BDE8F0411748BE
:10586000FEF7CFBC01202070A4F80461324629461F
:10587000A01CFEF78BF82046BDE8F04100F052B8BE
:10588000BDE8F0816174745F7061636B65745F681B
:10589000616E646C65723A20747970652030782589
:1058A0003032782C207061636B65745B305D203022
:1058B0007825303278000000685002021C50020245
:1058C00010B5B0F80001029CC01E80B21970A3F898
:1058D0000120844200D8204610BD1FB514468DF823
:1058E0000800069AADF80930ADF80B20ADF80D10A0
:1058F000002000900190072302AA0421204606F010
:1059000097FD1FBD3EB50C468DF80800ADF8092087
:10591000002000900190032302AA0421204606F0F3
:1059200087FD3EBD2DE9FF410446017824A0FEF726
:1059300068FC207801282DD1A078D22808D0032037
:105940002070B4F8060104B0BDE8F041FFF765BC73
:1059500019F03EFB0027E0B1B4F804010F2818D37A
:10596000B4F8060119F03AFF002813D1B4F9080180
:1059700006F008FF05000CD0B4F80411A4F10A00E9
:105980000E58696C324611A0FEF73BFC686CB042C1
:1059900002D92770BDE8FF8102202070B4F80320EF
:1059A0001749601DCDE90006CDE90214B4F80401E1
:1059B000A1780F3883B205F1340019F013FBE9E741
:1059C0006174745F72756E3A2025640041545420EE
:1059D0005369676E65642057726974652C20444270
:1059E00020636F756E7465722025752C207061635D
:1059F0006B657420636F756E746572202575000089
:105A0000B95C0002FFF706BC0EB50B21CDE90023FF
:105A10008DF80810012302AA042106F009FD0EBD2D
:105A200000B5FFF743FD10B1B0F8000100BD17202D
:105A300000BD000038B513480468002C20D0207841
:105A400003280CD1204600F0A5F840B1607800286A
:105A500016D0B4F80601BDE83840FFF7DEBB607829
:105A600000280DD00020607007A000680090054855
:105A70004468002C04D0022300216A460420A04779
:105A800038BD00008C3C0020B70000002DE9FE432B
:105A90001F4616460D468046FFF708FD040005D058
:105AA000B4F80A0120B19020BDE8FE835920FBE73D
:105AB0004046FFF7AFFB88B102AB2A461D212046C6
:105AC0000097FFF7FDFECDE90060032302AA042141
:105AD000404606F0ADFC060002D014E05720E3E794
:105AE000A4F80A5104F5867042460849044600F0BD
:105AF000ADFB47F2305240F28241204600F08EFB6F
:105B0000204600F05DFB3046CEE700007D560002E7
:105B100070B505460B480A4C0E46446004F092F9F5
:105B200008480830446018F0E3FD0748FFF768FBB9
:105B3000284600F0B5F83046BDE8704000F0B6B831
:105B4000ED520002943C0020D15700022DE9FE43A3
:105B50001E4615460F468046FFF7A8FC040014D0E9
:105B60004046FFF757FB90B102AB3A461B21204657
:105B70000096FFF7A5FECDE90050032302AA0421F9
:105B8000404606F055FCBDE8FE835920FBE7572050
:105B9000F9E700002DE9FC412F4E0027077004466D
:105BA000B0F804213346811CFFF788FC0546A0F5B8
:105BB0007F40FF3823D0042D0FD3307801280CD13B
:105BC0003079082809D194F8FE0030B1B4F8060104
:105BD00019F035F878B1012811D085B100970197F7
:105BE000B4F806012B463246042106F021FC307839
:105BF000032807D02DE0B4F806011AF0A1FA00201E
:105C0000BDE8FC81154AB4F80611B4F800015568E6
:105C100075B1B5228DF8002004228DF80120ADF871
:105C20000210ADF80400062300216A460420A847AC
:105C3000B4F8060100F084F809480078C00708D0DD
:105C4000B4F800010022001D81B2B4F8060101F091
:105C5000CDFB0120D4E70000886B00208C3C0020A5
:105C6000A43C002001494860704700008C3C0020A3
:105C700010B50246FFF71AFC002806D0012141703A
:105C8000BDE810401046FFF7C8BA10BD10B50C466D
:105C9000FFF70CFC002801D0C0F8244110BD000023
:105CA0000149486070470000783C00200149886045
:105CB00070470000783C00207CB5044600780A4616
:105CC00002280ED16946104618F089FBB4F8041179
:105CD000A01F014408226846FDF7B0FB10B1002068
:105CE00020707CBDB4F80411A4F10A000E58B4F978
:105CF000080106F047FD050001D0012000E000206A
:105D0000EE2207A1FDF738FE45B1761C6E64032034
:105D10002070B4F80601FFF780FA7CBD72B6FEE78A
:105D20006174745F7365727665722E6300000000A3
:105D30000A6882654968C1653521017002F0B0BA10
:105D400070B5054602F0E0FD04000BD02846FFF7D1
:105D5000ADFB002806D0E28AB0F800118A4202D9D1
:105D6000A0F8002170BDE18270BD0000F8B50446C6
:105D7000C0880E46C0050BD506484568002D07D0E3
:105D8000002000900346024621893046A847208221
:105D9000F8BD0000783C00207CB50E46C98804465A
:105DA0000D0B00D06D1C94F8FD2094F8FE00CDE999
:105DB000000294F8FF302A461048FEF721FAF088D6
:105DC000410502D594F8FE1079B1000502D594F88A
:105DD000FF0060B1002D02DD94F8FD0048B194F899
:105DE000FD00A84207DA0C207CBD05207CBD082000
:105DF0007CBD0F207CBD00207CBD0000AC4F0202AA
:105E00003EB50C468DF808000699ADF80920CDE99D
:105E10000013032302AA0421204606F009FB3EBD1D
:105E20002DE9F0471F4615460C460646DDF8209042
:105E300013E0601900EBD070401080464946B84727
:105E4000864203D11FFA88F0BDE8F087B04202D93C
:105E500008F1010401E0A8F10105AC42E9DD494681
:105E60002846B847B04201D3A8B2EDE749462046DC
:105E7000B847B04200D2641CA0B2E5E70622FDF7A5
:105E8000DDBA0A68026089888180704710B50C49C4
:105E9000002203463A24985C000900F074FA087066
:105EA000985C00F00F0000F06EFA48708C70C91C0E
:105EB000521C062AEFDB002001F8010C004810BD3F
:105EC0007D6A00200844008840BA70474218405C50
:105ED0005378528852BA63F31F4242EA0060704717
:105EE000130A4354491C89B242547047130E435459
:105EF000491C89B2130C4354491C89B2130A4354F8
:105F0000491C89B24254704710B5012100F098FB3A
:105F1000BDE81040FDF73FBD014908607047000033
:105F2000A43C00200268134602E08A4204D01268B2
:105F3000002AFAD10B600160704702E08A4205D066
:105F400010460268002AF9D10A60016070470068B3
:105F500008B1002070470120704704E0884201D159
:105F60000120704700680028F8D1704702688168F6
:105F700032B140680068884200D1086808B97047AB
:105F800009B101207047002070470022C0E90021BC
:105F9000096881607047016851B141680A68816889
:105FA0008A4203D141600968816003E0826001E0B8
:105FB00001210160806870478168096881604268DA
:105FC00011600021016070474FF0FF3351B107E0CD
:105FD00002688A4203D109680160002070471046B8
:105FE0000028F5D11846704718F060B81BF048BD7E
:105FF000FFF7FCBF7820FFF7F7BF10B50446806BB2
:1060000006F05FFC2046BDE81040FFF7EFBF70B51B
:106010009820FFF7E9FF04000CD040F2111006F0C1
:1060200083FC050008D098212046FDF7F5F92046AD
:10603000A56370BD002070BD2046FFF7D7FFF9E7CC
:106040007047FFF7D3BF5420FFF7CEBFFFF7CEBF97
:106050001420FFF7C9BF2DE9F041064600209846FD
:1060600017460C460546306005E02146304600F0F4
:1060700007F844446D1CBD42F7DBBDE8F081000029
:1060800030B40268134607E08B4204D1024630BCAC
:1060900004A0FEF7B7B81B68002BF5D10A600160B9
:1060A00030BC70476274737461636B5F6D656D6F54
:1060B00072795F706F6F6C5F667265653A20626CB3
:1060C0006F636B2025702066726565642074776944
:1060D000636520666F7220706F6F6C202570000002
:1060E000016819B10A6802600846704700207047CD
:1060F000FFF77CBF0C20FFF777BF000000B589B029
:106100000DF1080C01900E48006805928CE80B0018
:106110000C4800684FF00003C005029804D000222C
:1061200069461CF015FA04E04FF0FF3269461CF096
:1061300059F9012802D0012009B000BD0020FBE779
:10614000F43B002004ED00E013460A4601460A2015
:10615000FFF7D4BF13460A4601460C20FFF7CEBF17
:1061600038B5154D286890F8D00008B1552038BDD5
:106170004FF0FF30ADF80200ADF800000AE06846CD
:1061800003F0DEFF0446C088162104F007F820461D
:1061900004F04EFC684603F0B3FF0028EFD1012065
:1061A00004F0FAFA054804F0B1F80028DFD12A68B3
:1061B000012182F8D01038BDC4320202AC33020291
:1061C00038B504461CF014FE02464FF0FF30009034
:1061D0000023012160691CF09FFF38BD002070473B
:1061E00038B50446406948B14FF0FF3100230091B3
:1061F0001A4605211CF090FF00206061002038BD88
:1062000038B504461CF0F4FD02464FF0FF30009014
:106210000023022160691CF07FFF38BD38B50446B9
:10622000816090024FF47A71B0FBF1F10448009064
:106230002346002203A01CF003FF606138BD00006C
:10624000F93E00026800000001617047C0E90312D6
:10625000704708B54FF0FF310091002340691A469E
:1062600003211CF059FF08BD2DE9F04107461148F4
:1062700015460E46046898463888B4F8C02034F8AD
:10628000BE1F00F035F9388062882188308800F020
:106290002FF93080E288A188288800F029F9288029
:1062A00062892189B8F8000000F022F9A8F80000FE
:1062B000BDE8F081C432020270B5054600680C46A4
:1062C00000B10120C32209A1FDF756FB206800B1EF
:1062D0000120C42205A1FDF74FFB69682068086012
:1062E0006068686000202060606070BD6C697374D5
:1062F0005F62617369632E630000000070B503463E
:1063000000200246012513F80240002105FA01F69B
:10631000344201D0401C80B2491CC9B20829F5D3CF
:10632000521CD2B2052AEED370BD70B50446008966
:1063300018F074F82521B0FBF1F201FB1201CA0834
:1063400001F00705A25C0123AB401A4201D00846C8
:1063500070BDE18841432046BDE87040C1F307416C
:1063600002F0A2BA30B504461068206010790D46DC
:1063700000F01F0020712046FFF7C0FFE08085EA93
:106380001540208130BD0A2801DA303003E00A3898
:10639000062802DA4130C0B270473F20704770B51E
:1063A0000446C08E88B0002822D0258F94F834305F
:1063B000A2268DF800601A268DF80160A6890A468B
:1063C000ADF80400ADF8082004F11C01ADF802603E
:1063D000ADF80650ADF80A30102203A8FDF7D6FA42
:1063E000A1891C236A46A06800F082F90020E0869B
:1063F00008B070BD06481144006800F2FF108142E9
:1064000003D9012018600320704700207047000066
:10641000B83C002070B500F059F8264D244868615A
:10642000D5F80001800742D5FDF7CAFD224CA068CF
:10643000224920F4F0400843A060206920F0800049
:106440002061A06920F00040A061E06840F00400F5
:10645000C4F80C00D5F800018007FBD4606900F097
:10646000C04540F2C970804740F64D008047810525
:1064700004D440F4007040F60131884740F2516086
:10648000804740F60D0080470D480543656120694F
:1064900020F078402061BFF34F8F0A4801680A4A14
:1064A00001F4E06111430160BFF34F8FFEE770BD5F
:1064B000001F1F0000001040002010400028008036
:1064C000C7E8948A0CED00E00400FA05064801686C
:1064D00041F4700101600548D0F82C1141F08001B1
:1064E000C0F82C117047000088ED00E0000010405B
:1064F00019B1884201D208467047002AFCD0904268
:10650000FAD91046704700003EB5184C60686569BE
:10651000806D2D1D28B90022202140201BF0C2FED5
:10652000E0620322002101201BF0BCFE2061104A22
:106530000E2029688DE8070000230EA10E486A6826
:106540001CF00AFC20636068806D00280CD1084AAA
:1065500002205432A9688DE80700002307A10848EB
:10656000EA681CF0F9FB60633EBD0000C83B0020F8
:106570003C3F002063000000450100207000000047
:10658000ADD6010270B51D4606000C460DD0022E98
:1065900001D3032070BD20782968884205D10622E6
:1065A000211D6868FCF74AFF08B1002070BDC5E9ED
:1065B0000264EEE70248017A491C0172704700004C
:1065C000203D002010B5044603F08EF8002010F0A6
:1065D0006BF910F0B5FC10F0ABF808F04BFA0CF0CA
:1065E0001DFB11F00DFF15F0FDFC002C03D0BDE8E4
:1065F000104011F066B810BD70B50446B0F1A53F6B
:1066000019D0B4F1C33F16D001231A0205211D2071
:10661000FDF7C6F90546B4F1F23F09D0922206A172
:106620000020FDF7A9F92846BDE87040FDF7BDB987
:1066300007202870F7E770BD6474626C652E6300F4
:10664000F8B505461B480E460021018010F03EF9C2
:106650001AF000FD16F0E8FB684610F04FF904460A
:10666000009840F68C114FF4A567884201D30120B1
:1066700000E00020862210A1FDF77EF93A4621466F
:10668000002016F007FC009804F5A561A0F5A560B0
:1066900082B2012016F0FEFB1AF068FC3046FFF7CC
:1066A00091FF002D04D02846BDE8F840FFF7A4BFB5
:1066B000F8BD00005C3E0020647469702E63000029
:1066C00009490120096809B1002070470749CA69D2
:1066D000002AF9D1044A283212688968491E8A4280
:1066E000F3D1022070470000E0430020103C00205E
:1066F00030B4040003D0A44630BC0420604730BC52
:106700007047FEB51E4617460C46054602F0FCF8DB
:10671000002816D0011D6846FFF737FC0CE06846DC
:10672000FFF739FC0189A14206D1D0F804C03346F5
:106730003A4629460420E0476846FFF717FC002840
:10674000EDD1FEBD1CB5A0228DF8002003228DF8EE
:1067500001208289ADF802208DF8041081898068BB
:1067600005236A46FFF7C4FF1CBD30B587B0044659
:10677000A3250A988DF8005018258DF80150A58999
:10678000ADF80410ADF806200146ADF80250ADF8A2
:10679000083010220DF10A00FDF7F8F8A1891A233C
:1067A0006A46A068FFF7A4FF07B030BD10B586B0F9
:1067B0000446A1208DF8000016208DF80100A08964
:1067C000ADF80410ADF80200ADF80620102219460D
:1067D00002A8FDF7DBF8A18918236A46A068FFF735
:1067E00087FF06B010BD00002DE9F05F002492463F
:1067F000894605462746264626E000BF05EB84006D
:10680000B0F9021035F9240017F036FE834605EB87
:106810008800B0F9021035F9280017F02DFEABEB17
:10682000000043F6FF71884203DBA0F5FE40FF380D
:1068300006E043F6FF71C84202DC47F6FF710844E8
:10684000074404EB4904761C04EB0908D045D5DB6A
:1068500097FBF6F0BDE8F09F2DE9F043427804463F
:10686000901C89B00E46814206D009B0EA48BDE8C6
:10687000F043921CFDF7C8BC2178E8A0FDF7C4FCEA
:106880002078DFF8A8834FF00009122873D00CDCC1
:106890000E2811D004DC05286ED0082851D179E0EB
:1068A0000F2833D010284CD197E0132850D03E2821
:1068B0006FD0572845D18FE1D8F80000A27845461F
:1068C00090F84610DAA0FDF79FFC6179E1A0FDF792
:1068D0009BFC2968A07881F84600E349B4F80300DE
:1068E0000988884205D1002003F056FF296881F805
:1068F000D0902968B4F80300B1F87A10884218D112
:106900002868C26AAAB1016B601D11E0D8F80020A6
:10691000E178404682F84610D8F80020A188B2F805
:106920007A20914205D10168CA6A12B1096B601CD4
:106930009047D8F80020A2F87A90D8F80010C1F853
:106940002C90D8F8000090F85C0001287ED04FE130
:106950000325002719E0625BAD1C615B1046AD1C8E
:1069600003F0A0FB48B190F840208A420AD3511AA4
:1069700080F8401008E035E026E01146BBA0FDF7A6
:1069800043FC01E080F840907F1CA078B842E2DC34
:10699000D7E733E0B4F80350284603F083FB002820
:1069A000CFD0A17849B961790029816902D041F439
:1069B000004101E021F40041816100F009FC014641
:1069C000284603F051FCBCE7B4F8030003F06AFB6F
:1069D0000028B6D007214174B3E703F07DFE03F031
:1069E0008FFEAEE7A0780028ABD1B4F8030003F027
:1069F00059FB0028A5D0617A0174A2E7A0780A2883
:106A00003AD035DC012837D004287DD0062898D12B
:106A100034F8037F384603F045FB05006088ADF885
:106A20001400A088ADF81000E088ADF818002089A7
:106A3000ADF81C00A4F1030483D007AB06AA04A997
:106A400005A8FFF711FCB5F8563000E0CCE0BDF822
:106A50001800B5F85420BDF81C108DE80F00BDF8E3
:106A60001030BDF8142039468E4803F04FFC68E71B
:106A700012287ED029288BD1E078002888D1A788D9
:106A80004FBBD8F800004546406918B9FFF7BFFA78
:106A9000296848612868A8464569E5B1EF80022069
:106AA000C5F81890A8742A467F4905F11C00FFF725
:106AB000CDFBFFF793FB6863E0792872294604F168
:106AC000080017F08FFC05206874A0792874A0785E
:106AD0000A2804D012E0A08800F078F931E7D4F851
:106AE0000E10C5F88A10618AA5F88E106169C5F884
:106AF0009010218B05F18000A5F89410E089A5F88D
:106B00005200287C70B900E024E0D8F8001091F819
:106B10004410E973D8F8000005F1090190F8440029
:106B200000F002FA2846FFF7B1F90246E9885FA0B3
:106B3000FDF76AFB03F06EFBD8F8000090F85200F6
:106B4000C00694D5E98840F6B832604803F0DEFB11
:106B5000F7E60EE0E078002843D1A08803F0A2FA1F
:106B600000283ED0A17980F88910012180F8881092
:106B7000E7E620790828B1D2E17819B154A0FDF7F1
:106B800043FBDEE6B4F80520104603F08BFA054619
:106B9000217958A0FDF738FB2079D8F80020C0EB08
:106BA000C001114491F88510E97369B12179D8F8D1
:106BB0000000C1EBC101084400F18001D0F886005B
:106BC00045F8090F488905E0D8F80000816B45F8C1
:106BD000091F808FA880B4E6608803F063FA00285C
:106BE000B6D109B0BDE8F083B1B2204603F036FC5F
:106BF000B1B2204603F0E6FA2078052806D1B4F8B1
:106C0000030003F04FFA08B103F012FF09B0BDE82A
:106C1000F04303F0DDBD00002C5202024843493A24
:106C20004556454E543A253032780000C4320202AF
:106C3000434D445F434F4D504C45544520636D6474
:106C400073206F6C64202575202D206E65772025BC
:106C500075000000636D645F636F6D702073746115
:106C60007475732025750000AC3302026863695F98
:106C70006E756D6265725F636F6D706C657465646F
:106C80005F7061636B6574206C6973747320756EDB
:106C90007573656420636F6E2068616E646C652037
:106CA000257500003C340202B9A000024E65772031
:106CB000636F6E6E656374696F6E3A2068616E64AF
:106CC0006C652025752C202573000000B43302026A
:106CD00061647620736574207465726D696E617489
:106CE0002064756520746F2063617573652030784A
:106CF00025780A006164762068616E646C65722094
:106D00003078257820636F6E6E65637465642074D7
:106D10006F20636F6E2068616E646C65203078252B
:106D2000780A000010B5044604F01AF8204610BD99
:106D300013460A460146014803F0E8BAE434020269
:106D40000246014803F0E2BAE433020230B50C46D1
:106D5000054689B01946104600F062FA00280CD1A9
:106D60006946284617F02CFB04A9204617F028FB9B
:106D700004AA6946024803F0C9FA09B030BD000010
:106D800014340202014803F0C1BA0000DC330202ED
:106D9000014803F0BBBA000094340202014803F03A
:106DA000B5BA0000F4340202014803F0AFBA0000A3
:106DB000D433020208B5009313460A46014602483E
:106DC00003F0A4FA08BD00002833020210B5034600
:106DD00003F068F940B106214174132219460548B1
:106DE00003F094FA002010BD0021184603F0D6F9F4
:106DF000F8E700009C33020238B54FF0FF30ADF8E1
:106E00000200ADF8000006250DE0684603F098F991
:106E10000446407C062806D0E1881322054803F08A
:106E200075FA00B96574684603F06AF90028ECD178
:106E300038BD00009C3302022DE9FF4F85B0DFF81A
:106E40009C80DDE912698A460A20002400EB0611C5
:106E50009B462746B8F8000003AA03F001F8050096
:106E600001D001210FE0562009B0BDE8F08F00BF2E
:106E700004EBC40219F81220521E01FA02F0384342
:106E8000641CC7B2E4B2B442F2D30798CDE9000B58
:106E900002975346D8F804102846059A03F0F9F8EB
:106EA000C7B200240DE000BF04EBC40109EB4101AF
:106EB000E8191022891CFCF769FD1037641CFFB229
:106EC000E4B2B442F0D306494046096881F844A0D0
:106ED0002946039A03F066FD0020C5E7C434020288
:106EE000C432020210B500F09BF9002804D1BDE8BD
:106EF0001040024803F00ABA10BD00001C34020220
:106F00000248006890F87C0070470000C43202021A
:106F10000449096851F8BE2F02604A6842608968D6
:106F200081607047C4320202064A0028106804D00B
:106F300050F83E2F0A60808802E0826B0A60808FE2
:106F400088807047C43202020146014803F0DEB96E
:106F500004340202034909688A6B0260898F8180C8
:106F600070470000C432020210B50446014604A076
:106F7000FDF74AF9022C01D9012010BD002010BDF7
:106F80006761705F6D69746D5F70726F7465637453
:106F9000696F6E5F72657175697265645F666F7245
:106FA0005F73656375726974795F6C6576656C2073
:106FB000257500007FB50DF1200C9CE870008DE870
:106FC000780013460A460146024803F09FF904B0D0
:106FD00070BD0000CC340202014803F097B90000F4
:106FE000D434020213460A460146014803F08EB922
:106FF0001833020213460A460146014803F086B9D7
:10700000103302021CB5049CCDE9003413460A4635
:107010000146024803F07AF91CBD00002033020249
:107020000146014803F072B9DC3402020448417A97
:10703000012903D10221417219F02CB970470000D7
:10704000203D0020074810B5426C40F282210648DE
:10705000FFF7E4F80448FFF7B3F8BDE81040FFF786
:10706000E5BF0000203D0020D46C002010B50022B8
:1070700007490848FFF7EAF8074840F28221426CC6
:107080000448FFF7CBF8BDE810400248FFF798B876
:1070900045700002D46C0020203D0020014803F020
:1070A00035B90000CC330202014803F02FB90000CB
:1070B00000330202014803F029B90000FC34020247
:1070C0000146014803F022B94C340202014601484E
:1070D00003F01CB90C3402020146014803F016B952
:1070E000A43302020146014803F010B9BC33020286
:1070F0000246014803F00AB9EC3302022DE9F041DF
:107100000E46074602F0CEFF050010D0384600F0CC
:1071100055F804460246314608A0FDF775F8B4421A
:1071200007D321463846BDE8F04103F09DB8012160
:10713000F8E7AE74BDE8F04103F04ABB6761705FE9
:10714000726571756573745F73656375726974795F
:107150005F6C6576656C2025752C20637572726591
:107160006E74206C6576656C2025750001460148BB
:1071700003F0CCB88C34020213460A46014601489B
:1071800003F0C4B8EC34020213460A460146014833
:1071900003F0BCB838330202F0B585B00DF1280C0D
:1071A0009CE8F0008DE8F80013460A4601460248C4
:1071B00003F0ACF805B0F0BD4833020210B502F0A0
:1071C00071FF18B1BDE8104000F002B8012010BDF9
:1071D00010B1008B000401D40120704702207047D9
:1071E00002207047074BC0EBC0021B681A440B68B3
:1071F00042F8863F8B8893800A460146024803F096
:1072000085B80000C43202026434020200B10120D9
:107210000249096881F87C0070470000C43202020C
:10722000034A1368586210688162002070470000AA
:10723000C43202020149096848637047C43202023D
:107240001CB5049CCDE9003413460A4601460248A9
:1072500003F05CF81CBD0000F03202020A46014651
:10726000014803F053B80000F83202022DE9FE4F46
:10727000124E1746884681461D46308802AA591D7F
:10728000DDF830A002F0ECFD040014D0CDE900756B
:1072900043464A46716802F0FCFEC0B220442A46CA
:1072A0005146FCF773FB21463046029A03F07AFB05
:1072B0000020BDE8FE8F5620FBE70000E03202020E
:1072C0002DE9FC47104D16460F4680469946288802
:1072D00001AA311D02F0C4FD040013D000963B4604
:1072E0004246696802F0D5FEC0B2204432464946A3
:1072F000FCF74CFB21462846019A03F053FB002083
:10730000BDE8FC875620FBE7E83202020449026828
:10731000096841F8BE2F42684A60806888607047FB
:10732000C43202020A460146014802F0EFBF0000E3
:10733000D03202022DE9FF5F144DDDE90E6B90465D
:10734000894682461F46288803AA711D02F088FDDF
:10735000040018D0CDF80080CDE901764B465246A6
:107360002046696802F095FEC0B220443246594674
:10737000FCF70CFB21462846039A03F013FB002080
:1073800004B0BDE8F09F5620FAE70000C8320202C0
:107390002DE9FF5F144DDDE90E6B9046894682466C
:1073A0001F46288803AAB11D02F05AFD040018D018
:1073B000CDF80080CDE901764B46524620466968FB
:1073C00002F067FEC0B2204432465946FCF7DEFAAE
:1073D00021462846039A03F0E5FA002004B0BDE8F0
:1073E000F09F5620FAE70000D83202020AB944F2B0
:1073F000902213460A460146014802F087BF00006A
:107400004434020213460A460146014802F07EBF98
:107410005434020208B50B4600920246002102488D
:1074200000F06AF808BD0000743402022DE9FC4740
:10743000184F884691460446022101EB880138889E
:1074400001AA02F00DFD060007D0434622467968E6
:1074500002F01FFEC5B2002413E05620BDE8FC87F1
:1074600004EB440009EB40010A7900924B8819F8BB
:107470001020701908A102F00CFE2D1D641CEDB245
:10748000E4B24445ECD331463846019A03F08AFA17
:107490000020E3E784340202313231002DE9F04F5D
:1074A0008DB01AAFDFF848C097E8604FDCF800C035
:1074B000C0EBC0076744179C87F8854008AF87E892
:1074C000004EDDF864C005AFCDF810C087E860015C
:1074D000169E189DCDE9003613460A46014605481A
:1074E000CDE9024502F012FF0DB0BDE8F08F0000BB
:1074F000C43202026C3402022DE9FC471C460A9D8C
:10750000174688468146F72B26D9F720CDE9000596
:107510000B4601223946484602F0F8FE002823D1E6
:10752000F73CA4B2F73515E0F72C01D3F72600E0BD
:107530002646A01BCDE900650404240C01D00022DE
:1075400000E0022243463946484602F0DFFE0028AA
:107550000AD13544002CE7D1434603223946484638
:10756000CDE9004502F0D2FEBDE8FC8708B50093E6
:1075700013460A460146024802F0C8FE08BD000054
:10758000BC3402022DE9FC4716460F46DFF88C801A
:1075900002EB8601824699460024B8F8000001AA51
:1075A000C91C02F05DFC050002D0002001220EE0A3
:1075B0005620BDE8FC8700BF00EB400319F81330EC
:1075C0005B1E02FA03F12143401CCCB2C0B2B042B0
:1075D000F2D300943B4652462846D8F8041002F0F5
:1075E00058FDC7B200240FE004EB440109EB410051
:1075F0008188009143884278E81909A102F049FD89
:107600007F1D641CFFB2E4B2B442EDD3294640466C
:10761000019A03F0C7F90020CBE70000B43402025E
:107620003132320008B50B46009202460021024872
:10763000FFF762FF08BD00007C3402020A460146E3
:10764000014802F063BE0000FC3302022DE9F8435A
:10765000194F15460C468046F82923D90146F823D0
:1076600001223846009502F051FE002821D1F83C55
:10767000A4B2F83514E0F82C01D3F82600E0264631
:10768000A01B0404240C009501D0002200E002227B
:1076900033464146384602F039FE002809D13544C8
:1076A000002CE8D12346032241463846009502F0DB
:1076B0002DFEBDE8F8830000A43402020A4601460C
:1076C000014802F023BE0000AC34020208B500936A
:1076D00013460A460146024802F018FE08BD0000A3
:1076E0009C3402020A460146014802F00FBE000027
:1076F000083302021CB5049CCDE9003413460A4647
:107700000146024802F002FE1CBD00005C34020289
:1077100005490268096841F83E2F82888A8001463F
:10772000024802F0F3BD0000C4320202C433020278
:107730000249096881F8450070470000C43202021E
:107740002DE9FF4F87B01C46DDE91A01DDE9186518
:10775000DDE91687DDE914A99346FFF761FD0028EE
:107760000DD1CDE9004ACDE90259CDF81080CDE91F
:107770000576DDE907125B46024802F0C7FD0BB053
:10778000BDE8F08F30330202014802F0BFBD0000B7
:107790005833020208B5009313460A4601460248D0
:1077A00002F0B4FD08BD000040330202F0B587B01E
:1077B0000DF1300E9EE8F0108DE8F81013460A46E1
:1077C0000146024802F0A2FD07B0F0BD50330202AC
:1077D0002DE9FF410446DDE90A570C9E02F062FCE8
:1077E000002805D0007C30B12046009504F043FC11
:1077F00004B0BDE8F08103968DE8A80013460A4660
:107800002146024802F082FDF2E70000F433020252
:1078100008B59200921C0B460092014607220248CE
:1078200002F074FD08BD0000603302022DE9F0474C
:10783000DFF88CA48AB01E461546884604280AD074
:1078400008287DD128781B280FD01D2808461FD076
:1078500001F05AF81EE02978782971D1DAF8004051
:10786000002C50D04146A0474DE0B5F801700C46C1
:10787000DE1E3946A720D21C16F022FF0246F61C57
:107880000AB0B3B239462046BDE8F047FEF739BF2B
:1078900015F048FF040053D02978771E4FF00109F6
:1078A0000D2973D009DC0C2915D2DFE801F014EFA3
:1078B000143114EE14ED148614F0172967D006DC89
:1078C0000F2978D0112952D0132904D167E1192941
:1078D00072D01D295CD0FBA0FCF795FC28788DF8B0
:1078E00008908DF80900002006218DF80A008DF817
:1078F0000C108DF80B0000900190A089052302AABE
:10790000042104F095FD0AB0BDE8F04700F0C8BCC2
:10791000B5F8015004F080FA854200D22846E08292
:1079200084F81890DAF8005095B1AB208DF800007B
:1079300004208DF80100A089ADF80200E08A00E083
:10794000F7E1ADF804000623A1896A460420A847A0
:107950004046FEF7F5F9E64800788007D3D4E08A80
:107960000022001D81B2A089FFF740FDCBE72078FF
:107970000228C8D132462946204616F0E3FC697831
:107980002046711A294401224988A7E00FE13CE111
:107990004746B5F80180EA1C4146A820F61E16F0BD
:1079A0008FFEF61C0246B3B241463846FEF7A9FEEA
:1079B00084F85190A7E76AE15BE120780C281BD09E
:1079C00011DC062801D008289DD1324629462046E0
:1079D00016F06BFC3146284600F09EFF014620461B
:1079E00019F058FD8FE7142833D024288BD16888EC
:1079F000A4F84C0025203AE195F80180B8F1070F72
:107A000007D26888A085A8882086E88860860D202F
:107A10002DE1022716E000BFE91935F807904A88E2
:107A200022868A886286C98801A819F025FF01A8E4
:107A30000090638E228E49462046FEF796FE07EBA5
:107A4000080087B2B742E7D369782046711A695AAD
:107A500043E095F8018000210227A8F1020A0DE019
:107A600035F80790EA191FFA8AF349462046921C16
:107A700016F00CFC07EB0800494687B2B742EFD37B
:107A8000204613222AE002E035E04CE009E12078AC
:107A90000E2814D0102824D028288BD1204600F09E
:107AA0007DFA218F6A1CA92016F00AFE02460837CB
:107AB000BBB2A189A068FEF71BFE002135E101A938
:107AC000681C16F07DFCA18D01AA00922046638EF1
:107AD000228EFEF74AFEA18D20460B2219F0FAFCF9
:107AE00011E7204600F05AFABBB2218F6A1C2046EB
:107AF00016F0CCFBE1E74FF004094FF6FF780127C1
:107B000004F11C0A09E0E819E95B40885346804605
:107B100002462046FEF74AFE4F44B742F3DB2046BA
:107B200041460322DAE768780427022800D11227A9
:107B3000F01BB61E1FFA86F835F800A00026AD1C13
:107B400022E000BF35F80690042F05EB060021D097
:107B500006A9801C16F034FCA4228DF80020142203
:107B60008DF80120A289ADF8022006A9ADF8049095
:107B700010220DF10600FBF709FFA18916236A46C2
:107B8000A068FEF7B5FD3E444645DBDB2046514686
:107B90000922A3E7418806A819F06EFEDCE72078E9
:107BA000182803D0262801D02C2899D1ACE0761EC5
:107BB0002078B6B2761DBFB2122815D02A288FD1F0
:107BC000218F628F6B1CAA20009716F087FD0200A0
:107BD00004D0B3B2A189A068FEF78AFD3A462921F4
:107BE000204619F03FFC8EE6218F628F6B1CA62089
:107BF000009716F073FD020004D0B3B2A189A0680B
:107C0000FEF776FD3A461121EAE720781A2812D0CD
:107C10001C281CD02E2814D03228E4D1204600F095
:107C2000BDF932462946204603F0C8F800287FF403
:107C300061AF7E2179E0B5F803001D22608719212C
:107C400010E0B5F803002F2260872D210AE03246AC
:107C50002946204603F0B2F840B1B5F803001D22D2
:107C600060871B21204619F024FC4CE6212020705F
:107C700049E620781E2847D0202845D0222802D067
:107C80003028B0D140E0204600F088F9D1E72078D4
:107C90001628A8D1BBB26A1C0021204616F0F6FABD
:107CA00032E029790A292BD12078082830D021DC2C
:107CB000022829D0042827D0062821D128E0000056
:107CC000A83C00204154542048616E646C65722CBD
:107CD00020756E68616E646C656420726573706F88
:107CE0006E736520747970652030782530327800A5
:107CF000A43C00200A2807D00C2805D014280CD05A
:107D0000204600F0BCFAFEE5204600F047F9D4E634
:107D1000E18D2046FEF743FBF6E7204600F03EF9F2
:107D2000A08D218E8842F2D10A212046FEF70AFD5D
:107D3000E9E50AB0BDE8F08710B50446084615F03D
:107D400027FD18B1017819B1952010BD562010BD3E
:107D50001F218460017000F0A3FA002010BD70B5EF
:107D600005461446084615F013FD18B1017819B1FF
:107D7000952070BD562070BD85606188A2889142B3
:107D800003D10021FEF7DEFC07E0491C8185A188B4
:107D9000C1850921017000F083FA002070BD2DE932
:107DA000F04107461D4616460846DDF8188015F0D6
:107DB000EFFC040004D0207820B19520BDE8F081CC
:107DC0005620FBE7A760A685E585012084F85000D2
:107DD000002565831022414604F11C00FBF7D6FD07
:107DE000E5860720207000F05BFA0020E6E72DE929
:107DF000F04107461D4616460846DDF8188015F086
:107E0000C7FC040004D0207820B19520BDE8F081A3
:107E10005620FBE7A760A685E585012084F8500081
:107E2000A4F81A80414604F11C0019F025FD002039
:107E3000E0860720207000F033FA0020E6E770B5F6
:107E400006461C461546084615F0A2FC18B10178F6
:107E500019B1952070BD562070BD86608585C4859A
:107E6000002180F85010C1860521017000F018FA39
:107E7000002070BD10B50446084615F089FC18B105
:107E8000017819B1952010BD562010BD01218460E4
:107E900081854FF6FF72C28501700021418300F099
:107EA000FFF9002010BD70B505461646084615F0CE
:107EB0006FFC040003D0207818B1952070BD5620C7
:107EC00070BD0120A560A0854FF6FF70E085002001
:107ED00060831022314604F11C00FBF757FD03209C
:107EE000207000F0DDF9002070BD70B50546144625
:107EF000084615F04DFC18B1017819B1952070BDF8
:107F0000562070BD0121856081854FF6FF71C185C6
:107F1000032100F81A1B214620F8024B19F0ACFC93
:107F200000F0BEF9002070BD10B50446084615F0FB
:107F30002FFC18B1017819B1952010BD562010BD45
:107F40001D218460017000F0ABF9002010BD70B5F8
:107F500006461C461546084615F01AFC18B101786D
:107F600019B1952070BD562070BD86608585C48589
:107F70000B21017000F094F9002070BD00B500F0F5
:107F8000C3FC10B1027E012A03D01720088095207F
:107F900000BDC08A0880002000BD000010B500218F
:107FA00001700446818904A0FCF72DF904F16000FA
:107FB000BDE81040FEF714B94741545420636C6982
:107FC000656E742074696D656F75742073746F705D
:107FD0002C2068616E646C65203078253032780022
:107FE00070B5042817D11078052810D1B2F80350C5
:107FF000284600F089FC040009D01F2100F03FF959
:108000000549002041F825002046FDF7F1FFBDE8B5
:10801000704000F045B970BDAC3C0020064910B579
:1080200004484860084601F00DFFBDE810400348D1
:10803000FDF7DCB8E17F0002B03C00202D780002A3
:1080400010B515F06FFB002802D0007808B10020B1
:1080500010BD012010BD10B50C460146104600F0C1
:1080600053FC002806D04C600B81BDE81040001D79
:10807000FDF758BF10BD2DE9F0410646DDE9067851
:108080001C461546084615F083FB20B1017821B146
:108090009520BDE8F0815620FBE78660058787873D
:1080A00044873121C0F84080017000F0F9F80020C9
:1080B000EFE770B505461446084615F069FB18B1A0
:1080C000017819B1952070BD562070BD8560048778
:1080D0002721017000F0E4F8002070BD0023AFF309
:1080E000008070B506461C461546084615F050FB44
:1080F00018B1017819B1952070BD562070BD866009
:10810000058744872921017000F0CAF8002070BD5E
:108110000023AFF3008070B506461C46154608469E
:1081200015F036FB18B1017819B1952070BD5620B5
:1081300070BD8660058744871121017000F0B0F89A
:10814000002070BD70B506461D461446084615F061
:108150001FFB18B1017819B1952070BD562070BD74
:108160008660A0F8444015218564017000F098F8FD
:10817000002070BD70B505461446084615F008FB92
:1081800018B1017819B1952070BD562070BD856079
:108190000487002141870F21017000F081F8002041
:1081A00070BD2DE9F04107461D4616460846DDF82C
:1081B000188015F0EDFA040004D0207820B1952045
:1081C000BDE8F0815620FBE7A760A685E5852686F9
:1081D0006586002060831022414604F11C00FBF7F5
:1081E000D5FB1320207000F05BF80020E8E72DE9B4
:1081F000F04107461D4616460846DDF8188015F082
:10820000C7FA040004D0207820B19520BDE8F081A1
:108210005620FBE7A760A685E58526866586A4F837
:108220001A80414604F11C0019F026FB132020702F
:1082300000F036F80020E9E70149086070470000C7
:10824000A83C00202DE9F04106461C46154608468C
:10825000069F15F09DFA20B1017821B19520BDE867
:10826000F0815620FBE786600587848700214187DF
:108270001B210764017000F013F80020EFE770B5D0
:10828000044600780D46002808D02046FFF786FEF9
:1082900029462046BDE87040FEF754BA70BD000084
:1082A0002DE9F04FC84889B00468002C79D0A08926
:1082B000FCF796FFB0B12278217EC4A0FBF7A3FFA4
:1082C000207E01286DD194F8510000254FF01E0941
:1082D00070B184F85150A0898DF808900095012361
:1082E000019594E0A08909B0BDE8F04FFCF77BBF91
:1082F0002078172801D02B2818D1204614F0A9FE89
:10830000A18FC01E884211DA204614F0A2FE024658
:10831000A18FBCA0FBF777FF2046FFF73FFE09B017
:108320002046BDE8F04F0D21FEF70CBA606D04F059
:1083300029FA06462178BEA0FBF765FF94F800C035
:108340000423022008220E274FF420514FF0100A78
:108350004FF00C0BBCF1360F3FD2DFE80CF03E1BA8
:108360003E233E413E443E4B3E5B3E643E673E6A9A
:108370003E6C3E913EA43EA63EAA3EAC3EAF3EB110
:108380003EB93EDB3EC13ECB3ED33EE83EF03EA88A
:108390003EF83EFD2070E08D0090A38DA289102054
:1083A00052E01AE023700D46618B39B1ADF81C1014
:1083B000E18D07AA0091CDE9012008E003A904F1AD
:1083C0001C0015F0FDFFE18D03AA8DE80604A38DC6
:1083D000A28929460620FDF73BF809B0BDE8F08FD9
:1083E0000620207000E0227009B02046BDE8F04F62
:1083F00016F0D9B82270A089A18DE28D8DF80830D1
:10840000ADF80910ADF80B2000950523019502AADF
:10841000042132E084F800B0E08D0090A38DA289A1
:1084200042F602010FE02770228E5CE084F800A083
:1084300058E012205FE014202070618B39B1E08D8C
:108440000090A38DA2890820FDF747FAC5E7A68909
:10845000A18DE08D8DF80820ADF8091004F11C0302
:10846000ADF80B000DF10D01184615F0A9FF0095B0
:10847000152302AA04213046019503F0D9FFACE789
:1084800016202070B4F844104FF6FF72A589A06C36
:1084900002EA4101CDE9000101238DF8087002AA2A
:1084A00004212846E9E718202DE01A2040E0322078
:1084B0003EE01C203CE084F8009042E0202000E0F8
:1084C0002220207009B02046BDE8F04F16F066B8B3
:1084D0002420207009B02046BDE8F04F16F0A3B864
:1084E00028202070228FA18909B00A20BDE8F04F12
:1084F000FDF708BA2A20207009B02046BDE8F04FE9
:1085000016F07CB82C20207009B02046BDE8F04F52
:1085100016F094B82620207004F14E000090B4F8B4
:108520004C20A18902231220FDF76AFC55E72E207A
:10853000207009B02046BDE8F04F16F044B8302056
:10854000207009B02046BDE8F04F16F037B816F09D
:108550003FFD002893D000E010E034202070B06D83
:10856000216C01AB0091384A83E81500A38F228F5C
:10857000D22106F1480016F035FD2EE73620207096
:10858000B16DB4F80C90228FB4F83C80D223276CE4
:108590008DF81030ADF81120059104F158000DF15F
:1085A000140A06A915F01BFF8DE8800D032304AA09
:1085B0000421484603F084FF25702046FFF7EEFCB7
:1085C000B06D401CB06508E7AC3C00202D20686110
:1085D0006E646C655F7065726970686572616C5F0E
:1085E0006C6973742C206D747520737461746520CC
:1085F00025752C20636C69656E74207374617465D5
:1086000020257500676174745F636C69656E745FC3
:1086100072756E3A2076616C7565206C656E2025EA
:1086200075203E204D5455202575202D20330A00FD
:10863000676174745F636C69656E745F7374617491
:108640006520257500000000315D00022DE9F0472E
:1086500007461D46164689460846DDF8208015F077
:1086600061F80446007850B9484617F079FA014697
:1086700060650AA0FBF7C7FD606D002802DA95204F
:10868000BDE8F087A7602687A5873320C4F840801F
:108690002070FFF705FE0020F2E700006C655F64C4
:1086A00065766963655F6B6579206973203A307818
:1086B00025780A0070B50A4E0546002456F82400B5
:1086C000A84207D1A98907A0FBF79DFD7F21284675
:1086D000FFF7D5FD641C2404240CEFD070BD00000E
:1086E000AC3C00204741545420636C69656E742093
:1086F00074696D656F75742068616E646C652C209B
:1087000068616E646C652030782530327800000036
:108710002DE9F04106461C4615460846069F15F011
:1087200037F820B1017821B19520BDE8F0815620BD
:10873000FBE7866005878487002141872B2107643A
:108740000170FFF7ADFD0020EFE770B506461D464E
:108750001446084615F01CF818B1017819B1952097
:1087600070BD562070BDE90704D0A179C90601D4B7
:10877000982070BDA90704D5A179890601D4992054
:1087800070BD866061888185A188C185A0F84E5042
:1087900023210170FFF784FD002070BD1CB5049CEF
:1087A000CDE90034002300F001F81CBD2DE9F041B3
:1087B0000646DDE906781C461546084614F0E8FF33
:1087C00020B1017821B19520BDE8F0815620FBE76A
:1087D00086600587878744872D21C0F84080017017
:1087E000FFF75EFD0020EFE71CB5049CCDE90034E7
:1087F000002300F001F81CBD2DE9F0410646DDE93B
:1088000006781C461546084614F0C2FF20B10178D0
:1088100021B19520BDE8F0815620FBE786600587F1
:10882000878744871921C0F840800170FFF738FD21
:108830000020EFE72DE9F04106461C4615460846A4
:10884000069F14F0A5FF20B1017821B19520BDE865
:10885000F0815620FBE7866005878487172107642F
:108860000170FFF71DFD0020F1E7F8B51E46154623
:108870000F4614F057FF040003D0207818B195205C
:10888000F8BD5620F8BD204614F0E3FBC01EA842F8
:1088900001DA9720F8BD0096A1892B463A4652206E
:1088A000FDF7AEFAC0B2F8BDF0B5002423460125AD
:1088B000C65C002205FA02F73E4207D08C4203D183
:1088C00002EBC300C0B2F0BD641CA4B2521CD2B211
:1088D000082AEFD35B1CDBB2052BE9D3FF20F0BDE8
:1088E00010B500214FF4FA5200BF491C9142FBDB46
:1088F00080B214F083FD00BF18F0DCFB0028FBD130
:10890000BDE8104018F0C8BB08B10020704701480E
:1089100000687047AC3C00204278891A0844B0F8DF
:10892000030070472DE9FC41164C18271E46D4F869
:1089300008C0BCF1000F11D04978D9B121780025C9
:1089400079B1FCF7F3FB237862882570658002B06B
:1089500039463046BDE8F04115F0B8BE0323002289
:10896000F5E7002300950195B0F8060102221946AB
:10897000E04701E0FCF7DAFB192030700120BDE888
:10898000FC810000783C00202DE9FF4F87B01D4698
