:020000040000FA
:1040000000F0002071420000754A0000D540000019
:10401000754A0000754A0000754A00000000000063
:10402000000000000000000000000000EF40000061
:10403000934200000000000031410000854C000068
:10404000F1F9010029FA01000DFC0100994200007C
:104050001DFC01002DFC01003DFC01009942000007
:10406000994200004DFC0100994200009942000075
:1040700099420000994200005DFC01006DFC0100C6
:104080007DFC01008DFC01009DFC0100ADFC0100E8
:1040900099420000994200009942000099420000B4
:1040A0009942000099420000C1FC010099420000C1
:1040B0000100095B00A00200DFF80CD000F0FAFB61
:1040C0000048004781ED010000F0002032B5804734
:1040D00032BD00BF1EF0040F0CBFEFF30880EFF3FA
:1040E0000980816940F26172C0F202021047224BDE
:1040F00019680868B0E8F00F80F30988BFF36F8F84
:104100004FF0000080F311884EF00D0E704700BF95
:104110000000000005480068006880F3088862B667
:1041200061B6BFF34F8FBFF36F8F00DF1000002029
:10413000EFF30980BFF36F8F0F4B1A6820E9F00F80
:10414000106008B54FF0200080F31188BFF34F8F47
:10415000BFF36F8F21F0D8F94FF0000080F3118882
:10416000BDE8084019680868B0E8F00F80F30988D6
:10417000BFF36F8F704700BF44000020EFF305804E
:10418000704700B51A4422F0030203460E48006847
:10419000C0050ED1EFF3148080070AD5EFF3098034
:1041A00082F3098801B40846984701BC80F3098866
:1041B00000BDEFF3088082F3088801B408469847F1
:1041C00001BC80F3088800BD04ED00E02DE9FF5F2D
:1041D000EFF31080EFF31181EFF31282EFF313830B
:1041E0000FB447F20820C2F200001A490160EFF351
:1041F0000881EFF30982EFF31483EFF30384416046
:104200008260C36004611448016841F001010160EB
:1042100044F6206000BF401EFCD11048416882680F
:10422000C368046981F3088882F3098883F31488DA
:1042300084F30388BFF34F8FBFF36F8F0FBC80F3FE
:10424000108881F3118882F3128883F31388BDE804
:10425000FF5F70471B420000040309400872002002
:1042600040BA704740BA7047C0BA7047C0BA70478A
:104270000A48016811F0010F1CBF21F00101016023
:1042800002D007480068004706480047FEE7FEE7FF
:10429000FEE7FEE7FEE7FEE7FEE7000064010440FC
:1042A00008720020B94000002DE9F0035FEA930C8A
:1042B00067D000BF30F9024B31F9026B30F9025B75
:1042C00031F9027B04FB06F805FB07F94FEA684861
:1042D000A8EB69487C4322F8028B6414754304EB15
:1042E000654422F8024B30F9024B31F9026B30F988
:1042F000025B31F9027B04FB06F805FB07F94FEA84
:104300006848A8EB69487C4322F8028B6414754323
:1043100004EB654422F8024B30F9024B31F9026B91
:1043200030F9025B31F9027B04FB06F805FB07F963
:104330004FEA6848A8EB69487C4322F8028B641472
:10434000754304EB654422F8024B30F9024B31F916
:10435000026B30F9025B31F9027B04FB06F805FBC6
:1043600007F94FEA68487C43A8EB69486414754331
:1043700022F8028B04EB654422F8024BBCF1010CDD
:1043800098D113F0030304BFBDE8F003704700BFEA
:1043900030F9024B31F902CB30F9025B31F9026B93
:1043A00004FB0CF77F1405FB06F87443A7EB684782
:1043B000641422F8027B05FB0CFC04EB6C4C22F825
:1043C00002CB5B1EE4D1BDE8F00370472DE9F05F3E
:1043D0000546002092469B46884606468146402474
:1043E0001BE0284641464746224600F09EF85346C9
:1043F0005A46C01A914110D311461846224600F081
:1044000085F82D1A67EB01084F462246012000214E
:1044100000F07CF817EB00094E41201EA4F10104C6
:10442000DFDC484631462A464346BDE8F09F00009F
:104430000649074A0868504343F2390210440860AD
:104440004008704701490860704700004804002098
:104450006D4EC64110B5431A934209D2831888188D
:1044600003E010F8011D03F8011D521EF9D210BD22
:1044700040EA01039B0703D009E008C9121F08C0E6
:10448000042AFAD203E011F8013B00F8013B521E66
:10449000F9D210BDD2B201E000F8012B491EFBD2C7
:1044A00070470022F6E710B513460A46044619463F
:1044B000FFF7F0FF204610BD421C10F8011B002939
:1044C000FBD1801A704730B504460020034600E057
:1044D0005B1C934203D2E05CCD5C401BF8D030BD46
:1044E00030B50B46014600202022012409E021FAC4
:1044F00002F59D4205D303FA02F5491B04FA02F5C1
:104500002844151EA2F10102F1DC30BD202A04DB93
:10451000203A00FA02F1002070479140C2F12003D6
:1045200020FA03F3194390407047202A04DB203A15
:1045300021FA02F00021704721FA02F3D040C2F1C3
:10454000200291400843194670472DE9FE4F8046EE
:1045500081EA0300C00F0C46009021F0004123F0D7
:104560000045B8EB0200A94105D2404621469046DD
:104570001C460B46024623F00040104304D140463F
:10458000214603B0BDE8F08F270DC7F30A00C3F33F
:104590000A510290401A0190402866DAC3F31300D2
:1045A00040F4801B0098924620B10023D2EB030A0E
:1045B00063EB0B0B01985946C0F140025046FFF7E0
:1045C000A5FF06460D4650465946019A00F084F96B
:1045D00010EB08006141002487EA115284EAE77376
:1045E0001A433BD0009A3AB3019A012A4FEA075284
:1045F00010DC001B61EB02014FF0004202EA07529F
:10460000CDE90042001C41F5801132462B4600F0F6
:1046100082F9B6E7001B61EB0201001C41F5801333
:1046200000185B412018A2F5001747EB030140EA90
:10463000D570B6196D4111E06D084FEA360645EAAE
:10464000C0754FEA0752001B61EB0201001C41F5E7
:10465000801149084FEA30000019514132462B467B
:1046600003B0BDE8F04F00F049B9009801224000C6
:104670000023D0EB020263EBE073009821464FEA7F
:10468000E074B8EB000061EB0401E9E783F000435C
:104690005BE781F0004158E72DE9FE4F81EA030412
:1046A00004F0004421F0004100944FF0000B23F08F
:1046B000004350EA010402D052EA030404D100206E
:1046C000014603B0BDE8F08FC3F30A54C1F30A55A5
:1046D0002C44A4F2F3340194A0FB0254C1F313015F
:1046E00041F48011C3F3130343F4801301FB02442C
:1046F00000FB034E840A970A44EA815447EA835731
:10470000A4FB076802958D0A05FB07854FEA932CE9
:1047100004FB0C542705029D4FEA065847EA16375A
:10472000B5EB08056EEB070C870E920E47EA811772
:1047300042EA8312A7FB0201B6EB0B0164EB000413
:104740002B0D43EA0C335E1844EB1C50DA465146FD
:10475000E7FB0201C5F313044FEA0B3343EA14539A
:104760004FEA0432019C43EA0603A4F10C040294CC
:10477000009CCDE900B400F0CEF8A2E72DE9F04DA1
:1047800081EA030404F0004B21F0004514464FF089
:10479000000A23F0004150EA050220D054EA010249
:1047A0001DD0C5F30A570246C5F31303C1F3130026
:1047B000C1F30A5640F4801543F48013A7EB0608B2
:1047C000101BD64608F2FD3873EB050002D308F142
:1047D000010801E092185B41B8F1000F03DA0020F4
:1047E0000146BDE8F08D00204FF480110646844656
:1047F0000EE0171B73EB050705D3121B63EB0503D4
:1048000006434CEA010C49084FEA300092185B411C
:1048100050EA0107EDD152EA030012D082EA040007
:1048200083EA0501084303D100224FF0004308E06A
:10483000101BAB4102D20122002302E06FF0010203
:1048400053101AEB06004CEB085110EB0A0041EB39
:104850000B01BDE8F04D00F051B8C1F30A52C1F3AD
:10486000130140F2FF3341F480119A4202DA002032
:104870000146704740F233439A42A2F2334202DCCF
:104880005242FFF752BEFFF741BE000030B500298B
:1048900004DB4FF00044404264EB0101002B04DBD9
:1048A0004FF00044524264EB0303994208BF904228
:1048B00030BD0000064C074D06E0E06840F0010303
:1048C00094E8070098471034AC42F6D3FFF7F8FBA2
:1048D0006082020080820200202A06DBCB17203A89
:1048E00041FA02F043EAE07306E041FA02F3D040F5
:1048F000C2F12002914008431946704710B5002BC1
:1049000008DA401C41F1000192185B411A4301D1C1
:1049100020F0010010BD2DE9F04D92469B4611B1EB
:10492000B1FA81F202E0B0FA80F220329046FFF74D
:10493000EDFD04460F4640EA0A0041EA0B015346EA
:104940005A46084303D120463946BDE8F08D11464A
:1049500053EA010015D0C8F140025046FFF7E5FDCB
:1049600005460E46504659464246FFF7CFFD0843DE
:1049700001D0012000E00020054346EAE0762C4308
:1049800037430A984FEA4453A0EB08004FEAD42477
:104990000A304FF0000244EA47544FEAD72502D5C7
:1049A00000200146D1E7010510196941DDE90845FC
:1049B00000196941BDE8F04DA0E770B501EB0204B4
:1049C00010F8015B15F0070301D110F8013B2A1123
:1049D00006D110F8012B03E010F8016B01F8016B10
:1049E0005B1EF9D12B0705D40023521E0FD401F80A
:1049F000013BFAE710F8013B02F10202A1EB0303CD
:104A000003E013F8015B01F8015B521EF9D5A142E6
:104A1000D6D3002070BD000070B51349D1E9000164
:104A200005F04CFD002001F0FDFD104C4FF0FF366D
:104A30000F4D11E02078000604D500221146042015
:104A40001FF0ECFD01F00CFE2078000604D50022DA
:104A5000114605201FF0E2FD3146286821F096FA44
:104A60000028E7D170BD0000246802003C0000204F
:104A70000C000020044800680122C0F30801891ED0
:104A80000A2006F065BD000004ED00E00348006860
:104A9000C00501D120F088B97047000004ED00E0A6
:104AA00003480068C00501D120F0A0B9704700009C
:104AB00004ED00E010B5C368D9B280290FD984682D
:104AC000A06800B101204B2213A100F091FEA16863
:104AD00019B1E068BDE81040084772B6FEE7044629
:104AE000008A616982B2D8B2124B1B68984706F0FF
:104AF000EFF800280FD1E068022806D004280AD178
:104B0000A069BDE8104006F0DDB8A08BA169BDE842
:104B1000104006F0D5B810BD4863695F696E7465D2
:104B2000726E616C5F7472616E73706F72742E63FB
:104B300000000000B80100201FB541680A2914D008
:104B400007DC09B1052923D104B0BDE81040FFF707
:104B5000B1BF0B291DD00C291AD1018AC268406946
:104B600004B089B2BDE8104010470E4991E81C001E
:104B7000C968CDE90023CDE90241C16801914169CD
:104B80000291008AADF80C001021684605F0E0FEA5
:104B90001FBD018A8AB24169C06804B0BDE81040F7
:104BA00007F09EBD586F0200074A131D5980116817
:104BB00060F307011160106840F400701060106825
:104BC0008005FCD4704700000804094000F01F0273
:104BD0000121914040094FF0E02202EB8000C0F833
:104BE0008012704700F01F020121914040094FF0F0
:104BF000E02202EB8000C0F8001170474907090E5F
:104C0000002803DA00F00F00024A00E0024A815453
:104C10007047000014ED00E000E400E0024A11409B
:104C2000014302480160704780FFFF1F08ED00E06C
:104C300000B589B01CF07EF9416803910021CDE9EF
:104C4000011004480B464A1E6946006820F022FE07
:104C500009B000BD28000020014800F003B80000A2
:104C600068010440014608680A688242FBD10A686C
:104C70008242F8D170470000014948727047000035
:104C80004C01002010B5202080F31188BFF34F8F16
:104C9000BFF36F8F21F012FB18B104494FF0805021
:104CA0000860002080F3118810BD000004ED00E0D2
:104CB0000FB4054B10B503A9044A029800F0EAF8B6
:104CC00010BC5DF814FB0000AD7500004C04002022
:104CD0000FB4084B10B504A902AA039800F0DAF843
:104CE000044602A9002000F078FC204610BC5DF8C4
:104CF00014FB0000DB550000014B024A00F0CAB86B
:104D0000AD7500004C040020704770477047704735
:104D1000704770477047704702E008C8121F08C10B
:104D2000002AFAD170477047002001E001C1121F2C
:104D3000002AFBD1704700002DE9FF5FDDE902206A
:104D4000010DDDF838B0024310D10F9801244CA2B8
:104D5000012808D0002100980F9BC0E90021C0E97C
:104D60000243BDE8FF9F6FEA0B01F4E7A1F2FF31B8
:104D700044F6105041430D140F9801280ED0A5EBB6
:104D80000B00401C4FF000043E4EDFF8FC90B0F1E9
:104D9000000AA04605DACAF1000717E0CBF10000CF
:104DA000F0E7074612E0F80707D0224633464046B0
:104DB0004946FFF771FC8046894622463346104635
:104DC0001946FFF769FC04460E467F10002FEAD112
:104DD000DDE90201BAF1000F42464B4602DAFFF765
:104DE0005BFC01E0FFF7CAFC04460E460022274B9D
:104DF000FFF74CFD03D84FF0FF30014607E00022DB
:104E0000234B20463146FFF7A0FBFFF726FD102479
:104E100009E0002C0ADB0A220023FFF7D7FA019BE6
:104E200030321A55641E50EA0102F2D1641C019A14
:104E3000C4F1110314440F9A012A09D00122084336
:104E400001D15B450FDD4FF0000205F101050DE0DA
:104E5000084303D1A3EB0B056D1E09E000204FF0C2
:104E6000110B0F9088E701DA00226D1E002A83D013
:104E700000980F99C0E90231C0E9004571E70000D0
:104E800030000000000024400000F03F0000F0432C
:104E90000000E03F2DE9FF4F95B09B46894606464E
:104EA000002512E2252878D10024761CF94A2746ED
:104EB000012105943378203B01FA03F0104202D01F
:104EC0000443761CF6E730782A2811D06FF02F03C0
:104ED0003078A0F13002092A16D8059A44F002046D
:104EE00002EB820203EB42021044761C0590EFE7CE
:104EF00059F8042B0592002A03DA504244F4005476
:104F0000059044F00204761C30782E2816D116F84D
:104F1000010F44F004042A280DD06FF02F023078DE
:104F2000A0F13003092B09D807EB870302EB4303F9
:104F3000C718761CF3E759F8047B761C30786C2888
:104F40000FD006DC4C2817D068280DD06A2814D161
:104F500004E0742810D07A280FD10DE044F4001436
:104F60000AE044F4801401E044F440147278824270
:104F700002D1761C04F58014761C307866280BD09C
:104F800013DC582877D009DC002875D04528F6D0E6
:104F90004628F4D047281AD19FE118E0632835D07D
:104FA000642879D0652812D197E1702873D008DC85
:104FB0006728F1D069286FD06E280DD06F2806D1F0
:104FC000B5E073282CD0752875D0782874D05A464F
:104FD000179990476D1C76E1C4F30250022809D05E
:104FE00003280DD0D9F8001004280DD00D6009F168
:104FF000040968E1D9F80010EA17C1E90052F6E7A0
:10500000D9F800100D80F2E70D70F0E719F8041BD5
:105010008DF8001000208DF80100EA46012003E021
:1050200059F804AB4FF0FF3061074FF0000102D494
:105030000DE008F101018846B9420FDA8045F8DB3E
:105040001AF808100029F4D108E008F10101884697
:105050008142FADB1AF808100029F6D105985B4660
:10506000A0EB080721463846179A00F09EFA28441C
:1050700000EB080507E04DE02BE10DE01AF8010B0D
:105080005A4617999047B8F10108F7D25B46214676
:105090003846179A14E142E00A220092C4F3025201
:1050A0004FF0000A022A08D059F804CB032A4FEA2D
:1050B000EC710AD00DE029E02AE009F1070121F0A6
:1050C0000702F2E802C1914609E00FFA8CFC4FEAB0
:1050D000EC71042A03D14FFA8CFC4FEAEC710029E1
:1050E00007DA0A460021DCF1000C61EB02012D22F7
:1050F00002E0220504D52B228DF80420012203E0D2
:10510000E20701D02022F7E7904653E00A2102E0AF
:1051100010220DE010214FF0000A00910BE0102248
:105120004FF0000A44F004040827009203E008222C
:105130004FF0000A0092C4F30252022A05D059F837
:1051400004CB0021032A08D009E009F1070121F06E
:105150000702F2E802C1914605E01FFA8CFC042A1E
:1051600001D10CF0FF0C4FF00008220722D5702867
:1051700027D0009B83F0100353EA0A0309D15CEAAD
:10518000010206D030228DF804208DF8050002229D
:105190009046009B83F0080353EA0A030AD15CEAB5
:1051A000010201D1620705D530228DF804204FF0AD
:1051B00001087F1E582809D037A003900EA802903E
:1051C00013E040228DF804200122E1E737A0F4E744
:1051D00053466046009AFFF7F9F884460398825CCC
:1051E0000298A0F10100029002705CEA0100EFD188
:1051F000029806A9A1EB000000F1200A600702D581
:1052000024F4803400E00127574502DDA7EB0A00B3
:1052100000E0002000EB0A01009005984144A0EB5B
:1052200001000590E00306D45B462146179A0598D5
:1052300000F0BBF90544002706E001A85A46C05D0E
:10524000179990476D1C7F1C4745F6DBE0030CD592
:105250005B462146179A059800F0A7F9054404E03B
:1052600030205A46179990476D1C0099481E0090AF
:105270000029F5DC08E0029802995A460078491C9A
:105280000291179990476D1CBAF10001AAF1010A29
:10529000F1DC6BE109280100303132333435363727
:1052A0003839616263646566000000003031323372
:1052B0003435363738394142434445460000000012
:1052C00000F060F9054406F10106307800287FF40B
:1052D000E9AD19B02846BDE8F08F620700D4062773
:1052E00009F1070222F0070CFCE80223E14603F073
:1052F00000485FEA080C02D00FF27C2C0DE05FEA58
:10530000045C02D50FF2742C07E05FEAC47C02D083
:105310000FF26C2C01E0AFF2700C4FF0FF3823F06D
:105320000043CDF850C065280CD006DC452809D0D4
:1053300046281DD047283ED13EE0662818D0672871
:1053400039D139E00021112F01DB112000E0781C58
:10535000CDE9000106A90EA8FFF7EEFCDDE90F017B
:105360000E9A03910021009207F1010A04914EE088
:105370004FF000400097CDE9011006A90EA8FFF7F5
:10538000DBFCDDE90F0203920E9B11990022DDF890
:105390000CA00093049219B907F1010100EB010A76
:1053A000B7EB0A0004D4C0F1FF3007F1010A049002
:1053B000AAEB0700019046E0012F00DA0127002147
:1053C000112F01DD112000E03846CDE9000106A9CA
:1053D0000EA8FFF7B1FCDDE90F010E9A0391002141
:1053E00004910092BA4621070CD40399514500DA82
:1053F0008A46BAF1010F05DD009AAAF10101515C5C
:10540000302908D0B84202DA10F1040F06DA01217F
:10541000CDE9011017E0AAF10101E9E7002805DC58
:10542000049901440491AAEB000102E0411C51459A
:1054300000DD8A460499A0EB010000F10100019013
:105440004FF000400290200704D40198504501DB42
:10545000CDF8048000208DF84F0002980DF14F0721
:10546000B0F1004F25D02B200E9002984FF002088B
:1054700000280CDA404202902D200E9007E00A210D
:105480000298FFF72DF83031029007F8011DB8F1AE
:105490000001A8F10108F2DC02980028EFD1791E82
:1054A0000E980870307800F0200040F0450007F8B2
:1054B000020D12A8A0EB070000F10708149800786D
:1054C00000B1012000EB0A01019801EBE0710598A1
:1054D0004144A0EB0100A0F101000590E00306D4D7
:1054E0005B462146179A059800F05FF8054414982A
:1054F000007820B15A461799904705F10105E0035D
:1055000023D55B462146179A059800F04EF80544CE
:105510001BE00498002807DBDDE90301884203DD76
:105520000098405C179901E0179930205A4690473F
:1055300004986D1C401C04900198401E019004D1F9
:105540002E205A46179990476D1CBAF10001AAF116
:10555000010ADEDC05E017F8010B5A46179990475F
:105560006D1CB8F10001A8F10108F4DC5B4621468E
:10557000179A0598A4E600002D0000002B000000FB
:10558000200000002DE9F041044600251E46174684
:10559000880405D406E039462020B04705F101050E
:1055A000641EF8D52846BDE8F0812DE9F041044697
:1055B00000251E469046C80301D5302700E020276D
:1055C000880405D506E041463846B04705F1010597
:1055D000641EF8D52846BDE8F0810A68531C0B60AC
:1055E000107070472DE9F05F064600880B46C0F347
:1055F0000B00834605F01AF90400707875884FEAAD
:1056000010170AD005F10408984509D02A1DBDE8F5
:10561000F05F19463548FFF77BBB594634A01EE0C2
:1056200001F0F0F907F00301002740F2031AE061EE
:10563000012903D002292CD03CA010E0A08C60B13D
:105640004119B1F5827F0ED328485B4652465C3043
:10565000FFF75EFBA784BDE8F09F594643A0BDE875
:10566000F05FFFF755BB216A2A4608440E30311D12
:10567000FEF7F0FEA08C284481B2A184E08C0830B3
:1056800081422FD3206A0E3005F03CF9E784A784CD
:1056900028E0A08C28B115485946B030FFF738FBF8
:1056A000A784B788381D8146854205D31FFA88F143
:1056B000304605F027F915E0FF2D07D95B46524625
:1056C000291DBDE8F05F3848FFF722BB206A2A1D7C
:1056D0000E303146FEF7BEFEA4F82480E784216A2E
:1056E000A1F81090BDE8F05F05F03CBC186C02001A
:1056F0006863692E633A2061636C5F68616E646CF5
:1057000065722063616C6C65642077697468206ED3
:105710006F6E2D7265676973746572656420686168
:105720006E646C6520257521000000006863692E99
:10573000633A2061636C5F68616E646C65722063BC
:10574000616C6C6564207769746820696E76616C41
:105750006964207061636B657420626F756E64614B
:10576000727920666C6167732025750041434C2077
:10577000436F6E7420467261676D656E742062754A
:1057800074206E6F20666972737420667261676D33
:10579000656E7420666F722068616E646C6520307F
:1057A00078253032780000001C6D020070B5054687
:1057B00007480469241D04EBC5004268002A05D18E
:1057C000416088001BF036FB44F8350070BD0000D6
:1057D0000000002010B505494FF6FF7302E0847801
:1057E0008C54C01C02889A42F9D110BD00000A40B6
:1057F00010B50B46002803D11146184608F01AF9D7
:1058000010BD70471CB506498C68002C07D00021DC
:1058100000910191B0F804010B460322A0471CBD82
:10582000AC00002070B50C4600281DD1082C1BD2FE
:105830000E4D4FF4927655F8240020B9304600F012
:10584000E8FF45F8240005000ED031462846FEF753
:1058500028FEA5F8044105F58071204602F08DFF71
:105860004FF0FF30A5F8060170BD0000A86B0020C6
:10587000F8B51646028A069FA2EB010294B2C288CE
:10588000D2050AD50A4A55683DB1009300890A46F7
:10589000014633463846A847F8BD9C4200D91C460D
:1058A0004069224601443046FEF7D4FD2046F8BD4B
:1058B000AC000020042105F0EFBF042107F020B860
:1058C000024908600421024806F08EBFB80000209B
:1058D000655E0000024948600421024806F084BF6A
:1058E000B8000020655E0000042105F0D5BF04214A
:1058F00007F006B800B58BB0D0F82001009023E087
:10590000684600F04CFABDF8081000291ED0BDF81A
:1059100006200FA0FFF7F8F9BDF8060080050398F0
:1059200008D506A91BF046FC06A81FF0DDF80146C5
:1059300011A001E0018811A0FFF7E6F9BDF81010F1
:1059400010A0FFF7E1F900980028D9D10BB000BDF5
:1059500048616E646C653A203078253034782C20AC
:10596000666C6167733A203078253034782C207566
:105970007569643A200000002573000025303478F2
:10598000000000002C2076616C75655F6C656E3AD6
:105990002025752C2076616C75653A20000000008A
:1059A000064A30B41468002C06D00B46A4460246C2
:1059B000002130BC0420604730BC7047C00000208C
:1059C0007CB51446042819D120783E283FD016DC37
:1059D000052855D0082801D030280FD1B2F803503F
:1059E000284600F0E9F8040008D028461CF06BFBBC
:1059F00004F8FD0F28461CF009F860707CBDD7281C
:105A00005ED0D8284DD0DA28F8D1608800F0D4F8DC
:105A10000500F3D0B5F8040104F008FF0600EDD04E
:105A20002079317A8842E9D16946601D1BF0D4FBA8
:105A3000062231466846FEF746FD0028DED1E07AB0
:105A400085F8FF00B5F80401FFF751FF7CBDA07891
:105A5000012803D00A2801D02928F7D1D41C918825
:105A6000D078FFF7DFFEB4F8010000F0A5F80500DC
:105A7000ECD0B4F801001CF0ABFFA5F806017CBD2A
:105A8000B2F80350284600F097F80400F7D000F071
:105A900075FC204600F0BFFE0F49002041F82500AC
:105AA0007CBD608800F088F80500F9D0B4F80B00E0
:105AB00001B2A5F8061109A0FFF727F9284608E06A
:105AC000508800F079F80028EAD04FF0FF31A0F8B4
:105AD000061100F0A7FA7CBDA86B0020534D5F456E
:105AE00056454E545F4944454E544954595F5245BA
:105AF000534F4C56494E475F5355434345454445E4
:105B000044206964202575003EB50C4605461729DA
:105B100003D306F0E3FDA04202D206F0DFFD044607
:105B200002208DF80800ADF8094000200090019097
:105B3000032302AA0421284607F0D4F83EBD3EB54F
:105B40000C468DF8080000208DF809200090019087
:105B5000022302AA0421204607F0C4F83EBD7FB507
:105B60000DF1200C1446BCE864008DF80800ADF877
:105B70000930ADF80B20ADF80D10CDE90056072324
:105B800002AA0421204607F0ADF87FBD70B51500CC
:105B90000C4603D0D0F82001206008E0002070BD42
:105BA000204600F0FCF82089A84203D02068002895
:105BB000F6D170BD012070BD082803D2024951F80A
:105BC0002000704700207047A86B00202DE9FF419E
:105BD000164691F800C00024B0F800214F1D1D4664
:105BE000BCF10E0F73D00CDCACF1020EBEF10B0F4A
:105BF0001BD2DFE80EF0221A351A3D1A4D1A5D1A33
:105C00006300BCF1180F71D009DCBCF1100F67D034
:105C1000BCF1120F77D0BCF1160F06D178E0BCF1C1
:105C2000520F7FD0BCF1D20F7CD0614640A0FFF76D
:105C30006BF804B02046BDE8F0810646B1F801409B
:105C400006F04CFD844202D2A6F8004101E0A6F81D
:105C5000000103242C70B6F80001A5F80100E8E764
:105C6000491C4B8800930B88294603F033FB0DE059
:105C7000CB1D491CF61FB4B28F884E88CDE9024374
:105C8000CDE900670B88294603F090FA0446D0E777
:105C90000C462946072E01D8022300E01023641C7D
:105CA0006588CDE900530297238803F0E7FCEDE710
:105CB000B1F80130294603F0FBFDE7E7491C4B88AA
:105CC00000930B88294603F0DBFBDFE7FFE7491C65
:105CD000761E0091C6F34F03294603F077FDD5E702
:105CE0000C461946072E03D8022302E015E00AE00D
:105CF0001023641C6588CDE900530297238803F0C4
:105D00002FFCC3E70EE00092324603F05DFEBDE7D4
:105D10000092324603F056FBB8E70092324603F099
:105D200013FAB3E70092324603F01EFE81E700004B
:105D3000556E68616E646C65642041545420436FF5
:105D40006D6D616E643A20253032582C20444154E8
:105D5000413A20001CB50B4B1C68002C10D0B62318
:105D60008DF8003005238DF801308DF80200ADF874
:105D70000310ADF80520072300216A460420A04740
:105D80001CBD0000C000002010B580B2FFF714FF5A
:105D9000002803D0BDE8104000F0F0BA10BD10B5E7
:105DA00001680A88828072B14B88C3808C88048124
:105DB00001F10604C4609B050CD5A2F11603038211
:105DC00001F116030BE00021C1800181C160018255
:105DD000416106E0A2F10803038201F108031144C6
:105DE0004361016010BD70B5044600890D4600286E
:105DF0001BD0022A08D0E08880050BD51022E0686D
:105E0000FEF761FB80B111E009882046BDE87040D3
:105E100000F00EB8084605F0F9FB002805D0E1684F
:105E2000A8890988884201D1012070BD002070BD79
:105E300070B5044600890D46002810D0E088800522
:105E4000E06808D505F0E2FB002808D0E06880890A
:105E5000A84203D004E00088884201D1012070BD2F
:105E6000002070BD2DE9F041194C06461F4615462D
:105E70008846042809D0082E28D12878C00720D0C9
:105E8000D4F800C01FE03046E047287878281DD1BC
:105E9000D4F804C0BCF1000F08D03B462A46414666
:105EA0003046E04704F0BAFB00280FD02468002CED
:105EB0000CD03B462A4641463046A446BDE8F04158
:105EC0006047D4F804C0BCF1000FDCD1BDE8F0811C
:105ED000B80000202DE9F0410F4615460446014662
:105EE0001E46127828A0FEF710FF042C0CD0082CB8
:105EF00048D13846FFF760FE040043D029781E29B8
:105F000009D0522918D01EE0287878283AD1BDE867
:105F1000F04100F00FB9B4F80801A0B104F58670A3
:105F200000F072FD04F582740020A288A080218810
:105F3000BDE8F041FFF70EBF32462946BDE8F0410B
:105F40000023FFF743BEFB2E06D93246BDE8F041E1
:105F5000FB231A48FEF7D9BE22782AB1BDE8F041EA
:105F600016485030FEF7D1BE01202070A4F802611F
:105F700032462946A01CFEF76DFA2046BDE8F041E6
:105F800000F050B8BDE8F0816174745F7061636BBC
:105F900065745F68616E646C65723A2074797065CF
:105FA000203078253032782C207061636B65745B0B
:105FB000305D20307825303278000000006A020021
:105FC00010B5B0F80001029CC01E80B21970A3F891
:105FD0000120844200D8204610BD1FB514468DF81C
:105FE0000800069AADF80930ADF80B20ADF80D1099
:105FF000002000900190072302AA0421204606F009
:1060000071FE1FBD3EB50C468DF80800ADF80920A5
:10601000002000900190032302AA0421204606F0EC
:1060200061FE3EBD2DE9FF410446017824A0FEF744
:106030006CFE207801282DD1A078D22808D003202A
:106040002070B4F8040104B0BDE8F041FFF74FBC84
:106050001BF0CCFE0027E0B1B4F802010F2818D3E2
:10606000B4F804011CF0DAFA002813D1B4F90601DF
:1060700006F0DAFF05000CD0B4F80211A4F10A0012
:106080000E58696C324611A0FEF73FFE686CB042B4
:1060900002D92770BDE8FF8102202070B4F80320E8
:1060A0001749601DCDE90006CDE90214B4F80201DC
:1060B000A1780F3883B205F134001BF0A1FEE9E7A7
:1060C0006174745F72756E3A2025640041545420E7
:1060D0005369676E65642057726974652C20444269
:1060E00020636F756E7465722025752C2070616356
:1060F0006B657420636F756E746572202575000082
:10610000E9630000FFF7F0BB0EB50B21CDE90023DA
:106110008DF80810012302AA042106F0E3FD0EBD4C
:1061200000B5FFF749FD10B1B0F8000100BD172020
:1061300000BD00002DE9F8430025144F144EA84679
:1061400057F82540E4B1207803280BD1204600F011
:10615000A7F838B1607898B1B4F80401BDE8F84305
:10616000FFF7C5BB607858B10AA084F801800068C9
:106170000090346824B1022300216A460420A0471D
:106180006D1C082DDCD3BDE8F8830000A86B00204F
:10619000C0000020B70000002DE9FE431F46164650
:1061A0000D468046FFF708FD040005D0B4F808014D
:1061B00020B19020BDE8FE835920FBE74046FFF761
:1061C00093FB88B102AB2A461D2120460097FFF7BA
:1061D000F7FECDE90060032302AA0421404606F041
:1061E00081FD060002D014E05720E3E7A4F808512F
:1061F00004F5867042460849044600F03FFC47F229
:10620000305240F28241204600F01CFC204600F053
:10621000EBFB3046CEE70000895D000070B5054617
:106220000B480A4C0E46446004F0CCF9084808308C
:1062300044601BF063F90748FFF74CFB284600F069
:10624000C7F83046BDE8704000F0C8B8C15900003A
:10625000C4000020D55E00002DE9FE431E46154611
:106260000F468046FFF7A8FC040014D04046FFF715
:106270003BFB90B102AB3A461B2120460096FFF74C
:106280009FFECDE90050032302AA0421404606F0F8
:1062900029FDBDE8FE835920FBE75720F9E7000000
:1062A0002DE9FC412F4E002707700446B0F802216B
:1062B0003346811CFFF78AFC0546A0F57F40FF3876
:1062C00023D0042D0FD3307801280CD13079082841
:1062D00009D194F8FE0030B1B4F804011BF0BDFB05
:1062E00078B1012811D085B100970197B4F8040165
:1062F0002B463246042106F0F5FC3078032807D0FF
:106300002DE0B4F804011CF05BFE0020BDE8FC8128
:10631000154AB4F80411B4F80001156875B1B52236
:106320008DF8002004228DF80120ADF80210ADF8A0
:106330000400062300216A460420A847B4F804019B
:1063400000F096F809480078C00708D0B4F80001BA
:106350000022001D81B2B4F8040101F083FC012089
:10636000D4E70000F46C0020C0000020D40000201E
:106370000149086070470000C000002010B5B0F867
:10638000082104463AB1B4F804119120FFF7E2FC69
:106390000020A4F8080104F58670BDE8104000F064
:1063A00033BB10B50246FFF707FC002806D00121D9
:1063B0004170BDE810401046FFF799BA10BD10B506
:1063C0000C46FFF7F9FB002801D0C0F8204110BDB2
:1063D0000149486070470000AC0000200149886016
:1063E00070470000AC0000207CB5044600780A46E7
:1063F00002280ED1694610461AF0EBFEB4F80211DD
:10640000A01F014408226846FEF75DF810B1002085
:1064100020707CBDB4F80211A4F10A000E58B4F942
:10642000060106F001FE050001D0012000E0002079
:10643000FD2207A1FFF7DCF945B1761C6E6403204D
:106440002070B4F80401FFF752FA7CBD72B6FEE783
:106450006174745F7365727665722E63000000006C
:106460000A6882654968C1653521017002F0EEBA9B
:1064700070B5054602F058FE04000BD02846FFF721
:106480009BFB002806D0E28AB0F800118A4202D9AC
:10649000A0F8002170BDE18270BD0000F8B504468F
:1064A000C0880E46C0050BD506484568002D07D0AC
:1064B000002000900346024621893046A8472082EA
:1064C000F8BD0000AC0000207CB50E46C98804462B
:1064D0000D0B00D06D1C14F8FD2F6078CDE9000283
:1064E000A378FD3C2A461048FEF70EFCF0884105D3
:1064F00002D594F8FE1079B1000502D594F8FF009A
:1065000060B1002D02DD94F8FD0048B194F8FD0063
:10651000A84207DA0C207CBD05207CBD08207CBD8C
:106520000F207CBD00207CBDFC6802003EB50C46FF
:106530008DF808000699ADF80920CDE90013032372
:1065400002AA0421204606F0CDFB3EBD10B50C4644
:10655000022806D0084605F059F8002800D0A08986
:1065600010BD088810BD0622FDF7ADBF0A680260A5
:10657000898881807047000010B50C4900220346CD
:106580003A24985C000900F071FB0870985C00F0F8
:106590000F0000F06BFB48708C70C91C521C062A5F
:1065A000EFDB002001F8010C004810BDED6B00206E
:1065B0000844008840BA70474218405C53785288BB
:1065C00052BA63F31F4242EA00607047130A435411
:1065D000491C89B242547047130E4354491C89B276
:1065E000C2F307434354491C89B2C2F307234354FF
:1065F000491C89B24254704710B50446FEF746FA6A
:1066000003480188A1430180BDE81040FEF748BA65
:10661000D803002010B503F078FBBDE8104001203E
:1066200000F010B810B506490A68C2F30312022A36
:10663000FAD1012100F036FCBDE8104004F040BF63
:106640000400044010B50446FEF720FA0348018810
:1066500021430180BDE81040FEF722BAD803002094
:1066600003480078C00701D118F0DEBE7047000073
:10667000D803002008B50020009008480068C10534
:106680000748006803D069461FF01AFA08BD0023C6
:106690001A4619461FF0FEF808BD000004ED00E0A0
:1066A0000C00002010B504460E480078C00718D032
:1066B000FEF7ECF94CB103210B4818F00BFC03F08A
:1066C00026FB11F063F90DF0D3F90120FFF794FFD9
:1066D00012F086F9032018F0D9FFBDE81040FEF74C
:1066E000DFB910BDD80300205000030070B50D487D
:1066F0000088A0B912F088F840F2E2450446A842AA
:106700000DD30948406D50B919F09EF838B119F011
:10671000A3F8A84203D3A04200D3204670BD0020B6
:1067200070BD0000D8030020000009400149086046
:1067300070470000D400002010B5044608202080D7
:10674000608005F0CBFFA0800A20E08010BD0268C9
:10675000134602E08A4204D01268002AFAD10B6084
:106760000160704702E08A4205D010460268002AA4
:10677000F9D10A6001607047006808B100207047D5
:106780000120704704E0884201D101207047006871
:106790000028F8D170470268816832B1406800680B
:1067A000884200D1086808B9704709B101207047D4
:1067B000002070470022C0E900210968816070470D
:1067C000016851B141680A6881688A4203D1416019
:1067D0000968816003E0826001E001210160806856
:1067E000704781680968816042681160002101601A
:1067F00070474FF0FF3351B107E002688A4203D17E
:10680000096801600020704710460028F5D118463D
:1068100070471AF00FBB1EF003BBFFF7FCBF7420DC
:10682000FFF7F7BF10B50446006A06F072FF204676
:10683000BDE81040FFF7EFBF70B58020FFF7E9FF1C
:1068400004000CD040F2111007F034F8050008D015
:1068500080212046FDF725FE2046256270BD0020E0
:1068600070BD2046FFF7D7FFF9E77047FFF7D3BFAA
:106870005020FFF7CEBFFFF7CEBF1420FFF7C9BFF0
:106880002DE9F04106460020984617460C4605467D
:10689000306005E02146304600F006F844446D1CA7
:1068A000BD42F7DBBDE8F08130B40268134607E073
:1068B0008B4204D1024630BC04A0FEF727BA1B6805
:1068C000002BF5D10A60016030BC704762747374AC
:1068D00061636B5F6D656D6F72795F706F6F6C5F19
:1068E000667265653A20626C6F636B202570206666
:1068F0007265656420747769636520666F722070C5
:106900006F6F6C2025700000016819B10A68026081
:106910000846704700207047FFF77DBF0C20FFF747
:1069200078BF000000B589B00DF1080C01900E4849
:1069300000680592ACE80B000C4800684FF00003BB
:10694000C005029804D0002269461FF059F804E0FF
:106950004FF0FF3269461EF09DFF012802D0012052
:1069600009B000BD0020FBE72800002004ED00E096
:1069700013460A4601460A20FFF7D4BF13460A46CB
:1069800001460C20FFF7CEBF38B5154D286890F8AA
:10699000AC0008B1552038BD4FF0FF30ADF8020013
:1069A000ADF800000AE0684603F090FF0446C08896
:1069B000162103F0B9FF204604F002FC684603F0FC
:1069C00065FF0028EFD1012004F0B0FA054804F07B
:1069D00063F80028DFD12A68012182F8AC1038BDA5
:1069E000406B0200F86D020038B504461FF058FCF9
:1069F00002464FF0FF3000900023012120691FF074
:106A0000ADFE38BD0020704738B50446006948B176
:106A10004FF0FF31002300911A4605211FF09EFE22
:106A200000202061002038BD38B504461FF038FC36
:106A300002464FF0FF3000900023022120691FF032
:106A40008DFE38BDF8B515460E460446FFF7DCFF4F
:106A50004FF47A704543B5FBF0F10548666000904D
:106A60002346002203A01FF00DFE2061F8BD0000A8
:106A7000314C000068000000C1607047C0E902129C
:106A8000704708B54FF0FF310091002300691A46A6
:106A900003211FF063FE08BD2DE9F04107461148B0
:106AA00015460E46046898469A34388862882188CC
:106AB00000F024F9388062882188308800F01EF9BF
:106AC0003080E288A188288800F018F9288062893F
:106AD0002189B8F8000000F011F9A8F80000BDE81D
:106AE000F0810000406B020070B50C00054601D03B
:106AF000012000E000206A2206A1FEF779FE284668
:106B000000F034F810B100206C602060286820602C
:106B10002C6070BD6C6973745F62617369632E630E
:106B20000000000070B50C00054601D0012000E017
:106B30000020532207A1FEF75BFE284600F016F85E
:106B400008B12C6001E06868046000206C6020607F
:106B500070BD00006C6973745F62617369632E635A
:106B6000000000000021016041607047006808B12A
:106B70000020704701207047006808B1002070476E
:106B800001207047016819B10A68026012B103E080
:106B90000022FAE7002242600846704770B50546B9
:106BA00000680C4600B10120C32209A1FEF720FEB7
:106BB000206800B10120C42205A1FEF719FE696812
:106BC000206808606068686000202060606070BDB8
:106BD0006C6973745F62617369632E630000000007
:106BE00070B5034600200246012513F8024000213B
:106BF00005FA01F6344201D0401C80B2491CC9B2EA
:106C00000829F5D3521CD2B2052AEED370BD70B557
:106C10000446008942F6554290472521B0FBF1F227
:106C200001FB1201CA0801F00705A25C0123AB4079
:106C30001A4201D0084670BDE18841432046BDE8B4
:106C40007040C1F3074102F046BA30B504461068FF
:106C5000206010790D4600F01F0020712046FFF7DC
:106C6000BFFFE08085EA1540208130BD0A2801DAA7
:106C7000303003E00A38062802DA4130C0B27047EB
:106C80003F20704770B50446C08E88B0002822D0DF
:106C9000258F94F83430A2268DF800601A268DF8DE
:106CA0000160A6890A46ADF80400ADF8082004F199
:106CB0001C01ADF80260ADF80650ADF80A301022A4
:106CC00003A8FDF7C7FBA1891C236A46A06800F052
:106CD00041F90020E08608B070BD0000064811446C
:106CE000006800F2FF30814203D9012018600320C0
:106CF0007047002070470000E400002019B188426E
:106D000001D208467047002AFCD09042FAD91046BA
:106D1000704700000249CA6D82430243CA6570474A
:106D20000000094043688B4204D18068904201D141
:106D300001207047002070473EB5184C60682569F7
:106D4000006E2D1D28B90022202140201EF002FDDA
:106D5000A0620322002101201EF0FCFCE060104A2A
:106D60000E2029688DE8070000230EA10E486A68EE
:106D70001FF04AFAE0626068006E00280CD1084AF1
:106D800002205432A9688DE80700002307A10848B3
:106D9000EA681FF039FA20633EBD000000000020C1
:106DA0009C04002063000000194A000070000000ED
:106DB000B903020070B50646401E1D460C460A285F
:106DC00009D220782968884205D10622211D6868E9
:106DD000FDF779FB08B1002070BDC5E9026403200E
:106DE00070BD00000248417A491C417270470000A2
:106DF0004C01002010B5044603F060F8002010F0AC
:106E0000B1FD11F011FC10F0F5FB09F02BFA0DF0BB
:106E1000D5F913F0CDF817F0A3F817F08BFE002C7E
:106E200003D0BDE8104012F0B0B910BD70B50446F3
:106E3000B0F1A53F19D0B4F1C33F16D00123DA0257
:106E400005211C2018F05EFA0546B4F1F23F09D086
:106E5000922206A10020FEF7CBFC2846BDE8704038
:106E600018F0C2BB07202870F7E770BD6474626C2D
:106E7000652E630070B50A4C4FF42020074DE06486
:106E80001DF070F8800602D54FF4803001E04FF419
:106E900000402844C0F31300A06470BD00000A4005
:106EA00000000940F8B505461B480E460021018048
:106EB00010F04CFE1DF06EF818F0CCF9684610F09A
:106EC00087FE0446009842F2ED0140F61C678842B6
:106ED00001D3012000E00020852210A1FEF788FCEC
:106EE0003A462146002018F021FA009804F61C6169
:106EF000A0F61C6082B2012018F018FA1CF0A6FF60
:106F00003046FFF777FF002D04D02846BDE8F84053
:106F1000FFF78CBFF8BD0000D803002064746970CF
:106F20002E63000009490120096809B1002070475B
:106F30000749CA69002AF9D1044A283212688968C7
:106F4000491E8A42F3D10220704700004009002008
:106F50004400002030B4040003D0A44630BC042018
:106F6000604730BC704700002DE9F04186B098467C
:106F700014460D460646002702F0D6F8002838D001
:106F8000011D03A8FFF716FC0CE003A8FFF718FC8F
:106F90000189A94206D1476843462246314604206A
:106FA000B847012703A8FFF7F6FB0028EDD1002F13
:106FB0001FD14246304602F0B7F8002819D00E48DB
:106FC0000768002F15D0AC208DF8000009208DF83F
:106FD000010014F8030B8DF80200D21EADF8035027
:106FE000ADF805200B23CDF807406A463146042052
:106FF000B84706B0BDE8F081D80000201CB5A0223B
:107000008DF8002003228DF801208289ADF802203E
:107010008DF804108189806805236A46FFF79AFF7E
:107020001CBD30B587B00446A3250A988DF80050E2
:1070300018258DF80150A589ADF80410ADF806208B
:107040000146ADF80250ADF8083010220DF10A00EB
:10705000FDF700FAA1891A236A46A068FFF77AFFB4
:1070600007B030BD10B586B00446A1208DF80000F1
:1070700016208DF80100A089ADF80410ADF80200CB
:10708000ADF806201022194602A8FDF7E3F9A18900
:1070900018236A46A068FFF75DFF06B010BD000028
:1070A0002DE9F05F0024924689460546274626468C
:1070B00024E000BF05EB8400B0F9021035F924008C
:1070C0001AF0C0F8834605EB8800B0F9021035F9D4
:1070D00028001AF0B7F8ABEB000043F6FF718842C6
:1070E00003DBA0F5FE40FF3804E00849884201DCDC
:1070F000490C0844074404EB4904761C04EB0908D6
:10710000D045D7DB97FBF6F0BDE8F09F01C0FFFF4D
:107110002DE9F04342780446901C89B00E46814226
:1071200006D009B0921CBDE8F043DE48FDF7F0BD83
:107130002178DDA0FDF7ECFD2078DFF87C834FF0AF
:107140000009122875D00CDC0E2811D004DC0528AB
:1071500070D0082853D17BE00F2835D010284ED1AD
:1071600099E0132852D03E2871D0572847D179E1B1
:10717000D8F80000A278454690F85610CFA0FDF749
:10718000C7FD6179D6A0FDF7C3FD2968A07881F815
:107190005600D849B4F803000988884207D1002076
:1071A00003F0C4FE296881F8AC9003F08FFF2968D2
:1071B000B4F80300B1F88610884218D12868826CB0
:1071C000AAB1C16C601D11E0D8F80020E1784046FA
:1071D00082F85610D8F80020A188B2F88620914293
:1071E00005D101688A6C12B1C96C601C9047D8F84F
:1071F0000020A2F88690D8F80010C1F84890D8F87E
:10720000000090F86C0001287ED037E103250027AC
:1072100019E0635BAD1C625BAD1C184603F006FB16
:1072200048B190F8281091420AD3891A80F82810A2
:1072300008E035E026E01946AFA0FDF769FD01E062
:1072400080F828907F1CA078B842E2DCD7E733E0D2
:10725000B4F80350284603F0E9FA0028CFD0A1780B
:1072600049B961790029816902D041F4004101E006
:1072700021F40041816100F0F3FB0146284603F050
:10728000B9FBBCE7B4F8030003F0D0FA0028B6D08D
:1072900007214174B3E703F0E9FD03F0FBFDAEE71E
:1072A000A0780028ABD1B4F8030003F0BFFA00289F
:1072B000A5D0617A0174A2E7A0780A2838D033DC1F
:1072C000012835D004287DD0062898D134F8037FD2
:1072D000384603F0ABFA05006088ADF81400A088CA
:1072E000ADF81000E088ADF818002089A4F103047F
:1072F000ADF81C0083D007AB06AA04A905A8FFF7C8
:10730000CBFBEB8FAA8F00E0B4E0BDF81800BDF80E
:107310001C108DE80F00BDF81030BDF81420394660
:10732000834803F0B9FB6AE7122872D029288DD16F
:10733000E07800288AD1A788082F21D2D8F8000049
:1073400000EB8705686910B9FFF776FA68610500F8
:1073500016D0EF800220C5F81890A874FFF752FBF2
:10736000E861E0792872294604F1080019F034FF39
:1073700005206874A0792874A0780A2804D00FE04A
:10738000A08800F067F93AE7D4F80E00C5F872005B
:10739000608AA5F876006069A867208BA5F87C0054
:1073A000E0896887287C60B9D8F8001091F85410FB
:1073B000E973D8F8000005F1090190F8540000F0D5
:1073C000FBF900E016E02846FFF7D6F80246E98808
:1073D00058A0FDF79DFC03F0E3FAD8F8000090F800
:1073E0006200C0069FD5E98840F6B832594803F0DC
:1073F00053FB04E7E078002839D1A08803F016FA9F
:10740000002834D07030A179417001210170F6E676
:10741000FFE72079082886D2E17819B14EA0FDF760
:1074200077FCECE6B4F80520104603F0FFF90546BA
:10743000217952A0FDF76CFCD8F800002179913039
:10744000095CE97349B1217968461CF07BFD05F1BF
:107450000901684619F0C0FED1E605F1090000F007
:10746000C1F9CCE6608803F0E1F900288BD109B0BE
:10747000BDE8F083B1B2204603F0AEFBB1B22046C6
:1074800003F066FA2078052806D1B4F8030003F06B
:10749000CDF908B103F094FE09B0BDE8F04303F064
:1074A00061BD0000886D02004843493A4556454E8B
:1074B000543A253032780000406B0200434D445F5F
:1074C000434F4D504C45544520636D6473206F6CA1
:1074D00064202575202D206E65772025750000001D
:1074E000636D645F636F6D70207374617475732076
:1074F00025750000F86D02006863695F6E756D6246
:1075000065725F636F6D706C657465645F706163F5
:107510006B6574206C6973747320756E7573656424
:1075200020636F6E2068616E646C652025750000B5
:10753000906E02004E657720636F6E6E65637469AE
:107540006F6E3A2068616E646C652025752C20256D
:1075500073000000006E0200616476207365742081
:107560007465726D696E61742064756520746F2036
:10757000636175736520307825780A006164762030
:1075800068616E646C6572203078257820636F6E58
:107590006E656374656420746F20636F6E2068612C
:1075A0006E646C6520307825780A000010B50446BA
:1075B00004F002F8204610BD13460A460146014871
:1075C00003F06ABA386F02000246014803F064BA59
:1075D000386E020030B50C46054689B01946104693
:1075E00000F05AFA00280CD16946284619F0E2FD4D
:1075F00004A9204619F0DEFD04AA6946024803F0FA
:107600004BFA09B030BD0000686E0200014803F07B
:1076100043BA0000306E0200014803F03DBA00009A
:10762000E86E0200014803F037BA0000486F02001C
:10763000014803F031BA0000206E020008B5009343
:1076400013460A460146024803F026FA08BD000028
:10765000A46B0200132100F001B8000010B50A4627
:10766000034603F0E3F838B1062141741946054892
:1076700003F012FA002010BD0021184603F054F95F
:10768000F8E70000E86D020038B54FF0FF30ADF8C4
:107690000200ADF8000006250DE0684603F016F97B
:1076A0000446407C062806D0E1881322054803F0F2
:1076B000F3F900B96574684603F0E8F80028ECD1E6
:1076C00038BD0000E86D02002DE9FF4F85B0DFF8FE
:1076D0009C80DDE912698A460A20002400EB06112D
:1076E0009B462746B8F8000003AA02F079FF050080
:1076F00001D001210FE0562009B0BDE8F08F00BF96
:1077000004EBC40219F81220521E01FA02F03843A9
:10771000641CC7B2E4B2B442F2D30798CDE9000BBF
:1077200002975346D8F804102846059A03F074F8D7
:10773000C7B200240DE000BF04EBC40109EB410116
:10774000891CE8191022FCF785FE1037641CFFB273
:10775000E4B2B442F0D306494046096881F854A027
:107760002946039A03F0E6FC0020C5E7186F0200E3
:10777000406B020010B500F08FF9002804D1BDE87D
:107780001040024803F088B910BD0000706E02007E
:107790000248006890F8880070470000406B0200C3
:1077A0000449096851F89A2F02604A684260896862
:1077B00081607047406B02001CB50C4620B1FF2170
:1077C00068461CF0BFFB02E068461CF0D1FB214676
:1077D000684619F001FD1CBD0146014803F05CB983
:1077E000586E020001460020FFF7E6BF10B50446C0
:1077F000014604A0FDF78CFA022C01D9012010BD2E
:10780000002010BD6761705F6D69746D5F70726F8D
:1078100074656374696F6E5F7265717569726564B2
:107820005F666F725F73656375726974795F6C65AB
:1078300076656C20257500007FB50DF1200CBCE845
:1078400070008DE8780013460A460146024803F0AE
:1078500023F904B070BD0000206F0200014803F05E
:107860001BB90000286F020013460A460146014872
:1078700003F012B9946B020013460A460146014810
:1078800003F00AB98C6B02001CB5049CCDE90034EE
:1078900013460A460146024803F0FEF81CBD0000EC
:1078A0009C6B02000146014803F0F6B8306F0200FD
:1078B0000448817A012903D1022181721BF02ABC7C
:1078C000704700004C010020074810B5426C40F2A0
:1078D00082210648FFF7B6F80448FFF785F8BDE8AF
:1078E0001040FFF7E5BF00004C010020406E002073
:1078F00010B5002207490848FFF7C0F8074840F2D2
:107900008221426C0448FFF79DF8BDE81040024810
:10791000FFF76AB8C9780000406E00204C010020D3
:10792000014803F0B9B80000186E0200014803F0E6
:10793000B3B800007C6B0200014803F0ADB8000052
:10794000506F02000146014803F0A6B8A06E020085
:107950000146014803F0A0B8606E020001460148EC
:1079600003F09AB8F06D02000146014803F094B8A4
:10797000086E0200014803F08FB80000286E020074
:107980000246014803F088B8406E02002DE9F0413C
:107990000E46074602F04AFF050010D0384600F0B8
:1079A00055F804460246314608A0FDF7B1F9B44245
:1079B00007D321463846BDE8F04103F01BB801214A
:1079C000F8E7AE74BDE8F04103F0CCBA6761705FD0
:1079D000726571756573745F7365637572697479C7
:1079E0005F6C6576656C2025752C206375727265F9
:1079F0006E74206C6576656C202575000146014823
:107A000003F04AB8E06E020013460A4601460148F8
:107A100003F042B8406F020013460A46014601488F
:107A200003F03AB8B46B0200F0B585B00DF1280C44
:107A3000BCE8F0008DE8F80013460A46014602480B
:107A400003F02AF805B0F0BDC46B020010B502F0D7
:107A5000EDFE18B1BDE8104000F002B8012010BDE5
:107A600010B1008B000401D4012070470220704740
:107A7000022070470A460146014803F00DB8000095
:107A8000B86E020000B101200249096881F888003F
:107A900070470000406B0200034A136818641068C6
:107AA0004164002070470000406B020001490968F2
:107AB00008657047406B02001CB5049CCDE900349A
:107AC00013460A460146024802F0E6FF1CBD0000CC
:107AD0006C6B02000A460146014802F0DDBF00005F
:107AE000746B02002DE9FE4F124E17468846814600
:107AF0001D46308802AA591DDDF830A002F070FD45
:107B0000040014D0CDE9007543464A46716802F07E
:107B100083FEC0B220442A465146FCF79BFC214616
:107B20003046029A03F006FB0020BDE8FE8F562087
:107B3000FBE700005C6B02002DE9FC47104D164688
:107B40000F4680469946288801AA311D02F048FD5B
:107B5000040013D000963B464246696802F05CFE82
:107B6000C0B2204432464946FCF774FC2146284600
:107B7000019A03F0DFFA0020BDE8FC875620FBE7FE
:107B8000646B020004490268096841F89A2F426850
:107B90004A60806888607047406B02000A46014670
:107BA000014802F079BF00004C6B02002DE9FF5F35
:107BB000144DDDE90E6B9046894682461F462888A3
:107BC00003AA711D02F00CFD040018D0CDF800804E
:107BD000CDE901764B4652462046696802F01CFE0C
:107BE000C0B2204432465946FCF734FC21462846B0
:107BF000039A03F09FFA002004B0BDE8F09F5620DE
:107C0000FAE70000446B02002DE9FF5F144DDDE947
:107C10000E6B9046894682461F46288803AAB11DEE
:107C200002F0DEFC040018D0CDF80080CDE901762A
:107C30004B4652462046696802F0EEFDC0B2204431
:107C400032465946FCF706FC21462846039A03F0C3
:107C500071FA002004B0BDE8F09F5620FAE700005A
:107C6000546B02000AB944F2902213460A460146B8
:107C7000014802F011BF0000986E020013460A4648
:107C80000146014802F008BFA86E020008B50B4685
:107C9000009202460021024800F066F808BD00008C
:107CA000C86E02002DE9FC47184F884691460446ED
:107CB000022101EB8801388801AA02F091FC06003C
:107CC00007D043462246796802F0A6FDC5B20024DB
:107CD00013E05620BDE8FC8704EB440009EB4001AB
:107CE0000A7900924B8819F81020701908A102F047
:107CF00093FD2D1D641CEDB2E4B24445ECD3314636
:107D00003846019A03F016FA0020E3E7D86E020025
:107D1000313231002DE9F04F8DB0DFF844C0DDE99C
:107D20001FBEDCF800C0DDE91D9ADDE91B78DDE946
:107D300019568444179C8CF891400DF1100CACE856
:107D4000E04F169E189DCDE9003613460A460146BF
:107D50000448CDE9024502F09FFE0DB0BDE8F08F6A
:107D6000406B0200C06E02002DE9FC471C460A9DD4
:107D7000174688468146F72B26D9F720CDE900051E
:107D80000B4601223946484602F086FE002823D1E0
:107D9000F73CA4B2F73515E0F72C01D3F72600E045
:107DA0002646A01BCDE900650404240C01D0002266
:107DB00000E0022243463946484602F06DFE0028A4
:107DC0000AD13544002CE7D14346032239464846C0
:107DD000CDE9004502F060FEBDE8FC8708B50093E0
:107DE00013460A460146024802F056FE08BD00004E
:107DF000106F02002DE9FC4716460F46DFF88C8015
:107E000002EB8601824699460024C91CB8F800009E
:107E100001AA02F0E5FB050002D0002001220EE0DD
:107E20005620BDE8FC8700BF00EB400319F8133073
:107E30005B1E02FA03F12143401CCCB2C0B2B04237
:107E4000F2D300943B4652462846D8F8041002F07C
:107E5000E3FCC7B200240FE004EB440109EB41004E
:107E60008188009143884278E81909A102F0D4FC86
:107E70007F1D641CFFB2E4B2B442EDD329464046F4
:107E8000019A03F057F90020CBE70000086F0200C9
:107E90003132320008B50B460092024600210248FA
:107EA000FFF762FF08BD0000D06E02000A460146DF
:107EB000014802F0F1BD0000506E02002DE9F843C8
:107EC000194F15460C468046F82923D90146F82358
:107ED00001223846009502F0DFFD002821D1F83C50
:107EE000A4B2F83514E0F82C01D3F82600E02646B9
:107EF000A01B0404240C009501D0002200E0022203
:107F000033464146384602F0C7FD002809D13544C2
:107F1000002CE8D12346032241463846009502F062
:107F2000BBFDBDE8F8830000F86E02000A4601467A
:107F3000014802F0B1BD0000006F020008B50093D7
:107F400013460A460146024802F0A6FD08BD00009D
:107F5000F06E02000A460146014802F09DBD000095
:107F6000846B02001CB5049CCDE9003413460A461C
:107F70000146024802F090FD1CBD0000B06E0200F8
:107F80000146014802F088BD106E020002490968EE
:107F900081F8550070470000406B02002DE9FF4F4B
:107FA00087B01C46DDE91A01DDE91865DDE91687B1
:107FB000DDE914A99346FFF76FFD00280DD1CDE947
:107FC000004ACDE90259CDF81080CDE90576DDE90A
:107FD00007125B46024802F05FFD0BB0BDE8F08F70
:107FE000AC6B0200014802F057BD0000D46B0200E8
:107FF00008B5009313460A460146024802F04CFDBC
:1080000008BD0000BC6B0200F0B587B00DF1300E6A
:10801000BEE8F0108DE8F81013460A460146024803
:1080200002F03AFD07B0F0BDCC6B02002DE9FF4134
:108030000D46DDE90A4780460C9E02F0F7FB00285A
:1080400006D0007C38B129464046009404F077FC05
:1080500004B0BDE8F08103968DE8980013462A46E7
:108060004146024802F018FDF2E70000486E0200A7
:1080700008B59200921C0B46009201460722024866
:1080800002F00AFD08BD0000DC6B02002DE9F0479C
:1080900088B04FF00009DFF86CA41D4614460F4667
:1080A000CDF8089004281DD0082825D120781B2859
:1080B00025D01D2833D0384601F036F8029000282C
:1080C0001AD021786E1E4FF001080D297ED02CDCCD
:1080D0000C2938D2DFE801F037F7375237F637F599
:1080E00037A837F42178782906D1DAF800600EB184
:1080F0003946B04700F0AAFC08B0BDE8F087B4F8F4
:108100000160E21CDD1E3146A72019F0DFF90246AE
:10811000ED1CABB231463846FEF726FFECE702A96C
:10812000384618F085F90298C9E7172979D006DC96
:108130000F2977D0112953D0132904D136E11929F9
:1081400071D01D295AD0F0A0FCF7E1FD20788DF800
:108150000C8002998DF80D0006228DF80E908DF896
:1081600010208DF80F90CDF80090CDF804908889FC
:10817000052303AA042104F0B5FDBBE7B4F80140D0
:1081800004F0ACFA01468C4200D221460298C1822A
:1081900080F81880DAF8004084B1AB218DF8001027
:1081A00004218DF801108189ADF80210C18AADF863
:1081B0000410818906236A460420A0473846FEF74A
:1081C00057F9DC480078800794D400E0F6E0029884
:1081D0000022C18A8089091D89B2FFF743FD89E722
:1081E0000178022986D12A46214618F0A5FF617838
:1081F0000298691A214401224988A5E0B4F8016077
:10820000E21CED1E3146A82019F060F9ED1C024673
:10821000ABB231463846FEF7A7FE029981F851808D
:1082200068E7FBE039E12BE101780C291AD010DC7A
:10823000062901D00829A0D12A46214618F030FF8E
:108240002946204600F07AFF014602981CF0C2FA47
:1082500050E7142938D024298FD16188A0F84C1018
:1082600025210BE094F80180B8F1070F08D261884E
:108270008185A1880186E18841860D21017039E759
:10828000022716E0E119029E34F807904A883286E8
:108290008A887286C98803A81CF052FC03A8009043
:1082A000738E328E49463046FEF7BBFE07EB080060
:1082B00087B2AF42E6D361780298691A615A42E008
:1082C0001AE04DE062E0F1E0677800210226A7F1B4
:1082D00002090CE034F80680A2191FFA89F3921CF7
:1082E0004146029818F0CDFEF019414686B2AE42E2
:1082F000F0D31322029827E001780E2915D0102917
:1083000025D028298CD100F049FA029D621CA920B1
:10831000298F19F0DBF802460836B3B2A989A8689C
:10832000FEF718FE00210298E9E003A9601C18F08E
:1083300041FF029803AA818D0092438E028EFEF7C0
:1083400070FE0298818D0B221CF064FAD2E600F0D8
:1083500025FA0298B3B2621C018F18F092FEE1E791
:108360004FF004084FF6FF77012609E0A019A15B42
:10837000478802983A4600F11C03FEF773FE464414
:10838000AE42F3DB394603220298DDE7617804232D
:10839000022900D11223E91A665AAD1EAAB2A11C05
:1083A00018F03AFE314609220298CDE701781829E3
:1083B00003D0262901D02C29C8D18EE06D1E01786A
:1083C000ADB26D1DB6B2122916D02A29BED1018FC9
:1083D000428F0746631CAA20009619F085F8020018
:1083E00004D0ABB2B989B868FEF7B4FD3246292192
:1083F00002981CF0D7F97DE6018F428F0746631C77
:10840000A620009619F070F8020004D0ABB2B9892A
:10841000B868FEF79FFD32461121E9E701781A2975
:1084200010D01C291AD02E2912D032298ED100F05A
:10843000B5F92A462146029803F0FEF800288ED1AD
:108440007E2170E7B4F8031041871D22192110E046
:10845000B4F8031041872F222D210AE02A46214635
:1084600003F0EAF840B10298B4F803101D224187E6
:108470001B211CF0BEF93DE602992120087039E667
:1084800001781E2929D0202927D0222902D030297D
:10849000B1D122E000F082F9D2E701781629AAD101
:1084A000B3B2621C002118F0ECFD1CE021790A290E
:1084B00010D10278082A13D006DC022A0DD0042A33
:1084C0000BD0062A06D10BE00A2A06D00C2A04D0CB
:1084D000142A0AD000F0A9FA0CE600F05FF921E7AF
:1084E000C18DFEF7CFFB0298F7E700F057F902982D
:1084F000818D028E914201D10A2100E00021FEF718
:108500007DFDF7E5D80000204154542048616E6499
:108510006C65722C20756E68616E646C6564207287
:108520006573706F6E73652074797065203078257F
:1085300030327800D400002038B50A460446694637
:10854000104617F0BBFF002806D100981F21846059
:10855000017000F07BFA002038BD38B5144605469E
:108560000A46002000906946104617F09BFF00283D
:1085700017D16088A188884204D100210098FEF7B5
:108580003DFD0DE0009800F0AFFC0098856061882B
:10859000491C8185A188C1850921017000F056FA26
:1085A000002038BDF8B515460A4606461C46694601
:1085B0001046069F17F082FF002814D10098012171
:1085C000102286608585C48580F85010002444837D
:1085D00039461C30FBF73EFF00980721C486017026
:1085E00000F034FA0020F8BDF8B516460A460746F2
:1085F0001D4669461046069C17F060FF002813D1FF
:108600000098012187608685C58580F850104483D5
:1086100021461C301CF094FA00980021C1860721E5
:10862000017000F013FA0020F8BDF8B515460A46AF
:1086300006461C466946104617F040FF00280CD13C
:108640000098002186608585C48580F85010C18619
:108650000521017000F0FAF90020F8BD38B50A468E
:1086600004466946104617F029FF00280CD10098EF
:1086700001214FF6FF7284608185C285017000215F
:10868000418300F0E3F9002038BD38B515460A46AD
:1086900004466946104617F011FF002813D10098D0
:1086A00001211022846081854FF6FF71C185002170
:1086B000418329461C30FBF7CDFE0099032008704A
:1086C00000F0C4F9002038BD38B514460A46054606
:1086D0006946104617F0F2FE002810D100980121DB
:1086E000856081854FF6FF71C18503210170448348
:1086F00021461C301CF024FA00F0A8F9002038BDF7
:10870000F8B50D46002406466946009417F0CAFEE7
:10871000002804D10098017E012901D09520F8BDE0
:10872000047629463046FDF7EFF90020F8BD38B54C
:108730000A4604466946104617F0C0FE002806D1D6
:1087400000981D218460017000F080F9002038BD80
:10875000F8B515460A4606461C466946104617F007
:10876000ADFE002808D100980B2186608585C48560
:10877000017000F06BF90020F8BD00B50A4600F06A
:10878000D3FC10B1017E012903D017201080952061
:1087900000BDC08A1080002000BD000010B500217F
:1087A0000170044681890448FCF7B1FA04F16000C5
:1087B000BDE81040FEF728B9186B020070B5042818
:1087C0001AD11078052813D1B2F80350284600F0CA
:1087D000ABFC04000CD01F2100F027F92046FFF766
:1087E000DDFF0649002041F825002046FEF715F878
:1087F000BDE8704000F02AB970BD0000006C002098
:10880000064910B504484860084601F0DBFEBDE8A3
:1088100010400348FDF754B8BD870000DC0000207D
:108820008D80000008B500210091694617F03AFEDE
:1088300008B1002008BD012008BD70B504460D46F2
:10884000104600F071FC002807D0656023812146A6
:10885000BDE87040001DFDF77ABF70BD2DE9F843FB
:1088600015460A46DDE9087806461C466946104664
:1088700017F024FE00280BD100983121866005876F
:1088800087874487C0F84080017000F0DFF800203F
:10889000BDE8F88338B514460A46054669461046D1
:1088A00017F00CFE002807D1009827218560048767
:1088B000017000F0CBF8002038BD0023AFF300803A
:1088C000F8B515460A4606461C466946104617F096
:1088D000F5FD002808D10098292186600587448786
:1088E000017000F0B3F80020F8BD0023AFF3008062
:1088F000F8B515460A4606461C466946104617F066
:10890000DDFD002808D10098112186600587448785
:10891000017000F09BF80020F8BDF8B514460A4637
:1089200006461D466946104617F0C8FD002809D1C5
:10893000009815218660A0F844408564017000F01D
:1089400085F80020F8BD38B514460A460546694644
:10895000104617F0B3FD002809D10098002185606A
:10896000048741870F21017000F070F8002038BDA6
:10897000F8B515460A4606461C4669461046069F47
:1089800017F09CFD002812D100980021102286606B
:108990008585C48505864486418339461C30FBF7AE
:1089A00059FD00991320087000F050F80020F8BD20
:1089B000F8B515460A4607461C4669461046069E07
:1089C00017F07CFD002810D100983146876085851E
:1089D000C4850586448646831C301CF0B1F8009996
:1089E0001320087000F032F80020F8BD014908603B
:1089F00070470000D8000020F8B515460A46064624
:108A00001C4669461046069F17F058FD00280BD1FA
:108A10000098002186600587848741871B210764B1
:108A2000017000F013F80020F8BD70B5044600781E
:108A30000D46002808D02046FFF7B0FE2946204604
:108A4000BDE87040FEF7DABA70BD00002DE9F04FC6
:108A5000002689B04FF01E094FF0040A4FF0020BB8
:108A600037464FF00808CD4850F82640002C6ED00D
:108A7000A089FCF71FFF40B12278217EC8A0FCF737
:108A800046F9207E012862D105E0A08909B0BDE841
:108A9000F04FFCF712BF94F8510040B184F85170C8
:108AA000A0898DF8089000970123019789E020782C
:108AB000172801D02B2818D1204617F04BF9A18F89
:108AC000C01E884211DA204617F044F90246A18FF1
:108AD000C1A0FCF71CF92046FFF760FE09B0204654
:108AE000BDE8F04F0D21FEF789BA606D04F09CFAE5
:108AF00005462178C3A0FCF70AF92078362826D24B
:108B0000DFE800F09E1B9E269E469E499E519E6475
:108B10009E709E749E769E789EA39EB69EB89EBCC6
:108B20009EBE9EC19EC39ECB9EED9ED39EDD9EE5C6
:108B30009EFE9EFC9EBA9EFB9EFA84F800B0E08DDD
:108B40000090A38DA2894FF42051102047E077E0D8
:108B500084F800A0608B4FF4205530B1ADF81C00B4
:108B6000E18D07AA8DE8060809E003A904F11C00BD
:108B700018F020FBE08D102203A98DE80700A38DDB
:108B8000A28929460620FCF7EAFF09B0BDE8F08F6C
:108B90000620207001E084F8008009B02046BDE87E
:108BA000F04F18F0E6BB84F80080A089A18DE28D1B
:108BB0008DF808A0ADF80910ADF80B20009705233B
:108BC000019702AA042104F08DF8DEE70C20207042
:108BD000E08D0090A38DA28942F602010820FDF7E6
:108BE000FCF9D2E70E202070228E61E010205DE0BB
:108BF000122065E014202070618B204639B1C28DAF
:108C00000092838DA2890820FDF7E7F918E000F1B2
:108C10001C028589818DE08D8DF80880ADF80910E2
:108C2000ADF80B000DF10D01104618F0C3FA0097D6
:108C3000152302AA04212846CDF8047004F052F846
:108C4000761C082EFFF40FAF9FE716202070A08936
:108C5000B4F844100E23A26C8DF808304FF6FF7361
:108C600003EA4101CDE90021012302AA0421E5E73D
:108C700018202DE01A2044E0322042E01C2040E081
:108C800084F8009046E0202000E02220207009B007
:108C90002046BDE8F04F18F067BB2420207009B0D3
:108CA0002046BDE8F04F18F0A4BB28202070228F8A
:108CB000A18909B00A20BDE8F04FFDF7A3B92A2029
:108CC000207009B02046BDE8F04F18F07DBB2C2085
:108CD000207009B02046BDE8F04F18F095BB262063
:108CE000207004F14E000090B4F84C20A1890223BA
:108CF0001220FDF71BFC48E726E011E008E0FFE743
:108D00002E20207009B02046BDE8F04F18F041BB7E
:108D10003020207009B02046BDE8F04F18F034BB79
:108D200019F064F800288FD034202070A86D216CD1
:108D300001AB0091394A15C3A38F228FD22105F1CF
:108D4000480019F05DF820E736202070A96DB4F8CE
:108D50000C90228FB4F83C80D223266C8DF8103012
:108D6000ADF81120059104F158000DF1140A06A97F
:108D700018F02FFA0C20CDE902A0CDE900680323FA
:108D800004AA0421484603F0F5FF27702046FFF7A8
:108D900005FDA86D401CA865F7E60000006C0020EA
:108DA0002D2068616E646C655F70657269706865BE
:108DB00072616C5F6C6973742C206D7475207374B0
:108DC0006174652025752C20636C69656E74207351
:108DD0007461746520257500676174745F636C69E4
:108DE000656E745F72756E3A2076616C7565206C85
:108DF000656E202575203E204D5455202575202D6B
:108E000020330A00676174745F636C69656E745F18
:108E100073746174652025750000000061640000B2
:108E20002DE9F84306468846002000901C4615466A
:108E3000089F6946404617F035FB00280DD1404693
:108E400019F0C6FD0099486501460AA0FBF75FFFCF
:108E50000098416D002902DA9520BDE8F88386600C
:108E600005878487332107640170FFF7EFFD002039
:108E7000F3E700006C655F6465766963655F6B6549
:108E800079206973203A307825780A0070B50A4E47
:108E90000546002456F82400A84207D1A98907A056
:108EA000FBF735FF7F212846FFF7BFFD641CA4B206
:108EB000082CEFD370BD0000006C002047415454D3
:108EC00020636C69656E742074696D656F757420BC
:108ED00068616E646C652C2068616E646C6520301E
:108EE000782530327800000070B5044681890DA0E5
:108EF000FBF70DFF04F16000E4660546FDF784FD15
:108F0000224613492846FDF7B9FD47F2305240F298
:108F100081412846FDF796FD2846BDE87040FDF7E3
:108F200063BD00004741545420636C69656E742032
:108F300074696D656F75742073746172742C206828
:108F4000616E646C65203078253032780000000056
:108F50008D8E0000F8B515460A4606461C46694641
:108F60001046069F17F0AAFA00280BD1009800219E
:108F700086600587848741872B2107640170FFF78E
:108F800065FD0020F8BDF8B5144606460A460020E7
:108F900000901D466946104617F084FA002805D156
:108FA000E80704D0A079C00601D49820F8BDA8072E
:108FB00004D5A079800601D49920F8BD0098FFF768
:108FC00093FF0098866061888185A188C185A0F89B
:108FD0004E5023210170FFF739FD0020F8BD1CB56C
:108FE000049CCDE90034002300F001F81CBD2DE9FC
:108FF000F84315460A46DDE9087806461C466946E8
:10900000104617F05BFA00280BD100982D218660DE
:10901000058787874487C0F840800170FFF716FDF9
:109020000020BDE8F8831CB5049CCDE90034002382
:1090300000F001F81CBD2DE9F84315460A46DDE9AC
:10904000087806461C466946104617F037FA00288D
:109050000BD1009819218660058787874487C0F85F
:1090600040800170FFF7F2FC0020BDE8F883F8B5FE
:1090700015460A4606461C4669461046069F17F0E6
:109080001DFA002809D1009817218660058784877A
:1090900007640170FFF7DAFC0020F8BD7CB50E46CE
:1090A000002101911D46144601A917F0FBF9002883
:1090B00006D1019816F04EFEC01EA04201DA97209C
:1090C0007CBD019800952346818932465220FDF7E8
:1090D0002DFAC0B27CBDF0B5002423460125C65C44
:1090E000002205FA02F73E4207D08C4203D102EB80
:1090F000C300C0B2F0BD641CA4B2521CD2B2082A94
:10910000EFD35B1CDBB2052BE9D3FF20F0BD10B51C
:1091100080B216F0EDFFBDE810401BF055B900001D
:1091200000487047EC680200082803D2024951F851
:109130002000704700207047006C00204278891A98
:109140000844B0F8030070472DE9FC41164C18277D
:109150001E46D4F808C0BCF1000F11D04978D9B12F
:109160002178002579B1FCF74DFB237862882570C2
:10917000658002B039463046BDE8F04118F0ACB920
:1091800003230022F5E7002300950195B0F80401C0
:1091900002221946E04701E0FCF734FB1920307049
:1091A0000120BDE8FC810000AC0000202DE9FF4F4C
:1091B00087B01D46DDE914738946824600264FF0CC
:1091C000060B0124B0463A4629463248FBF79CFD7F
:1091D000BD4204D81DB1DAF82001009046E0012319
:1091E00051E06846FCF7DBFDBDF8080008B1A84275
:1091F0003CD3B8423DD8CEB158B14FF42051684667
:10920000FCF716FE28B942F601016846FCF710FE8D
:1092100060B1414620A0FBF777FD29F80480A41C2B
:10922000A4B209990026201D884222D8BDF8080062
:109230005FEA00081AD068461599FCF7F9FDA8B155
:10924000BDF810201698824210D105991798FBF7A7
:109250003AF958B9BDF8081016A0FBF755FDBDF84E
:10926000081029F80410A41CA4B2012600980028B4
:10927000B7D1012C06D0072189F8001020460BB089
:10928000BDE8F08F0A232A465946484618F024F9CB
:10929000F5E700006C690200456E64206F66206788
:1092A000726F75702C2068616E646C652030782553
:1092B00030347800426567696E206F662067726F90
:1092C00075702C2068616E646C65203078253034B0
:1092D000780000002DE9F04F87B09346109F884634
:1092E00081461E464FF0040A012400253A461946DD
:1092F00028A0FBF709FDBE4204D81EB1D9F8200111
:10930000009033E001233EE06846FCF748FDBDF8DD
:10931000080070B3B8422CD8B04227D3BDF806106D
:10932000880501D5102000E00220012C02D9A842B6
:1093300021D109E008D10546880501D5022100E0C8
:10934000012188F8011002246019801C584510D8AA
:10935000BDF8081028F80410A41CA4B208EB0400FF
:109360002A460399FBF776F8601984B20098002822
:10937000CAD1012C06D0052088F80000204607B08D
:10938000BDE8F08F0A2332465146404618F0A4F853
:10939000F5E700004154545F46494E445F494E464C
:1093A0004F524D4154494F4E5F52455155455354CC
:1093B0003A2066726F6D202530345820746F202556
:1093C000303458002DE9F04F2C4C8346B1F8015051
:1093D000B1F803A0A06889B0984691460E461627BA
:1093E00058B12A4602A95846FCF7D0FB38B1BDF85F
:1093F0000E00010701D5C00503D403231DE001239E
:109400001BE002A95846FDF75FF808B1034614E0D7
:10941000A9F10500711D80B2CDE90010D4F808C093
:10942000BBF80401534601222946E04710F0FF0330
:1094300019D0072B09D00D2B07D02A4639464046B4
:1094400018F04AF809B0BDE8F08F0D2B02D0072BB9
:1094500006D008E020780D2805D02370658002E052
:1094600020780028F9D04A4631464046FAF7F2FF04
:10947000172188F800104846E4E70000AC000020FF
:109480002DE9F04387B016460E9D0C4607469946D7
:109490004FF00C082A46194625A0FBF735FC4A4632
:1094A00001A93846FCF772FB28B1BDF80A00800715
:1094B00003D4022307E0012305E001A93846FDF7A4
:1094C00003F8030007D04A464146204618F004F846
:1094D00007B0BDE8F083B7F8041101A8FCF7DEFF80
:1094E000BDF81400A0F57F41FF3902D10020ADF88E
:1094F000140080B2A84201D20723E4E7401C401BBD
:10950000B04203DD7019401EADF81400B7F8040135
:109510000090BDF81400621C401B83B2294601A8CC
:10952000FCF7A6F9401C0D2180B22170D0E70000A5
:109530004154545F524541445F424C4F425F524553
:1095400051554553543A2068616E646C652025304E
:1095500034782C206F6666736574202575000000D2
:109560002DE9FF4F89B00024DDF858801020CDE9A7
:1095700006041E46894601252746A346A2464246C2
:1095800031463D480B9BFBF7BFFB46450DD866B106
:10959000DDE91701FCF7DAFFB0F5205F07D042F6EE
:1095A0000101884203D010235FE001235DE00998A8
:1095B000D0F8200100904BE06846FCF7F0FBBDF8C6
:1095C000080008B1B04243D3404544D817B358B15E
:1095D0004FF420516846FCF72BFC28B942F60101F4
:1095E0006846FCF725FCA8B129F805B0AD1CA8B267
:1095F00029F800A0801C85B209EB0500221F0799FD
:10960000FAF728FF2819001F85B20B98002729199F
:10961000814220D8BDF808005FEA000A18D0DDE9D1
:1096200017216846FCF7DFFB90B1BDF81000001D64
:1096300080B2012D02D9A0420FD104E003D104462B
:1096400089F801000225BDF808B0059801270790A8
:1096500000980028B0D1012D06D0112189F8001002
:1096600028460DB0BDE8F08F0A23324648460699D9
:1096700017F032FFF5E70000B46902002DE9FF4F53
:1096800087B08846149F81464FF0000A1D464FF070
:10969000080B012456463A4619463FA0FBF734FB17
:1096A000BD4204D81DB1D9F8200101905CE001232E
:1096B00066E001A8FCF773FBBDF80C00E8B3A84214
:1096C00052D3B84253D8DDE9152101A8FCF78BFB32
:1096D000A0B3BDF80A00800703D47EBBBDF80C60C0
:1096E00042E001A94846FCF7EFFE030002D0012C3E
:1096F0003FD845E0B9F8041101A8FCF7CFFEBDF84A
:109700001400A0F57F41FF392ED0801C80B2012CBF
:1097100002D982452DD104E003D1824688F80100A8
:109720000224099804EB0A0181420AD9022C20D8AC
:10973000001FADF81400801C01E018E014E088F868
:109740000100BDF80C1028F80410B9F80401A41C9D
:109750000090A4B2BDF8143008EB0402002101A867
:10976000FCF786F8204484B201980028A1D1012C8E
:1097700008D9092188F8001020460BB0BDE8F08F09
:109780002A4602E036B1022332465946404617F0D7
:10979000A3FEF2E70A23F3E74154545F52454144E4
:1097A0005F42595F545950455F5245515545535496
:1097B0003A2066726F6D202530345820746F202552
:1097C0003034582C20747970653A20002DE9FF4F11
:1097D00087B0884683461F464FF00E09012419467C
:1097E00028A0DDF850A0FBF78FFA002543E000BF6A
:1097F0003AF815605EB1324601A95846FCF7C6F941
:1098000028B1BDF80A00800703D4022307E0012332
:1098100005E001A95846FCF757FE030007D0324681
:109820004946404617F058FE0BB0BDE8F08FBBF834
:10983000041101A8FCF732FEBDF81400A0F57F4129
:10984000FF3902D10020ADF8140080B20119099847
:10985000814202D9401EADF81400BBF8040100900B
:10986000BDF8143008EB0402002101A8FCF700F851
:10987000204484B26D1CBD42BADB0F2188F8001071
:109880002046D1E74154545F524541445F4D554C09
:109890005449504C455F524551554553543A206EFA
:1098A000756D2068616E646C65732025750000001D
:1098B0002DE9F04387B015460C46064699464FF011
:1098C0000A081A4601A9FCF761F9074649461EA095
:1098D000FBF71AFA2FB1BDF80A00800703D4022360
:1098E00007E0012305E001A93046FCF7EDFD030088
:1098F00007D04A464146204617F0EEFD07B0BDE8C6
:10990000F083B6F8041101A8FCF7C8FDBDF81400F7
:109910004FF6FF71884201D10846EFE7401CA8428C
:1099200002D96D1EADF81450B6F804010090BDF8D0
:109930001430621C002101A8FBF79AFF401C0B2188
:1099400080B22170DAE700004154545F524541442F
:109950005F524551554553543A2068616E646C65B9
:1099600020253034780000002DE9F041154F804665
:10997000B1F80150B86888B016460C4600281ED0D1
:109980002A4602A94046FCF701F9002817D0BDF885
:109990000E00C10513D5400711D502A94046FCF7BA
:1099A00093FD00280BD1F61EE41CB0B2CDE90040B7
:1099B0000023BC68B8F804011A462946A04708B03D
:1099C000BDE8F081AC0000202DE9F047B1F801506E
:1099D00088B090460C461E4681464FF0120A2A4631
:1099E00002A9FCF7D3F850B1164FB86828B1BDF8FA
:1099F0000E00010701D5C00503D4032316E001239F
:109A000014E002A94846FCF75FFD03000ED1A8F15F
:109A1000030080B2E41CCDE90040BC68B9F8040141
:109A20001A462946A04710F0FF0307D02A465146A0
:109A3000304617F051FD08B0BDE8F08713203070B4
:109A40000120F8E7AC000020AFF300802DE9F041E1
:109A50001E4F002600F1130497F824103546491CC8
:109A600087F82410017CB9B1012923D0032917D02C
:109A7000042925D040F2A11215A10020FBF7B8FE61
:109A80000E202070E81C607097F82400A070A4F8E5
:109A90000360681DBDE8F081806811491B3804E04F
:109AA00080681049A0F540302B3801EBC000468893
:109AB0004578E5E780680C49A0F580301A38F4E76E
:109AC00080680A49A0F10410EFE70000207200202E
:109AD000626C655F686369635F6D73672E63000026
