:020000040200F8
:10200000007F0020D52200020523000225210002C6
:10201000092300020B2300020D2300020000000030
:102020000000000000000000000000003F2100024E
:102030001123000200000000992100027533000204
:102040001723000217230002653200021D2C000234
:102050000D2C0002C1330002B1330002A133000293
:1020600001340002D53000023D2B0002792D000220
:10207000B12D000217230002512B0002453200024D
:1020800095320002392D0002E1330002D133000203
:10209000292D0002192D0002BD2B0002692D00021E
:1020A000A530000217230002492D0002592D00021D
:1020B000353200022532000215320002F1330002EF
:1020C0000D300002FD2F000255320002F5300002F3
:1020D000E5300002B5300002C530000205310002D3
:1020E00015310002253100023531000217230002AC
:1020F00017230002172300022D2B00020200022CDE
:1021000000A00202DFF810D000F0ECF90048004710
:1021100031FB0102AFF300804C54002030B5804702
:1021200030BD00BF1EF0040F0CBFEFF30880EFF3CB
:102130000980816941F25522C0F2022210472C4BDE
:1021400019680868B0E8F04F80F30988BFF36F8F13
:102150004FF0000080F31188704700BF00000000BE
:1021600007480068006880F308884FF0000080F39B
:10217000148862B661B6BFF34F8FBFF36F8F00DF75
:1021800014000020DFF80C00016841F470010160C8
:10219000704700BF88ED00E0EFF30980BFF36F8F59
:1021A000134B1A681EF0100F08BF20ED108A20E9AB
:1021B000F04F106009B44FF0080080F31188BFF3AE
:1021C0004F8FBFF36F8F23F00BFF4FF0000080F3B2
:1021D000118809BC19680868B0E8F04F1EF0100FAC
:1021E00008BFB0EC108A80F30988BFF36F8F704787
:1021F00048000020EFF305807047000044F620609F
:1022000000BF401EFCD128472DE9FE5F0746EFF3D3
:102210001080EFF31181EFF31282EFF313830FB409
:1022200045F21820C2F20000224D0560EFF308814C
:10223000EFF30982EFF31483EFF3038441608260CC
:10224000C3600461781E0DD0B81E05D01A4801681D
:1022500041F0010101600AE01848016841F0010104
:10226000016004E01548016841F00401016042F298
:10227000FD10C0F200200047114841688268C36821
:10228000046981F3088882F3098883F3148884F34E
:102290000388BFF34F8FBFF36F8F0FBC80F310889D
:1022A00081F3118882F3128883F31388BDE8FE5FFF
:1022B000704700BF7922000204031140A8011040BA
:1022C0001852002040BA704740BA7047C0BA7047F1
:1022D000C0BA70471048016821F0020101600F4840
:1022E000016811F0010F21F00101016004D00C48D8
:1022F00080470C48006800470B4880470B48004760
:102300000B480047FEE7FEE7FEE7FEE7FEE7FEE7D5
:10231000FEE7FEE7FEE7FEE7080000401001104080
:102320008D59000218520020DD580002E5240002F9
:1023300031FB01022DE9F0035FEA930C6FD000BF7F
:1023400030F8024B31F8026B30F8025B31F8027B57
:1023500014FB06F84FEA684815FB07F9A8EB694833
:1023600022F8028B14FB07F4641415FB06F504EB4A
:10237000654422F8024B30F8024B31F8026B30F81A
:10238000025B31F8027B14FB06F84FEA684815FB44
:1023900007F9A8EB694822F8028B14FB07F46414D0
:1023A00015FB06F504EB654422F8024B30F8024BAE
:1023B00031F8026B30F8025B31F8027B14FB06F84F
:1023C0004FEA684815FB07F9A8EB694822F8028B29
:1023D00014FB07F4641415FB06F504EB654422F8BE
:1023E000024B30F8024B31F8026B30F8025B31F8E7
:1023F000027B14FB06F84FEA684815FB07F9A8EBC7
:10240000694822F8028B14FB07F4641415FB06F5E7
:1024100004EB654422F8024BBCF1010C90D113F09F
:10242000030304BFBDE8F003704700BF30F8024B60
:1024300031F802CB30F8025B31F8026B14FB0CF779
:102440007F1415FB06F8A7EB684722F8027B14FB04
:1024500006F4641415FB0CFC04EB6C4C22F802CB64
:102460005B1EE3D1BDE8F0037047000000F50050AB
:1024700000B20028BCBF00F5004000B281090B4B40
:10248000A0EB8110400233F9112003EB410100B2AF
:10249000C0F5004349885A43121410FB01F000EBC9
:1024A00002400014400000B270470000E88C0202B5
:1024B00081090B4BA0EB8110400233F9112003EB93
:1024C000410100B2C0F5004349885A43121410FB81
:1024D00001F000EB02400014400000B27047000021
:1024E000E88C0202064C074D06E0E06840F001036C
:1024F00094E8070098471034AC42F6D3FFF706FE85
:10250000E0960202009702022DE9F05F05460020E6
:1025100092469B4688460646814640241BE0284654
:1025200041464746224600F09EF853465A46C01A96
:10253000914110D311461846224600F085F82D1A15
:1025400067EB01084F4622460120002100F07CF88D
:1025500017EB00094E41201EA4F10104DFDC4846C0
:1025600031462A464346BDE8F09F00000649074A27
:102570000868504343F2390210440860400870472D
:102580000149086070470000D00300206D4EC6412D
:1025900010B5431A934209D28318881803E010F843
:1025A000011D03F8011D521EF9D210BD40EA0103BE
:1025B0009B0703D009E008C9121F08C0042AFAD2F9
:1025C00003E011F8013B00F8013B521EF9D210BDA7
:1025D000D2B201E000F8012B491EFBD27047002265
:1025E000F6E710B513460A4604461946FFF7F0FF12
:1025F000204610BD421C10F8011B0029FBD1801A97
:10260000704730B504460020034600E05B1C93424F
:1026100003D2E05CCD5C401BF8D030BD30B50B463A
:10262000014600202022012409E021FA02F59D4202
:1026300005D303FA02F5491B04FA02F52844151ED6
:10264000A2F10102F1DC30BD202A04DB203A00FABD
:1026500002F1002070479140C2F1200320FA03F3F9
:10266000194390407047202A04DB203A21FA02F0F7
:102670000021704721FA02F3D040C2F120029140BC
:102680000843194670472DE9FE4F804681EA030052
:10269000C00F0C46009021F0004123F00045B8EB3C
:1026A0000200A94105D24046214690461C460B46F1
:1026B000024623F00040104347D0270DC7F30A001D
:1026C000C3F30A510290401A019040286BDAC3F319
:1026D000130040F4801B0098924620B10023D2EBF7
:1026E000030A63EB0B0B01985946C0F140025046B8
:1026F000FFF7AAFF06460D4650465946019A00F0DC
:102700007BF910EB08006141002487EA115284EA4A
:10271000E7731A4340D0009A62B3019A012A4FEA44
:10272000075215DC001B61EB02014FF0004202EA88
:102730000752CDE90042001C41F5801132462B467C
:1027400000F07BF903B0BDE8F08F40462146F9E781
:10275000001B61EB0201001C41F5801300185B4176
:102760002018A2F5001747EB030140EAD570B6190F
:102770006D4111E06D084FEA360645EAC0754FEA33
:102780000752001B61EB0201001C41F58011490852
:102790004FEA30000019514132462B4603B0BDE8E4
:1027A000F04F00F03BB90098012240000023D0EB2D
:1027B000020263EBE073009821464FEAE074B8EB45
:1027C000000061EB0401E9E783F000435BE781F07F
:1027D000004158E72DE9FE4F81EA030404F000446C
:1027E00021F0004100944FF0000B23F0004350EA29
:1027F00001045ED052EA03045BD0C3F30A54C1F370
:102800000A552C44A4F2F3340194A0FB0254C1F302
:10281000130141F48011C3F3130343F4801301FB4C
:10282000024400FB034E840A970A44EA815447EAB3
:102830008357A4FB076802958D0A05FB07854FEABD
:10284000932C04FB0C542705029D4FEA065847EAD7
:102850001637B5EB08056EEB070C870E920E47EAAC
:10286000811742EA8312A7FB0201B6EB0B0164EB6E
:1028700000042B0D43EA0C335E1844EB1C50DA467F
:102880005146E7FB0201C5F313044FEA0B3343EA59
:1028900014534FEA0432019C43EA0603A4F10C04EA
:1028A0000294009CCDE900B400F0C7F803B0BDE885
:1028B000F08F00200146F9E72DE9F04D81EA03048D
:1028C00004F0004B21F0004514464FF0000A23F0BD
:1028D000004150EA050220D054EA01021DD0C5F3A0
:1028E0000A570246C5F31303C1F31300C1F30A5696
:1028F00040F4801543F48013A7EB0608101BD6465E
:1029000008F2FD3873EB050002D308F1010801E07D
:1029100092185B41B8F1000F03DA00200146BDE8D0
:10292000F08D00204FF48011064684460EE0171B00
:1029300073EB050705D3121B63EB050306434CEA53
:10294000010C49084FEA300092185B4150EA010738
:10295000EDD152EA030012D082EA040083EA0501B5
:10296000084305D0101BAB4106D20122002306E02C
:1029700000224FF0004302E06FF0010253101AEB07
:1029800006004CEB085110EB0A0041EB0B01BDE8CF
:10299000F04D00F043B8C1F30A52C1F3130140F205
:1029A000FF3341F480119A4202DA00200146704759
:1029B00040F233439A42A2F2334202DC5242FFF722
:1029C00052BEFFF741BE000030B5041E71F1000495
:1029D00004DB4FF00044404264EB0101141E73F12C
:1029E000000405DB1C464FF00043524263EB040336
:1029F000994208BF904230BD202A06DBCB17203A0F
:102A000041FA02F043EAE07306E041FA02F3D040F3
:102A1000C2F12002914008431946704710B5141EB8
:102A200073F1000408DA401C41F1000192185B4187
:102A30001A4301D120F0010010BD2DE9F04D92465E
:102A40009B4611B1B1FA81F202E0B0FA80F2203275
:102A50009046FFF7F9FD04460F4640EA0A0041EAB6
:102A60000B0153465A46084313D0114653EA01005E
:102A700019D0C8F140025046FFF7F5FD05460E4655
:102A8000504659464246FFF7DFFD084305D0012076
:102A900004E020463946BDE8F08D0020054346EAB3
:102AA000E0762C4337430A986305E40AA0EB08005C
:102AB0000022FD0A44EA47540A3002D500200146AC
:102AC000E9E7010510196941DDE908450019694187
:102AD000BDE8F04DA2E770B58C1810F8015B15F059
:102AE000070301D110F8013B2A1106D110F8012B80
:102AF00003E010F8016B01F8016B5B1EF9D12B07A5
:102B000005D40023521E0DD401F8013BFAE710F85A
:102B1000013BCB1A921C03E013F8015B01F8015B47
:102B2000521EF9D5A142D8D3002070BD02482421FD
:102B3000806807F0F1BB0000000000200348016836
:102B400041F02001016001201DF0ACBC00001340E9
:102B500002480921806807F0DFBB00000000002068
:102B600070B51349D1E9000106F0C8FB002002F05E
:102B700039FB104C4FF0FF360F4D11E02078000666
:102B800004D500221146042022F06AFA02F040FB2C
:102B90002078000604D500221146052022F060FAB4
:102BA0003146286823F07CFF0028E7D170BD000083
:102BB000387302024000002010000020024810215B
:102BC000806807F0A9BB00000000002004480068EE
:102BD0000122C0F308010920891E07F0C5BB0000CF
:102BE00004ED00E003480068C00501D122F03EBEBC
:102BF0007047000004ED00E003480068C00501D103
:102C000022F056BE7047000004ED00E002480121AA
:102C1000806807F081BB000000000020024802210C
:102C2000806807F079BB00000000002010B5C36881
:102C3000D9B280290FD98468E06800B101204B2205
:102C400013A101F0A7FBE16819B12069BDE81040AC
:102C5000084772B6FEE70446008A616982B2D8B2BC
:102C6000124B1B68984706F059FF00280FD1E06807
:102C7000022806D004280AD1A069BDE8104006F059
:102C800047BFA08BA169BDE8104006F03FBF10BD53
:102C90004863695F696E7465726E616C5F747261BE
:102CA0006E73706F72742E6300000000BC01002010
:102CB0001FB541680A2914D007DC09B105291FD1C5
:102CC00004B0BDE81040FFF7B1BF0B2919D00C29A3
:102CD00016D1018AC268406904B089B2BDE81040CB
:102CE00010470C491EC98DE81E00C1680191416959
:102CF0000291008AADF80C001021684606F046FDEE
:102D00001FBD018A8AB24169C06804B0BDE81040A5
:102D100008F0DEBB5C76020202480E21806807F0F4
:102D2000FBBA00000000002002480F21806807F075
:102D3000F3BA00000000002002480B21806807F071
:102D4000EBBA00000000002002481221806807F062
:102D5000E3BA00000000002002481321806807F059
:102D6000DBBA00000000002002481121806807F053
:102D7000D3BA00000000002070B50B4D686D40060E
:102D800011D52C6E402002F029FE286EA043286643
:102D9000002C08D005480078400604D52046BDE840
:102DA000704022F07BB970BD00001140400000204F
:102DB0002DE9F04F814EDFF808B2DFF808828FB0BE
:102DC0004FF0000A42F26C59B06D0A90706D4D469A
:102DD0000A9C0B902C402840A04208D098F8000094
:102DE000800604D508220AA9052022F0BDF9002C8E
:102DF00073D098F80000000604D5E1B2220A08203A
:102E000022F02EF9204602F0E9FD0027A946A0068F
:102E100002D5012002F01EFAA00401D516F0B0FA86
:102E200060077DD5D6F80C51002D7DD045EA0B0505
:102E30002D1F049595F8C6008DF8180095F826000A
:102E40008DF81900D5F8BC000590D5F8B800B5F894
:102E5000C620C3B28246D1B2032B02D0042B2FD19D
:102E600026E0052906D016291CD017291AD01829C2
:102E700026D117E05448016B0291097901F00F0146
:102E800007291DD102994979890619D50021C6F86B
:102E90000C11806B16F04CFA4B480299103012F06E
:102EA00079FD21E00020C6F80C01D5F8C00019E03A
:102EB0004649CAF30B2051F8200008B1172A0DD05B
:102EC000524604A94FF4003016F00FFB47B300BF81
:102ED00095F8B800032810D10DE06BE00021C6F88A
:102EE0000C11406910F0BCFB0127524604A978047C
:102EF00016F0FBFAECE712F0B7FD8FB1E00513D442
:102F0000756D05EA0905284602F068FD42F20400E5
:102F100084432C434FF4A0722DA1C4F3002000E0A1
:102F200002E001F037FA72E7600502D503201DF0D8
:102F3000B9FA600615D5356E35B198F8000040062F
:102F400002D5284622F0AAF8280E800709D5D6F81F
:102F50000C0130B140EA0B0010F8C01F41F0010134
:102F60000170E0051BD5C7B1049830F8681FADF8B3
:102F70001C104188ADF81A109DF81900814204D246
:102F8000ADF81A000020ADF81C00524604A94FF01D
:102F9000021016F0AAFA600601D515F0A5F998F806
:102FA000000000067FF510AFE1B2220A092022F0EE
:102FB00057F809E70FB0BDE8F08F0000000011409E
:102FC0000000104040000020404E002030540020FF
:102FD0006474626C652E6300074A131D5980116882
:102FE00060F307011160106840F400701060106811
:102FF0008005FCD4704700000804114002481C21E1
:10300000806807F089B900000000002002481B21F9
:10301000806807F081B900000000002000F01F0266
:10302000012191404009800000F1E020C0F88012A9
:10303000704700F01F02012191404009800000F11B
:10304000E020C0F800117047C906090E002806DA12
:1030500000F00F0000F1E02080F8141D704700F12F
:10306000E02080F800147047024A114001430248F2
:103070000160704780FFFF1F08ED00E000B589B0D8
:103080001EF0C4FC816803910021CDE901100448C1
:103090000B464A1E6946006823F086F909B000BD58
:1030A0002C00002002481421806807F035B9000088
:1030B0000000002002481521806807F02DB90000AB
:1030C0000000002002481621806807F025B90000A2
:1030D0000000002002480721806807F01DB90000A9
:1030E0000000002002481E21806807F015B900008A
:1030F0000000002002481D21806807F00DB9000083
:103100000000002002481F21806807F005B9000078
:103110000000002002482021806807F0FDB8000070
:103120000000002002482121806807F0F5B8000067
:103130000000002002482221806807F0EDB800005E
:10314000000000202F492E48C1F890012E48C1F8F8
:1031500094014FF40040086342F2412048632B4839
:10316000826942F080428261026922F07F7202F538
:1031700040020261826922F4700202F580128261CB
:10318000826942F47022826182696FF30F02103209
:1031900082614A6A22F4601202F500224A624A6A97
:1031A00022F4F85202F500724A62826922F07C52DF
:1031B00002F1C8528261D1F8602122F4FC0202F5CA
:1031C000B402C1F86021016801680E2262F31F7128
:1031D00001608168C90D21F0F00141F03002816881
:1031E00062F3DE518160C168C168022262F38A1114
:1031F000C16001680168092262F3440101607047FF
:1032000007060204000010400103040500201040DE
:103210007047000002481721806807F07DB8000061
:103220000000002002481821806807F075B80000EF
:103230000000002002481921806807F06DB80000E6
:103240000000002002480821806807F065B80000EF
:103250000000002002482321806807F05DB80000CC
:103260000000002002480021806807F055B80000E7
:1032700000000020014800F003B80000B800104032
:10328000014608680A688242FBD10A688242F8D186
:103290007047000002480A21806807F03DB800002E
:1032A00000000020014948727047000050010020D2
:1032B00010B54FF080446068400409D500F00CF868
:1032C000216811F00F0100D10121B0FBF1F010BD18
:1032D000004810BD00366E010C48D0F8A801C002AD
:1032E00011D54FF08041086C0A6CC0F34500C2F361
:1032F000C53210FB02F0064A096CB2FBF0F0C1F3D4
:10330000C71148437047002070470000000010407C
:1033100000366E014FF08041012806D0022803D10B
:10332000C86820F08000C8607047886820F4844036
:10333000886070474FF08041012806D0022803D1F1
:10334000C86840F08000C8607047886840F48440D6
:10335000886070474FF08041012806D0022803D1D1
:10336000C86840F08000C8607047886840F48440B6
:103370008860704710B5082080F31188BFF34F8F25
:10338000BFF36F8F23F024FD18B104494FF0805034
:103390000860002080F3118810BD000004ED00E0FB
:1033A00002480321806806F0B7BF0000000000203B
:1033B00002480421806806F0AFBF00000000002032
:1033C00002480521806806F0A7BF00000000002029
:1033D00002480C21806806F09FBF0000000000201A
:1033E00002480D21806806F097BF00000000002011
:1033F00002481A21806806F08FBF000000000020FC
:1034000002480621806806F087BF00000000002007
:103410000FB4054B10B503A9044A029800F0FEF85A
:1034200010BC5DF814FB000069620002D4030020A8
:103430000FB4084B10B504A902AA039800F0EEF8E7
:10344000044602A9002000F097FE204610BC5DF85B
:1034500014FB000079410002014B024A00F0E0BA7F
:1034600069620002D40300207047704770477047BC
:10347000704770477047704702E008C8121F08C1C4
:10348000002AFAD170477047002001E001C1121FE5
:10349000002AFBD1704700002DE9FF5F82B00021B8
:1034A000DDE90430020DDDF840B0034318D044F6E6
:1034B0001050A2F2FF3242431514119801281FD078
:1034C000A5EB0B00401C5FEA000A4FF000064E4FD0
:1034D000DFF83891B046504615D5CAF1000413E024
:1034E000119801244AA3012801D16FEA0B01029827
:1034F000119AC0E90031C0E9024206B0BDE8F09F70
:10350000CBF10000DFE704460021404A491842EBB6
:103510000450CDE9001012E0E00707D032463B46E8
:1035200040464946FFF756F98046894632463B46B3
:1035300010461946FFF74EF906460F466410002C58
:10354000EAD1DDE90401DDE90023BAF1000F06DA72
:10355000FFF740F942464B46FFF73CF905E0FFF71D
:10356000ABF942464B46FFF7A7F904460E46002248
:10357000284BFFF729FA03D84FF0FF30014607E048
:103580000022254B20463146FFF77DF8FFF703FA6E
:10359000102409E0002C0ADB0A220023FEF7B4FF06
:1035A000039B30321A55641E50EA0102F2D1641CAA
:1035B000039AC4F111031444119A012A03D0012281
:1035C00008430DD10AE0084304D000204FF0110B4E
:1035D000119072E7A3EB0B056D1E0DE05B4504DD5A
:1035E0004FF0000205F1010504E003DA4FF000029C
:1035F000A5F10105002AECD002981199C0E9023129
:10360000C0E9004579E70000000014400000F03FE9
:10361000300000000000F0430000E03F2DE9FF4FC4
:103620008DB00F460546002606E025280BD0DDE9C3
:103630000F1290476D1C761C28780028F5D111B028
:103640003046BDE8F08F0024A246A1460122E94998
:1036500000E0044315F8013F203B02FA03F0084262
:10366000F7D128782A2810D06FF02F022878A0F1FF
:103670003001092914D80AEB8A0102EB410144F018
:10368000020400EB010A6D1CF0E701CF5FEA000ABB
:1036900003D544F40054CAF1000A44F002046D1C3E
:1036A00028782E2817D115F8010F44F004042A2891
:1036B0000ED06FF02F022878A0F1300109290AD826
:1036C00009EB890102EB410100EB01096D1CF2E7F6
:1036D00057F8049B6D1C28786C280FD006DC4C280A
:1036E00017D068280DD06A2814D104E0742810D0AF
:1036F0007A280FD10DE044F400140AE044F4801459
:1037000001E044F440146978814202D104F5801448
:103710006D1C6D1C28786E281ED00CDC632830D000
:1037200004DC00288BD0582811D19FE0642867D092
:1037300069280CD164E073282DD004DC6F2872D086
:10374000702804D194E075286ED078286DD0DDE91A
:103750000F129047761C4BE1C4F30250022806D0AA
:10376000032809D0042801CF09D0066040E101CF29
:10377000F117C0E900613BE101CF068038E1067036
:1037800036E117F8040B8DF8000000208DF80100D9
:10379000EB46012003E057F804BB4FF0FF30610710
:1037A0004FF0000102D40DE008F1010188464945BF
:1037B0000FDA8045F8DB1BF808100029F4D108E087
:1037C00008F1010188468142FADB1BF80810002944
:1037D000F6D1DDE90F23AAEB08008146214600F06F
:1037E0009DFC304400EB080604E0DDE90F121BF8F5
:1037F000010B9047B8F10108F7D221464846F2E0A4
:103800000A21C4F302524FF0000B0891022A04D09F
:1038100001CFC117032A09D00AE0FF1D27F00707CF
:10382000F7E8020108E02CE01EE01FE000B2C1173B
:10383000042A01D140B2C117021E71F1000206DA5A
:103840000023D0EB030063EB01012D2202E02205EF
:1038500004D52B228DF82420012203E0E20701D0B9
:103860002022F7E7904653E00A210BE0102109E0FF
:1038700010214FF0000B44F004044FF008090891A8
:1038800003E008214FF0000B0891C4F30252022A12
:1038900004D001CF0021032A06D006E0FF1D27F047
:1038A0000707F7E8020103E080B2042A00D1C0B2A2
:1038B0004FF0000822072BD52A78702A07D0DDF8B0
:1038C00020C08CF0100C5CEA0B0C05D00EE04022FE
:1038D0008DF82420012208E050EA010306D03023AD
:1038E0008DF824308DF8252002229046089B83F025
:1038F000080353EA0B030BD150EA010201D162071E
:1039000006D530228DF824204FF00108A9F10109D5
:103910002A78582A04D038A20B9208AA0A920BE0FF
:103920003AA2F9E75B46089AFEF7EEFD0B9B9B5C1B
:103930000A9A521E0A92137050EA0102F2D10A98B2
:10394000ADEB000000F1200B600702D524F48034B9
:1039500001E04FF00109D94502DDA9EB0B0000E0C1
:10396000002000EB0B0141440890AAEB010AE003A0
:1039700006D4DDE90F232146504600F0CFFB064474
:103980004FF0000908E009A911F80900DDE90F125C
:10399000904709F10109761CC145F4DBE0030CD521
:1039A000DDE90F232146504600F0B8FB064404E051
:1039B000DDE90F1230209047761C0899481E0890C8
:1039C0000029F5DC08E00A980A990078491C0A9158
:1039D000DDE90F129047761CBBF10001ABF1010B42
:1039E000F1DC21465046DDE90F2300F073FB06446D
:1039F0006D1C21E609280100303132333435363769
:103A0000383961626364656600000000303132332A
:103A100034353637383941424344454600000000CA
:103A20002DE9FF4F95B09A46884606460025EEE1FF
:103A3000252877D100242746F94A0121039400E084
:103A4000044316F8013F203B01FA03F01042F7D17E
:103A500030782A2811D06FF02F033078A0F130028F
:103A6000092A16D8039A44F0020402EB820203EBFF
:103A700042021044761C0390EFE758F8042B03929F
:103A8000002A03DA504244F40054039044F0020444
:103A9000761C30782E2816D116F8010F44F0040455
:103AA0002A280DD06FF02F023078A0F13003092BB7
:103AB00009D807EB870302EB4303C718761CF3E72B
:103AC00058F8047B761C30786C280FD006DC4C2824
:103AD00017D068280DD06A2814D104E0742810D0BB
:103AE0007A280FD10DE044F400140AE044F4801465
:103AF00001E044F440147278824202D104F580144B
:103B0000761C761C307866280BD013DC582877D0CA
:103B100009DC002875D04528F6D04628F4D047287F
:103B20001AD193E118E0632835D0642879D065284C
:103B300012D18BE1702873D008DC6728F1D0692896
:103B40006FD06E280DD06F2806D1ACE073282CD032
:103B5000752874D0782853D05246179990476D1C19
:103B600054E1C4F30250022809D003280DD0D8F83C
:103B7000001004280DD00D6008F1040846E1D8F8C3
:103B80000010EA17C1E90052F6E7D8F800100D80DE
:103B9000F2E70D70F0E718F8041B8DF80010002014
:103BA0008DF80100EB46012003E058F804BB4FF00C
:103BB000FF3061074FF0000102D40DE009F101016F
:103BC0008946B9420FDA8145F8DB1BF80910002954
:103BD000F4D108E009F1010189468142FADB1BF8C2
:103BE00009100029F6D103985346A0EB0907214696
:103BF0003846179A00F0A9FA284400EB090507E0B7
:103C000044E008E10DE01BF8010B5246179990477C
:103C1000B9F10109F7D2534621463846179AF2E026
:103C200039E00A21C4F302524FF0000B0091022A3E
:103C300006D058F8040BC117032A09D00AE023E084
:103C400008F1070020F00702F2E80201904605E0C3
:103C500000B2C117042A01D140B2C117002906DA07
:103C60000A460021404261EB02012D2202E02205BA
:103C700004D52B228DF80420012203E0E20701D0B5
:103C80002022F7E7914657E00A2100E010214FF08B
:103C9000000B00910BE010214FF0000B44F00404E6
:103CA0000827009103E008204FF0000B0090C4F3B8
:103CB0000252022A05D058F8040B0021032A08D02A
:103CC00008E008F1070020F00702F2E80201904640
:103CD00003E080B2042A00D1C0B24FF000092207ED
:103CE0002AD53278702A07D0DDF800C08CF0100C8D
:103CF0005CEA0B0C05D00EE040228DF80420012276
:103D000008E050EA010306D030238DF804308DF826
:103D1000052002229146009B83F0080353EA0B031F
:103D20000AD150EA010201D1620705D530228DF88F
:103D300004204FF001097F1E3278582A04D039A29E
:103D40000C920CAA02920BE03BA2F9E75B46009AA8
:103D5000FEF7DAFB0C9B9B5C029A521E02921370D8
:103D600050EA0102F2D1029804A9081A00F1200BCE
:103D7000600702D524F4803400E001275F4502DDAE
:103D8000A7EB0B0000E0002000EB0B010090039874
:103D90004944401A0390E00306D453462146179A3B
:103DA000039800F0D2F90544002706E001A8524626
:103DB000C05D179990476D1C7F1C4F45F6DBE003F3
:103DC0000CD553462146179A039800F0BEF90544D6
:103DD00004E030205246179990476D1C0099481E08
:103DE00000900029F5DC08E002980299524600781C
:103DF000491C0291179990476D1CBBF10001ABF172
:103E0000010BF1DC5BE100F077F90544761C3078BA
:103E100000287FF40DAE19B02846BDE8F08F0000F1
:103E20000928010030313233343536373839616290
:103E30006364656600000000303132333435363754
:103E4000383941424344454600000000600700D431
:103E5000062708F1070020F00700F0E8022380465B
:103E600003F0004C5FEA0C0001D097A009E02005A8
:103E700001D596A005E0E00701D095A001E0AFF2E2
:103E80004C001390307823F0004365280CD006DCFA
:103E9000452809D046281DD047287FD13BE0662819
:103EA00018D067287AD136E00021112F01DB1120CC
:103EB00000E0781CCDE9000104A90CA8FFF7ECFA9A
:103EC000DDE90D010C9A4FF0000B07F1010910928A
:103ED00000914EE04FF000400097CDE9011004A999
:103EE0000CA8FFF7D9FADDE90D020C9B0F994FF0F2
:103EF000000B91461093009211B9791C00EB010957
:103F0000B7EB090003D4C0F1FF3B07F10109A9EBAE
:103F10000700019042E0012F00DA01270021112F54
:103F200001DD112000E03846CDE9000104A90CA80C
:103F3000FFF7B2FADDE90D010C9A00914FF0000B8A
:103F4000B946109221070FD4009A4A4503DA9146E8
:103F500001E0A9F10109B9F1010F05DD109AA9F1FC
:103F60000101515C3029F4D0B84202DA10F1040F9B
:103F700003DA0121CDE9011010E0002803DC8344BD
:103F8000A9EB000102E0411C494500DD8946A0EB98
:103F90000B00401C01904FF000400290200705D418
:103FA0000198484502DB4FF0FF30019000208DF86A
:103FB0004B0002980DF14B07B0F1004F25D00220C5
:103FC0000C902B200D90029800280CDA40420290B1
:103FD0002D200D9007E00A210298FEF71FFB3031DB
:103FE000029007F8011D0C99481E0C900029F2DC84
:103FF00002980028EFD1791E0D980870307800F0F3
:10400000200040F0450007F8020D11A8C01BC01D9C
:1040100002901398007800B1012000EB090101988B
:1040200001EBE071029801440398401A401E03908E
:10403000E00306D453462146179A039800F085F80A
:1040400005441398007818B15246179990476D1C93
:10405000E00323D553462146179A039800F075F8DC
:1040600005441BE0BBF1000F07DB0098584504DD59
:104070001098179910F80B0001E01799302052465C
:10408000904701980BF1010B401E05F101050190CD
:1040900004D12E205246179990476D1CB9F10001AA
:1040A000A9F10109DEDC05E017F8010B524617996A
:1040B00090476D1C0299481E02900029F4DC53467B
:1040C0002146179A03989EE62D0000002B00000061
:1040D000200000002DE9F041044600251E46174649
:1040E000880404D405E039462020B0476D1C641EC6
:1040F000F9D52846BDE8F0812DE9F04104460025B8
:104100001E461746880404D405E039462020B047EF
:104110006D1C641EF9D52846BDE8F0812DE9F041FB
:10412000044600251E469046C80301D5302700E00E
:104130002027880404D505E041463846B0476D1C69
:10414000641EF9D52846BDE8F0812DE9F04104460A
:1041500000251E469046C80301D5302700E02027E1
:10416000880404D505E041463846B0476D1C641EFE
:10417000F9D52846BDE8F0810A68531C0B60107021
:10418000704700002DE9F05F064600880B46C0F33B
:104190000B00834605F068FA0400707875884FEAD2
:1041A00010170AD005F10408984509D02A1DBDE86A
:1041B000F05F19463448FFF75BB9594633A01DE05C
:1041C00001F0EEF907F00301002740F2031A6063E3
:1041D000012903D002292BD03BA00FE0A08F58B1BA
:1041E0004119B1F5827F0DD35B4652464648FFF731
:1041F0003FF9A787BDE8F09F594644A0BDE8F05FAE
:10420000FFF736B9A16B2A460844311D0E30FEF780
:10421000BFF9A08F284481B2A187E08F0830814286
:104220002ED3A06B0E3005F08BFAE787A78727E027
:10423000A08F20B159464448FFF71AF9A787B788DD
:10424000381D8146854205D31FFA88F1304605F0B6
:1042500077FA15E0FF2D07D95B465246291DBDE8C8
:10426000F05F3A48FFF704B9A06B2A1D31460E30C3
:10427000FEF78EF9A4F83C80E787A16BA1F81090B7
:10428000BDE8F05F05F090BDA49302026863692E5B
:10429000633A2061636C5F68616E646C6572206371
:1042A000616C6C65642077697468206E6F6E2D7226
:1042B0006567697374657265642068616E646C65B6
:1042C00020257521000000006863692E633A206193
:1042D000636C5F68616E646C65722063616C6C65B1
:1042E00064207769746820696E76616C69642070F7
:1042F00061636B657420626F756E646172792066AC
:104300006C616773202575006094020241434C2064
:10431000436F6E7420467261676D656E74206275BE
:1043200074206E6F20666972737420667261676DA7
:10433000656E7420666F722068616E646C652030F3
:10434000782530327800000050930202B4940202C3
:1043500070B5054607484469241D04EBC500426852
:10436000002A05D1416088001DF0D0FA44F83500DC
:1043700070BD00000000002010B505494FF6FF7326
:1043800002E084788C54C01C02889A42F9D110BD96
:104390000000124010B50B46002803D11146184604
:1043A00008F08AFB10BD70471CB506498C68002CCC
:1043B00007D0002100910191B0F806010B460322BD
:1043C000A0471CBDB000002070B50D46002821D1CB
:1043D000042D1FD2104C4FF4947654F8250020B9C8
:1043E000304600F0E3FF44F82500040012D03146C7
:1043F0002046FEF7F4F8A4F8065104F5807128462B
:1044000003F062F807F062F8A4F802014FF0FF3001
:10441000A4F8080170BD0000504B0020F8B5164606
:10442000028A069F521A94B2C288D2050AD50B4A54
:1044300055683DB1009300890A4601463346384627
:10444000A847F8BD9C4200D91C4640692246014459
:104450003046FEF79DF82046F8BD0000B000002071
:10446000042106F031B9042107F040B9024908607F
:104470000421024807F0B0B8BC000020E149000266
:10448000024948600421024807F0A6B8BC00002099
:10449000E1490002042106F017B9042107F026B90A
:1044A00000B58BB0D0F82401009023E0684600F0FE
:1044B00035FABDF8081000291ED0BDF806200FA05F
:1044C000FEF7D2FFBDF806008005039808D506A9BF
:1044D0001DF0A6FB06A821F06DF8014611A001E031
:1044E000018811A0FEF7C0FFBDF8101010A0FEF764
:1044F000BBFF00980028D9D10BB000BD48616E64A5
:104500006C653A203078253034782C20666C6167F1
:10451000733A203078253034782C20757569643AE8
:1045200020000000257300002530347800000000D2
:104530002C2076616C75655F6C656E3A2025752C54
:104540002076616C75653A2000000000064A30B4A0
:104550001468002C06D00B46A4460246002130BC4D
:104560000420604730BC7047C40000207CB514466E
:10457000042819D120783E283FD016DC052853D0D6
:10458000082801D030280FD1B2F80350284600F097
:10459000CBF8040008D028461EF0CDFA04F8FD0F31
:1045A00028461DF083FF60707CBDD72859D0D828DD
:1045B00048D0DA28F8D1608800F0B6F80500F3D0CA
:1045C000B5F8060105F050F80600EDD02079317AF3
:1045D0008842E9D16946601D1DF034FB0622314650
:1045E0006846FEF70EF80028DED1E07A85F8FF0075
:1045F000B5F80601FFF751FF7CBDA078012801D076
:104600000A28F9D1D41C9188D078FFF7DDFEB4F8E0
:10461000010000F089F80500EED0B4F801001EF0AA
:10462000F3FEA5F808017CBDB2F80340204600F077
:104630007BF80028F7D000F0BBFE1049002041F8BD
:1046400024007CBD608800F06FF80500F9D0B4F854
:104650000B0001B2A5F8081109A0FEF706FF2846D5
:1046600008E0508800F060F80028EAD04FF0FF31F1
:10467000A0F8081100F096FA7CBD0000504B002015
:10468000534D5F4556454E545F4944454E54495439
:10469000595F5245534F4C56494E475F535543431C
:1046A0004545444544206964202575003EB50C46C7
:1046B0008DF8080000208DF8092000900190022359
:1046C00002AA0421204607F00DFA3EBD7FB50DF188
:1046D000200C14469CE864008DF80800ADF8093001
:1046E000ADF80B20ADF80D10CDE90056072302AA56
:1046F0000421204607F0F6F97FBD70B515000C4681
:1047000003D0D0F82401206008E0002070BD2046CE
:1047100000F004F92089A84203D020680028F6D1CF
:1047200070BD012070BD0000042803D2024951F879
:104730002000704700207047504B00202DE9FF41BA
:104740000F7815460024B0F800214E1DBC460E2FF0
:1047500074D00BDCA7F102070B2F15D2DFE807F0AE
:104760001C142E1438144B145C146300182F6FD0D3
:1047700006DC102F70D0122F7FD0162F04D181E0CD
:10478000522F68D0D22F66D0614646A0FEF76CFE4D
:1047900004B02046BDE8F081B1F80110B0F8022164
:1047A0008A4202D9A0F8001101E0A0F800210324F8
:1047B0001C70B0F80001A3F80100E9E71C46B1F84D
:1047C00003300093B1F80130214603F043FC10E0C0
:1047D0001C46ED1FB1F80570B1F80360CB1DADB2FA
:1047E000CDE90253CDE90067B1F80130214603F06D
:1047F0009DFB0446CCE70C461946072D01D8022341
:1048000000E01023B4F80350CDE900530296B4F849
:10481000013003F0FFFDECE71C46B1F80130214602
:1048200003F014FFE5E71C46B1F803300093B1F83C
:104830000130214603F0E4FCDBE7FFE71C46491C9E
:104840006D1E0091C5F34F03214603F08DFED0E7A6
:104850001DE001E011E01FE00C461946072D01D8CC
:10486000022300E01023B4F80350CDE90053029670
:10487000B4F8013003F034FDBBE700922A4603F0A0
:1048800071FFB6E700922A4603F05CFCB1E70092A4
:104890002A4603F019FBACE700922A4603F032FFE8
:1048A00076E70000556E68616E646C656420415463
:1048B0005420436F6D6D616E643A20253032582C60
:1048C00020444154413A20001CB50B4B1C68002C7D
:1048D00010D0B6238DF8003005238DF801308DF807
:1048E0000200ADF80310ADF80520072300216A4649
:1048F0000420A0471CBD0000C400002010B580B2F9
:10490000FFF712FF002808D0B0F80A21B0F806110E
:10491000BDE810409120FFF7D7BF10BD10B501686A
:104920000A8882806AB14B88C3808C8804818C1D80
:10493000C4609B050CD5A2F11603038201F1160396
:104940000BE00021C1800181C1600182416106E06C
:10495000A2F10803038201F10803114443610160DD
:1049600010BD70B5044600890D4600281BD0022AF0
:1049700008D0E08880050BD51022E068FDF741FEE5
:1049800080B111E009882046BDE8704000F00EB803
:10499000084605F045FD002805D0E168A88909888A
:1049A000884201D1012070BD002070BD70B5044661
:1049B00000890D46002810D0E0888005E06808D501
:1049C00005F02EFD002808D0E0688089A84203D0B9
:1049D00004E00088884201D1012070BD002070BD34
:1049E0002DE9F041194C06461F4615468846042815
:1049F00009D0082E28D12878C00720D0D4F800C0CC
:104A00001FE03046E047287878281DD1D4F804C04C
:104A1000BCF1000F08D03B462A4641463046E047ED
:104A200004F01EFD00280FD02468002C0CD03B465B
:104A30002A4641463046A446BDE8F0416047D4F8D6
:104A400004C0BCF1000FDCD1BDE8F081BC00002047
:104A50002DE9F0410F461546044601461E461278E0
:104A600028A0FEF702FD042C0CD0082C48D13846B3
:104A7000FFF75AFE040043D029781E2909D0522995
:104A800019D01FE0287878283AD1BDE8F04100F02D
:104A900011B9B4F80A01A8B104F5867000F082FDDE
:104AA000B4F80A210020A4F80A01B4F80611BDE800
:104AB000F041FFF709BF32462946BDE8F041002327
:104AC000FFF73CBEFB2E06D93246BDE8F041FB2382
:104AD0001948FEF7CABC227822B1BDE8F041174858
:104AE000FEF7C3BC01202070A4F8046132462946B9
:104AF000A01CFDF74DFD2046BDE8F04100F052B886
:104B0000BDE8F0816174745F7061636B65745F68A8
:104B1000616E646C65723A20747970652030782516
:104B20003032782C207061636B65745B305D2030AF
:104B300078253032780000003C920202F0910202A7
:104B400010B5B0F80001029CC01E80B21970A3F825
:104B50000120844200D8204610BD1FB514468DF8B0
:104B60000800069AADF80930ADF80B20ADF80D102D
:104B7000002000900190072302AA0421204606F09D
:104B8000B1FF1FBD3EB50C468DF80800ADF80920F9
:104B9000002000900190032302AA0421204606F081
:104BA000A1FF3EBD2DE9FF410446017824A0FEF798
:104BB0005CFC207801282DD1A078D22808D00320D1
:104BC0002070B4F8060104B0BDE8F041FFF765BC01
:104BD0001DF05CFE0027E0B1B4F804010F2818D3E3
:104BE000B4F806011EF048FA002813D1B4F9080100
:104BF00007F02AF905000CD0B4F80411A4F10A005A
:104C00000E58696C324611A0FEF72FFC686CB0425A
:104C100002D92770BDE8FF8102202070B4F803207C
:104C20001749601DCDE90006CDE90214B4F804016E
:104C3000A1780F3883B205F134001DF031FEE9E7A9
:104C40006174745F72756E3A20256400415454207B
:104C50005369676E65642057726974652C204442FD
:104C600020636F756E7465722025752C20706163EA
:104C70006B657420636F756E746572202575000016
:104C8000454F0002FFF706BC0EB50B21CDE900230E
:104C90008DF80810012302AA042106F023FF0EBD9F
:104CA00000B5FFF741FD10B1B0F8000100BD1720BD
:104CB00000BD00002DE9F8430025144F144EA8460E
:104CC00057F82540E4B1207803280BD1204600F0A6
:104CD000A7F838B1607898B1B4F80601BDE8F84398
:104CE000FFF7DBBB607858B10AA084F80180006848
:104CF0000090346824B1022300216A460420A047B2
:104D00006D1C042DDCD3BDE8F8830000504B00205F
:104D1000C4000020B70000002DE9FE431F461646E0
:104D20000D468046FFF700FD040005D0B4F80A01E7
:104D300020B19020BDE8FE835920FBE74046FFF7F5
:104D4000A9FB88B102AB2A461D2120460097FFF738
:104D5000F7FECDE90060032302AA0421404606F0D5
:104D6000C1FE060002D014E05720E3E7A4F80A5180
:104D700004F5867042460849044600F049FC47F2B3
:104D8000305240F28241204600F02AFC204600F0DA
:104D9000F9FB3046CEE70000FD48000270B505463D
:104DA0000B480A4C0E46446004F02EFB08480830BD
:104DB00044601DF011F90748FFF762FB284600F038
:104DC000B5F83046BDE8704000F0B6B86D45000259
:104DD000C8000020514A00022DE9FE431E46154638
:104DE0000F468046FFF7A0FC040014D04046FFF7B2
:104DF00051FB90B102AB3A461B2120460096FFF7CB
:104E00009FFECDE90050032302AA0421404606F08C
:104E100069FEBDE8FE835920FBE75720F9E7000053
:104E20002DE9FC412F4E002707700446B0F80421FD
:104E30003346811CFFF782FC0546A0F57F40FF3812
:104E400023D0042D0FD3307801280CD130790828D5
:104E500009D194F8FE0030B1B4F806011DF04DFB05
:104E600078B1012811D085B100970197B4F80601F7
:104E70002B463246042106F035FE3078032807D051
:104E80002DE0B4F806011EF0AFFD0020BDE8FC8166
:104E9000154AB4F80611B4F80001156875B1B522C9
:104EA0008DF8002004228DF80120ADF80210ADF835
:104EB0000400062300216A460420A847B4F806012E
:104EC00000F084F809480078C00708D0B4F8000161
:104ED0000022001D81B2B4F8060101F02BFD012073
:104EE000D4E70000AC4C0020C4000020D800002013
:104EF0000149086070470000C400002010B5024658
:104F0000FFF712FC002806D001214170BDE81040D7
:104F10001046FFF7C2BA10BD10B50C46FFF704FCEF
:104F2000002801D0C0F8244110BD000001494860AC
:104F300070470000B0000020014988607047000001
:104F4000B00000207CB5044600780A4602280ED145
:104F5000694610461CF073FEB4F80411A01F01440A
:104F600008226846FDF74DFB10B1002020707CBD83
:104F7000B4F80411A4F10A000E58B4F9080106F0BF
:104F800063FF050001D0012000E00020ED2207A111
:104F9000FFF700FA45B1761C6E6403202070B4F868
:104FA0000601FFF77AFA7CBD72B6FEE76174745FA2
:104FB0007365727665722E63000000000A68826570
:104FC0004968C1653521017002F012BC70B5054613
:104FD00002F06AFF04000BD02846FFF7A5FB00286B
:104FE00006D0E28AB0F800118A4202D9A0F8002166
:104FF00070BDE18270BD0000F8B50446C0880E4661
:10500000C0050BD506484568002D07D0002000904C
:105010000346024621893046A8472082F8BD000099
:10502000B00000207CB50E46C98804460D0B00D0A8
:105030006D1C94F8FD2094F8FE00CDE9000294F870
:10504000FF302A461048FEF70FFAF088410502D5D6
:1050500094F8FE1079B1000502D594F8FF0060B114
:10506000002D02DD94F8FD0048B194F8FD00A8423F
:1050700007DA0C207CBD05207CBD08207CBD0F20FC
:105080007CBD00207CBD0000809102023EB50C4634
:105090008DF808000699ADF80920CDE90013032327
:1050A00002AA0421204606F01DFD3EBD2DE9F04771
:1050B000994617460E460546DFF84C8011E0A819C0
:1050C00000EBD070441049462046B847404502D115
:1050D000A0B2BDE8F08702D904F1010501E0A4F116
:1050E0000106B542EBDD49463046B8474446A0428A
:1050F00001D3B0B2EDE749462846B847A04200D2F6
:105100006D1CA8B2E5E7000080841E000622FDF7B2
:1051100078BA0A68026089888180704710B50C49A6
:10512000002203463A24985C000900F08FFB0870C7
:10513000985C00F00F0000F089FB48708C70C91C6F
:10514000521C062AEFDB002001F8010C004810BDBC
:10515000854B00200844008840BA70474218405CE4
:105160005378528852BA63F31F4242EA0060704794
:10517000130A4354491C89B242547047130E4354D6
:10518000491C89B2130C4354491C89B2130A435475
:10519000491C89B24254704710B513F075FF80F076
:1051A000010010BD10B51AF011FF022801D3012033
:1051B00010BD002010BD000010B50446FDF712FD23
:1051C00003480188A1430180BDE81040FDF714BDEC
:1051D0004C03002010B503F073FCBDE81040012023
:1051E00000F008B810B5012100F0CCFCBDE810407B
:1051F00005F076B810B50446FDF7F4FC03480188C5
:1052000021430180BDE81040FDF7F6BC4C030020AF
:1052100003480078C00701D11BF012B870470000A6
:105220004C03002008B50020009008480068C10524
:105230000748006803D0694621F0CCF908BD002377
:105240001A46194621F0B0F808BD000004ED00E050
:105250001000002010B504460E480078C00718D092
:10526000FDF7C0FC4CB103210B481AF035FD03F0EB
:1052700029FC13F083F80EF0BBFB0120FFF79CFF25
:1052800014F0EEF803201BF00DF9BDE81040FDF717
:10529000B3BC10BD4C0300206100030070B50D4885
:1052A0000088A0B913F0D4FF40F2E2450446A842BA
:1052B0000DD30948406D50B91AF03CFE38B91BF0C7
:1052C000CFF9A84203D3A04200D3204670BD0020EE
:1052D00070BD00004C03002000001140014908602F
:1052E00070470000D80000200268134602E08A429E
:1052F00004D01268002AFAD10B600160704702E006
:105300008A4205D010460268002AF9D10A6001607D
:105310007047006808B1002070470120704704E022
:10532000884201D10120704700680028F8D17047F9
:105330000268816832B140680068884200D108681C
:1053400008B9704709B1012070470020704700225A
:10535000C0E90021096881607047016851B1416866
:105360000A6881688A4203D141600968816003E06C
:10537000826001E0012101608068704781680968EE
:105380008160426811600021016070474FF0FF3377
:1053900051B107E002688A4203D109680160002028
:1053A000704710460028F5D1184670471CF0AEBA79
:1053B00020F098BAFFF7FCBF7820FFF7F7BF10B5D1
:1053C0000446806B07F0E1F92046BDE81040FFF786
:1053D000EFBF70B59820FFF7E9FF04000CD040F252
:1053E000111007F0D3FA050008D098212046FDF7E8
:1053F000F6F82046A56370BD002070BD2046FFF77B
:10540000D7FFF9E77047FFF7D3BF5420FFF7CEBFB0
:10541000FFF7CEBF1420FFF7C9BF2DE9F0410646C4
:105420000020984617460C460546306005E02146A8
:10543000304600F007F844446D1CBD42F7DBBDE880
:10544000F081000030B40268134607E08B4204D1BB
:10545000024630BC04A0FEF709B81B68002BF5D14A
:105460000A60016030BC70476274737461636B5F83
:105470006D656D6F72795F706F6F6C5F6672656579
:105480003A20626C6F636B202570206672656564DC
:1054900020747769636520666F7220706F6F6C206F
:1054A00025700000016819B10A680260084670475B
:1054B00000207047FFF77CBF0C20FFF777BF00008C
:1054C00000B589B00DF1080C01900E4800680592F6
:1054D0008CE80B000C4800684FF00003C0050298F0
:1054E00004D00022694621F015F804E04FF0FF32A5
:1054F000694620F059FF012802D0012009B000BD03
:105500000020FBE72C00002004ED00E013460A46D3
:1055100001460A20FFF7D4BF13460A4601460C2075
:10552000FFF7CEBF38B5154D286890F8DC0008B1FC
:10553000552038BD4FF0FF30ADF80200ADF8000047
:105540000AE0684604F0E0F80446C088162104F03A
:1055500009F9204604F05EFD684604F0B5F800281D
:10556000EFD1012004F004FC054804F0B3F9002851
:10557000DFD12A68012182F8DC1038BD1C740202D8
:105580000475020238B5044621F014FC02464FF0BF
:10559000FF30009000230121606921F069FE38BDD1
:1055A0000020704738B50446406948B14FF0FF31DC
:1055B000002300911A46052121F05AFE0020606167
:1055C000002038BD38B5044621F0F4FB02464FF008
:1055D000FF30009000230221606921F049FE38BDB0
:1055E00038B50446816090024FF47A71B0FBF1F156
:1055F000044800902346002203A021F0CDFD606105
:1056000038BD00007D300002680000000161704775
:10561000C0E90312704708B54FF0FF310091002335
:1056200040691A46032121F023FE08BD2DE9F0410F
:105630000746114815460E46046898463888B4F85F
:10564000CC2034F8CA1F00F0BDF938806288218868
:10565000308800F0B7F93080E288A188288800F00F
:10566000B1F9288062892189B8F8000000F0AAF910
:10567000A8F80000BDE8F0811C74020270B50C00AF
:10568000054601D0012000E000206A2206A1FEF7B5
:1056900081FE284600F034F810B100206C602060D4
:1056A000286820602C6070BD6C6973745F626173E0
:1056B00069632E630000000070B50C00054601D040
:1056C000012000E00020532207A1FEF763FE2846D8
:1056D00000F016F808B12C6001E068680460002052
:1056E0006C60206070BD00006C6973745F626173F0
:1056F00069632E6300000000002101604160704773
:10570000006808B10020704701207047006808B1A8
:105710000020704701207047016819B10A680260D3
:1057200012B103E00022FAE7002242600846704707
:1057300070B5054600680C4600B10120C32209A1DE
:10574000FEF728FE206800B10120C42205A1FEF763
:1057500021FE696820680860606868600020206039
:10576000606070BD6C6973745F62617369632E639E
:10577000000000000448D0F8A81141F00201C0F870
:10578000A8111AF067BA00000000104070B5034677
:1057900000200246012513F80240002105FA01F617
:1057A000344201D0401C80B2491CC9B20829F5D34B
:1057B000521CD2B2052AEED370BD30B50546C808DA
:1057C0000C4601F00702285C01219140084201D0FB
:1057D000204630BD2846FFF7D9FFC0B2B4FBF0F138
:1057E00000FB1140C1B22846BDE8304002F02BBB9F
:1057F00070B5044600891CF05DFA2521B0FBF1F27A
:1058000001FB1201CA0801F00705A25C0123AB40AD
:105810001A4201D0084670BDE18841432046BDE8E8
:105820007040C1F3074102F00EBB30B5044610686A
:10583000206010790D4600F01F0020712046FFF710
:10584000A5FFE08085EA1540208130BD0A2801DAF5
:10585000303003E00A38062802DA4130C0B270471F
:105860003F20704770B50446C08E88B0002822D013
:10587000258F94F83430A2268DF800601A268DF812
:105880000160A6890A46ADF80400ADF8082004F1CD
:105890001C01ADF80260ADF80650ADF80A301022D8
:1058A00003A8FCF775FEA1891C236A46A06800F0D6
:1058B000C1F90020E08608B070BD00000648114420
:1058C000006800F2FF30814203D9012018600320F4
:1058D0007047002070470000E800002070B500F01D
:1058E00055F8244DD5F80001800742D5FDF72AFC74
:1058F000214CA068214920F4F0400843A0602069B1
:1059000020F080002061A06920F00040A061E068E4
:1059100040F00400C4F80C00D5F800018007FBD467
:10592000606900F0C04540F2C970804740F64D0004
:105930008047810504D440F4007040F60131884767
:1059400040F25160804740F60D0080470C48054307
:105950006561206920F078402061BFF34F8F0948CE
:105960000168094A01F4E06111430160BFF34F8F00
:10597000FEE770BD000010400020104000280080AD
:10598000C7E8948A0CED00E00400FA050A480168B3
:1059900041F4700101600948D0F8A81121F4C05108
:1059A000C0F8A811D0F82C1141F08001C0F82C11DA
:1059B000034941617047000088ED00E0000010409D
:1059C000001F1F0019B1884201D208467047002A03
:1059D000FCD09042FAD91046704700000249CA6DC7
:1059E00082430243CA6570470000114043688B42FE
:1059F00004D18068904201D1012070470020704797
:105A00003EB5184C60686569806D2D1D28B900226F
:105A10002021402020F028FCE06203220021012008
:105A200020F022FC2061104A0E2029688DE8070032
:105A300000230EA10E486A6821F070F920636068A7
:105A4000806D00280CD1084A02205432A9688DE8E4
:105A50000700002307A10848EA6821F05FF96063A6
:105A60003EBD000000000020240400206300000070
:105A7000612B000270000000690E020210B5087868
:105A80000C4648B10848007800070AD50022BDE856
:105A90001040022004F068BC04F09DFC0022214666
:105AA000F5E7002010BD00000000002070B506469C
:105AB000401E1D460C46042809D2207829688842D9
:105AC00005D10622211D6868FCF79BFD08B1002066
:105AD00070BDC5E90264032070BD00000248417A30
:105AE000491C4172704700005001002010B5044667
:105AF00003F0D4F8002012F02DFC13F0A7FA12F0F6
:105B00006FFA09F04BFE0EF09FFB15F023F819F029
:105B1000AFF819F0AFFE002C03D0BDE8104014F030
:105B2000A0B810BD70B50446B0F1A53F1AD0B4F1CD
:105B3000C33F17D001234FF4A06205211D201AF0A6
:105B4000EDFA0546B4F1F23F09D0922206A10020F9
:105B5000FEF720FC2846BDE870401AF051BC072033
:105B60002870F7E770BD00006474626C652E6300F6
:105B700003484FF40031C1644FF420318164704711
:105B800000001140F8B505461B480E460021018073
:105B900012F0D6FC1EF014FF1AF068FA684612F0F4
:105BA00011FD0446009841F2E86140F6442788421E
:105BB00001D3012000E00020842210A1FEF7EAFBBF
:105BC0003A46214600201AF0BDFA009804F6442116
:105BD000A0F6442082B201201AF0B4FA1EF030FE82
:105BE0003046FFF783FF002D04D02846BDE8F8407B
:105BF000FFF798BFF8BD00004C0300206474697083
:105C00002E63000009490120096809B1002070478E
:105C10000749CA69002AF9D1044A283212688968FA
:105C2000491E8A42F3D1022070470000C8080020B4
:105C30004800002030B4040003D0A44630BC042047
:105C4000604730BC7047FEB51E4617460C460546F9
:105C500002F02AF9002816D0011D6846FFF777FBED
:105C60000CE06846FFF779FB0189A14206D1D0F824
:105C700004C033463A4629460420E0476846FFF709
:105C800057FB0028EDD1FEBD1CB5A0228DF80020E9
:105C900003228DF801208289ADF802208DF80410CE
:105CA0008189806805236A46FFF7C4FF1CBD30B5B3
:105CB00087B00446A3250A988DF8005018258DF862
:105CC0000150A589ADF80410ADF806200146ADF8E5
:105CD0000250ADF8083010220DF10A00FCF758FC14
:105CE000A1891A236A46A068FFF7A4FF07B030BD58
:105CF00010B586B00446A1208DF8000016208DF85E
:105D00000100A089ADF80410ADF80200ADF806203E
:105D10001022194602A8FCF73BFCA18918236A4609
:105D2000A068FFF787FF06B010BD00002DE9F05F07
:105D300000249246894605462746264626E000BFAF
:105D400005EB8400B0F9021035F924001BF0E0FFE8
:105D5000834605EB8800B0F9021035F928001BF0E6
:105D6000D7FFABEB000043F6FF71884203DBA0F5E1
:105D7000FE40FF3806E043F6FF71C84202DC47F6FA
:105D8000FF710844074404EB4904761C04EB09083E
:105D9000D045D5DB97FBF6F0BDE8F09F2DE9F04349
:105DA00042780446901C89B00E46814206D009B064
:105DB000EA48BDE8F043921CFDF75ABB2178E8A001
:105DC000FDF756FB2078DFF8A8834FF00009122872
:105DD00073D00CDC0E2811D004DC05286ED0082806
:105DE00051D179E00F2833D010284CD197E01328F7
:105DF00050D03E286FD0572845D18FE1D8F8000009
:105E0000A278454690F85210DAA0FDF731FB61798F
:105E1000E1A0FDF72DFB2968A07881F85200E34945
:105E2000B4F803000988884205D1002003F0A0FFE0
:105E3000296881F8DC902968B4F80300B1F886106D
:105E4000884218D12868826BAAB1C16B601D11E02D
:105E5000D8F80020E178404682F85210D8F80020A7
:105E6000A188B2F88620914205D101688A6B12B1EF
:105E7000C96B601C9047D8F80020A2F88690D8F82B
:105E80000010C1F83890D8F8000090F86800012898
:105E900078D04FE10325002719E0635BAD1C625BFE
:105EA0001846AD1C03F0E0FB48B190F84010914259
:105EB0000AD3891A80F8401008E035E026E0194638
:105EC000BBA0FDF7D5FA01E080F840907F1CA078D8
:105ED000B842E2DCD7E733E0B4F80350284603F0D9
:105EE000C3FB0028CFD0A17849B961790029816925
:105EF00002D041F4004101E021F40041816100F051
:105F00000BFC0146284603F093FCBCE7B4F8030001
:105F100003F0AAFB0028B6D007214174B3E703F0D1
:105F2000C7FE03F0D9FEAEE7A0780028ABD1B4F8E5
:105F3000030003F099FB0028A5D0617A0174A2E761
:105F4000A07806287CD012DC012820D004289AD121
:105F5000E078002875D1A08803F086FB002870D077
:105F6000A17980F88910012180F888108BE70A2830
:105F70000DD0122887D12079082884D2E178002911
:105F800072D000E0D2E098A0FDF772FA7BE7E078EB
:105F900000289FD1A788042F27D2D8F8000000EB53
:105FA0008705686910B9FFF714FA686105001CD00D
:105FB000EF800220C5F81890A8742A46934905F18D
:105FC0001C00FFF725FBFFF7EBFA6863E079287206
:105FD000294604F108001BF035FE05206874A079FD
:105FE0002874A0780A2804D012E0A08800F090F964
:105FF00049E7D4F80E10C5F88A10618AA5F88E100A
:106000006169C5F89010218B05F18000A5F8941006
:10601000E089A5F85200287C60B9D8F8001091F802
:106020005010E973D8F8000005F1090190F850000C
:1060300000F01CFA2846FFF771F80246E98801E0F3
:1060400013E070E072A0FDF713FA03F0C7FBD8F875
:10605000000090F85E00C00688D5E98840F6B832A6
:10606000734803F037FC0EE72DE034F8037F384621
:1060700003F0FAFA05006088ADF81400A088ADF8C6
:106080001000E088ADF818002089ADF81C00A4F1DC
:106090000304ADD007AB06AA04A905A8FFF7C6FA0A
:1060A000BDF81800B5F85630B5F85420BDF81C10EE
:1060B0008DE80F00BDF81030BDF8142039465D485A
:1060C00003F008FCDFE6B4F80520104603F0CCFA34
:1060D0000546217958A0FDF7CBF92079D8F80020A2
:1060E000C0EBC001114491F89110E97369B12179B5
:1060F000D8F80000C1EBC101014401F18000D1F8E2
:10610000921045F8091FC08A06E0D8F80000416CDB
:1061100045F8091FB0F84800A880B4E6608803F08D
:10612000A3FA00289FD109B0BDE8F083B1B22046A0
:1061300003F078FCB1B2204603F028FB2078052854
:1061400006D1B4F8030003F08FFA08B103F062FF40
:1061500009B0BDE8F04303F027BE0000009402023E
:106160004843493A4556454E543A25303278000066
:106170001C740202434D445F434F4D504C455445FF
:1061800020636D6473206F6C64202575202D206E54
:106190006577202575000000636D645F636F6D7027
:1061A00020737461747573202575000004750202F4
:1061B0006863695F6E756D6265725F636F6D706C49
:1061C000657465645F7061636B6574206C6973747A
:1061D0007320756E7573656420636F6E2068616EE1
:1061E000646C6520257500006164762073657420F9
:1061F0007465726D696E61742064756520746F20BA
:10620000636175736520307825780A0081960002F5
:106210004E657720636F6E6E656374696F6E3A20AA
:1062200068616E646C652025752C20257300000064
:106230000C750202947502026164762068616E64D6
:106240006C6572203078257820636F6E6E6563749C
:10625000656420746F20636F6E2068616E646C6586
:1062600020307825780A000010B5044604F0ACF818
:10627000204610BD13460A460146014803F02ABBDA
:106280003C7602020246014803F024BB3C75020240
:1062900030B50C46054689B01946104600F064FA40
:1062A00000280CD1694628461BF0BAFC04A92046F8
:1062B0001BF0B6FC04AA6946024803F00BFB09B0C8
:1062C00030BD00006C750202014803F003BB000002
:1062D00034750202014803F0FDBA0000EC750202B9
:1062E000014803F0F7BA00004C760202014803F0BF
:1062F000F1BA00002C75020208B5009313460A4655
:106300000146024803F0E6FA08BD0000807402026C
:1063100010B5034603F0A8F940B1062141741322D9
:106320001946054803F0D6FA002010BD0021184692
:1063300003F018FAF8E70000F474020238B54FF0E1
:10634000FF30ADF80200ADF8000006250DE068460C
:1063500003F0DAF90446407C062806D0E1881322CF
:10636000054803F0B7FA00B96574684603F0ACF964
:106370000028ECD138BD0000F47402022DE9FF4F73
:1063800085B0DFF89C80DDE912698A460A20002486
:1063900000EB06119B462746B8F8000003AA03F05D
:1063A00041F8050001D001210FE0562009B0BDE8F9
:1063B000F08F00BF04EBC40219F81220521E01FA3C
:1063C00002F03843641CC7B2E4B2B442F2D3079877
:1063D000CDE9000B02975346D8F804102846059AD9
:1063E00003F039F9C7B200240DE000BF04EBC4018B
:1063F00009EB4101E8191022891CFCF7C9F8103794
:10640000641CFFB2E4B2B442F0D3064940460968C6
:1064100081F850A02946039A03F0B6FD0020C5E795
:106420001C7602021C74020210B500F09DF90028CF
:1064300004D1BDE81040024803F04CBA10BD000082
:10644000747502020248006890F8880070470000E6
:106450001C7402020449096851F8CA2F02604A6894
:1064600042608968816070471C740202074A0028F4
:10647000106804D050F84A2F0A60808803E0426C0C
:106480000A60B0F848008880704700001C7402025F
:106490000146014803F01EBA5C750202034909680F
:1064A0004A6C0260B1F84810818070471C74020287
:1064B00010B50446014604A0FCF7DAFF022C01D90E
:1064C000012010BD002010BD6761705F6D69746DA3
:1064D0005F70726F74656374696F6E5F72657175FA
:1064E000697265645F666F725F7365637572697404
:1064F000795F6C6576656C20257500007FB50DF1C0
:10650000200C9CE870008DE8780013460A4601468E
:10651000024803F0DFF904B070BD000024760202E7
:10652000014803F0D7B900002C76020213460A4650
:106530000146014803F0CEB97074020213460A46C0
:106540000146014803F0C6B9687402021CB5049CF8
:10655000CDE9003413460A460146024803F0BAF971
:106560001CBD0000787402020146014803F0B2B974
:10657000347602020448817A012903D10221817212
:106580001DF0DCBA7047000050010020074810B52C
:10659000426C40F282210648FFF722F80448FEF7D9
:1065A000F1FFBDE81040FFF7E5BF000050010020FB
:1065B000F84D002010B5002207490848FFF728F8D9
:1065C000074840F28221426C0448FFF709F8BDE811
:1065D00010400248FEF7D6BF8D650002F84D00203E
:1065E00050010020014803F075B900002475020233
:1065F000014803F06FB9000058740202014803F02B
:1066000069B90000547602020146014803F062B9FC
:10661000A47502020146014803F05CB964750202E8
:106620000146014803F056B9FC74020201460148D4
:1066300003F050B9147502020246014803F04AB94A
:10664000447502022DE9F0410E46074603F00CF8AE
:10665000050010D0384600F055F804460246314691
:1066600008A0FCF705FFB44207D321463846BDE831
:10667000F04103F0DDB80121F8E7AE74BDE8F04168
:1066800003F092BB6761705F726571756573745FCB
:1066900073656375726974795F6C6576656C2025C6
:1066A000752C2063757272656E74206C6576656CEE
:1066B000202575000146014803F00CB9E47502027B
:1066C00013460A460146014803F004B94476020223
:1066D00013460A460146014803F0FCB890740202D2
:1066E000F0B585B00DF1280C9CE8F0008DE8F800BD
:1066F00013460A460146024803F0ECF805B0F0BD27
:10670000A074020210B502F0AFFF18B1BDE810404E
:1067100000F002B8012010BD10B1008B000401D4BC
:10672000012070470220704702207047074BC0EBE2
:10673000C0021B681A440B6842F8923F8B88938012
:106740000A460146024803F0C5B800001C74020264
:10675000BC75020200B101200249096881F8880075
:10676000704700001C740202034A13681863106823
:1067700041630020704700001C740202014909684F
:10678000086470471C7402021CB5049CCDE90034F7
:1067900013460A460146024803F09CF81CBD00005F
:1067A000487402020A460146014803F093B800000B
:1067B000507402022DE9FE4F124E1746884681465C
:1067C0001D46308802AA591DDDF830A002F02AFECD
:1067D000040014D0CDE9007543464A46716802F0C2
:1067E0003AFFC0B220442A465146FBF7D1FE21466B
:1067F0003046029A03F0C8FB0020BDE8FE8F562009
:10680000FBE70000387402022DE9FC47104D1646E4
:106810000F4680469946288801AA311D02F002FEE3
:10682000040013D000963B464246696802F013FF0D
:10683000C0B2204432464946FBF7AAFE214628460C
:10684000019A03F0A1FB0020BDE8FC875620FBE77E
:106850004074020204490268096841F8CA2F42687C
:106860004A608068886070471C7402020A460146CC
:10687000014803F02FB80000287402022DE9FF5FE1
:10688000144DDDE90E6B9046894682461F462888E6
:1068900003AA711D02F0C6FD040018D0CDF80080D7
:1068A000CDE901764B4652462046696802F0D3FE98
:1068B000C0B2204432465946FBF76AFE21462846BC
:1068C000039A03F061FB002004B0BDE8F09F56205E
:1068D000FAE70000207402022DE9FF5F144DDDE9A4
:1068E0000E6B9046894682461F46288803AAB11D32
:1068F00002F098FD040018D0CDF80080CDE90176B3
:106900004B4652462046696802F0A5FEC0B22044BC
:1069100032465946FBF73CFE21462846039A03F0CF
:1069200033FB002004B0BDE8F09F5620FAE70000DA
:10693000307402020AB944F2902213460A46014614
:10694000014802F0C7BF00009C75020213460A46C8
:106950000146014802F0BEBFAC75020208B50B4605
:10696000009202460021024800F06AF808BD0000CB
:10697000CC7502022DE9FC47184F88469146044623
:10698000022101EB8801388801AA02F04BFD0600C4
:1069900007D043462246796802F05DFEC5B2002466
:1069A00013E05620BDE8FC8704EB440009EB4001EE
:1069B0000A7900924B8819F81020701908A102F08A
:1069C0004AFE2D1D641CEDB2E4B24445ECD33146C1
:1069D0003846019A03F0D8FA0020E3E7DC7502029A
:1069E000313231002DE9F04F8DB01AAFDFF848C0D9
:1069F00097E8604FDCF800C0C0EBC0076744179C05
:106A000087F8914008AF87E8004EDDF864C005AF15
:106A1000CDF810C087E86001169E189DCDE90036BC
:106A200013460A4601460548CDE9024502F052FFE9
:106A30000DB0BDE8F08F00001C740202C4750202A4
:106A40002DE9FC471C460A9D174688468146F72BD0
:106A500026D9F720CDE900050B46012239464846E4
:106A600002F038FF002823D1F73CA4B2F73515E037
:106A7000F72C01D3F72600E02646A01BCDE90065E0
:106A80000404240C01D0002200E0022243463946CF
:106A9000484602F01FFF00280AD13544002CE7D1F8
:106AA0004346032239464846CDE9004502F012FF2D
:106AB000BDE8FC8708B5009313460A460146024824
:106AC00002F008FF08BD0000147602022DE9FC4721
:106AD00016460F46DFF88C8002EB86018246994607
:106AE0000024B8F8000001AAC91C02F09BFC0500B4
:106AF00002D0002001220EE05620BDE8FC8700BF36
:106B000000EB400319F813305B1E02FA03F1214336
:106B1000401CCCB2C0B2B042F2D300943B465246C5
:106B20002846D8F8041002F096FDC7B200240FE002
:106B300004EB440109EB41008188009143884278CD
:106B4000E81909A102F087FD7F1D641CFFB2E4B2C1
:106B5000B442EDD329464046019A03F015FA0020CD
:106B6000CBE700000C7602023132320008B50B464A
:106B70000092024600210248FFF762FF08BD0000B4
:106B8000D47502020A460146014802F0A3BE000085
:106B9000547502022DE9F843194F15460C468046FC
:106BA000F82923D90146F82301223846009502F03E
:106BB00091FE002821D1F83CA4B2F83514E0F82C5D
:106BC00001D3F82600E02646A01B0404240C0095FF
:106BD00001D0002200E0022233464146384602F04E
:106BE00079FE002809D13544002CE8D12346032240
:106BF00041463846009502F06DFEBDE8F88300007E
:106C0000FC7502020A460146014802F063BE00001C
:106C10000476020208B5009313460A46014602486C
:106C200002F058FE08BD0000F47502020A46014653
:106C3000014802F04FBE0000607402021CB5049CC3
:106C4000CDE9003413460A460146024802F042FEEE
:106C50001CBD0000B475020205490268096841F8CC
:106C60004A2F82888A800146024802F033BE000023
:106C70001C7402021C7502020249096881F8510065
:106C8000704700001C7402022DE9FF4F87B01C46BC
:106C9000DDE91A01DDE91865DDE91687DDE914A9EA
:106CA0009346FFF761FD00280DD1CDE9004ACDE9FB
:106CB0000259CDF81080CDE90576DDE907125B4673
:106CC000024802F007FE0BB0BDE8F08F88740202A4
:106CD000014802F0FFBD0000B074020208B5009345
:106CE00013460A460146024802F0F4FD08BD0000C2
:106CF00098740202F0B587B00DF1300E9EE8F010E6
:106D00008DE8F81013460A460146024802F0E2FDFB
:106D100007B0F0BDA87402022DE9FF410D46DDE980
:106D20000A4780460C9E02F09FFC002806D0007C9B
:106D300038B129464046009404F0F7FC04B0BDE8A1
:106D4000F08103968DE8980013462A464146024892
:106D500002F0C0FDF2E700004C75020208B5920097
:106D6000921C0B46009201460722024802F0B2FD37
:106D700008BD0000B87402022DE9F047DFF88CA4CA
:106D80008AB01E461546884604280AD008287DD1B8
:106D900028781B280FD01D2808461FD001F084F842
:106DA0001EE02978782971D1DAF80040002C50D003
:106DB0004146A0474DE0B5F801700C46DE1E39464D
:106DC000A720D21C1BF0F0F80246F61C0AB0B3B2A2
:106DD00039462046BDE8F047FEF735BF1AF080F887
:106DE000040053D02978771E4FF001090D2973D084
:106DF00009DC0C2915D2DFE801F014EF143114EE90
:106E000014ED148614F0172967D006DC0F2978D00A
:106E1000112952D0132904D167E1192972D01D29F3
:106E20005CD0FBA0FCF723FB28788DF808908DF848
:106E30000900002006218DF80A008DF80C108DF84D
:106E40000B0000900190A089052302AA042104F000
:106E500049FE0AB0BDE8F04700F0CABCB5F80150E1
:106E600004F034FB854200D22846E08284F8189072
:106E7000DAF8005095B1AB208DF8000004208DF8B1
:106E80000100A089ADF80200E08A00E0F7E1ADF86A
:106E900004000623A1896A460420A8474046FEF75D
:106EA00095F8E64800788007D3D4E08A0022001DD8
:106EB00081B2A089FFF73EFDCBE720780228C8D138
:106EC0003246294620461AF06DFE69782046711A2E
:106ED000294401224988A7E00FE13CE14746B5F883
:106EE0000180EA1C4146A820F61E1BF05DF8F61C46
:106EF0000246B3B241463846FEF7A5FE84F85190EB
:106F0000A7E76AE15BE120780C281BD011DC06289A
:106F100001D008289DD13246294620461AF0F5FDB9
:106F20003146284600F0CAFF014620461EF074F99B
:106F30008FE7142833D024288BD16888A4F84C001C
:106F400025203AE195F80180B8F1070F07D268884B
:106F5000A085A8882086E88860860D202DE102277C
:106F600016E000BFE91935F807904A8822868A881A
:106F70006286C98801A81EF049FB01A80090638EB3
:106F8000228E49462046FEF792FE07EB080087B2A4
:106F9000B742E7D369782046711A695A43E095F8F9
:106FA000018000210227A8F1020A0DE035F80790C0
:106FB000EA191FFA8AF349462046921C1AF096FDF8
:106FC00007EB0800494687B2B742EFD320461322A9
:106FD0002AE002E035E04CE009E120780E2814D0E8
:106FE000102824D028288BD1204600F07DFA218F4C
:106FF0006A1CA9201AF0D8FF02460837BBB2A18943
:10700000A068FEF717FE002135E101A9681C1AF0FF
:1070100007FEA18D01AA00922046638E228EFEF704
:1070200046FEA18D20460B221EF016F911E72046E0
:1070300000F05AFABBB2218F6A1C20461AF056FDA6
:10704000E1E74FF004094FF6FF78012704F11C0A2D
:1070500009E0E819E95B408853468046024620462D
:10706000FEF746FE4F44B742F3DB2046414603227B
:10707000DAE768780427022800D11227F01BB61E31
:107080001FFA86F835F800A00026AD1C22E000BFEC
:1070900035F80690042F05EB060021D006A9801CC8
:1070A0001AF0BEFDA4228DF8002014228DF80120D4
:1070B000A289ADF8022006A9ADF8049010220DF1C6
:1070C0000600FBF765FAA18916236A46A068FEF759
:1070D000B1FD3E444645DBDB204651460922A3E78D
:1070E000418806A81EF092FADCE72078182803D021
:1070F000262801D02C2899D1ACE0761E2078B6B293
:10710000761DBFB2122815D02A288FD1218F628F09
:107110006B1CAA2000971AF055FF020004D0B3B2EE
:10712000A189A068FEF786FD3A46292120461EF077
:107130005BF88EE6218F628F6B1CA62000971AF0F9
:1071400041FF020004D0B3B2A189A068FEF772FD2E
:107150003A461121EAE720781A2812D01C281CD0C0
:107160002E2814D03228E4D1204600F0BDF9324652
:107170002946204603F07AF900287FF461AF7E218A
:1071800079E0B5F803001D226087192110E0B5F8F9
:1071900003002F2260872D210AE03246294620462F
:1071A00003F064F940B1B5F803001D2260871B218C
:1071B00020461EF040F84CE62120207049E6207859
:1071C0001E2847D0202845D0222802D03028B0D110
:1071D00040E0204600F088F9D1E720781628A8D1B1
:1071E000BBB26A1C002120461AF080FC32E02979EB
:1071F0000A292BD12078082830D021DC022829D078
:10720000042827D0062821D128E00000DC00002037
:107210004154542048616E646C65722C20756E6810
:10722000616E646C656420726573706F6E73652047
:10723000747970652030782530327800D8000020CD
:107240000A2807D00C2805D014280CD0204600F0BE
:10725000BEFAFEE5204600F047F9D4E6E18D20466F
:10726000FEF700FBF6E7204600F03EF9A08D218EE8
:107270008842F2D10A212046FEF706FDE9E50AB070
:10728000BDE8F08710B50446084619F063FE18B152
:10729000017819B1952010BD562010BD1F218460C2
:1072A000017000F0A5FA002010BD70B50546144627
:1072B000084619F04FFE18B1017819B1952070BD3C
:1072C000562070BD85606188A288914203D100215B
:1072D000FEF7DAFC07E0491C8185A188C1850921F8
:1072E000017000F085FA002070BD2DE9F0410746DD
:1072F0001D4616460846DDF8188019F02BFE0400DE
:1073000004D0207820B19520BDE8F0815620FBE71D
:10731000A760A685E585012084F8500000256583D7
:107320001022414604F11C00FBF732F9E5860720E4
:10733000207000F05DFA0020E6E72DE9F0410746F5
:107340001D4616460846DDF8188019F003FE0400B5
:1073500004D0207820B19520BDE8F0815620FBE7CD
:10736000A760A685E585012084F85000A4F81A805E
:10737000414604F11C001EF049F90020E086072078
:10738000207000F035FA0020E6E770B506461C468E
:107390001546084619F0DEFD18B1017819B195209F
:1073A00070BD562070BD86608585C485002180F83B
:1073B0005010C1860521017000F01AFA002070BD3E
:1073C00010B50446084619F0C5FD18B1017819B189
:1073D000952010BD562010BD0121846081854FF697
:1073E000FF72C28501700021418300F001FA002084
:1073F00010BD70B505461646084619F0ABFD0400F1
:1074000003D0207818B1952070BD562070BD0120A2
:10741000A560A0854FF6FF70E085002060831022F4
:10742000314604F11C00FBF7B3F80320207000F094
:10743000DFF9002070BD70B505461446084619F006
:1074400089FD18B1017819B1952070BD562070BD25
:107450000121856081854FF6FF71C185032100F808
:107460001A1B214620F8024B1EF0D0F800F0C0F99C
:10747000002070BD10B50446084619F06BFD18B128
:10748000017819B1952010BD562010BD1D218460D2
:10749000017000F0ADF9002010BD70B506461C4625
:1074A0001546084619F056FD18B1017819B1952016
:1074B00070BD562070BD86608585C4850B21017026
:1074C00000F096F9002070BD00B50A4600F0ECFC13
:1074D00010B1017E012903D017201080952000BD36
:1074E000C08A1080002000BD10B500210170044644
:1074F000818904A0FBF7BBFF04F16000BDE81040E8
:10750000FEF750B84741545420636C69656E74208F
:1075100074696D656F75742073746F702C20686169
:107520006E646C65203078253032780070B50428A0
:1075300017D11078052810D1B2F80350284600F072
:10754000B3FC040009D01F2100F041F905490020D7
:1075500041F825002046FDF72DFFBDE8704000F002
:1075600047B970BD984B0020064910B504484860E3
:10757000084601F049FFBDE810400348FCF776BF1C
:107580002D750002E0000020796D000210B519F0A1
:10759000A7FC002802D0007808B1002010BD01200F
:1075A00010BD70B504460D46104600F07DFC002865
:1075B00007D0656023812146BDE87040001DFDF7BE
:1075C00093BE70BD2DE9F0410646DDE906781C4604
:1075D0001546084619F0BEFC20B1017821B195206E
:1075E000BDE8F0815620FBE78660058787874487E2
:1075F0003121C0F84080017000F0FAF80020EFE778
:1076000070B505461446084619F0A4FC18B1017877
:1076100019B1952070BD562070BD85600487272163
:10762000017000F0E5F8002070BD0023AFF300808A
:1076300070B506461C461546084619F08BFC18B175
:10764000017819B1952070BD562070BD8660058700
:1076500044872921017000F0CBF8002070BD002381
:10766000AFF3008070B506461C461546084619F073
:1076700071FC18B1017819B1952070BD562070BD0C
:107680008660058744871121017000F0B1F8002061
:1076900070BD70B506461D461446084619F05AFCE2
:1076A00018B1017819B1952070BD562070BD866063
:1076B000A0F8444015218564017000F099F800207D
:1076C00070BD70B505461446084619F043FC18B164
:1076D000017819B1952070BD562070BD8560048772
:1076E000002141870F21017000F082F8002070BD59
:1076F0002DE9F04107461D4616460846DDF818807C
:1077000019F028FC040004D0207820B19520BDE8B1
:10771000F0815620FBE7A760A685E585268665866D
:10772000002060831022414604F11C00FAF730FF6C
:107730001320207000F05CF80020E8E72DE9F0410C
:1077400007461D4616460846DDF8188019F002FC6B
:10775000040004D0207820B19520BDE8F0815620A7
:10776000FBE7A760A685E58526866586A4F81A80CE
:10777000414604F11C001DF049FF1320207000F069
:1077800037F80020E9E70000014908607047000071
:10779000DC0000202DE9F04106461C46154608464F
:1077A000069F19F0D7FB20B1017821B19520BDE8E3
:1077B000F0815620FBE7866005878487002141879A
:1077C0001B210764017000F013F80020EFE770B58B
:1077D000044600780D46002808D02046FFF784FEB6
:1077E00029462046BDE87040FEF74EBA70BD000045
:1077F0002DE9F04F002789B04FF01E094FF0040A21
:107800004FF0020B3D464FF00808CE4850F8274095
:10781000002C70D0A089FCF723FE40B12278217E95
:10782000C9A0FBF724FE207E012864D105E0A089D1
:1078300009B0BDE8F04FFCF716BE94F8510050B106
:1078400084F85150A08901238DF80890009502AA70
:10785000042101958CE02078172801D02B2818D11D
:10786000204619F019F8A18FC01E884211DA20466F
:1078700019F012F80246A18FC1A0FBF7F8FD2046CF
:10788000FFF732FE09B02046BDE8F04F0D21FEF7AC
:10789000FBB9606D04F0D8FA06462178C3A0FBF767
:1078A000E6FD2078362826D2DFE800F09E1B9E26D3
:1078B0009E469E499E519E659E719E759E779E79BD
:1078C0009EA39EB69EB89EBC9EBE9EC19EC39ECBEE
:1078D0009EED9ED39EDD9EE59EFE9EFC9EBA9EFB87
:1078E0009EFA84F800B0E08D0090A38DA2894FF439
:1078F0002051102048E077E084F800A0608B4FF41E
:10790000205530B1ADF81C00E18D07AA8DE80608BE
:1079100009E003A904F11C001AF082F9E08D10229D
:1079200003A98DE80700A38DA28929460620FCF74C
:10793000CDFE09B0BDE8F08F0620207001E084F88C
:10794000008009B02046BDE8F04F1AF078BA84F8FC
:107950000080A689A18DE08D8DF808A0ADF80910F2
:10796000ADF80B000095052302AA042130460195CD
:1079700004F0B8F8DDE70C202070E08D0090A38DB6
:10798000A28942F602010820FDF7E7F8D1E70E20B0
:107990002070228E60E010205CE0122064E0142051
:1079A0002070618B204639B1C28D0092838DA289EF
:1079B0000820FDF7D2F817E000F11C028689818DBE
:1079C000E08D8DF80880ADF80910ADF80B000DF1D1
:1079D0000D0110461AF024F90095152302AA04217E
:1079E0003046019504F07EF87F1C042FFFF40DAFA4
:1079F0009FE716202070A089B4F844100E23A26CD3
:107A00008DF808304FF6FF7303EA4101CDE90021FC
:107A1000012302AA0421E5E718202DE01A2044E002
:107A2000322042E01C2040E084F8009046E0202014
:107A300000E02220207009B02046BDE8F04F1AF087
:107A4000F9B92420207009B02046BDE8F04F1AF0A3
:107A500036BA28202070228FA18909B00A20BDE8FB
:107A6000F04FFDF78FB82A20207009B02046BDE8FE
:107A7000F04F1AF00FBA2C20207009B02046BDE854
:107A8000F04F1AF027BA2620207004F14E00009023
:107A9000B4F84C20A18902231220FDF7F7FA48E739
:107AA00027E011E008E0FFE72E20207009B0204613
:107AB000BDE8F04F1AF0D3B93020207009B020464D
:107AC000BDE8F04F1AF0C6B91AF0E0FE00288FD0DA
:107AD00034202070B06D216C01AB0091394A83E8ED
