:020000040200F8
:10200000001F12409D300002DD300002253000022A
:10201000E1300002E3300002E53000020000000081
:10202000000000000000000000000000BF030020CE
:10203000E930000200000000C7030020B7030020C1
:10204000EF300002EF300002E13F0002253C0002C9
:10205000153C00022D4000021D4000020D40000210
:102060006D400002513E0002C93B0002B31C00203B
:10207000A91A0020EF300002DD3B0002C13F000240
:10208000F13F0002413D00024D4000023D40000290
:10209000313D0002213D0002ED3B0002713D000296
:1020A000213E0002EF300002513D0002613D00027E
:1020B000B13F0002A13F0002913F00025D400002DB
:1020C000B53D0002A53D0002D13F0002713E000275
:1020D000613E0002313E0002413E0002813E0002AC
:1020E000913E0002A13E0002B13E0002EF3000022C
:1020F000EF300002EF300002B93B0002020003089B
:1021000000700202FFFFFFFFFFFFFFFFFFFFFFFF67
:10211000FFFFFFFFFFFFFFFFFFFFFFFFFFFFFFFFCF
:10212000FFFFFFFFFFFFFFFFFFFFFFFFFFFFFFFFBF
:10213000FFFFFFFFFFFFFFFFFFFFFFFFFFFFFFFFAF
:10214000FFFFFFFFFFFFFFFFFFFFFFFFFFFFFFFF9F
:1030000000200002DFF810D000F05AF90048004715
:10301000F5CA0102AFF30080FC42002030B58047C2
:1030200030BD00BF1EF0040F0CBFEFF30880EFF3BC
:10303000098081694DF2AD32C0F20122104700B51E
:103040001A4422F0030203460E480068C0050ED160
:10305000EFF3148080070AD5EFF3098082F3098823
:1030600001B40846984701BC80F3098800BDEFF31E
:10307000088082F3088801B40846984701BC80F3B1
:10308000088800BD04ED00E044F6206000BF401E4B
:10309000FCD1284740BA7047C0BA7047144801684D
:1030A00011F0010F134A18BF104721F00101016010
:1030B00009D01148016821F0020101600F488047E2
:1030C0000F48006800470C48016821F002010160C8
:1030D0000C4880470C4800470C480047FEE7FEE7D5
:1030E000FEE7FEE7FEE7FEE7FEE7FEE7FEE7FEE7B8
:1030F00010011040FD000020080000405163000254
:103100000841002099620002C1320002F5CA0102A2
:103110002DE9F0035FEA930C6FD000BF30F8024B4B
:1031200031F8026B30F8025B31F8027B14FB06F8D1
:103130004FEA684815FB07F9A8EB694822F8028BAB
:1031400014FB07F4641415FB06F504EB654422F840
:10315000024B30F8024B31F8026B30F8025B31F869
:10316000027B14FB06F84FEA684815FB07F9A8EB49
:10317000694822F8028B14FB07F4641415FB06F56A
:1031800004EB654422F8024B30F8024B31F8026B35
:1031900030F8025B31F8027B14FB06F84FEA68480E
:1031A00015FB07F9A8EB694822F8028B14FB07F41A
:1031B000641415FB06F504EB654422F8024B30F865
:1031C000024B31F8026B30F8025B31F8027B14FBE2
:1031D00006F84FEA684815FB07F9A8EB694822F89A
:1031E000028B14FB07F4641415FB06F504EB65442D
:1031F00022F8024BBCF1010C90D113F0030304BF81
:10320000BDE8F003704700BF30F8024B31F802CB45
:1032100030F8025B31F8026B14FB0CF77F1415FBDE
:1032200006F8A7EB684722F8027B14FB06F4641447
:1032300015FB0CFC04EB6C4C22F802CB5B1EE3D1BB
:10324000BDE8F0037047000000F5005000B2002810
:10325000BCBF00F5004000B281090B4BA0EB811010
:10326000400233F9112003EB410100B2C0F50043E5
:1032700049885A43121410FB01F000EB024000147D
:10328000400000B270470000D423020281090B4BBA
:10329000A0EB8110400233F9112003EB410100B291
:1032A000C0F5004349885A43121410FB01F000EBAB
:1032B00002400014400000B270470000D423020214
:1032C000064C074D06E0E06840F0010394E8070073
:1032D00098471034AC42F6D3FFF798FECC2D02028B
:1032E000FC2D02022DE9F05F0546002092469B4628
:1032F00088460646814640241BE02846414647460C
:10330000224600F06BF853465A46C01A914110D33A
:1033100011461846224600F052F82D1A67EB0108B4
:103320004F4622460120002100F049F817EB000922
:103330004E41201EA4F10104DFDC484631462A46F6
:103340004346BDE8F09FD2B201E000F8012B491ED0
:10335000FBD270470022F6E710B513460A46044632
:103360001946FFF7F0FF204610BD421C10F8011B64
:103370000029FBD1801A704730B50446002003466F
:1033800000E05B1C934203D2E05CCD5C401BF8D0B4
:1033900030BD30B50B46014600202022012409E053
:1033A00021FA02F59D4205D303FA02F5491B04FAFE
:1033B00002F52844151EA2F10102F1DC30BD202ADD
:1033C00004DB203A00FA02F1002070479140C2F17C
:1033D000200320FA03F3194390407047202A04DBAE
:1033E000203A21FA02F00021704721FA02F3D0407E
:1033F000C2F1200291400843194670472DE9FE4F63
:10340000804681EA0300C00F0C46009021F0004185
:1034100023F00045B8EB0200A94105D24046214601
:1034200090461C460B46024623F00040104347D00E
:10343000270DC7F30A00C3F30A510290401A019006
:1034400040286BDAC3F3130040F4801B00989246C7
:1034500020B10023D2EB030A63EB0B0B0198594612
:10346000C0F140025046FFF7AAFF06460D465046FF
:103470005946019A00F07AF910EB080061410024E6
:1034800087EA115284EAE7731A4340D0009A62B384
:10349000019A012A4FEA075215DC001B61EB020179
:1034A0004FF0004202EA0752CDE90042001C41F50C
:1034B000801132462B4600F07AF903B0BDE8F08F58
:1034C00040462146F9E7001B61EB0201001C41F573
:1034D000801300185B412018A2F5001747EB030189
:1034E00040EAD570B6196D4111E06D084FEA360615
:1034F00045EAC0754FEA0752001B61EB0201001C50
:1035000041F5801149084FEA300000195141324617
:103510002B4603B0BDE8F04F00F03AB90098012205
:1035200040000023D0EB020263EBE07300982146D9
:103530004FEAE074B8EB000061EB0401E9E783F0C7
:1035400000435BE781F0004158E72DE9FE4F81EA37
:10355000030404F0004421F0004100944FF0000BFC
:1035600023F0004350EA01045ED052EA03045BD02A
:10357000C3F30A54C1F30A552C44A4F2F334019462
:10358000A0FB0254C1F3130141F48011C3F31303F0
:1035900043F4801301FB024400FB034E840A970AA4
:1035A00044EA815447EA8357A4FB076802958D0AD1
:1035B00005FB07854FEA932C04FB0C542705029D5D
:1035C0004FEA065847EA1637B5EB08056EEB070CCD
:1035D000870E920E47EA811742EA8312A7FB020187
:1035E000B6EB0B0164EB00042B0D43EA0C335E18C1
:1035F00044EB1C50DA465146E7FB0201C5F31304C5
:103600004FEA0B3343EA14534FEA0432019C43EA76
:103610000603A4F10C040294009CCDE900B400F070
:10362000C6F803B0BDE8F08F00200146F9E72DE9A8
:10363000F04D81EA030404F0004B21F000451446EC
:103640004FF0000A23F0004150EA050220D054EA6E
:1036500001021DD0C5F30A570246C5F31303C1F397
:103660001300C1F30A5640F4801543F48013A7EB0E
:103670000608101BD64608F2FD3873EB050002D38E
:1036800008F1010801E092185B41B8F1000F03DA7C
:1036900000200146BDE8F08D00204FF48011064661
:1036A00084460EE0171B73EB050705D3121B63EB73
:1036B000050306434CEA010C49084FEA3000921812
:1036C0005B4150EA0107EDD152EA030012D082EAD1
:1036D000040083EA0501084305D0101BAB4106D264
:1036E0000122002306E000224FF0004302E06FF0C9
:1036F000010253101AEB06004CEB085110EB0A00C4
:1037000041EB0B01BDE8F04D00F042B8C1F30A52A5
:10371000C1F3130140F2FF3341F480119A4202DAFF
:1037200000200146704740F233439A42A2F23342EE
:1037300002DC5242FFF752BEFFF741BE30B5041E15
:1037400071F1000404DB4FF00044404264EB0101DE
:10375000141E73F1000405DB1C464FF00043524277
:1037600063EB0403994208BF904230BD202A06DB78
:10377000CB17203A41FA02F043EAE07306E041FA3F
:1037800002F3D040C2F1200291400843194670472D
:1037900010B5141E73F1000408DA401C41F1000159
:1037A00092185B411A4301D120F0010010BD2DE9B0
:1037B000F04D92469B4611B1B1FA81F202E0B0FAA7
:1037C00080F220329046FFF7FAFD04460F4640EAA9
:1037D0000A0041EA0B0153465A46084313D01146EA
:1037E00053EA010019D0C8F140025046FFF7F6FD38
:1037F00005460E46504659464246FFF7E0FD08434F
:1038000005D0012004E020463946BDE8F08D0020B7
:10381000054346EAE0762C4337430A986305E40AF9
:10382000A0EB08000022FD0A44EA47540A3002D502
:1038300000200146E9E7010510196941DDE9084565
:1038400000196941BDE8F04DA2E770B58C1810F879
:10385000015B15F0070301D110F8013B2A1106D1D5
:1038600010F8012B03E010F8016B01F8016B5B1EEF
:10387000F9D12B0705D40023521E0DD401F8013BCA
:10388000FAE710F8013BCB1A921C03E013F8015B36
:1038900001F8015B521EF9D5A142D8D3002070BDBA
:1038A00042F21D1CC2F2000C604740F2E11CC2F261
:1038B000000C604740F22D4CC2F2000C604743F20E
:1038C000515CC2F2000C604740F2C11CC2F2000C15
:1038D000604742F2BD0CC2F2000C604742F2D90CC4
:1038E000C2F2000C604742F2091CC2F2000C6047B1
:1038F00041F60D5CC2F2000C604740F2956CC2F2DA
:10390000000C604740F2933CC2F2000C604740F26A
:10391000A53CC2F2000C604741F6155CC2F2000CF7
:10392000604742F2611CC2F2000C604741F6675CDE
:10393000C2F2000C604740F26B6CC2F2000C6047B0
:1039400043F2515CC2F2000C604743F2515CC2F298
:10395000000C604740F2454CC2F2000C604742F256
:103960007F5CC2F2000C604741F60D7CC2F2000C95
:10397000604742F2194CC2F2000C604741F6FD5C10
:10398000C2F2000C604742F2850CC2F2000C6047A4
:1039900040F2E57CC2F2000C604740F6070CC2F230
:1039A000000C604742F2FB0CC2F2000C604742F28E
:1039B000FB4CC2F2000C604743F22D5CC2F2000CDB
:1039C000604741F6FB6CC2F2000C604740F6650CA4
:1039D000C2F2000C604740F2177CC2F2000C604754
:1039E00042F2A93CC2F2000C604740F2B57CC2F240
:1039F000000C604742F6696CC2F2000C604740F66A
:103A00004D0CC2F2000C604743F2530CC2F2000CA2
:103A1000604741F6810CC2F2000C604742F6416CEF
:103A2000C2F2000C604743F2BF4CC2F2000C604788
:103A300041F2610CC2F2000C604742F2575CC2F2E4
:103A4000000C604740F2F96CC2F2000C604740F68F
:103A5000B32CC2F2000C604740F2CF7CC2F2000CE3
:103A6000604741F2F10CC2F2000C604740F6711C55
:103A7000C2F2000C604740F2654CC2F2000C604795
:103A800040F6773CC2F2000C604740F6DF1CC2F201
:103A9000000C604741F63F5CC2F2000C604740F208
:103AA000854CC2F2000C604740F6A70CC2F2000C35
:103AB000604741F23B1CC2F2000C604740F6F54CF7
:103AC000C2F2000C604740F6F95CC2F2000C60479D
:103AD00040F6715CC2F2000C604740F64D6CC2F2D9
:103AE000000C604740F6196CC2F2000C604740F6CB
:103AF000756CC2F2000C604740F6E76CC2F2000C35
:103B0000604740F69B7CC2F2000C604740F6CB3C1D
:103B1000C2F2000C604740F6D53CC2F2000C604790
:103B200040F6EB0CC2F2000C604742F2E36CC2F2CA
:103B3000000C604741F2A52CC2F2000C604742F233
:103B40003D7CC2F2000C604742F6075CC2F2000CFA
:103B5000604740F6270CC2F2000C604742F2756CD9
:103B6000C2F2000C604742F6E31CC2F2000C604750
:103B700040F2E33CC2F2000C604743F2415CC2F207
:103B8000000C604742F2F91CC2F2000C604741F29F
:103B90008D3CC2F2000C604741F65B0CC2F2000C97
:103BA000604741F6390CC2F2000C604743F6090C3D
:103BB000C2F2000C6047000002482421C06806F0F1
:103BC000EDBF00008C3800200348016841F020015F
:103BD00001600120FFF764BE000013400248092184
:103BE000C06806F0DBBF00008C38002002481021BE
:103BF000C06806F0D3BF00008C380020044800687D
:103C00000122C0F308010920891EFFF74EBE000003
:103C100004ED00E002480121C06806F0BFBF0000CB
:103C20008C38002002480221C06806F0B7BF0000AF
:103C30008C38002010B5C368D9B280290FD98468A8
:103C4000E06800B101204B2213A1FFF733FEE168C9
:103C500019B12069BDE81040084772B6FEE7044676
:103C6000008A616982B2D8B2124B1B68984706F08D
:103C7000A3FB00280FD1E068022806D004280AD14F
:103C8000A069BDE8104006F091BBA08BA169BDE81A
:103C9000104006F089BB10BD4863695F696E7465AA
:103CA000726E616C5F7472616E73706F72742E638A
:103CB00000000000D43900201FB541680A2914D043
:103CC00007DC09B105291FD104B0BDE81040FFF79A
:103CD000B1BF0B2919D00C2916D1018AC2684069DD
:103CE00004B089B2BDE8104010470C491EC98DE8E8
:103CF0001E00C168019141690291008AADF80C0073
:103D00001021684606F090F91FBD018A8AB2416908
:103D1000C06804B0BDE8104007F0C8BFC40D02027F
:103D200002480E21C06806F039BF00008C38002020
:103D300002480F21C06806F031BF00008C38002017
:103D400002480B21C06806F029BF00008C38002013
:103D500002481221C06806F021BF00008C38002004
:103D600002481321C06806F019BF00008C380020FB
:103D700002481121C06806F011BF00008C380020F5
:103D8000074A131D5980116860F30701116010681C
:103D900040F40070106010688005FCD4704700008B
:103DA0000804114002481C21C06806F0F7BE00005C
:103DB0008C38002002481B21C06806F0EFBE0000CE
:103DC0008C380020C906090E002806DA00F00F0022
:103DD00000F1E02080F8141D704700F1E02080F829
:103DE00000147047024A11400143024801607047C5
:103DF00080FFFF1F08ED00E000B589B081680391E6
:103E00000021CDE901100448694600688269034831
:103E10000068904709B000BD90380020A438002009
:103E200002481421C06806F0B9BE00008C3800209A
:103E300002481521C06806F0B1BE00008C38002091
:103E400002481621C06806F0A9BE00008C38002088
:103E500002480721C06806F0A1BE00008C3800208F
:103E600002481E21C06806F099BE00008C38002070
:103E700002481D21C06806F091BE00008C38002069
:103E800002481F21C06806F089BE00008C3800205F
:103E900002482021C06806F081BE00008C38002056
:103EA00002482121C06806F079BE00008C3800204D
:103EB00002482221C06806F071BE00008C38002044
:103EC0002F492E48C1F890012E48C1F894014FF4B3
:103ED0000040086342F2412048632B48826942F067
:103EE00080428261026922F07F7202F54002026123
:103EF000826922F4700202F580128261826942F4C2
:103F00007022826182696FF30F02103282614A6A05
:103F100022F4601202F500224A624A6A22F4F85240
:103F200002F500724A62826922F07C5202F1C852A4
:103F30008261D1F8602122F4FC0202F5B402C1F8DA
:103F40006021016801680E2262F31F7101608168BF
:103F5000C90D21F0F00141F03002816862F3DE51B9
:103F60008160C168C168022262F38A11C160016880
:103F70000168092262F344010160704707060204E8
:103F800000001040010304050020104070470000AD
:103F900002481721C06806F001BE00008C380020DE
:103FA00002481821C06806F0F9BD00008C380020D6
:103FB00002481921C06806F0F1BD00008C380020CD
:103FC00002480821C06806F0E9BD00008C380020D6
:103FD00002482321C06806F0E1BD00008C380020B3
:103FE00002480021C06806F0D9BD00008C380020CE
:103FF00002480A21C06806F0D1BD00008C380020BC
:104000000149087270470000683900200248032106
:10401000C06806F0C3BD00008C38002002480421AF
:10402000C06806F0BBBD00008C38002002480521A6
:10403000C06806F0B3BD00008C38002002480C2197
:10404000C06806F0ABBD00008C38002002480D218E
:10405000C06806F0A3BD00008C38002002481A2179
:10406000C06806F09BBD00008C3800200248062185
:10407000C06806F093BD00008C3800200FB4054BDB
:1040800010B503A9044A029800F0FEF810BC5DF8D0
:1040900014FB00006D6B0002343B00200FB4084B92
:1040A00010B504A902AA039800F0EEF8044602A98C
:1040B000002000F097FE204610BC5DF814FB0000C5
:1040C000E54D0002014B024A00F0E0BA6D6B0002C0
:1040D000343B002070477047704770477047704707
:1040E0007047704702E008C8121F08C1002AFAD1C1
:1040F00070477047002001E001C1121F002AFBD168
:10410000704700002DE9FF5F82B00021DDE9043037
:10411000020DDDF840B0034318D044F61050A2F26F
:10412000FF3242431514119801281FD0A5EB0B0054
:10413000401C5FEA000A4FF000064E4FDFF838914E
:10414000B046504615D5CAF1000413E01198012479
:104150004AA3012801D16FEA0B010298119AC0E924
:104160000031C0E9024206B0BDE8F09FCBF100008B
:10417000DFE704460021404A491842EB0450CDE9EC
:10418000001012E0E00707D032463B464046494661
:10419000FFF7DBF98046894632463B461046194612
:1041A000FFF7D3F906460F466410002CEAD1DDE98B
:1041B0000401DDE90023BAF1000F06DAFFF7C5F9C3
:1041C00042464B46FFF7C1F905E0FFF730FA424699
:1041D0004B46FFF72CFA04460E460022284BFFF709
:1041E000ADFA03D84FF0FF30014607E00022254B1F
:1041F00020463146FFF702F9FFF788FA102409E05C
:10420000002C0ADB0A220023FFF76CF8039B3032F4
:104210001A55641E50EA0102F2D1641C039AC4F1DB
:1042200011031444119A012A03D0012208430DD12D
:104230000AE0084304D000204FF0110B119072E700
:10424000A3EB0B056D1E0DE05B4504DD4FF0000296
:1042500005F1010504E003DA4FF00002A5F10105C4
:10426000002AECD002981199C0E90231C0E900455A
:1042700079E70000000014400000F03F300000002B
:104280000000F0430000E03F2DE9FF4F8DB00F46E6
:104290000546002606E025280BD0DDE90F129047E1
:1042A0006D1C761C28780028F5D111B03046BDE889
:1042B000F08F0024A246A1460122E94900E0044310
:1042C00015F8013F203B02FA03F00842F7D12878A5
:1042D0002A2810D06FF02F022878A0F13001092988
:1042E00014D80AEB8A0102EB410144F0020400EB0E
:1042F000010A6D1CF0E701CF5FEA000A03D544F420
:104300000054CAF1000A44F002046D1C28782E28DB
:1043100017D115F8010F44F004042A280ED06FF0CD
:104320002F022878A0F1300109290AD809EB890168
:1043300002EB410100EB01096D1CF2E757F8049B09
:104340006D1C28786C280FD006DC4C2817D0682804
:104350000DD06A2814D104E0742810D07A280FD127
:104360000DE044F400140AE044F4801401E044F445
:1043700040146978814202D104F580146D1C6D1CD3
:1043800028786E281ED00CDC632830D004DC00288E
:104390008BD0582811D19FE0642867D069280CD1B0
:1043A00064E073282DD004DC6F2872D0702804D10B
:1043B00094E075286ED078286DD0DDE90F12904713
:1043C000761C4BE1C4F30250022806D0032809D022
:1043D000042801CF09D0066040E101CFF117C0E900
:1043E00000613BE101CF068038E1067036E117F845
:1043F000040B8DF8000000208DF80100EB46012031
:1044000003E057F804BB4FF0FF3061074FF00001A5
:1044100002D40DE008F10101884649450FDA8045D4
:10442000F8DB1BF808100029F4D108E008F10101BD
:1044300088468142FADB1BF808100029F6D1DDE935
:104440000F23AAEB08008146214600F09DFC304472
:1044500000EB080604E0DDE90F121BF8010B9047A2
:10446000B8F10108F7D221464846F2E00A21C4F328
:1044700002524FF0000B0891022A04D001CFC1175D
:10448000032A09D00AE0FF1D27F00707F7E8020119
:1044900008E02CE01EE01FE000B2C117042A01D1A1
:1044A00040B2C117021E71F1000206DA0023D0EB00
:1044B000030063EB01012D2202E0220504D52B222B
:1044C0008DF82420012203E0E20701D02022F7E743
:1044D000904653E00A210BE0102109E010214FF033
:1044E000000B44F004044FF00809089103E0082190
:1044F0004FF0000B0891C4F30252022A04D001CFFE
:104500000021032A06D006E0FF1D27F00707F7E881
:10451000020103E080B2042A00D1C0B24FF00008CB
:1045200022072BD52A78702A07D0DDF820C08CF01E
:10453000100C5CEA0B0C05D00EE040228DF8242014
:10454000012208E050EA010306D030238DF8243020
:104550008DF8252002229046089B83F0080353EA39
:104560000B030BD150EA010201D1620706D53022BC
:104570008DF824204FF00108A9F101092A78582A62
:1045800004D038A20B9208AA0A920BE03AA2F9E7EB
:104590005B46089AFEF7A6FE0B9B9B5C0A9A521E8E
:1045A0000A92137050EA0102F2D10A98ADEB0000B2
:1045B00000F1200B600702D524F4803401E04FF0B5
:1045C0000109D94502DDA9EB0B0000E0002000EB5A
:1045D0000B0141440890AAEB010AE00306D4DDE98F
:1045E0000F232146504600F0CFFB06444FF0000950
:1045F00008E009A911F80900DDE90F12904709F157
:104600000109761CC145F4DBE0030CD5DDE90F237D
:104610002146504600F0B8FB064404E0DDE90F12E5
:1046200030209047761C0899481E08900029F5DC38
:1046300008E00A980A990078491C0A91DDE90F12EE
:104640009047761CBBF10001ABF1010BF1DC214678
:104650005046DDE90F2300F073FB06446D1C21E694
:104660000928010030313233343536373839616248
:10467000636465660000000030313233343536370C
:104680003839414243444546000000002DE9FF4FC0
:1046900095B09A46884606460025EEE1252877D152
:1046A00000242746F94A0121039400E0044316F848
:1046B000013F203B01FA03F01042F7D130782A285D
:1046C00011D06FF02F033078A0F13002092A16D8EC
:1046D000039A44F0020402EB820203EB420210440C
:1046E000761C0390EFE758F8042B0392002A03DAB4
:1046F000504244F40054039044F00204761C307895
:104700002E2816D116F8010F44F004042A280DD0E3
:104710006FF02F023078A0F13003092B09D807EB96
:10472000870302EB4303C718761CF3E758F8047BB2
:10473000761C30786C280FD006DC4C2817D06828FF
:104740000DD06A2814D104E0742810D07A280FD133
:104750000DE044F400140AE044F4801401E044F451
:1047600040147278824202D104F58014761C761CC3
:10477000307866280BD013DC582877D009DC002865
:1047800075D04528F6D04628F4D047281AD193E1B1
:1047900018E0632835D0642879D0652812D18BE1E0
:1047A000702873D008DC6728F1D069286FD06E2894
:1047B0000DD06F2806D1ACE073282CD0752874D0AA
:1047C000782853D05246179990476D1C54E1C4F392
:1047D0000250022809D003280DD0D8F80010042870
:1047E0000DD00D6008F1040846E1D8F80010EA1772
:1047F000C1E90052F6E7D8F800100D80F2E70D701D
:10480000F0E718F8041B8DF8001000208DF8010067
:10481000EB46012003E058F804BB4FF0FF3061077E
:104820004FF0000102D40DE009F101018946B942BF
:104830000FDA8145F8DB1BF809100029F4D108E0F4
:1048400009F1010189468142FADB1BF809100029B0
:10485000F6D103985346A0EB090721463846179A2C
:1048600000F0A9FA284400EB090507E044E008E15C
:104870000DE01BF8010B524617999047B9F1010959
:10488000F7D2534621463846179AF2E039E00A211A
:10489000C4F302524FF0000B0091022A06D058F8E0
:1048A000040BC117032A09D00AE023E008F107002E
:1048B00020F00702F2E80201904605E000B2C117BD
:1048C000042A01D140B2C117002906DA0A460021A4
:1048D000404261EB02012D2202E0220504D52B2289
:1048E0008DF80420012203E0E20701D02022F7E73F
:1048F000914657E00A2100E010214FF0000B009193
:104900000BE010214FF0000B44F004040827009145
:1049100003E008204FF0000B0090C4F30252022A7B
:1049200005D058F8040B0021032A08D008E008F14C
:10493000070020F00702F2E80201904603E080B28F
:10494000042A00D1C0B24FF0000922072AD53278DC
:10495000702A07D0DDF800C08CF0100C5CEA0B0C5C
:1049600005D00EE040228DF80420012208E050EA34
:10497000010306D030238DF804308DF80520022283
:104980009146009B83F0080353EA0B030AD150EAD7
:10499000010201D1620705D530228DF804204FF0C5
:1049A00001097F1E3278582A04D039A20C920CAA31
:1049B00002920BE03BA2F9E75B46009AFEF792FCFD
:1049C0000C9B9B5C029A521E0292137050EA0102E9
:1049D000F2D1029804A9081A00F1200B600702D551
:1049E00024F4803400E001275F4502DDA7EB0B00D3
:1049F00000E0002000EB0B01009003984944401AAE
:104A00000390E00306D453462146179A039800F01A
:104A1000D2F90544002706E001A85246C05D179967
:104A200090476D1C7F1C4F45F6DBE0030CD55346C9
:104A30002146179A039800F0BEF9054404E030209F
:104A40005246179990476D1C0099481E0090002906
:104A5000F5DC08E00298029952460078491C029160
:104A6000179990476D1CBBF10001ABF1010BF1DC14
:104A70005BE100F077F90544761C307800287FF47C
:104A80000DAE19B02846BDE8F08F000009280100DE
:104A900030313233343536373839616263646566B4
:104AA0000000000030313233343536373839414276
:104AB0004344454600000000600700D4062708F183
:104AC000070020F00700F0E80223804603F0004CC6
:104AD0005FEA0C0001D097A009E0200501D596A05F
:104AE00005E0E00701D095A001E0AFF24C00139083
:104AF000307823F0004365280CD006DC452809D027
:104B000046281DD047287FD13BE0662818D067286B
:104B10007AD136E00021112F01DB112000E0781C52
:104B2000CDE9000104A90CA8FFF7ECFADDE90D01BD
:104B30000C9A4FF0000B07F10109109200914EE022
:104B40004FF000400097CDE9011004A90CA8FFF731
:104B5000D9FADDE90D020C9B0F994FF0000B91463D
:104B60001093009211B9791C00EB0109B7EB090011
:104B700003D4C0F1FF3B07F10109A9EB0700019045
:104B800042E0012F00DA01270021112F01DD112061
:104B900000E03846CDE9000104A90CA8FFF7B2FAFD
:104BA000DDE90D010C9A00914FF0000BB94610920F
:104BB00021070FD4009A4A4503DA914601E0A9F192
:104BC0000109B9F1010F05DD109AA9F10101515C4C
:104BD0003029F4D0B84202DA10F1040F03DA0121CF
:104BE000CDE9011010E0002803DC8344A9EB0001AB
:104BF00002E0411C494500DD8946A0EB0B00401C4A
:104C000001904FF000400290200705D401984845DC
:104C100002DB4FF0FF30019000208DF84B0002982E
:104C20000DF14B07B0F1004F25D002200C902B2046
:104C30000D90029800280CDA404202902D200D9031
:104C400007E00A210298FEF7A4FB3031029007F832
:104C5000011D0C99481E0C900029F2DC02980028D6
:104C6000EFD1791E0D980870307800F0200040F0E8
:104C7000450007F8020D11A8C01BC01D0290139833
:104C8000007800B1012000EB0901019801EBE0710F
:104C9000029801440398401A401E0390E00306D492
:104CA00053462146179A039800F085F80544139857
:104CB000007818B15246179990476D1CE00323D530
:104CC00053462146179A039800F075F805441BE0F7
:104CD000BBF1000F07DB0098584504DD10981799C9
:104CE00010F80B0001E017993020524690470198C8
:104CF0000BF1010B401E05F10105019004D12E209E
:104D00005246179990476D1CB9F10001A9F10109AC
:104D1000DEDC05E017F8010B5246179990476D1C31
:104D20000299481E02900029F4DC53462146179A46
:104D300003989EE62D0000002B00000020000000DC
:104D40002DE9F041044600251E461746880404D488
:104D500005E039462020B0476D1C641EF9D5284671
:104D6000BDE8F0812DE9F041044600251E461746B6
:104D7000880404D405E039462020B0476D1C641E29
:104D8000F9D52846BDE8F0812DE9F041044600251B
:104D90001E469046C80301D5302700E0202788042E
:104DA00004D505E041463846B0476D1C641EF9D570
:104DB0002846BDE8F0812DE9F041044600251E4655
:104DC0009046C80301D5302700E02027880404D589
:104DD00005E041463846B0476D1C641EF9D52846AB
:104DE000BDE8F0810A68531C0B601070704700002A
:104DF0002DE9F05F06460088C0F30B00824605F0FF
:104E000083F80400707875884FEA101709D005F10F
:104E10000408884508D02A1DBDE8F05F3448FFF734
:104E20005DB9514633A01DE001F020F907F0030100
:104E3000002740F2031B6063012903D002292BD015
:104E40003BA00FE0A08F58B14119B1F5827F0DD37F
:104E500053465A464648FFF741F9A787BDE8F09FF9
:104E6000514644A0BDE8F05FFFF738B9A16B2A4670
:104E70000844311D0E30FEF722FDA08F284481B278
:104E8000A187E08F083081422ED3A06B0E3005F051
:104E9000A5F8E787A78727E0A08F20B151464448AF
:104EA000FFF71CF9A787B788381D8146854205D3CF
:104EB0001FFA88F1304605F091F815E0FF2D07D96B
:104EC00053465A46291DBDE8F05F3A48FFF706B938
:104ED000A06B2A1D31460E30FEF7F1FCA4F83C8091
:104EE000E787A16BA1F81090BDE8F05F05F0A2BBC9
:104EF000902A02026863692E633A2061636C5F68DE
:104F0000616E646C65722063616C6C6564207769A6
:104F10007468206E6F6E2D72656769737465726553
:104F2000642068616E646C652025752100000000B6
:104F30006863692E633A2061636C5F68616E646CBC
:104F400065722063616C6C656420776974682069A0
:104F50006E76616C6964207061636B657420626F4A
:104F6000756E6461727920666C61677320257500C7
:104F70004C2B020241434C20436F6E7420467261F9
:104F8000676D656E7420627574206E6F206669723D
:104F9000737420667261676D656E7420666F72202F
:104FA00068616E646C6520307825303278000000CE
:104FB0003C2A0202A02B020210B505494FF6FF73EE
:104FC00002E084788C54C01C02889A42F9D110BD4A
:104FD00000001240704700001CB506498C68002C88
:104FE00007D0002100910191B0F806010B46032281
:104FF000A0471CBDC038002070B50D4600281FD149
:10500000002D1DD10F4C4FF49476206818B930460E
:1050100000F040FF2060040012D031462046FEF729
:1050200099F9A4F8065104F58071284602F0CAFEE9
:1050300006F03AFEA4F802014FF0FF30A4F8080190
:1050400070BD0000D4380020F8B51646028A069FCD
:10505000521A94B2C288D2050AD50B4A55683DB19E
:10506000009300890A46014633463846A847F8BDF2
:105070009C4200D91C464069224601443046FEF756
:105080001EFC2046F8BD0000C0380020042105F0B9
:1050900009BF042106F018BF024908600421024834
:1050A00006F088BECC3800200D5600020249486048
:1050B0000421024806F07EBECC3800200D560002C6
:1050C000042105F0EFBE042106F0FEBE00B58BB052
:1050D000D0F82401009023E0684600F035FABDF8CE
:1050E000081000291ED0BDF806200FA0FEF7F2FF21
:1050F000BDF806008005039808D506A918F04CFAFB
:1051000006A81BF079FC014611A001E0018811A05E
:10511000FEF7E0FFBDF8101010A0FEF7DBFF0098CF
:105120000028D9D10BB000BD48616E646C653A208F
:105130003078253034782C20666C6167733A2030E3
:1051400078253034782C20757569643A2000000089
:105150002573000025303478000000002C20766193
:105160006C75655F6C656E3A2025752C2076616CD8
:1051700075653A2000000000064A30B45468002CDF
:1051800006D00B46A4460246002130BC04206047EE
:1051900030BC7047D43800207CB51446042819D19F
:1051A00020783E283FD016DC052855D0082801D0AD
:1051B00030280FD1B2F80350284600F0CDF8040093
:1051C00008D0284619F055F904F8FD0F284618F0C4
:1051D000FBFD60707CBDD7285BD0D8284AD0DA2888
:1051E000F8D1608800F0B8F80500F3D0B5F80601F2
:1051F00004F08AFE0600EDD02079317A8842E9D1A8
:105200006946601D18F0DAF9062231466846FEF755
:10521000B3F80028DED1E07A85F8FF00B5F8060182
:10522000FFF751FF7CBDA078012803D00A2801D0E8
:105230002928F7D1D41C9188D078FFF7DDFEB4F887
:10524000010000F089F80500ECD0B4F8010019F075
:1052500073FDA5F808017CBDB2F80340204600F0BC
:105260007BF80028F7D000F01BFE1049002041F821
:1052700024007CBD608800F06FF80500F9D0B4F818
:105280000B0001B2A5F8081109A0FEF724FF28467B
:1052900008E0508800F060F80028EAD04FF0FF31B5
:1052A000A0F8081100F094FA7CBD0000D43800206A
:1052B000534D5F4556454E545F4944454E544954FD
:1052C000595F5245534F4C56494E475F53554343E0
:1052D0004545444544206964202575003EB50C468B
:1052E0008DF8080000208DF809200090019002231D
:1052F00002AA0421204606F0E3FF3EBD7FB50DF172
:10530000200C14469CE864008DF80800ADF80930C4
:10531000ADF80B20ADF80D10CDE90056072302AA19
:105320000421204606F0CCFF7FBD70B515000C4669
:1053300003D0D0F82401206008E0002070BD204692
:1053400000F002F92089A84203D020680028F6D195
:1053500070BD012070BD000008B1002070470148F9
:1053600000687047D43800202DE9FF410F781546BA
:105370000024B0F800214E1DBC460E2F74D00BDC6B
:10538000A7F102070B2F15D2DFE807F01C142E142B
:1053900038144B145C146300182F6FD006DC102FE8
:1053A00070D0122F7FD0162F04D181E0522F68D0F9
:1053B000D22F66D0614646A0FEF78CFE04B0204690
:1053C000BDE8F081B1F80110B0F802218A4202D99B
:1053D000A0F8001101E0A0F8002103241C70B0F82F
:1053E0000001A3F80100E9E71C46B1F8033000937F
:1053F000B1F80130214603F08DFA10E01C46ED1F94
:10540000B1F80570B1F80360CB1DADB2CDE9025320
:10541000CDE90067B1F80130214603F0E7F9044611
:10542000CCE70C461946072D01D8022300E01023D3
:10543000B4F80350CDE900530296B4F8013003F0FC
:1054400049FCECE71C46B1F80130214603F05EFD53
:10545000E5E71C46B1F803300093B1F8013021466E
:1054600003F02EFBDBE7FFE71C46491C6D1E009195
:10547000C5F34F03214603F0D7FCD0E71DE001E060
:1054800011E01FE00C461946072D01D8022300E069
:105490001023B4F80350CDE900530296B4F801305C
:1054A00003F07EFBBBE700922A4603F0BBFDB6E7A4
:1054B00000922A4603F0A6FAB1E700922A4603F0CA
:1054C00063F9ACE700922A4603F07CFD76E7000022
:1054D000556E68616E646C65642041545420436F5E
:1054E0006D6D616E643A20253032582C2044415451
:1054F000413A20001CB50B4B5C68002C10D0B62341
:105500008DF8003005238DF801308DF80200ADF8DC
:105510000310ADF80520072300216A460420A047A8
:105520001CBD0000D438002010B580B2FFF714FF76
:10553000002808D0B0F80A21B0F80611BDE81040E4
:105540009120FFF7D7BF10BD10B501680A8882808F
:105550006AB14B88C3808C8804818C1DC4609B0514
:105560000CD5A2F11603038201F116030BE0002112
:10557000C1800181C1600182416106E0A2F108039E
:10558000038201F1080311444361016010BD70B54D
:10559000044600890D4600281BD0022A08D0E08866
:1055A00080050BD51022E068FDF7E6FE80B111E022
:1055B00009882046BDE8704000F00EB8084605F0A6
:1055C0002DFB002805D0E168A8890988884201D10F
:1055D000012070BD002070BD70B5044600890D46E5
:1055E000002810D0E0888005E06808D505F016FB9B
:1055F000002808D0E0688089A84203D004E0008831
:10560000884201D1012070BD002070BD2DE9F0411C
:10561000194C06461F4615468846042809D0082E10
:1056200028D12878C00720D0D4F800C01FE0304629
:10563000E047287878281DD1D4F804C0BCF1000FC9
:1056400008D03B462A4641463046E04704F058FB26
:1056500000280FD02468002C0CD03B462A46414637
:105660003046A446BDE8F0416047D4F804C0BCF120
:10567000000FDCD1BDE8F081CC3800202DE9F041ED
:105680000F461546044601461E46127828A0FEF72E
:1056900022FD042C0CD0082C48D13846FFF75CFEC4
:1056A000040043D029781E2909D0522919D01FE0BF
:1056B000287878283AD1BDE8F04100F011B9B4F863
:1056C0000A01A8B104F5867000F0D2FCB4F80A21F2
:1056D0000020A4F80A01B4F80611BDE8F041FFF774
:1056E00009BF32462946BDE8F0410023FFF73CBE22
:1056F000FB2E06D93246BDE8F041FB231948FEF7E0
:10570000EABC227822B1BDE8F0411748FEF7E3BCBD
:1057100001202070A4F8046132462946A01CFEF73F
:10572000CEF82046BDE8F04100F052B8BDE8F08167
:105730006174745F7061636B65745F68616E646CE3
:1057400065723A2074797065203078253032782C73
:10575000207061636B65745B305D2030782530327A
:105760007800000028290202DC28020210B5B0F8F7
:105770000001029CC01E80B21970A3F8012084426F
:1057800000D8204610BD1FB514468DF80800069AB3
:10579000ADF80930ADF80B20ADF80D1000200090E9
:1057A0000190072302AA0421204606F089FD1FBDAF
:1057B0003EB50C468DF80800ADF809200020009099
:1057C0000190032302AA0421204606F079FD3EBD84
:1057D0002DE9FF410446017824A0FEF77CFC2078E7
:1057E00001282DD1A078D22808D003202070B4F849
:1057F000060104B0BDE8F041FFF765BC18F0D4FC29
:105800000027E0B1B4F804010F2818D3B4F806015A
:1058100019F0D0F8002813D1B4F9080106F0FAFE07
:1058200005000CD0B4F80411A4F10A000E58696CFC
:10583000324611A0FEF74FFC686CB04202D92770C7
:10584000BDE8FF8102202070B4F803201749601DD5
:10585000CDE90006CDE90214B4F80401A1780F38AF
:1058600083B205F1340018F0A9FCE9E76174745FB4
:1058700072756E3A20256400415454205369676E56
:1058800065642057726974652C20444220636F75EB
:105890006E7465722025752C207061636B657420B1
:1058A000636F756E7465722025750000655B00027C
:1058B000FFF706BC0EB50B21CDE900238DF80810CB
:1058C000012302AA042106F0FBFC0EBD00B5FFF780
:1058D00043FD10B1B0F8000100BD172000BD00006D
:1058E00038B513480468002C20D0207803280CD148
:1058F000204600F0A5F840B16078002816D0B4F832
:105900000601BDE83840FFF7DEBB607800280DD007
:105910000020607007A00068009005484468002CD3
:1059200004D0022300216A460420A04738BD0000AD
:10593000D4380020B70000002DE9FE431F4616466C
:105940000D468046FFF708FD040005D0B4F80A01B3
:1059500020B19020BDE8FE835920FBE74046FFF7C9
:10596000AFFB88B102AB2A461D2120460097FFF706
:10597000FDFECDE90060032302AA0421404606F0A3
:105980009FFC060002D014E05720E3E7A4F80A5178
:1059900004F5867042460849044600F09BFB47F236
:1059A000305240F28241204600F080FB204600F059
:1059B00055FB3046CEE700002955000270B505467C
:1059C0000B480A4C0E46446004F06EF90848083053
:1059D000446017F079FF0748FFF768FB284600F09E
:1059E000B5F83046BDE8704000F0B6B899510002F5
:1059F000DC3800207D5600022DE9FE431E46154688
:105A00000F468046FFF7A8FC040014D04046FFF77D
:105A100057FB90B102AB3A461B2120460096FFF798
:105A2000A5FECDE90050032302AA0421404606F05A
:105A300047FCBDE8FE835920FBE75720F9E700004B
:105A40002DE9FC412F4E002707700446B0F80421D1
:105A50003346811CFFF788FC0546A0F57F40FF38E0
:105A600023D0042D0FD3307801280CD130790828A9
:105A700009D194F8FE0030B1B4F8060118F0CBF962
:105A800078B1012811D085B100970197B4F80601CB
:105A90002B463246042106F013FC3078032807D049
:105AA0002DE0B4F8060119F037FC0020BDE8FC81B8
:105AB000154AB4F80611B4F80001556875B1B5225D
:105AC0008DF8002004228DF80120ADF80210ADF809
:105AD0000400062300216A460420A847B4F8060102
:105AE00000F084F809480078C00708D0B4F8000135
:105AF0000022001D81B2B4F8060101F09BFB0120D9
:105B0000D4E70000B43C0020D4380020EC3800205A
:105B10000149486070470000D438002010B50246A3
:105B2000FFF71AFC002806D001214170BDE81040A3
:105B30001046FFF7C8BA10BD10B50C46FFF70CFCB5
:105B4000002801D0C0F8244110BD00000149486080
:105B500070470000C038002001498860704700008D
:105B6000C03800207CB5044600780A4602280ED1D1
:105B70006946104617F01FFDB4F80411A01F014438
:105B800008226846FDF7F8FB10B1002020707CBDAC
:105B9000B4F80411A4F10A000E58B4F9080106F093
:105BA00039FD050001D0012000E00020EE2207A110
:105BB000FDF780FE45B1761C6E6403202070B4F8BA
:105BC0000601FFF780FA7CBD72B6FEE76174745F70
:105BD0007365727665722E63000000000A68826544
:105BE0004968C1653521017002F07EBA70B505467D
:105BF00002F0BCFD04000BD02846FFF7ADFB0028E7
:105C000006D0E28AB0F800118A4202D9A0F8002139
:105C100070BDE18270BD0000F8B50446C0880E4634
:105C2000C0050BD506484568002D07D00020009020
:105C30000346024621893046A8472082F8BD00006D
:105C4000C03800207CB50E46C98804460D0B00D034
:105C50006D1C94F8FD2094F8FE00CDE9000294F844
:105C6000FF302A461048FEF735FAF088410502D584
:105C700094F8FE1079B1000502D594F8FF0060B1E8
:105C8000002D02DD94F8FD0048B194F8FD00A84213
:105C900007DA0C207CBD05207CBD08207CBD0F20D0
:105CA0007CBD00207CBD00006C2802023EB50C4685
:105CB0008DF808000699ADF80920CDE900130323FB
:105CC00002AA0421204606F0FBFA3EBD2DE9F0476A
:105CD0001F4615460C460646DDF8209013E0601975
:105CE00000EBD070401080464946B847864203D149
:105CF0001FFA88F0BDE8F087B04202D908F101042C
:105D000001E0A8F10105AC42E9DD49462846B84763
:105D1000B04201D3A8B2EDE749462046B847B042A9
:105D200000D2641CA0B2E5E70622FDF725BB0A6895
:105D3000026089888180704710B50C4900220346B3
:105D40003A24985C000900F060FA0870985C00F052
:105D50000F0000F05AFA48708C70C91C521C062AB9
:105D6000EFDB002001F8010C004810BDA93B00202A
:105D70000844008840BA70474218405C5378528803
:105D800052BA63F31F4242EA00607047130A435459
:105D9000491C89B242547047130E4354491C89B2BE
:105DA000130C4354491C89B2130A4354491C89B249
:105DB0004254704710B5012100F07EFBBDE8104051
:105DC000FDF782BD0149086070470000EC380020F3
:105DD0000268134602E08A4204D01268002AFAD10F
:105DE0000B600160704702E08A4205D010460268ED
:105DF000002AF9D10A6001607047006808B10020EC
:105E000070470120704704E0884201D101207047AB
:105E100000680028F8D170470268816832B1406894
:105E20000068884200D1086808B9704709B10120AC
:105E30007047002070470022C0E900210968816096
:105E40007047016851B141680A6881688A4203D18C
:105E500041600968816003E0826001E00121016026
:105E6000806870478168096881604268116000211C
:105E7000016070474FF0FF3351B107E002688A427A
:105E800003D1096801600020704710460028F5D151
:105E90001846704701490968C96A084790380020C8
:105EA00001490968096B084790380020FFF7F8BFDF
:105EB0007820FFF7EFBF10B50446806B06F049FC71
:105EC0002046BDE81040FFF7EBBF70B59820FFF704
:105ED000E1FF04000CD040F2111006F06DFC05004B
:105EE00008D098212046FDF735FA2046A56370BDFD
:105EF000002070BD2046FFF7D3FFF9E77047FFF79A
:105F0000CFBF5420FFF7C6BFFFF7CABF1420FFF76B
:105F1000C1BF2DE9F04106460020984617460C46C1
:105F20000546306005E02146304600F007F844445D
:105F30006D1CBD42F7DBBDE8F081000030B40268A3
:105F4000134607E08B4204D1024630BC04A0FEF7A2
:105F5000C3B81B68002BF5D10A60016030BC7047E4
:105F60006274737461636B5F6D656D6F72795F707E
:105F70006F6F6C5F667265653A20626C6F636B2051
:105F80002570206672656564207477696365206694
:105F90006F7220706F6F6C2025700000016819B15E
:105FA0000A6802600846704700207047FFF778BF14
:105FB0000C20FFF76FBF000000B589B00DF1080C91
:105FC00001900648006805928CE80B0004490968B6
:105FD0008A696946904709B000BD0000A4380020D6
:105FE0009038002013460A4601460A20FFF7E4BF16
:105FF00013460A4601460C20FFF7DEBF38B5154DA3
:10600000286890F8D00008B1552038BD4FF0FF3017
:10601000ADF80200ADF800000AE0684603F0C2FFE8
:106020000446C088162103F0EBFF204604F032FC42
:10603000684603F097FF0028EFD1012004F0DEFA54
:10604000054804F095F80028DFD12A68012182F87C
:10605000D01038BD840B02026C0C02020249406968
:106060000968496808470000903800200020704700
:1060700010B50446406928B103490968C9688847D2
:1060800000206061002010BD9038002070B5064DE2
:1060900004464069296889688847296860694968B1
:1060A000BDE87040084700009038002070B50446F5
:1060B000816005481546054A006821460368284660
:1060C0009847606170BD000090380020F93D0002E3
:1060D00001617047C0E9031270470000024940693E
:1060E0000968896808470000903800202DE9F041D0
:1060F0000746114815460E46046898463888B4F895
:10610000C02034F8BE1F00F035F93880628821883D
:10611000308800F02FF93080E288A188288800F0CC
:1061200029F9288062892189B8F8000000F022F955
:10613000A8F80000BDE8F081840B020270B50546A6
:1061400000680C4600B10120C32209A1FDF7B2FB93
:10615000206800B10120C42205A1FDF7ABFB6968EE
:10616000206808606068686000202060606070BD22
:106170006C6973745F62617369632E630000000071
:1061800070B5034600200246012513F802400021A5
:1061900005FA01F6344201D0401C80B2491CC9B254
:1061A0000829F5D3521CD2B2052AEED370BD70B5C2
:1061B0000446008917F01EFA2521B0FBF1F201FB1D
:1061C0001201CA0801F00705A25C0123AB401A4284
:1061D00001D0084670BDE18841432046BDE87040CB
:1061E000C1F3074102F084BA30B50446106820605C
:1061F00010790D4600F01F0020712046FFF7C0FF08
:10620000E08085EA1540208130BD0A2801DA30306F
:1062100003E00A38062802DA4130C0B270473F2056
:10622000704770B50446C08E88B0002822D0258FF4
:1062300094F83430A2268DF800601A268DF801609B
:10624000A6890A46ADF80400ADF8082004F11C0147
:10625000ADF80260ADF80650ADF80A30102203A880
:10626000FDF72DFBA1891C236A46A06800F064F9A4
:106270000020E08608B070BD06481144006800F2B6
:10628000FF30814203D901201860032070470020AD
:10629000704700000039002070B500F059F8264D15
:1062A00024486861D5F80001800742D5FDF708FE53
:1062B000224CA068224920F4F0400843A0602069E5
:1062C00020F080002061A06920F00040A061E0681B
:1062D00040F00400C4F80C00D5F800018007FBD49E
:1062E000606900F0C04540F2C970804740F64D003B
:1062F0008047810504D440F4007040F6013188479E
:1063000040F25160804740F60D0080470D4805433C
:106310006561206920F078402061BFF34F8F0A4803
:1063200001680A4A01F4E06111430160BFF34F8F35
:10633000FEE770BD001F1F0000001040002010404D
:1063400000280080C7E8948A0CED00E00400FA05FC
:106350000648016841F4700101600548D0F82C112D
:1063600041F08001C0F82C117047000088ED00E07A
:106370000000104019B1884201D208467047002A37
:10638000FCD09042FAD9104670470000F8B5144C82
:10639000A068806D28B9606820214269402090473C
:1063A000A0616068006A80476061012000906068B9
:1063B0004FF480652B46066900220A490AA0B047BF
:1063C000E061A068806D002808D1009060682B46CD
:1063D00000220669064907A0B0472062F8BD000008
:1063E0008C380020890100206374726C000000006A
:1063F0002D030020686F73740000000070B51D4607
:1064000006000C460DD0022E01D3032070BD20786B
:106410002968884205D10622211D6868FCF7ACFF77
:1064200008B1002070BDC5E90264EEE70248017AB8
:10643000491C0172704700006839002010B50446FD
:1064400003F084F8002010F077F910F0C1FC10F090
:10645000B7F808F057FA0CF029FB11F019FF15F006
:1064600009FD002C03D0BDE8104011F072B810BD3A
:1064700070B50446B0F1A53F19D0B4F1C33F16D0B2
:1064800001231A0205211D20FDF723FA0546B4F168
:10649000F23F09D0922206A10020FDF70BFA284610
:1064A000BDE87040FDF71ABA07202870F7E770BD05
:1064B0006474626C652E6300F8B505461B480E4691
:1064C0000021018010F04AF919F0B0FE16F0D8FB57
:1064D000684610F05BF90446009840F68C114FF4C2
:1064E000A567884201D3012000E00020862210A188
:1064F000FDF7E0F93A462146002016F0F7FB009838
:1065000004F5A561A0F5A56082B2012016F0EEFBAE
:1065100019F018FE3046FFF791FF002D04D02846F1
:10652000BDE8F840FFF7A4BFF8BD0000A43A002082
:10653000647469702E63000030B4040003D0A44674
:1065400030BC0420604730BC7047FEB51E4617467D
:106550000C46054602F00AF9002816D0011D6846CF
:10656000FFF769FC0CE06846FFF76BFC0189A1426C
:1065700006D1D0F804C033463A4629460420E04705
:106580006846FFF749FC0028EDD1FEBD1CB5A022EE
:106590008DF8002003228DF801208289ADF80220B9
:1065A0008DF804108189806805236A46FFF7C4FFCF
:1065B0001CBD30B587B00446A3250A988DF800505D
:1065C00018258DF80150A589ADF80410ADF8062006
:1065D0000146ADF80250ADF8083010220DF10A0066
:1065E000FDF76DF9A1891A236A46A068FFF7A4FF99
:1065F00007B030BD10B586B00446A1208DF800006C
:1066000016208DF80100A089ADF80410ADF8020045
:10661000ADF806201022194602A8FDF750F9A1890D
:1066200018236A46A068FFF787FF06B010BD000078
:106630002DE9F05F00249246894605462746264606
:1066400026E000BF05EB8400B0F9021035F9240004
:1066500016F0FEFF834605EB8800B0F9021035F90D
:10666000280016F0F5FFABEB000043F6FF718842FF
:1066700003DBA0F5FE40FF3806E043F6FF71C84299
:1066800002DC47F6FF710844074404EB4904761C1A
:1066900004EB0908D045D5DB97FBF6F0BDE8F09F89
:1066A0002DE9F04342780446901C89B00E468142A1
:1066B00006D009B0EA48BDE8F043921CFDF70EBDD4
:1066C0002178E8A0FDF70AFD2078DFF8A8834FF0D5
:1066D0000009122873D00CDC0E2811D004DC052828
:1066E0006ED0082851D179E00F2833D010284CD132
:1066F00097E0132850D03E286FD0572845D18FE11E
:10670000D8F80000A278454690F84610DAA0FDF7C8
:10671000E5FC6179E1A0FDF7E1FC2968A07881F84A
:106720004600E349B4F803000988884205D10020F7
:1067300003F064FF296881F8D0902968B4F8030059
:10674000B1F87A10884218D12868C26AAAB1016BE0
:10675000601D11E0D8F80020E178404682F846102C
:10676000D8F80020A188B2F87A20914205D10168BA
:10677000CA6A12B1096B601C9047D8F80020A2F8D1
:106780007A90D8F80010C1F82C90D8F8000090F852
:106790005C0001287ED04FE10325002719E0625BF1
:1067A000AD1C615B1046AD1C03F0AEFB48B190F828
:1067B00040208A420AD3511A80F8401008E035E0A0
:1067C00026E01146BBA0FDF789FC01E080F840906F
:1067D0007F1CA078B842E2DCD7E733E0B4F803507E
:1067E000284603F091FB0028CFD0A17849B9617900
:1067F0000029816902D041F4004101E021F4004107
:10680000816100F009FC0146284603F05FFCBCE70B
:10681000B4F8030003F078FB0028B6D007214174D8
:10682000B3E703F08BFE03F09DFEAEE7A0780028EF
:10683000ABD1B4F8030003F067FB0028A5D0617A60
:106840000174A2E7A0780A283AD035DC012837D0B5
:1068500004287DD0062898D134F8037F384603F009
:1068600053FB05006088ADF81400A088ADF8100057
:10687000E088ADF818002089ADF81C00A4F10304ED
:1068800083D007AB06AA04A905A8FFF72FFCB5F82B
:10689000563000E0CCE0BDF81800B5F85420BDF843
:1068A0001C108DE80F00BDF81030BDF814203946DB
:1068B0008E4803F05DFC68E712287ED029288BD132
:1068C000E078002888D1A7884FBBD8F8000045465B
:1068D000406918B9FFF7F9FA296848612868A8469D
:1068E0004569E5B1EF800220C5F81890A8742A46E2
:1068F0007F4905F11C00FFF7EDFBFFF7B7FB68636D
:10690000E0792872294604F1080016F057FE0520A8
:106910006874A0792874A0780A2804D012E0A088AE
:1069200000F078F931E7D4F80E10C5F88A10618AC2
:10693000A5F88E106169C5F89010218B05F18000D3
:10694000A5F89410E089A5F85200287C70B900E001
:1069500024E0D8F8001091F84410E973D8F800004A
:1069600005F1090190F8440000F002FA2846FFF70B
:10697000E3F90246E9885FA0FDF7B0FB03F07CFB7A
:10698000D8F8000090F85200C00694D5E98840F687
:10699000B832604803F0ECFBF7E60EE0E078002840
:1069A00043D1A08803F0B0FA00283ED0A17980F846
:1069B0008910012180F88810E7E620790828B1D2F3
:1069C000E17819B154A0FDF789FBDEE6B4F80520A3
:1069D000104603F099FA0546217958A0FDF77EFB91
:1069E0002079D8F80020C0EBC001114491F885103F
:1069F000E97369B12179D8F80000C1EBC1010844FD
:106A000000F18001D0F8860045F8090F488905E0BB
:106A1000D8F80000816B45F8091F808FA880B4E684
:106A2000608803F071FA0028B6D109B0BDE8F083A0
:106A3000B1B2204603F044FCB1B2204603F0F4FAB0
:106A40002078052806D1B4F8030003F05DFA08B1F8
:106A500003F020FF09B0BDE8F04303F0EBBD0000F8
:106A6000EC2A02024843493A4556454E543A2530ED
:106A700032780000840B0202434D445F434F4D5077
:106A80004C45544520636D6473206F6C64202575FC
:106A9000202D206E6577202575000000636D645FF2
:106AA000636F6D70207374617475732025750000B9
:106AB0006C0C02026863695F6E756D6265725F637C
:106AC0006F6D706C657465645F7061636B65742075
:106AD0006C6973747320756E7573656420636F6E73
:106AE0002068616E646C652025750000FC0C020254
:106AF0001D9F00024E657720636F6E6E656374693B
:106B00006F6E3A2068616E646C652025752C2025B7
:106B100073000000740C02026164762073657420B7
:106B20007465726D696E61742064756520746F2080
:106B3000636175736520307825780A00616476207A
:106B400068616E646C6572203078257820636F6EA2
:106B50006E656374656420746F20636F6E20686176
:106B60006E646C6520307825780A000010B5044604
:106B700004F03CF8204610BD13460A460146014881
:106B800003F0F6BAA40D02020246014803F0F0BA7F
:106B9000A40C020230B50C46054689B019461046D1
:106BA00000F062FA00280CD16946284616F0F4FC81
:106BB00004A9204616F0F0FC04AA6946024803F036
:106BC000D7FA09B030BD0000D40C0202014803F02E
:106BD000CFBA00009C0C0202014803F0C9BA0000C1
:106BE000540D0202014803F0C3BA0000B40D0202C2
:106BF000014803F0BDBA0000940C020208B50093EE
:106C000013460A460146024803F0B2FA08BD0000E6
:106C1000E80B020210B5034603F076F940B10621F5
:106C2000417413221946054803F0A2FA002010BD52
:106C30000021184603F0E4F9F8E700005C0C0202BA
:106C400038B54FF0FF30ADF80200ADF80000062572
:106C50000DE0684603F0A6F90446407C062806D0FD
:106C6000E1881322054803F083FA00B96574684689
:106C700003F078F90028ECD138BD00005C0C02026A
:106C80002DE9FF4F85B0DFF89C80DDE912698A4667
:106C90000A20002400EB06119B462746B8F80000A6
:106CA00003AA03F00FF8050001D001210FE05620E0
:106CB00009B0BDE8F08F00BF04EBC40219F8122040
:106CC000521E01FA02F03843641CC7B2E4B2B44267
:106CD000F2D30798CDE9000B02975346D8F8041079
:106CE0002846059A03F007F9C7B200240DE000BF5B
:106CF00004EBC40109EB4101E8191022891CFCF7DF
:106D0000DEFD1037641CFFB2E4B2B442F0D3064992
:106D10004046096881F844A02946039A03F074FDAF
:106D20000020C5E7840D0202840B020210B500F0BA
:106D30009BF9002804D1BDE81040024803F018BABE
:106D400010BD0000DC0C02020248006890F87C00D4
:106D500070470000840B02020449096851F8BE2FF5
:106D600002604A684260896881607047840B020251
:106D7000064A0028106804D050F83E2F0A60808828
:106D800002E0826B0A60808F88807047840B020269
:106D90000146014803F0ECB9C40C0202034909683A
:106DA0008A6B0260898F818070470000840B020229
:106DB00010B50446014604A0FDF790F9022C01D954
:106DC000012010BD002010BD6761705F6D69746D9A
:106DD0005F70726F74656374696F6E5F72657175F1
:106DE000697265645F666F725F73656375726974FB
:106DF000795F6C6576656C20257500007FB50DF1B7
:106E0000200C9CE870008DE8780013460A46014685
:106E1000024803F0ADF904B070BD00008C0D020211
:106E2000014803F0A5B90000940D020213460A467A
:106E30000146014803F09CB9D80B020213460A46EA
:106E40000146014803F094B9D00B02021CB5049C22
:106E5000CDE9003413460A460146024803F088F99A
:106E60001CBD0000E00B02020146014803F080B99E
:106E70009C0D02020448417A012903D1022141728A
:106E800018F0F4BA7047000068390020074810B5C0
:106E9000426C40F282210648FFF708F90448FFF7E8
:106EA000DDF8BDE81040FFF7E5BF000068390020BD
:106EB000003E002010B5002207490848FFF70AF9F4
:106EC000074840F28221426C0448FFF7EFF8BDE822
:106ED00010400248FFF7C2B88D6E0002003E00204D
:106EE00068390020014803F043B900008C0C02020D
:106EF000014803F03DB90000C00B0202014803F055
:106F000037B90000BC0D02020146014803F030B958
:106F10000C0D02020146014803F02AB9CC0C020212
:106F20000146014803F024B9640C020201460148FD
:106F300003F01EB97C0C02020246014803F018B9A6
:106F4000AC0C02022DE9F0410E46074602F0DCFFD0
:106F5000050010D0384600F055F804460246314688
:106F600008A0FDF7BBF8B44207D321463846BDE878
:106F7000F04103F0ABB80121F8E7AE74BDE8F04191
:106F800003F058BB6761705F726571756573745FFC
:106F900073656375726974795F6C6576656C2025BD
:106FA000752C2063757272656E74206C6576656CE5
:106FB000202575000146014803F0DAB84C0D0202A5
:106FC00013460A460146014803F0D2B8AC0D02024E
:106FD00013460A460146014803F0CAB8F80B0202FC
:106FE000F0B585B00DF1280C9CE8F0008DE8F800B4
:106FF00013460A460146024803F0BAF805B0F0BD50
:10700000080C020210B502F07FFF18B1BDE8104075
:1070100000F002B8012010BD10B1008B000401D4B3
:10702000012070470220704702207047074BC0EBD9
:10703000C0021B681A440B6842F8863F8B88938015
:107040000A460146024803F093B80000840B02028E
:10705000240D020200B101200249096881F87C0078
:1070600070470000840B0202034A136858621068DC
:107070008162002070470000840B02020149096808
:1070800048637047840B02021CB5049CCDE90034B0
:1070900013460A460146024803F06AF81CBD000088
:1070A000B00B02020A460146014803F061B8000035
:1070B000B80B02022DE9FE4F124E17468846814654
:1070C0001D46308802AA591DDDF830A002F0FAFDF5
:1070D000040014D0CDE9007543464A46716802F0B9
:1070E0000AFFC0B220442A465146FCF7E8FB21467D
:1070F0003046029A03F088FB0020BDE8FE8F562040
:10710000FBE70000A00B02022DE9FC47104D1646DC
:107110000F4680469946288801AA311D02F0D2FD0B
:10712000040013D000963B464246696802F0E3FE35
:10713000C0B2204432464946FCF7C1FB21462846EE
:10714000019A03F061FB0020BDE8FC875620FBE7B5
:10715000A80B020204490268096841F8BE2F426880
:107160004A60806888607047840B02020A460146C4
:10717000014802F0FDBF0000900B02022DE9FF5F05
:10718000144DDDE90E6B9046894682461F462888DD
:1071900003AA711D02F096FD040018D0CDF80080FE
:1071A000CDE901764B4652462046696802F0A3FEBF
:1071B000C0B2204432465946FCF781FB214628469E
:1071C000039A03F021FB002004B0BDE8F09F562095
:1071D000FAE70000880B02022DE9FF5F144DDDE99C
:1071E0000E6B9046894682461F46288803AAB11D29
:1071F00002F068FD040018D0CDF80080CDE90176DA
:107200004B4652462046696802F075FEC0B22044E3
:1072100032465946FCF753FB21462846039A03F0B1
:10722000F3FA002004B0BDE8F09F5620FAE7000012
:10723000980B02020AB944F2902213460A4601460C
:10724000014802F095BF0000040D020213460A46F1
:107250000146014802F08CBF140D020208B50B462E
:10726000009202460021024800F06AF808BD0000C2
:10727000340D02022DE9FC47184F8846914604461A
:10728000022101EB8801388801AA02F01BFD0600EB
:1072900007D043462246796802F02DFEC5B200248D
:1072A00013E05620BDE8FC8704EB440009EB4001E5
:1072B0000A7900924B8819F81020701908A102F081
:1072C0001AFE2D1D641CEDB2E4B24445ECD33146E8
:1072D0003846019A03F098FA0020E3E7440D0202D1
:1072E000313231002DE9F04F8DB01AAFDFF848C0D0
:1072F00097E8604FDCF800C0C0EBC0076744179CFC
:1073000087F8854008AF87E8004EDDF864C005AF18
:10731000CDF810C087E86001169E189DCDE90036B3
:1073200013460A4601460548CDE9024502F020FF12
:107330000DB0BDE8F08F0000840B02022C0D02029C
:107340002DE9FC471C460A9D174688468146F72BC7
:1073500026D9F720CDE900050B46012239464846DB
:1073600002F006FF002823D1F73CA4B2F73515E060
:10737000F72C01D3F72600E02646A01BCDE90065D7
:107380000404240C01D0002200E0022243463946C6
:10739000484602F0EDFE00280AD13544002CE7D122
:1073A0004346032239464846CDE9004502F0E0FE57
:1073B000BDE8FC8708B5009313460A46014602481B
:1073C00002F0D6FE08BD00007C0D02022DE9FC474C
:1073D00016460F46DFF88C8002EB860182469946FE
:1073E0000024B8F8000001AAC91C02F06BFC0500DB
:1073F00002D0002001220EE05620BDE8FC8700BF2D
:1074000000EB400319F813305B1E02FA03F121432D
:10741000401CCCB2C0B2B042F2D300943B465246BC
:107420002846D8F8041002F066FDC7B200240FE029
:1074300004EB440109EB41008188009143884278C4
:10744000E81909A102F057FD7F1D641CFFB2E4B2E8
:10745000B442EDD329464046019A03F0D5F9002005
:10746000CBE70000740D02023132320008B50B4642
:107470000092024600210248FFF762FF08BD0000AB
:107480003C0D02020A460146014802F071BE0000AE
:10749000BC0C02022DE9F843194F15460C468046F4
:1074A000F82923D90146F82301223846009502F035
:1074B0005FFE002821D1F83CA4B2F83514E0F82C86
:1074C00001D3F82600E02646A01B0404240C0095F6
:1074D00001D0002200E0022233464146384602F045
:1074E00047FE002809D13544002CE8D12346032269
:1074F00041463846009502F03BFEBDE8F8830000A7
:10750000640D02020A460146014802F031BE000045
:107510006C0D020208B5009313460A460146024864
:1075200002F026FE08BD00005C0D02020A4601467C
:10753000014802F01DBE0000C80B02021CB5049CED
:10754000CDE9003413460A460146024802F010FE17
:107550001CBD00001C0D020205490268096841F8C3
:107560003E2F82888A800146024802F001BE000058
:10757000840B0202840C02020249096881F845006A
:1075800070470000840B02022DE9FF4F87B01C46B4
:10759000DDE91A01DDE91865DDE91687DDE914A9E1
:1075A0009346FFF761FD00280DD1CDE9004ACDE9F2
:1075B0000259CDF81080CDE90576DDE907125B466A
:1075C000024802F0D5FD0BB0BDE8F08FF00B0202CF
:1075D000014802F0CDBD0000180C020208B500936E
:1075E00013460A460146024802F0C2FD08BD0000EB
:1075F000000C0202F0B587B00DF1300E9EE8F010DD
:107600008DE8F81013460A460146024802F0B0FD24
:1076100007B0F0BD100C02022DE9FF410446DDE980
:107620000A570C9E02F070FC002805D0007C30B197
:107630002046009504F067FC04B0BDE8F081039695
:107640008DE8A80013460A462146024802F090FD44
:10765000F2E70000B40C020208B59200921C0B463F
:10766000009201460722024802F082FD08BD000098
:10767000200C02022DE9F047DFF88CA48AB01E46E8
:107680001546884604280AD008287DD128781B286A
:107690000FD01D2808461FD001F068F81EE0297899
:1076A000782971D1DAF80040002C50D04146A0472B
:1076B0004DE0B5F801700C46DE1E3946A720D21CFD
:1076C00016F0EAF80246F61C0AB0B3B23946204674
:1076D000BDE8F047FEF739BF15F0F8FD040053D0C0
:1076E0002978771E4FF001090D2973D009DC0C2988
:1076F00015D2DFE801F014EF143114EE14ED148606
:1077000014F0172967D006DC0F2978D0112952D040
:10771000132904D167E1192972D01D295CD0FBA07F
:10772000FCF7DBFC28788DF808908DF80900002024
:1077300006218DF80A008DF80C108DF80B000090D2
:107740000190A089052302AA042104F0B9FD0AB022
:10775000BDE8F04700F0C8BCB5F8015004F0A4FA49
:10776000854200D22846E08284F81890DAF800506A
:1077700095B1AB208DF8000004208DF80100A089A0
:10778000ADF80200E08A00E0F7E1ADF8040006235E
:10779000A1896A460420A8474046FEF727FAE64832
:1077A00000788007D3D4E08A0022001D81B2A0892E
:1077B000FFF740FDCBE720780228C8D132462946A2
:1077C000204615F0ABFE69782046711A2944012243
:1077D0004988A7E00FE13CE14746B5F80180EA1C83
:1077E0004146A820F61E16F057F8F61C0246B3B222
:1077F00041463846FEF7A9FE84F85190A7E76AE1B2
:107800005BE120780C281BD011DC062801D0082869
:107810009DD132462946204615F033FE3146284692
:1078200000F0ACFF0146204618F020FF8FE7142837
:1078300033D024288BD16888A4F84C0025203AE165
:1078400095F80180B8F1070F07D26888A085A8884D
:107850002086E88860860D202DE1022716E000BF13
:10786000E91935F807904A8822868A886286C9888D
:1078700001A819F0EDF801A80090638E228E494608
:107880002046FEF796FE07EB080087B2B742E7D323
:1078900069782046711A695A43E095F80180002101
:1078A0000227A8F1020A0DE035F80790EA191FFA3D
:1078B0008AF349462046921C15F0D4FD07EB0800D8
:1078C000494687B2B742EFD3204613222AE002E0AE
:1078D00035E04CE009E120780E2814D0102824D09F
:1078E00028288BD1204600F07DFA218F6A1CA92020
:1078F00015F0D2FF02460837BBB2A189A068FEF797
:107900001BFE002135E101A9681C15F045FEA18D83
:1079100001AA00922046638E228EFEF74AFEA18DB8
:1079200020460B2218F0C2FE11E7204600F05AFA5A
:10793000BBB2218F6A1C204615F094FDE1E74FF0A1
:1079400004094FF6FF78012704F11C0A09E0E81941
:10795000E95B40885346804602462046FEF74AFED1
:107960004F44B742F3DB204641460322DAE768780A
:107970000427022800D11227F01BB61E1FFA86F832
:1079800035F800A00026AD1C22E000BF35F80690B7
:10799000042F05EB060021D006A9801C15F0FCFD84
:1079A000A4228DF8002014228DF80120A289ADF8C0
:1079B000022006A9ADF8049010220DF10600FBF795
:1079C0007EFFA18916236A46A068FEF7B5FD3E44F6
:1079D0004645DBDB204651460922A3E7418806A83D
:1079E00019F036F8DCE72078182803D0262801D0D3
:1079F0002C2899D1ACE0761E2078B6B2761DBFB2A5
:107A0000122815D02A288FD1218F628F6B1CAA20B3
:107A1000009715F04FFF020004D0B3B2A189A0680F
:107A2000FEF78AFD3A462921204618F007FE8EE629
:107A3000218F628F6B1CA620009715F03BFF020080
:107A400004D0B3B2A189A068FEF776FD3A461121B1
:107A5000EAE720781A2812D01C281CD02E2814D02F
:107A60003228E4D1204600F0BDF9324629462046AE
:107A700003F0EAF800287FF461AF7E2179E0B5F8E1
:107A800003001D226087192110E0B5F803002F22A2
:107A900060872D210AE032462946204603F0D4F8BB
:107AA00040B1B5F803001D2260871B21204618F065
:107AB000ECFD4CE62120207049E620781E2847D0B6
:107AC000202845D0222802D03028B0D140E02046DE
:107AD00000F088F9D1E720781628A8D1BBB26A1C3B
:107AE0000021204615F0BEFC32E029790A292BD16D
:107AF0002078082830D021DC022829D0042827D07B
:107B0000062821D128E00000F038002041545420FC
:107B100048616E646C65722C20756E68616E646C71
:107B2000656420726573706F6E736520747970651B
:107B30002030782530327800EC3800200A2807D031
:107B40000C2805D014280CD0204600F0BCFAFEE525
:107B5000204600F047F9D4E6E18D2046FEF761FBB0
:107B6000F6E7204600F03EF9A08D218E8842F2D142
:107B70000A212046FEF70AFDE9E50AB0BDE8F087D4
:107B800010B50446084615F0D7FB18B1017819B1B5
:107B9000952010BD562010BD1F218460017000F09B
:107BA000A3FA002010BD70B505461446084615F02E
:107BB000C3FB18B1017819B1952070BD562070BD76
:107BC00085606188A288914203D10021FEF7DEFC26
:107BD00007E0491C8185A188C1850921017000F059
:107BE00083FA002070BD2DE9F04107461D46164678
:107BF0000846DDF8188015F09FFB040004D02078BB
:107C000020B19520BDE8F0815620FBE7A760A6854E
:107C1000E585012084F85000002565831022414647
:107C200004F11C00FBF74BFEE5860720207000F0F6
:107C30005BFA0020E6E72DE9F04107461D461646AF
:107C40000846DDF8188015F077FB040004D0207892
:107C500020B19520BDE8F0815620FBE7A760A685FE
:107C6000E585012084F85000A4F81A80414604F10B
:107C70001C0018F0EDFE0020E0860720207000F0C8
:107C800033FA0020E6E770B506461C46154608465E
:107C900015F052FB18B1017819B1952070BD56202E
:107CA00070BD86608585C485002180F85010C1862E
:107CB0000521017000F018FA002070BD10B50446CF
:107CC000084615F039FB18B1017819B1952010BD9F
:107CD000562010BD0121846081854FF6FF72C28558
:107CE00001700021418300F0FFF9002010BD70B544
:107CF00005461646084615F01FFB040003D0207801
:107D000018B1952070BD562070BD0120A560A085DA
:107D10004FF6FF70E085002060831022314604F1A9
:107D20001C00FBF7CCFD0320207000F0DDF90020E3
:107D300070BD70B505461446084615F0FDFA18B139
:107D4000017819B1952070BD562070BD0121856064
:107D500081854FF6FF71C185032100F81A1B21466A
:107D600020F8024B18F074FE00F0BEF9002070BD40
:107D700010B50446084615F0DFFA18B1017819B1BC
:107D8000952010BD562010BD1D218460017000F0AB
:107D9000ABF9002010BD70B506461C4615460846D6
:107DA00015F0CAFA18B1017819B1952070BD5620A6
:107DB00070BD86608585C4850B21017000F094F943
:107DC000002070BD00B500F0D1FC10B1027E012A88
:107DD00003D017200880952000BDC08A08800020AD
:107DE00000BD000010B5002101700446818904A087
:107DF000FCF773F904F16000BDE81040FEF738B9F4
:107E00004741545420636C69656E742074696D65D4
:107E10006F75742073746F702C2068616E646C656C
:107E2000203078253032780070B5042817D11078CA
:107E3000052810D1B2F80350284600F097FC040042
:107E400009D01F2100F03FF90549002041F8250025
:107E50002046FEF72BF8BDE8704000F045B970BD34
:107E6000F4380020064910B504484860084601F07F
:107E70001BFFBDE810400348FDF70EB9297E000244
:107E8000F83800207576000210B515F01FFA0028AA
:107E900002D0007808B1002010BD012010BD10B53F
:107EA0000C460146104600F061FC002806D04C60EC
:107EB0000B81BDE81040001DFDF78ABF10BD2DE904
:107EC000F0410646DDE906781C461546084615F0E1
:107ED00033FA20B1017821B19520BDE8F081562018
:107EE000FBE786600587878744873121C0F840809B
:107EF000017000F0F9F80020EFE770B50546144670
:107F0000084615F019FA18B1017819B1952070BD1D
:107F1000562070BD856004872721017000F0E4F8C9
:107F2000002070BD0023AFF3008070B506461C46EC
:107F30001546084615F000FA18B1017819B19520D8
:107F400070BD562070BD8660058744872921017069
:107F500000F0CAF8002070BD0023AFF3008070B5B8
:107F600006461C461546084615F0E6F918B1017894
:107F700019B1952070BD562070BD86600587448775
:107F80001121017000F0B0F8002070BD70B50646F8
:107F90001D461446084615F0CFF918B1017819B1FD
:107FA000952070BD562070BD8660A0F84440152114
:107FB0008564017000F098F8002070BD70B505462A
:107FC0001446084615F0B8F918B1017819B1952092
:107FD00070BD562070BD85600487002141870F2148
:107FE000017000F081F8002070BD2DE9F0410746D6
:107FF0001D4616460846DDF8188015F09DF9040068
:1080000004D0207820B19520BDE8F0815620FBE710
:10801000A760A685E58526866586002060831022F8
:10802000414604F11C00FBF74AFC1320207000F0CD
:108030005BF80020E8E72DE9F04107461D461646AB
:108040000846DDF8188015F077F9040004D0207890
:1080500020B19520BDE8F0815620FBE7A760A685FA
:10806000E58526866586A4F81A80414604F11C0041
:1080700018F0EEFC1320207000F036F80020E9E73D
:108080000149086070470000F03800202DE9F041F8
:1080900006461C4615460846069F15F04DF920B1C8
:1080A000017821B19520BDE8F0815620FBE786607C
:1080B00005878487002141871B210764017000F038
:1080C00013F80020EFE770B5044600780D4600284D
:1080D00008D02046FFF786FE29462046BDE87040BE
:1080E000FEF754BA70BD00002DE9F04FC84889B0C2
:1080F0000468002C79D0A089FCF7C8FFB0B12278C1
:10810000217EC4A0FBF7E9FF207E01286DD194F801
:10811000510000254FF01E0970B184F85150A0891C
:108120008DF8089000950123019594E0A08909B08D
:10813000BDE8F04FFCF7ADBF2078172801D02B2801
:1081400018D1204614F0A8FEA18FC01E884211DA73
:10815000204614F0A1FE0246A18FBCA0FBF7BDFF94
:108160002046FFF73FFE09B02046BDE8F04F0D2145
:10817000FEF70CBA606D04F04DFA06462178BEA0F9
:10818000FBF7ABFF94F800C00423022008220E275F
:108190004FF420514FF0100A4FF00C0BBCF1360F8A
:1081A0003FD2DFE80CF03E1B3E233E413E443E4BB7
:1081B0003E5B3E643E673E6A3E6C3E913EA43EA6F8
:1081C0003EAA3EAC3EAF3EB13EB93EDB3EC13ECBE9
:1081D0003ED33EE83EF03EA83EF83EFD2070E08DE6
:1081E0000090A38DA289102052E01AE023700D4662
:1081F000618B39B1ADF81C10E18D07AA0091CDE972
:10820000012008E003A904F11C0015F0C5F9E18D77
:1082100003AA8DE80604A38DA28929460620FDF74E
:108220006DF809B0BDE8F08F0620207000E02270E4
:1082300009B02046BDE8F04F15F0A1BA2270A08920
:10824000A18DE28D8DF80830ADF80910ADF80B2046
:1082500000950523019502AA042132E084F800B0BC
:10826000E08D0090A38DA28942F602010FE02770F5
:10827000228E5CE084F800A058E012205FE0142019
:108280002070618B39B1E08D0090A38DA289082008
:10829000FDF779FAC5E7A689A18DE08D8DF8082054
:1082A000ADF8091004F11C03ADF80B000DF10D0140
:1082B000184615F071F90095152302AA04213046DD
:1082C000019503F0FDFFACE716202070B4F84410D0
:1082D0004FF6FF72A589A06C02EA4101CDE90001C9
:1082E00001238DF8087002AA04212846E9E7182026
:1082F0002DE01A2040E032203EE01C203CE084F8D3
:10830000009042E0202000E02220207009B02046AA
:10831000BDE8F04F15F02EBA2420207009B0204699
:10832000BDE8F04F15F06BBA28202070228FA1898C
:1083300009B00A20BDE8F04FFDF73ABA2A202070B4
:1083400009B02046BDE8F04F15F044BA2C2020704B
:1083500009B02046BDE8F04F15F05CBA2620207029
:1083600004F14E000090B4F84C20A18902231220A1
:10837000FDF79CFC55E72E20207009B02046BDE893
:10838000F04F15F00CBA3020207009B02046BDE83F
:10839000F04F15F0FFB915F007FF002893D000E06B
:1083A00010E034202070B06D216C01AB0091384A90
:1083B00083E81500A38F228FD22106F1480015F023
:1083C000FDFE2EE736202070B16DB4F80C90228FA0
:1083D000B4F83C80D223276C8DF81030ADF8112012
:1083E000059104F158000DF1140A06A915F0E3F8FF
:1083F0008DE8800D032304AA0421484603F0A8FF5A
:1084000025702046FFF7EEFCB06D401CB06508E714
:10841000F43800202D2068616E646C655F706572B1
:108420006970686572616C5F6C6973742C206D741F
:10843000752073746174652025752C20636C6965E3
:108440006E7420737461746520257500676174749F
:108450005F636C69656E745F72756E3A2076616CED
:108460007565206C656E202575203E204D54552085
:108470002575202D20330A00676174745F636C6971
:10848000656E745F7374617465202575000000006B
:10849000DD5B00022DE9F04707461D46164689467A
:1084A0000846DDF8208014F011FF0446007850B92A
:1084B000484616F041FC014660650AA0FBF70DFE38
:1084C000606D002802DA9520BDE8F087A760268756
:1084D000A5873320C4F840802070FFF705FE0020F8
:1084E000F2E700006C655F6465766963655F6B65E4
:1084F00079206973203A307825780A0070B50A4EE1
:108500000546002456F82400A84207D1A98907A0EF
:10851000FBF7E3FD7F212846FFF7D5FD641C24040B
:10852000240CEFD070BD0000F438002047415454B3
:1085300020636C69656E742074696D656F75742055
:1085400068616E646C652C2068616E646C652030B7
:1085500078253032780000002DE9F04106461C46AF
:1085600015460846069F14F0E7FE20B1017821B1B8
:108570009520BDE8F0815620FBE78660058784875B
:10858000002141872B2107640170FFF7ADFD00201A
:10859000EFE770B506461D461446084614F0CCFEBB
:1085A00018B1017819B1952070BD562070BDE9074A
:1085B00004D0A179C90601D4982070BDA90704D5BB
:1085C000A179890601D4992070BD86606188818572
:1085D000A188C185A0F84E5023210170FFF784FDCA
:1085E000002070BD1CB5049CCDE90034002300F0D0
:1085F00001F81CBD2DE9F0410646DDE906781C4670
:108600001546084614F098FE20B1017821B1952056
:10861000BDE8F0815620FBE78660058787874487A1
:108620002D21C0F840800170FFF75EFD0020EFE7CC
:108630001CB5049CCDE90034002300F001F81CBDFA
:108640002DE9F0410646DDE906781C461546084648
:1086500014F072FE20B1017821B19520BDE8F081BF
:108660005620FBE786600587878744871921C0F875
:1086700040800170FFF738FD0020EFE72DE9F04161
:1086800006461C4615460846069F14F055FE20B1C6
:10869000017821B19520BDE8F0815620FBE7866086
:1086A00005878487172107640170FFF71DFD0020EF
:1086B000F1E7F8B51E4615460F4614F007FE040014
:1086C00003D0207818B19520F8BD5620F8BD20467B
:1086D00014F0E2FBC01EA84201DA9720F8BD009614
:1086E000A1892B463A465220FDF7E0FAC0B2F8BD08
:1086F000F0B5002423460125C65C002205FA02F7E6
:108700003E4207D08C4203D102EBC300C0B2F0BDA1
:10871000641CA4B2521CD2B2082AEFD35B1CDBB299
:10872000052BE9D3FF20F0BD10B500214FF4FA521C
:1087300000BF491C9142FBDB80B214F041FD00BF39
:1087400017F0A4FD0028FBD1BDE8104017F090BD44
:1087500003480449401A0449096808587047000052
:1087600000210002002000020030000208B10020B9
:108770007047014800687047F43800204278891A31
:108780000844B0F8030070472DE9FC41164C182747
:108790001E46D4F808C0BCF1000F11D04978D9B1F9
:1087A0002178002579B1FCF717FC237862882570C1
:1087B000658002B039463046BDE8F04115F072B828
:1087C00003230022F5E7002300950195B0F8060188
:1087D00002221946E04701E0FCF7FEFB1920307049
:1087E0000120BDE8FC810000C03800202DE9FF4FCA
:1087F00087B01D46DDE914738946824600264FF096
:10880000060B0124B0463A4629463248FBF762FC83
:10881000BD4204D81DB1DAF82401009046E00123DE
:1088200051E06846FCF790FEBDF8080008B1A84288
:108830003CD3B8423DD8CEB158B14FF42051684630
:10884000FCF7CAFE28B942F601016846FCF7C4FEEF
:1088500060B1414620A0FBF73DFC29F80480A41C30
:10886000A4B209990026201D884222D8BDF808002C
:10887000B0F100081AD068461599FCF7ADFEA8B112
:10888000BDF810201698824210D105991798FAF772
:1088900073FD58B9BDF8081016A0FBF71BFCBDF816
:1088A000081029F80410A41CA4B20126009800287E
:1088B000B7D1012C06D0072189F8001020460BB053
:1088C000BDE8F08F0A232A465946484614F0EAFFCD
:1088D000F5E7000024280202456E64206F662067D9
:1088E000726F75702C2068616E646C65203078251D
:1088F00030347800426567696E206F662067726F5A
:1089000075702C2068616E646C6520307825303479
:10891000780000002DE9F04F87B09346109F8846FD
:1089200081461E464FF0040A012400253A461946A6
:1089300028A0FBF7CFFBBE4204D81EB1D9F8240112
:10894000009033E001233EE06846FCF7FDFDBDF8F2
:10895000080070B3B8422CD8B04227D3BDF8061037
:10896000880501D5102000E00220012C02D9A84280
:1089700021D109E008D10546880501D5022100E092
:10898000012188F8011002246019801C584510D874
